:020000040000FA
:10200000022AF20221F5FFFFFFFFFFFFFFFFFFFFA4
:10201000FFFFFFFFFFFFFFFFFFFFFFFFFFFFFFFFD0
:10202000FFFFFFFFFFFFFFFFFFFFFF022776FFFF1E
:10203000FFFFFF022667FFFFFFFFFFFFFFFFFFFF1E
:10204000FFFFFF02279CFFFFFFFFFFFFFFFFFFFFD8
:10205000FFFFFF022135FFFFFFFFFFFFFFFFFFFF35
:10206000FFFFFFFFFFFFFFFFFFFFFF022641FFFF14
:10207000FFFFFFFFFFFFFFFFFFFFFFFFFFFFFFFF70
:10208000FFFFFF022189FFFFFFFFFFFFFFFFFFFFB1
:10209000D232D23201FF01010503010F10FEFF8E83
:1020A0004F00000000004E00000000FF000000FF95
:1020B00000018813000059815A0020FD0002000031
:1020C000453B000000000000173C0000000000003D
:1020D0000000000000000000000000000000000000
:1020E00000000000000000000000010000000000EF
:1020F000000006FFFF0102002C11000000E803FFB2
:10210000FFA211E80364006400B8010202000000AD
:10211000040502070101051E02051E020A0A010547
:10212000B80B02803E0102FEFFE8030A0500010130
:10213000000A1401E0C0E074F212240CA2AFE433F0
:10214000F508D2AFAFA7AEA1EE5F5410600612380B
:10215000CF75A1EFEE5F540860081238D575A1F76E
:102160008023EEA2E092F0EFA2E082F0501790619F
:1021700098E0F890097EE0C398A2D265D03350026F
:10218000E8F075A1FEE5088063C0E074F212240C4B
:10219000A2AFE433FED2AF9061A4E0F8759B00E5F6
:1021A0009158540860087591F712391D8023E59104
:1021B00058541060087591EF1239238014E591A2EC
:1021C000E092F0E8A2E082F05007E0C2E0F0123ABC
:1021D0006D9061A3E0F8E5E9585404600E123A43AB
:1021E00075E9FB906193E0A2E640F2EEA2E092AFC7
:1021F0007F0102246BC0E074F212240CA2AFE4331E
:10220000FED2AF9061A5E0F8E5BF585404600675B2
:10221000BFFB123A8580D4C3E498F8E499F91222FE
:10222000588026C3E49AFAE49BFBE920E7E91222EE
:1022300058E498F8E499F922C3E498F8E499F9127B
:102240002258E498F8E499F9C3E49AFAE49BFB2253
:10225000EB20E7CFE920E7E0B90010BB0008E88AEF
:10226000F084F8AAF022E4FBC8FA22EB70227B107B
:10227000C833C8C933C9335007C39AC3DBF28006D9
:102280009A50012ADBEAC833F4C8C933F4C9FA22E8
:1022900075F008E4C833C8C933C933C99AC99B501B
:1022A00004C92AC93BD5F0ECFBC833F4C8E4C9FA29
:1022B00022080808EAC0E0EBC0E086F0E7A4FA18BC
:1022C0000986F0E7A42AFA180986F0E7A42AFA1882
:1022D0000986F0E7A42AFA1986F0E7A4FBE5F02ABC
:1022E000FA190886F0E7A42BFBE5F03AFA190886FC
:1022F000F0E7A42BFBE5F03AFA18180986F0E7A4FA
:10230000C5F02BFBE43AFA1908E7C5F0C6A426F697
:10231000E5F03BFBE43AFA1886F0E7A4F6E5F008AE
:1023200026F6E43B08F6E43A08F6D0E0FBD0E0FA03
:1023300022E4CFC0E0E4CEC0E0E4CDC0E0E4CCC015
:10234000E075F020E626F608E633F608E633F608F0
:10235000E633F6181818EC33FCED33FDEE33FEEFE0
:1023600033FFC3EC9709ED9709EE9709EF97191919
:1023700019400FFFEC97FC09ED97FD09EE97FE1948
:102380001906D5F0BFECF709EDF709EEF709EFF7FD
:10239000191919D0E0FCD0E0FDD0E0FED0E0FF221A
:1023A0002518C582C0E0E51934FFC583C0E0E518F3
:1023B000C3958224F810AF08858319858218800898
:1023C000858319858218D2AFCEF0A3E520F0A378DB
:1023D00008E608F0A3DEFAEFF0A3E58124FAF8E6B8
:1023E00008F0A3E608F0A3E608F0A30808E608F062
:1023F000A3E608F0A315811581D0E0FED0E0F81522
:102400008115811581E8C0E0EEC0E022C0D025181A
:10241000C582C0E0E51934FFC583C0E0E518C39567
:102420008224F310AF08858319858218800885837C
:1024300019858218D2AFC8F0A3E9F0A3EAF0A3EBA4
:10244000F0A37908E709F0A3D8FAECF0A3EDF0A324
:10245000EEF0A3EFF0A3D0E0F0A3D0E0F0A3D0E043
:10246000F0A3E520F0A3E5F0F0A3228519838518F9
:1024700082E0C0E0A3E0F9A3E0FAA3E0FBA37808C0
:10248000E0F608A3DFFAE0FCA3E0FDA3E0FEA3E092
:10249000FFA3E0C0E0A3E0C0E0A3E0F5D0A3E0F537
:1024A00020A3E0A3F5F010AF08858319858218807A
:1024B00008858319858218D2AFD082D083D0E0F806
:1024C000D0E032122B6DB90003022502E4900381A3
:1024D00078C6790F8002F0A3D8FCD9FA7A467B122D
:1024E00090209478A279018015E493A3AD82AE8305
:1024F0008A828B83F0A3AA82AB838D828E83D8E9F4
:10250000D9E77582B37583C9740512287D7582ADCC
:10251000758345740012287D75F0108E1A8F1B8507
:10252000821F85831E851882851983E0CEA3E0CFA4
:10253000851F82851E83EBC9EAC8EDCBECCAC3E8D0
:1025400033C8E933C9EA33CAEB33CBC3EA9EF51D7E
:10255000EB9FF51CB35004AB1CAA1DEC33CCED3340
:10256000CDD5F0DAAE1AAF1B22D083D082ECC0E01A
:10257000EDC0E0E493A3FCE493A3FDED4C600D12E9
:102580002684EC24FFFCED34FFFD80EFE493A3FCF4
:10259000E493A3FDED4C600D122721EC24FFFCED2C
:1025A00034FFFD80EFD0E0FDD0E0FCE493A3C0E079
:1025B000E493C0E022D083D082E9C0E0E493A3C3D7
:1025C00086F0C5F095F0F908E493A386F0C5F09580
:1025D000F0700BE493A3C3994005E9048002A3E4DF
:1025E00075F002A42582F582E5F03583F583D0E00D
:1025F000F9E493A3C0E0E493C0E022851983851831
:1026000082E0A3FEE0A3F5207808E0A3F608DFFA55
:10261000E0A3FFE0A3C0E0E0A3C0E0E0A3C0E0E0EF
:10262000A3C0E0E0A3C0E010AF088582188583193D
:102630008008858218858319D2AFD083D082022882
:1026400083C0E074F212240CE589A2E54006E58916
:10265000A2E4500312379790063CE004F07589001D
:10266000C2C57F0102246BC0E074F212240CE58B1A
:10267000A2E0500312379790063DE004F0758B00FE
:10268000C2E880DEC0E0C3E4939608740193961814
:10269000400FE49366700808740193661870007028
:1026A00019A3A3C3E49396087401939618A3A340B7
:1026B0000DD0E0D0E0D0E00225A5A3A3A3A3A3A35F
:1026C000D0E0227404800474028000CCC0E0EDC02D
:1026D000E0E518C39CCCAD1950011D10AF068C1855
:1026E0008D1980068C188D19D2AF1227E1D0E0FD2C
:1026F000D0E0FC2274028000CCC0E0EDC0E0E51820
:10270000C39CCCAD1950011D10AF068C188D1980DB
:10271000068C188D19D2AF1227BFD0E0FDD0E0FC97
:1027200022C0E0C0F088F0E493667008087401935A
:1027300066187000A8F0A3A3700BD0F0D0E0D0E032
:10274000D0E00225A5A3A3D0F0D0E022D083D08290
:10275000CCC0E0E493A360061228211470FAE4933D
:10276000A3600612294F1470FAD0E0FCE493A3C0D2
:10277000E0E493C0E022C0E0C0D0E8C0E0E9C0E0FF
:10278000A9A8D2AFC2C7E9A2E7E433F8E9A2E79269
:10279000AFD0E0F9D0E0F8D0D0D0E032C0E074F2B1
:1027A00012240CA2AFE433FED2AFC2C0E5D1A2E442
:1027B000500312383FEEA2E092AF7F0102246BCAB1
:1027C000C0E0E493A3C582CCC582C583CDC583F0A8
:1027D000A3C582CCC582C583CDC583DAE5D0E0CA66
:1027E00022CAC0E0E0A3C582CCC582C583CDC58323
:1027F000F0A3C582CCC582C583CDC583DAE6D0E01F
:10280000CA22C008C3E096F50808A3E0964208086B
:10281000A3E096420808A3E09645087001D3D008CB
:1028200022C0E0E493A3D39C5010E493A3C39C4044
:102830000AD0E0D0E0D0E0022769A3A3A3D0E02231
:102840007009080808226016181818C6C333C6088D
:10285000C633C608C633C608C633C6D5E0EA22C5A5
:10286000822518C582C583351910AF07F5198582F1
:10287000188007F519858218D2AFC58322C09FF54D
:102880009FE473D09F22D083D082C09FE493C0E0A6
:10289000740193C0E0740293F59F222518F582100D
:1028A000AF08F518400C15198008F51840021519E5
:1028B000D2AF8519832200C0D0251810AF08F518B3
:1028C000500C05198008F51850020519D2AFD0D068
:1028D000227404800A74038006740280027401C0AA
:1028E000E0F40412289BD0E0122B2F22BB0102E758
:1028F00022C082C08389828A83BB0003E08002E415
:1029000093D083D082226016080808C6C313C61865
:10291000C613C618C613C618C613C6D5E0EA2225C4
:1029200018F8E43519F9222518FAE43519FB22259F
:1029300018FCE43519FD22C3E0C696F608A3E0C6EC
:1029400096F608A3E0C696F608A3E0C696F622C05F
:10295000E0E493A36C7009D0E0D0E0D0E0022769F6
:10296000A3A3D0E022251810AF08F518400C1519C4
:102970008008F51840021519D2AF22E066701008E1
:10298000A3E066700A08A3E066700408A3E066226C
:10299000E76670100809E766700A0809E7667004C0
:1029A0000809E76622C3E09608A3E09608A3E0962C
:1029B00008A3E096A2D265D03322C3E096F008A324
:1029C000E096F008A3E096F008A3E096F022C3E6B4
:1029D00097F60809E697F60809E697F60809E697D4
:1029E000F622C3E4939608740193960874029396B2
:1029F000087403939622E627F60809E637F60809D5
:102A0000E637F60809E637F622E026F608A3E036B0
:102A1000F608A3E036F608A3E036F622700422603A
:102A20000D18C6C333C608C633C6D5E0F41822E075
:102A300046F008A3E046F008A3E046F008A3E0460D
:102A4000F022E657F60809E657F60809E657F608B1
:102A500009E657F622E056F608A3E056F608A3E08A
:102A600056F608A3E056F622E056F008A3E056F02A
:102A700008A3E056F008A3E056F022E026F008A3F1
:102A8000E036F008A3E036F008A3E036F022E6478F
:102A9000F60809E647F60809E647F60809E647F6A4
:102AA00022E4C396F608E496F608E496F608E4965F
:102AB000F622600D08C6A2E713C618C613C6D5E0F5
:102AC000F322C6F4C608C6F4C608C6F4C608C6F49F
:102AD000C622C3E7960809E7960809E7960809E7BA
:102AE0009622C3E09608A3E09608A3E09608A3E028
:102AF000962275D00075813F751881751903000203
:102B000024C3600C08C6C313C618C613C6D5E0F4A8
:102B100022E6F008A3E6F008A3E6F008A3E6F02218
:102B2000E0F608A3E0F608A3E0F608A3E0F622CA60
:102B3000C0E0E6F0A308DAFAD0E0FA22C582251850
:102B4000C582C5833519C58322E8F0A3E9F0A3EA5D
:102B5000F0A3EBF022E0F8A3E0F9A3E0FAA3E0FB96
:102B600022E0FAA3E0FBA3E0FCA3E0FD22E5C754CA
:102B7000F84401F5C77901222518F582E43519F5E5
:102B80008322C2AF75D69F0200002212288638B277
:102B900003122886BBB203122886D7B203122886F6
:102BA00008B30312288647B30312288648B40312D9
:102BB0002886F7B40312288684B703122886DDB866
:102BC0000312288670B903122886FAB903122886E0
:102BD00060BA031228869FBA0312288615BB031217
:102BE00028866ABC031228860DBD0312288625BDDF
:102BF00003122886C8BD0312288652C003122886F5
:102C0000F3C10312288611C2031228860080021223
:102C100028865A8002122886C480021228864D8196
:102C20000212288609820212288651820212288600
:102C30008C8202122886E282021228864A830212BD
:102C40002886CE8302122886E783021228860C8407
:102C5000021228864A840212288699840212288643
:102C6000C28402122886118502122886BD850212AE
:102C70002886858602122886EA8602122886B78769
:102C800002122886FD8702122886198802122886D9
:102C90004B8802122886F38902122886CA8A0212F9
:102CA0002886F68A021228862C8B021228864D8BE3
:102CB000021228865C8B02122886678B02122886F5
:102CC0001B8C021228868E8C02122886008D02121E
:102CD0002886088D02122886838D02122886DC8DB4
:102CE000021228861F8E02122886B19002122886B0
:102CF000F791021228868794021228866F95021295
:102D00002886A295021228866496021228861397B6
:102D1000021228865B9702122886BD970212288627
:102D2000E297021228865A9802122886E298021226
:102D300028864699021228862B9A02122886509AD3
:102D400002122886719B02122886849B0212288612
:102D5000189C02122886629D02122886729D021219
:102D60002886819E02122886FA9E021228863C9F9F
:102D700002122886789F021228864CA10212288609
:102D8000B1A302122886C5A302122886CFA302127D
:102D90002886D9A302122886E3A302122886EDA36F
:102DA0000212288606A40212288610A4021228867F
:102DB0001AA40212288624A4021228864CA4021205
:102DC000288657A402122886A1A402122886ABA442
:102DD00002122886B6A402122886DAA402122886D5
:102DE000FEA4021228865FA502122886AAA5021256
:102DF0002886C6A50212288630A6021228867CA63E
:102E000002122886C4A6021228863FA7021228862C
:102E1000D9A7021228869DA9021228860BAA02129F
:102E200028863DAB0212288663AB02122886D3ACFB
:102E30000212288687B00212288687B202122886DC
:102E40005FB402122886F8B4021228860AB702126A
:102E50002886CCB70212288618B8021228867EB8B7
:102E60000212288690B802122886E0BA021228863A
:102E70000DBC021228865FBC0212288604BD021215
:102E80002886BFBE02122886F0BF021228860EC016
:102E90000212288663C00212288661C102122886A7
:102EA00089C102122886ECC102122886EDC20212E4
:102EB000288660C3021228868EC402122886F9C4AE
:102EC00002122886E9C5021228864FC802122886F7
:102ED0007DC80212288678C90212288616CB0212F3
:102EE000288666CB021228861ECC02122886D3CCF6
:102EF0000212288637CD02122886F0CD02122886CB
:102F000090CE02122886F4CE021228863ECF0212FC
:102F100028867BCF02122886E3D0021228860983F6
:102F2000011228864183011228861A8601122886FA
:102F30006086011228867D8701122886E2870112A9
:102F40002886338901122886248C01122886438D15
:102F500001122886189801122886B998011228862D
:102F6000AC9B01122886AC9C01122886349D01126C
:102F70002886849E011228866B9F01122886D4A180
:102F800001122886E2A3011228866FA40112288666
:102F90004BA50112288674A50112288621A60112CC
:102FA00028860CA701122886E4A70112288644A8C7
:102FB000011228866DA8011228869AA80112288677
:102FC000EBAA01122886C6AB011228860AAC0112B0
:102FD00028867BAC0112288634AD0112288666ADA6
:102FE00001122886ADAD01122886E0AD01122886B7
:102FF00045AE0112288694AE0112288699AE0112C0
:103000002886EDAE0112288637AF0112288633B02C
:103010000112288698B001122886FFB00112288676
:1030200024B401122886F8B40112288662B601126F
:1030300028863CB901122886E4B9011228860BBC07
:1030400001122886B0BC01122886EEBC0112288627
:10305000C7BE01122886DABE01122886E3BE01121D
:103060002886ECBE0112288601BF0112288620BFE7
:1030700001122886FFC00112288652C1011228863B
:10308000ADC101122886F7C10112288603C30112BF
:1030900028865AC301122886A9C401122886F2C4C0
:1030A00001122886D2C501122886FDC60112288683
:1030B000B3C701122886B5C801122886B7C9011204
:1030C00028869DCA01122886B4CA01122886F1CA30
:1030D00001122886FBCA0112288606CB0112288617
:1030E00024CB0112288666CB01122886C4CB01129C
:1030F0002886E9CB0112288603CC0112288690CCC1
:1031000001122886C9CC0112288617CE0112288602
:1031100069CE0112288683CF01122886AACF011218
:10312000288646D001122886C2D0011228860ED2E7
:103130000112288629D301122886EFD3011228868E
:1031400099D4011228861ED50112288686D501122F
:1031500028863BD6011228868DD601122886F3D602
:1031600001122886BCD701122886DFD701122886D3
:1031700097D801122886BBD801122886DDD8011203
:1031800028863ED90112288689DB0112288664DC54
:10319000011228860EDD011228864FDF01122886D3
:1031A0009DDF01122886E0DF0112288638E0011237
:1031B000288696E001122886C0E001122886E4E005
:1031C0000112288615E1011228863FE101122886A6
:1031D00086E101122886DAE10112288636E2011220
:1031E000288637E301122886A1E401122886DFE44D
:1031F0000112288608E50112288699E50112288621
:10320000E3E50112288607E6011228865AE6011234
:10321000288675E60112288630E7011228865AE7CB
:10322000011228869DE701122886F3E701122886FD
:10323000FFEA0112288632EB01122886EFEB011219
:103240002886CAEC011228865AED011228869BEDC9
:103250000112288672E704122886AAE7041228863B
:10326000CBE7041228860DE80412288671E80412C0
:1032700028867BE8041228868BE804122886C2E898
:10328000041228866BEC0412288633EE041228867A
:1032900027F004122886C5F0041228864CF1041287
:1032A000288697C20312288640C3031228861FC4AB
:1032B000031228863AC5031228865AC503122886A7
:1032C0007CC60312288619C80312288686C80312F2
:1032D00028865CC90312288662CA03122886C7CAD8
:1032E0000312288603CB031228865CCB03122886A0
:1032F00095CB03122886DECB0312288670CC0312EE
:1033000028860DCD03122886E2CD03122886AFCE83
:10331000031228863CCF0312288662CF0312288628
:103320008FCF03122886C0CF0312288695D00312B0
:103330002886A5D003122886F8D00312288605D146
:103340000312288612D1031228861BD10312288665
:103350007FD103122886DDD10312288628D20312DA
:10336000288643D2031228866AD20312288687D27F
:103370000312288693D20312288637D40312288694
:1033800050D403122886CCD403122886DFD403122B
:103390002886EFD40312288695D50312288605D7F0
:1033A0000312288618D803122886B8D80312288654
:1033B000C2D80312288630D90312288641D90312B5
:1033C000288680D903122886AED9031228867BDA94
:1033D00003122886D2DA0312288617DB0312288606
:1033E0006DDB031228868BDB03122886D9DB0312E0
:1033F0002886A7DC03122886F5DC0312288637DD31
:1034000003122886BADD03122886E4DD031228861B
:103410001ADE0312288629DE0312288687DE0312AD
:103420002886FFDE0312288640DF031228868FDFFE
:1034300003122886BADF03122886D4DF03122886F7
:10344000EEDF03122886C3E003122886CDE00312C4
:10345000288608E10312288618E10312288669E10C
:10346000031228867DE1031228869BE20312288638
:10347000B0E2031228864AE303122886C9E3031246
:1034800028866CE40312288677E403122886C4E5B4
:1034900003122886E0E50312288638E60312288600
:1034A000A6E603122886F2E6031228860CE703122A
:1034B00028866CE7031228860AE80312288655E856
:1034C00003122886B8EA0312288650EB03122886D6
:1034D000C7EB031228860DEE0312288625EE031291
:1034E000288628EE0312288634EE0312288648EE3A
:1034F0000312288650EE0312288687EE03122886D0
:103500007BEF0312288605F00312288687F003124A
:103510002886FCF003122886D4F103122886F6F1DF
:10352000031228868DF20312288699F20312288648
:10353000F6F203122886F9F20312288668F30312C2
:103540002886B4F403122886C7F50312288652F69B
:103550000312288665F7031228862FF8031228869F
:1035600060F80312288686F8031228868FF8031263
:103570002886BEF8031228866EF9031228861EFAE2
:103580000312288691FA0312288643FB0312288629
:10359000B6FB03122886F5FB031228863EFC0312B5
:1035A000288612DC041228867DDC04122886C9DCF9
:1035B0000412288619DD041228869DDD041228864F
:1035C000E1DF04122886FFE1041228867FE5041259
:1035D0002886BAE504122886D8E50412288638E63B
:1035E0000412288660E60412288691E604122886D2
:1035F000BEE60412288627E70412288619B70412AB
:10360000288695B704122886C1B704122886F3B716
:103610000412288655B90412288671B90412288626
:10362000AFB9041228863CBA0412288698BA04124C
:1036300028865EBB041228861DBC0412288662BC44
:1036400004122886C3BC0412288638BD04122886BA
:1036500061BD04122886A2BD0412288649BF041247
:1036600028862DC004122886E4C004122886D1C101
:10367000041228860BC20412288663C2041228860C
:1036800085C2041228861DC304122886C4C30412EE
:103690002886F0E802122886C3E90212288644ED43
:1036A0000212288695EE02122886ACEF02122886B6
:1036B00046F102122886DAF10212288642F202123C
:1036C00028866BF2021228869EF202122886ACF23D
:1036D00002122886BAF202122886C8F2021228863E
:1036E000EEF20212288660F302122886E3F3021239
:1036F000288694F50212288614F60212288659F7B5
:1037000002122886ECF70212288671F80212288627
:1037100066F902122886A6FA02122886CFFA021249
:103720002886A8FC0212288667FE0212288679D70E
:10373000051228868AD70512288628D805122886D9
:1037400024CF0512288632CF051228865BDB0512AE
:103750002886E2D805122886F2D8051228860DD9C7
:103760000512288675D90512288682D50512288665
:1037700006D6051228866CD6051228868ACD051233
:103780002886B9CD051228862ECE0512288631CE80
:103790000512288688CE05122886DECE05122886D8
:1037A000D79005122886E490051228862F910512DD
:1037B00028864E91051228867C9105122886A191B3
:1037C00005122886D39105122886F59105122886C0
:1037D0003493051228862C940512288605A403121A
:1037E0002886399505122886D795051228862196B0
:1037F000051228863B9605122886BA960512288659
:1038000073FC0312288681FC03122886FAFC03123B
:103810002886CFFD031228868EFF0312288659DAE8
:1038200005122886449C05122886B19C051228861C
:10383000719D05122886799E05122886FD9F051226
:10384000288664A005122886EFB103122886C1A03D
:1038500005122886D1A00512288644A105122886C3
:103860005AA10512288664A105122886BD96051264
:103870002886E996051228868F9905122886E699EA
:1038800005122886229A05122886369A051228865D
:103890004F9A05122886409B051228861C9C05120B
:1038A0002886309C0512288683FE02122886A7FEF1
:1038B00002122886C0FE02122886FEFE0212288608
:1038C00034FF0212288667FF02122886D3FF0212F5
:1038D0002886D6FF02122886E0FF02122886EDFF16
:1038E00002122886B3BF05122886D6BF0512288685
:1038F00021C0051228863FC0051228865AC005122D
:103900002886C0C005122886CCC00512288629C189
:10391000051228864DC10512288613C20512288675
:1039200020C20512288631C20512288618DA05122F
:10393000288630DA0512288656DA0512288629AB41
:1039400005122886BFAC05122886CDAC0512288644
:10395000E1AC05122886FEAC0512288613AD0512CF
:10396000288626AD05122886A8AD051228860DAE3C
:1039700005122886A3AE051228867CAF051228867C
:103980008CAF051228869BAF0512288649D80512F0
:1039900028866DD80512288695D805122886BDD8A8
:1039A00005122886DFBC051228864BBD0512288625
:1039B0006ABD05122886DFBD0512288610BA0512D9
:1039C000288629BA0512288640BA0512288649BADF
:1039D0000512288667BA0512288671BA051228864C
:1039E0007BBA051228868EBA0512288621BB0512DD
:1039F000288690BB05122886BEBB051228860FBC00
:103A0000051228865BBC0512288676BC051228861E
:103A100080BC0512288691BC05122886D4BC0512EC
:103A200028866C7F001228860080051228862C804C
:103A3000051228864F800512288662800512288686
:103A40007D8005122886DD80051228860B810512EF
:103A500028860F85051228864C86051228867E86C4
:103A600005122886E58605122886658805122886AF
:103A70008D8805122886A28805122886B28805122C
:103A80002886F288051228863489051228864489FA
:103A900005122886E0D105122886F0D10512288665
:103AA00014D2051228863DD20512288667D2051247
:103AB00028868BD205122886A2D205122886D0D25B
:103AC00005122886F3D205122886B77F00122886B1
:103AD00099B305122886A9B305122886C5B4051224
:103AE0002886F7B4051228861DB50512288645B527
:103AF0000512288657B50512288693B50512288623
:103B0000F9B50512288635B6051228867AB605124B
:103B10002886A7B605122886D3B60512288693D024
:103B200005122886B1D00512288613D105122886E1
:103B3000CBD10512288685D605122886EACB051238
:103B400028863BCD051228863F7000122886AA736E
:103B500000122886DC7300122886FC730012288667
:103B60001074001228866C7400122886907400125B
:103B700028860B76001228863377001228860D7867
:103B8000001228866A7800122886A07800122886FB
:103B90001D790012288676790012288697790012FE
:103BA0002886197A001228864E7A00122886B17A61
:103BB00000122886737C001228863F7D001228861A
:103BC000777D001228867A7D001228868E7D00126D
:103BD0002886E27D00122886707E00122886CE7E1E
:103BE0000012288626FE0112288647FE011228862A
:103BF0007AFF01122886A4FF011228865FC20512EF
:103C00002886D3C205122886DEC205122886FFC286
:103C1000051228869BA8041228869EA804122886CE
:103C200070A904122886ACA904122886ECA90412F3
:103C300028861EAA041228864CAA0412288689AA5D
:103C400004122886B7AA04122886B5AB0412288667
:103C5000FCAB041228863EAC04122886B7AC0412D2
:103C6000288654AD0412288677AD04122886E1AD6B
:103C7000041228864FAF0412288607B00412288643
:103C8000F4B004122886E1B1041228869AB2041214
:103C90002886CFB2041228863BB304122886D6B3F6
:103CA0000412288604B404122886ACB504122886AF
:103CB0002AB6041228866AB60412288611C4041291
:103CC0002886A5C404122886C9C404122886ECC517
:103CD00004122886E6C6041228868AC7041228869B
:103CE000E3C80412288621C90412288632C90412A6
:103CF00028862DCA0412288638CC0412288671CC56
:103D0000041228860FCD0412288648CD0412288676
:103D10008ECD04122886EECD0412288634CE0412ED
:103D200028865FCF0412288686CF0412288614C501
:103D30000512288637C50512288655C6051228861D
:103D400041C7051228862BD30512288661D3051298
:103D500028867DD305122886BFD305122886CFD3A7
:103D60000512288662D4051228866CD4051228868E
:103D7000F8F10412288602F20412288649F204128D
:103D80002886B2F204122886D3F204122886ECF2B6
:103D9000041228869EF30412288608F60412288648
:103DA00011F60412288662F60412288698F6041288
:103DB0002886AFF6041228861CF704122886ACF772
:103DC00004122886E2F7041228862BF804122886AB
:103DD0008CF804122886C6F8041228862EF90412DC
:103DE000288681F904122886C4F90412288601FA6B
:103DF0000412288613FA0412288625FA041228864B
:103E000044FA041228864DFA0412288612FB041282
:103E100028865EFB0412288677A105122886BDA29B
:103E200005122886E6A205122886F7A20512288622
:103E30000FA5051228862FA5051228869FFF0412BC
:103E400028866FC705122886A5C705122886F4C7DD
:103E50000512288650C9051228867F9404122886E8
:103E6000BD9504122886F99504122886C897041275
:103E70002886F29704122886899A04122886C99AFD
:103E8000041228865F9C04122886F49C041228865B
:103E9000529D04122886D89D04122886109E041272
:103EA0002886529E04122886C39F0412288647A1A2
:103EB0000412288670A3041228869EA30412288662
:103EC000CAA304122886D3A30412288629A40412A4
:103ED0002886B9A404122886BCA7041228863EA806
:103EE000041228861DDB0512288633DB051228867E
:103EF0009CFB04122886B5FB041228865AFC041287
:103F000028869AFC04122886B3FC04122886E6FC54
:103F10000412288633FD0412288667FD04122886C1
:103F2000A9FD0412288692FF0412288613D00412D9
:103F30002886ECD0041228867BD1041228860CD364
:103F40000412288687D3041228860ED404122886E9
:103F500058D40412288680D404122886BAD40412B5
:103F6000288667D5041228863FD6041228864DD6A7
:103F7000041228869DD604122886DCD704122886CF
:103F8000D8D9041228860DDB0412288668DB0412B7
:103F9000288698DB041228866FD405122886E1D47F
:103FA000051228861FD50512288660D50512288699
:103FB00056D102122886B1D10212288639D20212B5
:103FC000288646D30212288629D402122886F4D4E1
:103FD000021228860BD50212288657D5021228868F
:103FE000B0D5021228860DD60212288620D60212DB
:103FF000288678D602122886E7D602122886FFD6AF
:10400000021228863FD7021228863BD80212288641
:1040100096D802122886B2D80212288602D9021235
:104020002886D5D9021228860EDA021228862DDAC1
:104030000212288678DA021228868EDA0212288680
:10404000A5DA02122886D4DA02122886E6DA0212EB
:104050002886B4DB02122886BFDB0212288648DCE1
:10406000021228869BDC02122886DADC02122886DD
:104070000BDD021228866EDF021228869FDF0212F5
:104080002886C1E002122886F0E0021228866EE13E
:10409000021228865EE20212288692E20212288626
:1040A000FCE202122886A7E302122886D1E302125C
:1040B0002886DBE302122886E5E30212288601E463
:1040C0000212288669E402122886A2E402122886D7
:1040D000BEE402122886EBE40212288626E50212CC
:1040E000288641E5021228864BE5021228867AE5E9
:1040F0000212288694E502122886AFE5021228866D
:10410000DEE502122886FEE50212288647E6021244
:10411000288682E60212288691E7021228867FD935
:104120000512288697D905122886FB7F001228865B
:10413000748905122886C38905122886818B051289
:104140002886558D05122886938D051228869E8E09
:1041500005122886A88F05122886CA8F0512288680
:10416000269005122886A790051228862F51001246
:1041700028864E51001228860D520012288656526B
:1041800000122886B452001228862F530012288667
:10419000A65300122886F753001228865D54001299
:1041A0002886EF5400122886675500122886A655E7
:1041B000001228860E5A001228862B5C00122886D0
:1041C000645C00122886A35C00122886355E00120B
:1041D0002886385E00122886FF5E00122886296035
:1041E00000122886236200122886A4640012288602
:1041F000736500122886916600122886DB6900121A
:104200002886EB69001228866F6B001228860D6CD9
:1042100000122886466D00122886B66D0012288688
:10422000146F001228867B6F00122886008004120B
:1042300028869B80041228860E81041228861E81FF
:1042400004122886A6810412288602820412288677
:104250003D8304122886618304122886D8830412C1
:104260002886298404122886878404122886E284FA
:10427000041228868F8704122886868804122886CE
:10428000FC8804122886D38A04122886768B0412AE
:1042900028862F8C04122886948C04122886038D7D
:1042A00004122886268E04122886EC8F0412288693
:1042B0000C910412288699910412288609920412FE
:1042C00028861B93041228865CEE01122886C1EE14
:1042D0000112288609EF0112288670EF0112288644
:1042E000CCEF0112288607F00112288661F0011236
:1042F0002886CDF10112288604F3011228862CF3BA
:10430000011228860AF4011228861BF4011228865D
:1043100033F4011228862AF5011228866AF5011263
:10432000288673F5011228868AF501122886A8F5D9
:10433000011228867DF60112288644F7011228868C
:1043400049F701122886EFF701122886C9F80112F1
:104350002886D9F901122886D5FA0112288677FB1A
:1043600001122886BDFB01122886D2FB0112288685
:10437000E4FC0112288685FD0112288627B7051264
:104380002886DAB705122886A2B8051228860AB947
:10439000051228867EB905122886CCAF051228861C
:1043A000EAAF051228862EB00512288654B00512F1
:1043B000288676B0051228868EB005122886A6B00B
:1043C00005122886BEB00512288668B10512288617
:1043D000AAB105122886B4B105122886C9B2051201
:1043E0002886D2B205122886DBB205122886E4B2EE
:1043F00005122886EEB20512288683A605122886A5
:10440000AFAA05122886BDAA05122886C2AA0512DF
:104410002886DECA05122886CCD905122886C8DA75
:104420000512288691DA05122886F4DA0512288604
:104430003DDB05122886ACA30312288633A30312A2
:10444000288609A30312288651A20312288684A075
:104450000312288654A00312288618A00312288667
:1044600004A003122886459F03122886929E0312F9
:104470002886419C03122886169C03122886B79B27
:1044800003122886289A03122886B69903122886D2
:10449000939903122886D798031228867A970312D5
:1044A00028863197031228860B9703122886479691
:1044B00003122886919403122886319403122886C9
:1044C000029403122886FF9303122886A8B10312D0
:1044D0002886F2B00312288666B00312288657B0E9
:1044E0000312288644AD0312288691AA0312288657
:1044F000EA9303122886AA93031228869193031243
:1045000028869B920312288658A9031228865A925D
:1045100003122886E79103122886B4910312288695
:1045200059910312288628910312288679A803122C
:104530002886F18D03122886A5A603122886B8A026
:1045400005122886038D03122886BD8B0312288648
:10455000698B031228865D8B03122886C48A031296
:104560002886928903122886ED8603122886908475
:10457000031228864484031228862983031228867E
:10458000BE8203122886E88103122886A4810312C2
:1045900028866B800312288666A403122886328040
:1045A0000312288600800312288607950500000064
:1045B00080FBE47300000000000000000000000029
:1045C00000000000000000F80000000000000033C0
:1045D0003000000000100C06100C06000000000067
:1045E0000000000040C07840C0784000043F040450
:1045F0003F040400007088FC08300000001820FF11
:10460000211E0000F008F000E018000000211C034B
:104610001E211E0000F00888700000001E212324C7
:104620001927211010160E000000000000000000E5
:1046300000000000000000E0180402000000000775
:104640001820400000020418E0000000004020187C
:1046500007000000404080F0804040000202010F4F
:1046600001020200000000F0000000000101011F33
:1046700001010100000000000000000080B0700097
:104680000000000000000000000000000001010127
:1046900001010101000000000000000000303000B6
:1046A0000000000000000000806018040060180690
:1046B0000100000000E010080810E000000F1020CA
:1046C00020100F00001010F8000000000020203F14
:1046D000202000000070080808887000003028249E
:1046E000222130000030088888483000001820203F
:1046F00020110E000000C02010F800000007042464
:10470000243F240000F808888808080000192120A8
:1047100020110E0000E0108888180000000F112002
:1047200020110E0000380808C83808000000003FBB
:10473000000000000070880808887000001C22211A
:1047400021221C0000E010080810E00000003122C7
:1047500022110F00000000C0C00000000000003067
:1047600030000000000000800000000000008060B9
:10477000000000000000804020100800000102043A
:104780000810200040404040404040000404040421
:1047900004040400000810204080000000201008DD
:1047A00004020100007048080808F0000000003012
:1047B00036010000C030C828E810E00007182724A0
:1047C00023140B000000C038E0000000203C23024E
:1047D0000227382008F8888888700000203F2020B1
:1047E00020110E00C03008080808380007182020E3
:1047F0002010080008F808080810E000203F2020DA
:1048000020100F0008F88888E8081000203F2020BA
:104810002320180008F88888E8081000203F2000AE
:1048200003000000C03008080838000007182020E6
:10483000221E020008F808000008F808203F2101A5
:1048400001213F20000808F8080800000020203F50
:104850002020000000000808F8080800C0808080C0
:104860007F00000008F888C028180800203F2001B9
:104870002638200008F8080000000000203F202013
:104880002020300008F8F800F8F80800203F003F2A
:10489000003F200008F830C00008F808203F200042
:1048A00007183F00E01008080810E0000F10202053
:1048B00020100F0008F808080808F000203F210128
:1048C00001010000E01008080810E0000F1824247F
:1048D00038504F0008F8888888887000203F2000F2
:1048E000030C3020007088080808380000382021A8
:1048F00021221C00180808F8080818000000203FB2
:104900002000000008F808000008F808001F202018
:1049100020201F000878880000C8380800000738E9
:104920000E010000F80800F80008F800033C07003A
:10493000073C0300081868808068180820302C03A2
:10494000032C30200838C800C83808000000203F79
:104950002000000010080808C83808002038262168
:1049600020201800000000FE020202000000007F6C
:1049700040404000000C30C000000000000000017A
:104980000638C00000020202FE0000000040404065
:104990007F0000000000040202020400000000008A
:1049A0000000000000000000000000008080808007
:1049B00080808080000202040000000000000000EF
:1049C0000000000000008080808000000019242288
:1049D00022223F2008F8008080000000003F1120C4
:1049E00020110E000000008080800000000E1120C9
:1049F00020201100000000808088F800000E1120A7
:104A000020103F200000808080800000001F2222B4
:104A100022221300008080F0888888180020203F20
:104A2000202000000000808080808000006B949433
:104A30009493600008F8008080800000203F2100EF
:104A400000203F2000809898000000000020203FB8
:104A500020200000000000809898000000C08080A6
:104A6000807F000008F8000080808000203F240242
:104A70002D302000000808F8000000000020203F32
:104A8000202000008080808080808000203F2000E7
:104A90003F20003F8080008080800000203F210078
:104AA00000203F200000808080800000001F202028
:104AB00020201F00808000808000000080FFA12057
:104AC00020110E000000008080808000000E112068
:104AD00020A0FF80808080008080800020203F21F7
:104AE00020000100000080808080800000332424AA
:104AF00024241900008080E0808000000000001F56
:104B0000202000008080000000808000001F202006
:104B100020103F20808080000080808000010E30C7
:104B20000806010080800080008080800F300C0328
:104B30000C300F0000808000808080000020312E2B
:104B40000E312000808080000080808080818E7007
:104B50001806010000808080808080000021302CB9
:104B60002221300000000000807C020200000000D2
:104B7000003F404000000000FF0000000000000077
:104B8000FF0000000002027C800000000040403F67
:104B90000000000000060101020204040000000001
:104BA00000000000870001003C1224000200B51242
:104BB00025000200B71226000200B91227000200E9
:104BC000BB1228000100BD1229000100BE128600A0
:104BD0000100C3122A000100C4122B000100C512FB
:104BE0002C000100C9122D00080024122E00010023
:104BF000CA122F000100CB1230000100CC1231008C
:104C00000100CD12320001002C12330001002D12E0
:104C100034000100CE12360001002E1238000100CF
:104C2000CF1239000100C81263000100391264007C
:104C30000100C61265000100C7126D0001003A12A2
:104C4000710008001C1266000100E0124300010020
:104C5000D11244000200D21245000100D4124600D5
:104C60000200D51247000800311248000100D71297
:104C70004B000100D81204000100E312A100010062
:104C8000E61237000100E51288000100E4123C0042
:104C900001002F123D000100D01249000200D9127C
:104CA000670001003B124D000200DB124E000100C4
:104CB000DD124F000200DE123E000100301204043B
:104CC0000600EA1000000000000000013636010175
:104CD00000010201000103010001040106060502B2
:104CE0000000070100340801000F090401010D0153
:104CF00000FF0E08000017020000190100FF1A0152
:104D000000011B0100FE1C0100081D0200001F0124
:104D1000000120010001210200002301000F2402F4
:104D200000002601000127010008280200FF2A01D7
:104D300000072B0102402C0100002D0100012E0173
:104D400000012F0100FF30010B1C310800003A0167
:104D500000083B01000F3C0100013D0100FF3E0443
:104D6000000042040000460400004A0400004E0413
:104D7000000052040000560400005A0400005E20A7
:104D8000FFFF36000100060000000F0000000000D9
:104D9000000000000000000003FFFF00000403FF0C
:104DA000FF0000FFFF0FF4010005C4040320000111
:104DB00000000B000000000000000003010F0000D5
:104DC00000000000000000000000000000000000E3
:104DD00000000000000000000000000000000000D3
:104DE00000000000000000000000000000000000C3
:104DF00000000000000000000000000000000000B3
:104E000001037103010301030103010301032203F1
:104E10000203010310030003000300030003000367
:104E200000030003420300032403060300030003FE
:104E300004031203250323032503230304030403AC
:104E400000030003000344030003000323030003E3
:104E500065032100350381030003050300030003FC
:104E60000003000325032303010171010101010176
:104E700011010101310101010101800110016101F4
:104E80003B001400630173017201620143010001E0
:104E9000130106013D01350004011201000100016A
:104EA0000001000104010401330133013C0144010C
:104EB0003201360000010001650100013500810169
:104EC000000105018201830100010302710230012A
:104ED000600211027002010202020202800210024C
:104EE00061023A00410063027302720262024302ED
:104EF0000002130238000002000204021202000243
:104F000000020002000204020402370037003C02E3
:104F1000440200023900000200026502000235026C
:104F2000810200020502820283020002030471046E
:104F30000204600411047004020402040104020467
:104F40001004610400041404630473047204620412
:104F500043040004130406040004000404041204BF
:104F60000004000400040004510464000004000470
:104F70000004440400040004000400046504000468
:104F80003504810464000504000483040004030064
:104F900071003001600011007000310220035004E4
:104FA00080001000610000001400630073007200B4
:104FB000620043000000130006000000000004002F
:104FC0001200000000000000000004000400370090
:104FD00037003C02440000000000000000006500B3
:104FE0000000350081000000050000008300000083
:104FF00000006B421300DB4101006B4202008D4157
:10500000030093410400994105009F410600AB4114
:105010001100CF411400D5411500BD411F00C3410F
:10502000FFFF000001572F06872F08812F0B932FBA
:1050300010CD2E025D2F05752F07632F0C3F2F0D0E
:105040004B2F64112DFF000007ECFDFDFDECDCDCB7
:10505000CCBCACAC9C9C8C7C7C6C6C5C5C5C4C4C30
:105060003C3C2C2C1C1C03EAF5E5D5D5C5B5A59513
:1050700095858575756565555545453535252515E0
:10508000150500160F00000B150B020002220F334E
:1050900000000E5A6967426565416C6C69616E6318
:1050A00065303901030507090B0D0F0002040608DE
:1050B0000A0C0D303017181921301B1D1F3000034A
:1050C0004A49434E181A25050200011916181616EA
:1050D000182303000C0E020B040B0A0708000F0034
:1050E000393D3F373C3C362C442D303016181920C2
:1050F000231A1C1E30020402010101010902E80307
:10510000000000BE040A0E00000000003C007F000A
:10511000E8033C000C0A0303081000030008FF1E0C
:105120001E05052809010404091015040C080CC00B
:1051300082C08390119CE4F0A3F07C857D037A0EFD
:105140007B11123FA7122D171245A102652574F598
:105150001223A0E9FF8A08EBFEEF60030251F190F1
:105160000403C3E09407A3E09400500D9012E1C340
:10517000E09407A3E0940040119004037401F0A3AD
:10518000E4F09012E104F0A3E4F074026508703DCD
:105190009012A77408F0750A00780A1228DDECF561
:1051A0000A780A1228DDEEF50A780A1228DD901234
:1051B000BF1226C39012C3E0F97C317D129012E138
:1051C00012667E122D3B74071228B6801474016596
:1051D0000870139012A77408F07B00EEFAF9122DF4
:1051E00053E9700D80227CF87D807A557B801237E0
:1051F000EB9082991226C37A017B0090112CE0F982
:10520000123F0574041228B67F030225FB74F612C0
:1052100023A0E9FFEAFE7AD1F9123DBB8A828B8393
:10522000E5824583702A7A027B00123D9DEA4B702D
:105230000E7A107B0090112CE0F9123DDF80148A69
:10524000828B8374D1F0EFA3F0EEF9123DA98003B5
:10525000EFA3F00253F274F71223A089089005B669
:10526000126D4180238E828F83A3125DEB600F8EBF
:10527000828F83A3A3125DE5FAA9081241758E827D
:105280008F83126914E8FEE9FFEE4F70D89012B1D7
:10529000E0F47003A3E0F4600A9012B1E0FAA90808
:1052A000124175123053901104125A0812304D7F7A
:1052B000010225FB74F01223A0890B8C0C750800E9
:1052C0007509007410122B781253977412122B78F0
:1052D000126F56803CA80A125387F50EA3E0F50F13
:1052E000A80912537AF583E0650E7004A3E0650FF8
:1052F0007014125321EE28F582EF39F583E50EF094
:10530000A3E50FF00508050AE50AC3950C40C6059C
:1053100009E509C3950B5005750A0080EBA90880C3
:1053200009A808E828F8E433F9227F080225FB746D
:10533000F41223A0890B8C0A750800740C122B78C8
:1053400012539780020508E508C3950B502875098C
:105350000080020509E509C3950A50E9A80812531F
:105360007A126D3FFFA8091253876E7003A3E06F96
:1053700070E17901800279008027E828F8E433F9A8
:10538000EA28F582EB3922E828F8E433F9EC28F52D
:1053900082ED39F583E022126214FCE9FD22122825
:1053A000B67F040225FB74F61223A012544C70033E
:1053B000A3E06D701775083275091178081228D9A5
:1053C000EEFA12427174021228B6801F7508027537
:1053D000098078081228D98C088D0978081228D9F4
:1053E00012543E12429574041228B68005740212BB
:1053F00028B67F020225FB74F61223A012544C70CB
:1054000003A3E06D701775083F750911780812281D
:10541000D9EEFA12427774021228B6801F7508037B
:1054200075098078081228D98C088D097808122807
:10543000D912543E12429574041228B680B4126DEB
:105440001D3FF583E0FD7C80125ED922EAFEEBFF72
:10545000125EF0FCE439FD901104E06C2274F61247
:1054600023A074FE122965EAFEEBFF8518828519D8
:1054700083E4F0A3125C18125E2BFCA3E0FBECFAB1
:1054800088828983A3A3E0F9750900750800600587
:1054900074FF697005750882802A901104E06A70B3
:1054A00003A3E06B701BAA18AB191235D5E9FA8576
:1054B000188285198312620F70037508838A098028
:1054C00003750881851882851983126CF3FDA9087C
:1054D000EEFAEFFB12427DE509601185188285190D
:1054E0008312620F6006126678123E510253ED7409
:1054F000F21223A0EAFEEBFF750800750900125EA8
:10550000ECF50AE439F50B123053EA650A7003EB47
:10551000650B70121235E1E914F50879017A687BA0
:10552000111235E78003750980126B2BF50C780C8E
:105530001228DD750C68750D11780C1228D97808C1
:105540001228DD780A1228D9E509F508780812280A
:10555000DD125DFB126B2EF97A057B80124283749B
:10556000071228B6026E5274F61223A08909750834
:105570000080298A828B83126D41F8E4C8F9EE28F5
:10558000E439FF125321EC28F582ED39F583EEF072
:10559000A3EFF0EA2402FA50010B0508E508C395D1
:1055A0000940D00253F274E81223A074FB1229655B
:1055B0008A168B17851882851983E4F07403122BE1
:1055C00078E4F0A3F004122B78E4F0A3F0125DC0AD
:1055D0003517125BEAF50B850A82F583126F65FEBB
:1055E000E439FF850A82850B83A3A3E0FA850A824A
:1055F000850B83A3A3A3E0F9EAF508E439F509EEE6
:10560000FAEFFB1230DDE964016016EEFAEFFB12EF
:1056100030DDE9703D901104E06E7003A3E06F602F
:1056200031125DA31228DDE4F508F5097808122887
:10563000D978081228DD9011041226C775088078E1
:10564000081228DD1259E012428374071228B602AC
:1056500059C1850A82850B83A3A3A3A3E0F510E5B6
:105660000A2405F50A5002050BE5106029126EE6C2
:10567000123E4B7403122B78125C5C122B78126270
:105680000F60137403122B781259D7A9101241A579
:105690008A0A8B0B8003751000850A82850B8312A2
:1056A0006E7E6027126EE6123E4B7401122B78124A
:1056B0005A087401122B7812620F600F7401122BBA
:1056C000781259D7A90F1241A58003750F009005D4
:1056D000B6805C850A82850B83A3A3A3A3A3A3A39F
:1056E000A3E4F0A3F0AA0AAB0B851482851583A36B
:1056F000A3E0F8125DE5F9123DA9851282851383B6
:10570000E0C0E0851882851983E0F8746828F58286
:10571000E43411F583D0E012621A04F0E511A2E03E
:105720005007AA12AB13123E51851482851583E0EF
:10573000F514A3E0F515E514451570030259068527
:105740001482851583A3125DEB60DE8514828515B6
:1057500083A3A3A3A3A3A3A3A3E0A2E050CB851498
:1057600082851583A3A3A3A312620F8514828515D6
:1057700083A3A3601F125DECFA790185148285155D
:1057800083A3A3A3A31259CB1245B28A128B13751C
:10579000110180101259CBA3A3A3E0F512A3E0F5E9
:1057A00013751100E5124513700302571C85128210
:1057B000851383A3E065087004A3E06509600F7496
:1057C000FF6508700474FF6509600302571C8512A9
:1057D00082851383A3A3A3A3A3A3A31226C7851221
:1057E00082851383A3A3A3A3A3A3E0FC7405122BB8
:1057F0007812667EA91012418774021228B6E970E9
:105800003C851282851383A3A3A3A3A3A3A3A3A36D
:10581000A31226C7851282851383A3A3A3A3A3A3E0
:10582000A3A3A3E0FC7403122B7812667EA90F12C7
:10583000418774021228B6E9700302571CE50F2550
:1058400010C333240AFA7B00123D9D8A0A8B0BEAAF
:10585000450B70030256FA8A828B8374D2F0851648
:10586000828517831269128A828B83A3A3E8F0A32F
:10587000E9126E45A3E510126F73E50FF0E51060B5
:105880002F126DFA350BFB850A82850B83A3A3A328
:10589000A3A3125C5C122B781259FB1228D5AC1012
:1058A000EC2CFCE433FD123D7374031228B6800D1A
:1058B0008A828B83A3A3A3A3A3E4F0A3F0E50F70D4
:1058C000030256D3A810125323E50A28F8E50B3932
:1058D000F9E8126DFB39FB850A82850B83A3A3A32C
:1058E000A3A3A3A3A3125A087401122B781259FB85
:1058F0001228D5AC0FEC2CFCE433FD123D7374037D
:105900001228B60256E5851882851983E0603E129A
:105910005DA31228DD75086875091178081228D969
:105920007403122B78125DAC1228DD90110412263C
:10593000C775080078081228DD1259E012428374F6
:10594000071228B6E970507CD47D818043EEFAEFCF
:10595000FB1230DDE97035125DA31228DD75086891
:1059600075091178081228D975080078081228DD01
:105970009011041226C778081228DD1259E012424D
:105980008374071228B67C757D8080047C057D8138
:105990007A857B801237EB7403122B7812620F60CA
:1059A0000B7403122B7812667E123E517401122B77
:1059B0007812620F600B7401122B7812667E123E11
:1059C0005174051228B67F100225FB1259CF2212FE
:1059D000649FF583888222126CF3FDAA0AAB0B2226
:1059E000E5162402FCE43517FDE516240FF582E4E4
:1059F0003517F583E0F97A067B8022E0F50CA3E009
:105A0000F50D750E00780C22EAF0A3EBF02274F18C
:105A10001223A074F41229658A088B09ECFEEDFFAD
:105A2000740B122B787403F0122927123FA712303F
:105A30004D8A0A8B0BAC0AAD0B7403122927123F57
:105A4000A1E9600A125BE46010E06401600B851854
:105A5000828519837484025B9A8E828F83A3A3A3A9
:105A6000A3A3A3A3A3E06013F46010125BE4701679
:105A7000EE2414126B2E6003F4700B8518828519C6
:105A8000837482025B9A126CF8E064217002A3E0D6
:105A90006003025B71851882851983748C125C180F
:105AA00064036003025B5B740112292F126BF11215
:105AB000450BE96003025B5B1241098A0A8B0BEA22
:105AC000450B7003025B9B8E0C8F0D750E00780CDE
:105AD0001228D57C157D00123D7374031228B685FB
:105AE0000882850983A3A3E50A2415FCE4350BFD90
:105AF00074091227E11268FCC0E0E50A241EF58251
:105B0000E4350BF583D0E0125DCBC0E0E50A241F3D
:105B1000F582E4350BF583D0E0F0E50A2420F58228
:105B2000E4350BF5837405F0EE240BFE50010FFAFB
:105B3000EFFB1236837D007C007900EEFAEFFB125A
:105B4000423B9082991226C37A007B1090112CE080
:105B5000F9123F0574041228B68078125BDA122815
:105B6000DD125BF212451D74011228B6E9702C801B
:105B700014125BDA1228DD125BF21245177401125F
:105B800028B6E9700D851882851983E4F01240D992
:105B900080098518828519837488F01268FCF50ADB
:105BA000780A1228DD740112291F880A890B780AE5
:105BB0001228D9E508240CF582E43509125BEA4481
:105BC00080F50B780A1228D9125E0612422F74054E
:105BD0001228B6740C1228B6804CEE126BFEE0F55B
:105BE0000A780A22125C1D640322F583E0F50AA3F9
:105BF000E022EE240BFCE43FFD8E828F83A3A3A35F
:105C0000A3A3A3A3A3A31265658E828F83A3A3A3DB
:105C1000A3A3A3A3A3E0F922F0125C1D22126D0C32
:105C2000E022EEFAEFFB7F070225FBC082C08374FF
:105C3000F3122965851882851983E4F004122B7804
:105C4000125C5C122B78AA82AB83122C3FAA18AB91
:105C500019122C75740D1228B6026525EAF0A3EB13
:105C6000F074032274F61223A0125E1BFAA3E0F96B
:105C7000EAF890113AE058F508A3E059F509E5086B
:105C80004509601C78081228D99011041226C71201
:105C90006B2BFD7C00125ED512428F74041228B665
:105CA0000253F274F41223A074FF122965EAFEEB8A
:105CB000FF851882851983E4F0901230E0601FEEB2
:105CC000240B126B2E640160158E828F8312691271
:105CD000EE2415126B2E687003A3E0696003025D69
:105CE00090126D04126914E8FAE9FB88828983A393
:105CF000A3A3A3A3A3A3A3E0FC88828983A3A3A354
:105D0000A3A3A3A3A3A3E0F8E4C8F9EC28F508E44F
:105D100039F509EC45096008EC9471E99408400AEA
:105D200085188285198374808038122CB18A0A8B79
:105D30000BA80AA90BE849602188828983A3A3A341
:105D4000A3E06016C394035011E82412125D95E895
:105D50002414125D951240D9800985188285198313
:105D60007481F0126024125DAA1228DD74011229D8
:105D70001F8808890978081228D975081F750980B5
:105D800078081228D9125DF112422F74051228B634
:105D9000740102539EF582E439F583E508F0A3E52A
:105DA00009F022E516126D1E3517F583E0F5087827
:105DB0000822EE125DB7222412F582E43FF5832219
:105DC000EA126E7122E8F0A3E9F022F0E508240F50
:105DD000125DD422F582E43509F583E0221228B65B
:105DE0007F0A0225FBA3E0F5838882A31259CFE046
:105DF000227901125DFBFAE43FFB22EE2402FCE46F
:105E00003FFDEE240F227901E5082402FCE4350968
:105E1000FDE508240FFAE43509FB22EAFEEBFFEE6C
:105E2000126E713F125E2822F583E0F8A3E0F98834
:105E3000828983E02202288374F41223A074EF1273
:105E40002965EAFEEBFF125EECF508E439F50990EE
:105E50001104E065087004A3E065097052A818A950
:105E600019880A890B780A1228D9750A11750B004E
:105E7000780A1228D97C007D007A817B00123ED5F9
:105E800074041228B6E97027750A00780A1228DD12
:105E9000740112291F880A890B780A1228D9AC08C4
:105EA000AD09125ED512428974031228B68021759D
:105EB0000A11750B80780A1228D978081228D9128D
:105EC0006B2BFD7C84125ED512429574041228B6A9
:105ED000741102539E125ED922EE2402FAE43FFBB3
:105EE000EE240FF582E43FF583E0F922125EF02202
:105EF000126D0C12649FF988828983126F69227473
:105F0000F11223A074EB122965125E1BFCA3E0FAC8
:105F1000E4CAFBEC2AF508E43BF509901104E065BE
:105F2000087004A3E065096003025FCC888289835E
:105F3000A3A3E09410500F88828983A3A3E085185F
:105F40008285198380088518828519837410F0E092
:105F5000C0E07404122B78D0E0126D2EA982AA83BF
:105F6000890C8A0D750E00780C1228D57407122B37
:105F700078E0FC7D007408122B78AA82AB83123D76
:105F80007374031228B6740412291F880A890B78C7
:105F90000A1228D9750A11750B00780A1228D97CC3
:105FA000007D007A817B00123ECF74041228B67403
:105FB00004122B78E09011326005E0D2E48003E017
:105FC000C2E4F0851882851983E4800885188285EB
:105FD00019837484F0E0C0E07401122B78D0E0F0F3
:105FE0007402122B78E508F07403122B78E508F0A0
:105FF000126024125DAA1228DD740212291F88087B
:10600000890978081228D97508147509807808124A
:1060100028D97903125DF312422F74051228B67441
:1060200015025BD5126D1D3F2274F61223A074E099
:10603000122965EAFEEBFFAC18AD1912421D1231B0
:10604000F77402122B7812667412310DE964017034
:1060500003026204741812292712305F7402122B93
:1060600078AC82AD837418122927123FA1E96032FF
:106070001230598A088B09A808A909851882851940
:1060800083E0687003A3E06960188518828519832E
:106090001269149003F9126EBF7AF97B03794B12DF
:1060A00043A91230538A088B09A808A909EE2411C4
:1060B000126B2E687003A3E069605C7402122B7887
:1060C000AA82AB83122CB18A088B09A808A909E817
:1060D00049602688828983A3A3A3A3E06401600D9D
:1060E00088828983A3A3A3A3E06402700C740212C4
:1060F0002B78AA82AB83122CBD90049712620F609A
:1061000016901230E06401700E126678900498E0E8
:10611000F58388821245B21230538A088B09A80889
:10612000A909851882851983E0687003A3E0696076
:10613000117402122B78126674122C93E960031208
:1061400040D97402122B781266741231E57900126C
:106150006678122E97740B122B78E412621AF8A349
:10616000E0F9740C122B78126EBF740B12292712EF
:106170002C63E9603F7C087D0079007418122927A0
:10618000123D7F740E122B78AC82AD8374181229E5
:1061900027123FA1E9601D7402122B78AC82AD83F7
:1061A000740E122B78AA82AB83122C3F740B122927
:1061B00027122C757402122B78AC82AD83740E12E8
:1061C0002B78AA82AB83122C3F740B122927122C36
:1061D00069E96030740C122B781269148518828575
:1061E0001983E0687003A3E0696019851882851936
:1061F00083126914740C122B78126EBF740B12295F
:1062000027122C7574200253EFF582E438F58312BF
:106210006214492212649FF9E822F08518828519D8
:1062200083E02274F11223A074F6122965EAFEEBD2
:10623000FF75080090119E12620F70507A377B0034
:10624000123E4B90119EEAF0A3EB1269C360197CD9
:10625000377D007900123D7FEEFCEFFD90119E121C
:10626000667E1241EDE9700B85188285198374886A
:106270000263CC126D161264697401F07CF97D41E1
:1062800090038312667E124589026464E0C812643A
:10629000697402F0EEFCEFFD1269051241EDE97040
:1062A0000C8518828519837488F0750801750A6851
:1062B000750B11780A1228D91265381226C7126D8B
:1062C0001624281268F4FC12656A126D1624141242
:1062D00068F4F912418174041228B61264761264CB
:1062E0008B24311268F460431269ADFAE433FB1277
:1062F0003E4B126CECCC243212647F6022750C6829
:10630000750D11750E00780C1228D51269ADFCE4DC
:1063100033FD126556123D7374031228B6800C8546
:1063200018828519837488F0750801780A1228D9B3
:1063300012652C1226C7126D1624111268F4FC1275
:10634000654D126D16242B1268F4F9124181740404
:106350001228B6E9F8126D16243412648B24341214
:1063600068F460351269A4FAE433FB123E4B126CF8
:10637000ECCC243512647F6042750C68750D117584
:106380000E00780C1228D51269A4FCE433FD1265C6
:1063900044123D7374031228B6E508A2E0402512AA
:1063A00064761268F4700890119E12697060157B13
:1063B000007A0079001241F302646485188285191D
:1063C000837488F08518828519837486F0740912A5
:1063D0002B787402126E61F8A3E0F97401122B7825
:1063E000126EBF8E828F83A3125DAC1228DD740102
:1063F00012291F8808890978081228D9750820757C
:10640000098078081228D97901740612292FEEFA2A
:10641000EFFB12422F74051228B6126951704274B4
:1064200009122B787402F0126962122B781269CA71
:106430001228DD740112291F88088909780812289A
:10644000D975082075098078081228D97901740651
:1064500012292F90119E12667E12422F7405122867
:10646000B61241E7740A025BD512646D22242EF540
:1064700082E438F5832290119E126927243122F597
:1064800082E43CF583125DC5EA4B22F582E438F5DF
:1064900083126496C822E9F090119E12649F22E054
:1064A000F8A3E022C082C08390119E12620F607533
:1064B000E0C824351262096006126544123E51128A
:1064C0006D1624321262096006126556123E511290
:1064D0006D162412126209600912652C12667E1272
:1064E0003E51126D162415126209600612656A1279
:1064F0003E51126D16242912620960091265381284
:10650000667E123E51126D16242C1262096006122C
:10651000654D123E5190119E12667E123E519011B1
:106520009EE4F0A3F0D083D0820228831269242451
:1065300012F582E438F583221269242429F582E4D5
:1065400038F58322126924243512655F22126924EA
:10655000242C12655F22126924243212655F22F511
:1065600082E438F583126E15FB2212692424151279
:10657000655F2274F11223A0EAFEEBFF8C088D09FF
:10658000750A018C0C8D0D750E00780C1228D57CC7
:10659000177D00123D7374031228B6126B51E50883
:1065A0002411126CFCE06037126EE6123E4B8A0C2E
:1065B0008B0DA80CA90D1266826021E50824121229
:1065C00066681228D5E508241112665D125DB312C3
:1065D000667E123D7374031228B68003750A00E5C7
:1065E000082414126CFCE06035126EE6123E4B8AF1
:1065F0000C8B0DA80CA90DEE24151266856055E5CF
:106600000824151266681228D5E508241412665D60
:1066100012665912667E123D7374031228B6E50A9B
:10662000A2E0402BEE2412F582E43F12620D6009D5
:10663000125DB212667E123E51EE2415F582E43FE1
:1066400012620D600AEE12665912667E123E51A960
:106650000A025C26750A0080CB126B6622125DD49A
:1066600025E0FCE433FDEE22125DD4F50CA3E0F549
:106670000D780C22AC82AD83851882851983126552
:106680006522EE2412F582E43FF583125DC5E849E8
:106690002274EE1223A074ED122965890B8A0E8BE9
:1066A0000F750C00750D00750AFF7510FF7511FF51
:1066B000750800750900851882851983E41269C37D
:1066C00060177403650B60067402650B7010E0C8F8
:1066D00024301268F4650F600579000268EF7CF9D8
:1066E0007D417A007B001245897401650B700A8533
:1066F00018828519837485803DE50B6006740365F7
:106700000B701990119E126931F07403650B70299A
:10671000E50E6029851882851983801A7402650B3D
:10672000701BE50E90119E70051269318008126D84
:10673000191269487402F08004E50B601E12693773
:10674000701912695B6005126479800A12697060C1
:106750000A126D1624341268F414F012695B601882
:10676000126B491269AD126E0ECA2432126981246D
:106770001D12691824258026126970602690119ECA
:10678000E02417F508A3E03400F5091269A4126E9D
:106790000ECA24351269812406126918240E126863
:1067A000F4F50A7409122B78740212621A6003025B
:1067B000685BE5084509700302685B12693770047D
:1067C0007E2280027E2185088285098312691274E7
:1067D00001122B78126EBF9011A0E0C0E0126D166E
:1067E0002430F582E438F583D0E0F07412122B786F
:1067F0007403F0AC0CAD0D740A122927123FA78563
:106800000882850983A3E0F50C780C1228DD780A4C
:106810001228DD740C12291F880C890D780C12289F
:10682000D978101228D9E5082406F50CE43509F5C5
:106830000D780C1228D91268FCF9740912292FEE70
:10684000FA7B001242A174081228B67CF97D4190AF
:10685000038312667E1245890268ED126962122B6B
:10686000781269CA1228DD740112291F8808890963
:1068700078081228D975082075098078081228D957
:106880007901740612292F90119E12667E12422FF2
:1068900074051228B61269517050126D162419F53C
:1068A00082E438F5831269147401122B78E8F0A39E
:1068B0001264912418F582E438125DAA1228DD745E
:1068C0000112291F8808890978081228D97508201B
:1068D00075098078081228D97901740612292F12B7
:1068E000690512422F74051228B61241E779017426
:1068F00013025DDDF582E438F583E022E508126DD0
:106900001E125DD72290119EE02417FAA3E03400F6
:10691000FB22A3A3126DF522F50CA3E03400F50DC4
:106920001269242290119E12692B22E0F8A3E0C87C
:106930002212694174012290119E126941E06401A2
:106940002212692B12694822242FF582E438F5833C
:106950002212692412646DE06402221269B390115C
:106960009E2290119E1259CFA3A3126DF57401229D
:106970001269742212692B2434F582E438F583E01D
:1069800022F582E43AF583E028F8A3E039F9E82417
:10699000FEF582E934FFF583E0F510A3E0F51190F0
:1069A000119EE02290119E12697425E0221269B3B3
:1069B00025E02290119E12692B2431F582E438F5EE
:1069C00083E022126497F9E84922E8F0A312649662
:1069D000F5838882A3E0F508780822C082C0837B13
:1069E000007A8579011241F302652574F41223A01F
:1069F000ECFEEDFFEA126B1A126B11126E3912697E
:106A0000148E828F83A3A3126EBFEA126D1E126BC7
:106A100011A3F0126B46850882F583126E048E82F4
:106A20008F83A3A3A3A3126EC0E5082402F5085028
:106A3000020509FCAD09EE2406FAE43FFB123FA76C
:106A4000850882850983A3A3A3A3A3A3A3A3E0C06E
:106A5000E0126024F583D0E0F0E5082409F5085041
:106A6000020509F582850983126E04F8EE240F12DF
:106A70006EB9126B51850882850983A3A3E0FAEEF3
:106A80002411F582E43FF583EAF0E5082403F508D4
:106A900050020509EA6028126EE5123E4B8A0A8B05
:106AA0000BA80AA90B1266826015EE2412126B362F
:106AB0002411126B2EF91241A58A088B098007EE6A
:106AC0002411126B23F0850882850983E0FA126B8A
:106AD000F9EA126EC4858208858309602DEE2414BC
:106AE000126B2E126EE5123E4B8A0A8B0BA80AA976
:106AF0000BEE24151266856011EE2415126B3624F8
:106B000014126B2EF91241A58004126B20F002536F
:106B1000A13BF583E08E828F8322240FF582E4224D
:106B2000EE2414F582E43FF583E422EE240EF58290
:106B3000E43FF583E022F582E43FF583126CF3FD38
:106B4000AA08AB09EE22126F4FE0F508A3E0F509A1
:106B500022EE125DB7E4F0A3126B60E4F0A3F02222
:106B6000F0EE126B66222415F582E43FF583227461
:106B7000F61223A0ECFEEDFF126B46AC08FDEEFA18
:106B8000EFFB123FA7850882850983126E91E50805
:106B90002409F50850020509F582850983126EA8BB
:106BA000F0A3E9126C07126E77E5082403F508508C
:106BB0000205097403687022AC08AD09126BF1126A
:106BC0003FA7850882850983A3A3A3A3A3A3A3A3A7
:106BD000E0C0E0126BF9D0E080138508828509835C
:106BE000126E89F582E43FF583E8F0A3E9F00253E1
:106BF000F2EE240BFAE43FFB22EE126BFE22241489
:106C0000F582E43FF58322126EC8A3E02274F212EB
:106C100023A0EAFEEBFF750A00EE2410126B2EC3D0
:106C2000940C400D126D04126D19240B1268F4F5CA
:106C30000AA80A125323E8240DFAE439FB123E4B4A
:106C40008A088B09EA45097003026CE5EE125DC102
:106C50003F126E2CF88A828B83126EFD6003026CE9
:106C6000E5EEFCEFFDEA2403FAE43509FB123FA749
:106C7000EE2408FE50010F126E00850882850983FC
:106C8000A3126EC0E508240B126CFCE4F0E50A6068
:106C900054E508240DF8E43509F98E828F83A3A307
:106CA000E0C0E0E508240B126CFCD0E0126E1AC0C4
:106CB000E0126CF8D0E0F0EE2404FE50010F850ADB
:106CC0000B8E828F83126CF3FBEC88828983125ABD
:106CD00009E82402F8500109EE2402FE50010F15C4
:106CE0000BE50B70DCAA08AB09026E52EAF8EBF96F
:106CF00090119EE0FCA3E022E508240CF582E43527
:106D000009F58322126D0822126D0C22EE2413F570
:106D100082E43FF5832290119E12692722EE240E11
:106D2000F582E422FCEFFDE5082402FAE422126D6C
:106D30003222126D3622F088828983A3A3A322F522
:106D400083E0FEA3E02274F11223A0126F4BE0F562
:106D500008A3E0850882F583E0F50BA3858208850A
:106D60008309A3A3E0F50A126E5C3400FB123E4BCC
:106D70008A0C8B0DAE0CAF0DEE4F60378E828F8379
:106D8000E50BF0850882850983E0FA126ED185084B
:106D900082850983A3A3A3A982AA83890C8A0D886B
:106DA0000E780C1228D5126E573FFB123D737403F8
:106DB0001228B6025C2274F71223A0EA2413F8E426
:106DC0003BF988828983126E15F5838A82126EEDF3
:106DD000126DE888828983A3E0FA88828983A312EE
:106DE0006EF3126EC00252AF126DEF126DF522F00B
:106DF000888289832212649FF922EA240AFAE42213
:106E00008E828F83126E0822126E15F9EA22F8E440
:106E100033F990119EE0FAA3E022126E1FE02212D5
:106E20006E2322F08E828F83A3A3A322F583E0FE3C
:106E3000A3E0FF8E828F83E022126E3EA322F08AAF
:106E4000828B83A322126E4922F08A828B83A3A3B2
:106E5000A3227F060225FBAC0A7D00EE2404FAE49F
:106E600022126F05A3E022126E6B22126E703B227B
:106E7000EA2413F582E422F8126D08E8F022E0F526
:106E80000FA385820A85830B22126E08F8EE240B6D
:106E900022A3A3A3A3A3A3A3A3E08E828F83A3A370
:106EA000A3A3A3A3A3A3F022126E088E828F83A3B1
:106EB000A3A3A3A3A3A3A3A322F582E43FF583E89E
:106EC000125DC622126EC822F0850882850983A34E
:106ED00022A3E0F8E4C8F9EA8E828F83A3126F0C34
:106EE000A3E50AF022FA25E0FAE433FB22E08C82E3
:106EF0008D8322A3E0F9EA8C828D83A322126F0591
:106F0000AE82AF8322F08E828F83A322F0A3E91298
:106F10006F05A32274F61223A08C088D09126F4B03
:106F2000126F56126E008C828D83126F5D50010FAE
:106F3000126D243509FB123FA78E828F83A3A3A372
:106F4000127013A3A3A3A3F00253F2126F4F2212E5
:106F50006E703BF58322126214FEE9FF22125DC6B9
:106F6000EE2402FE22126F6922126E15F8E4C8F9AF
:106F7000EA2822126E49A3A3A3A32274F61223A027
:106F80008C088D09126E67127005123D8BEAF8EBC2
:106F9000F9ECFAEDFB850882850983122B498E8274
:106FA0008F83A3A3A3A3E0F8850882850983A3A305
:106FB000A3A3F0C3940650098E828F8312701880A9
:106FC00040850882850983A3A3A3A3E064FE600E25
:106FD000850882850983A3A3A3A3E0F470248E828D
:106FE0008F83127013F0EE2406FE50010F85088285
:106FF000850983A3A3A3A3E0F4700712702AF0A36A
:10700000E9F00253F2F583E0FEA3E0FF7904EEFA23
:10701000EFFB22127018A322A3A3A3A3A3E0850869
:1070200082850983A3A3A3A3A3228E828F83126EDA
:1070300008850882850983A3A3A3A3A3A3A322741D
:10704000ED1223A0EAFEEBFF750A008E828F83A368
:10705000A3E0700302713F147003027145147003C2
:1070600002714B14700302715114700302715724A2
:10707000FD700302716314700302716F14700302D8
:10708000717514700302717B1470030271811470A6
:107090000302718714700302718D147003027193DF
:1070A00014700302719914700302719F147003022B
:1070B00071A514700302715D14700302716914707C
:1070C000030271AB24F8700302716F147003027134
:1070D0007524FD70030271B124FE70030272C014A6
:1070E00070030271B724F370030272C514700302B7
:1070F00072C51470030272C51470030272C5147055
:10710000030271BD1470030271F314700302725F05
:107110001470030272711470030272C524F87003B4
:107120000272C514700302722914700302728B1468
:1071300070030272C024B370030272F3027331123F
:107140003B4B027334123B51027334123B570273B0
:1071500034123B5D027334123B63027334123B7B87
:10716000027334123B75027334123B810273341282
:107170003B69027334123B6F027334123B87027314
:1071800034123B8D027334123B93027334123B99D9
:10719000027334123B9F027334123BA50273341204
:1071A0003BAB027334123BB1027334123BB7027330
:1071B00034123BC9027334123BCF02733412737220
:1071C000123D9D8A088B09EA450970030273348ACF
:1071D000828B8374E612738E60131273431228D568
:1071E00012737F123D7374031228B6800312733B2F
:1071F000027323127372123D9D8A088B09EA4509B6
:1072000070030273348A828B8374E712738E601367
:107210001273431228D512737F123D737403122820
:10722000B6800312733B027323127372123D9D8A60
:10723000088B09EA450970030273348A828B8374D0
:10724000ED12738E60131273431228D512737F12DE
:107250003D7374031228B6800312733B02732375C7
:10726000080378081228DD7B00EEFCEFFD7AE88049
:107270001075080378081228DD7B00EEFCEFFD7A1C
:10728000E99005CFE0F9123BDB8061127372123D89
:107290009D8A088B09EA450970030273348A828B40
:1072A0008374EC12738E60131273431228D5127319
:1072B0007F123D7374031228B6806812733B80639B
:1072C000123BD5806F8E828F83E0F50878081228F4
:1072D000DDEE2403FCE43FFD8E828F83A3A3E0FB5D
:1072E0008E828F83A3E0FA7900123CEF740112289A
:1072F000B68041127372123D9D8A088B09EA4509D6
:1073000060328A828B8374EE12738E601312734321
:107310001228D512737F123D7374031228B68003AE
:1073200012733BAA08AB099005CFE0F9123DA98082
:1073300003750A02A90A7F0B0225FB127367E4F0AA
:10734000A3F022EA2427F50CE43509F50D12736742
:10735000E50CF0A3E50D127C55A982AA8389108A59
:1073600011751200781022EA2422F582E43509F51D
:1073700083228E828F83E02427FAE43400FB22E507
:10738000081273A0E0FCA3E0FDAA0CAB0D22F08E66
:10739000828F83E0F8EA1273A0E8F0A3E4F0E82219
:1073A0002420F582E43509F58322C082C0838A82D5
:1073B0008B83A3A3A3E0600914601B24FE600E80EE
:1073C00018C2AFC2AF75C9AB75C95B80FE1230770A
:1073D00012307D124373122B82027A47C082C0831F
:1073E00074FE1229658518828519837411F0740161
:1073F000122B78E4127A007A01027A3DC082C083AF
:107400007C537D827B057A027961123B21027A47A7
:1074100074F61223A074FF1229658B09127904F502
:1074200008500205090A0A0AAB0979E21243A9E9E0
:10743000702878081228D97508087509007808128C
:1074400028D97C007D007A017B00123ECF740412A3
:1074500028B6E9851882851983F0AC18AD197B012F
:10746000EEFA7961123B2174010279F7C082C08380
:1074700074F8122965AA18AB1979E21243A3AC1863
:10748000AD197B087A047961123B217408027A44B1
:1074900074EC1223A074FE122965EAFEEBFF750A54
:1074A000008E828F83A3A3E0F50BEE2403FE500130
:1074B0000F8E828F83127722FB123EC98A0C8B0DAE
:1074C000AC0CAD0D746965087002E5096012746B4F
:1074D00065087002E5096008746A6508450970036B
:1074E000750A02743A65087002E509602F743B65FD
:1074F000087002E5096025E50824FFF8E50934FE77
:10750000F9C3E894FFE99400401219C3E894FFE935
:10751000940040087462650845097003750A027496
:1075200008650B8E828F83A3A37006E0FE7F008028
:107530000BE0FA8E828F83A3A3127800C3EE9CEF38
:107540009D4006750A020275DEE50A60030275DADF
:10755000ECC39EF510ED9FF511C3E5109479E5118C
:1075600094004006751078751100E5102402F50CA2
:10757000FA7B00123E4B8A0E8B0FEA450F70030216
:107580007606EA2402F512E4350FF513AC10AD11BE
:1075900079000A0AFB123D7F78121228D97810125E
:1075A00028D9EEFCEFFDAA08AB09123ED5740412EF
:1075B00028B6E9701B850E82850F83E4F0A3E510E1
:1075C000F0AC0EAD0FAB0CAA0B7961123B2180031E
:1075D000750A0AAA0EAB0F123E51E50A601E90838F
:1075E00004AC18AD1974021227E18518828519833D
:1075F000E50A127A00AA0B7961123B217402122863
:10760000B67F0C0225FB750A1080D374EE1223A0FE
:1076100074FF1229658B0D851882851983E4127910
:1076200014F50AEA2403F50C5002050DF582850DC8
:10763000831277227409650A850C82850D83A3A3C2
:107640007018E0FE7F00850C82850D83A3A3A3E064
:10765000F50E880FE50C24048026127716E0F9EA6F
:10766000FEE439FF850C82850D83A3A3A3A31277C3
:1076700016A3A3E0F9EAF50EE439F50FE50C2406AC
:10768000F50C5002050DAA08AB09123EC9EE250EF5
:10769000F8EF350FF9C3EA98EB99405AEE4F7015A1
:1076A000780C1228D9AC0EAD0FAA08AB0912439181
:1076B00074021228B6780C1228D9780E1228D9EE46
:1076C000FCEFFDAA08AB09123ECF74041228B6E9FC
:1076D000701A7401650845097025AA0CAB0D79E292
:1076E0001243A9E98518828519838012851882853D
:1076F0001983740A80088518828519837402F0AC96
:1077000018AD197B01AA0A7961123B217401122874
:10771000B67F0A0225FBE0FA850C82850D83A3A3C0
:10772000A322E0FAA3E0F8E4C8F9EA28F508E4396E
:10773000F5092274F21223A074FF1229658B09EA5D
:107740002403F50850020509F582850983E0FA1241
:107750007800850882850983A3A3E0FA85088285DD
:107760000983A3A3A3E0F9EAFCE439FD8508828537
:107770000983A3A3A3A3E0F50AE5082405F50850AF
:10778000020509C3E50A9CE49D5045E4F50CF50D9E
:10779000780C1228D9EEFAEFFB123EC374021228BD
:1077A000B6E9851882851983F06409703CE50A60A2
:1077B0003878081228D9750B00780A1228D97C006D
:1077C0007D00EEFAEFFB123ECF74041228B680194A
:1077D00078081228D9EEFAEFFB123EC37402122881
:1077E000B6E9851882851983F0AC18AD197B017A4A
:1077F000077961123B2174011228B67F060225FB2E
:10780000A3E0F8E4C8F9EA28FEE439FF2274F7128D
:1078100023A074FF122965EA2403FA50010B8A821F
:107820008B83A3A3E0FC8A828B83A3127849E4397B
:10783000FD8A828B83E0FEA3E0F9EEFAE439FB12C5
:107840003EDB127C647A128012A3A3E0F8E4C8F94C
:10785000EC2822AC18AD197B01EEFA7961123B21BC
:1078600074011228B67F010225FB74F61223A0745E
:10787000FE122965EA2403FA50010B8A828B83E009
:10788000FC12784AFAE439FB123EC9851882851940
:1078900083EAF07401122B781279FF7A130279F0DF
:1078A00074F41223A074FF122965127904FA5001AE
:1078B0000B8A828B83E0C394045032A3E0FC8A825B
:1078C0008B83127849F508E439F509E4F50AF50BDC
:1078D00078081228D18A828B8312795A123F057454
:1078E000041228B6E98518828519838008851882D4
:1078F0008519837402127C6BEEFA7961123B217454
:1079000001027DDA8518828519837401127914FECB
:10791000EA240322F08A828B83A3A3E02274F71265
:1079200023A074FF1229658518828519837401F0DC
:10793000127A08C3940450168A828B83A3A3A312DD
:10794000795A123F11E985188285198380088518B4
:10795000828519837402F0027853E025E0F8E4335D
:10796000F9741528F582748239F583E0FAA3E0FBF7
:10797000900A34E0F92274F61223A074FE122965ED
:10798000123D61851882851983EAF07401122B7803
:107990001279FF7A0C805974F61223A074FE122912
:1079A00065127A08F912274C010007B679020EC257
:1079B000790FC879D9798A828B83A3A3A3A3E0FA2C
:1079C000800A7A04790E80047A04790F1237318A9A
:1079D000088B09A808A909800478007900E88518AF
:1079E00082851983F07401122B78E9127A00EEFA7D
:1079F0007961123B2174021228B67F020225FBEB4B
:107A0000F0AC18AD197B02228A828B83A3A3E0FE1F
:107A10008A828B83A3A3A3E022C082C08374FF1257
:107A200029658A828B83A3A3E0FA8518828519834E
:107A3000E4127C6B7961123B217401800779611239
:107A40003B2174021228B6D083D08202288374F7B7
:107A50001223A074FF1229658A828B83A3A3E0FE00
:107A6000EA2403F8E43BF988828983A3AA82AB83E2
:107A700088828983E06005146006802979E0801996
:107A80008A828B83E06401600EE0600BAA18AB1958
:107A900079521243A3801779521243A9E9851882BB
:107AA00085198380088518828519837402F002780D
:107AB0005374F01223A074F8122965EAFEEBFF8ECE
:107AC000828F83A3A3E0F508EE2403FE50010F7913
:107AD00004FAEFFB123D8B8A0C8B0D8C0E8D0FEA96
