:020000040020DA
:100000003470002021A3210051A3210055A3210019
:1000100059A3210059A3210059A321000000000089
:1000200000000000000000000000000059A32100B3
:1000300059A321000000000059A32100A5A0210020
:1000400059A3210059A3210059A3210059A321003C
:100050000000000059A32100C3A7200059A32100DC
:1000600059A3210000000000000000000000000073
:10007000000000000000000059A321000000000063
:10008000000000000000000059A3210059A3210036
:1000900059A3210059A3210059A3210059A32100EC
:1000A00059A3210059A32100074820006D482000D2
:1000B00059A3210059A3210059A3210059A32100CC
:1000C00055A42100BF47200059A3210059A32100B6
:1000D00059A3210000000000000000000000000003
:1000E0000000000000000000000000000000000010
:1000F00059A321000000000059A3210000000000C6
:10010000082102F0CDBE38B5DFF8084A0FF22170A1
:10011000594D60650FF6B900A0650FF27550E862A1
:100120000FF225502863DFF8000C6863DFF8FC0B42
:10013000A8630FF6BD00E8630FF2A93028640FF240
:10014000B15060640FF20560A0640FF27550E06476
:10015000DFF8DC0B2065286908B102F0DCFFDFF86E
:10016000140CA8600B2208202873002100202861AD
:1001700084F82000287505F1150002F03FFD05F117
:100180002000BDE838400B22002102F037BD30B519
:100190000446201D83B0052141820321017461685A
:1001A000491E4A1E626094F836200A7094F8361090
:1001B00011B14FF6FF7101860268018E521E026076
:1001C000090A02F8011F6268018E11700179C91CC9
:1001D000017100A804F12B0102F0F6FF03208DF855
:1001E000080000AADFF86008C38C0321204601F054
:1001F00075FE050004BF204600F071FF01F0ABB8AA
:1002000038B504460D466068411E100A087001F8B2
:10021000012D049801F8010DDFF82C08428D120A17
:1002200001F8012D408D01F8010D180A01F8010DAA
:1002300001F8013D207A62681018401A207261604E
:10024000287A03280CBF01200020E0820B2209201D
:10025000207504F12000394902F0B8FC4FF6FF7315
:100260002A460321204601F039FE050004BF20463E
:1002700000F035FF284632BD3C4C00202DE9F04708
:1002800005460F469246002602F0B6FFDFF880884A
:10029000D8F8004000F0010080F0010913E0607E12
:1002A000400613D560684178C1F3810103290DD15F
:1002B000ED1F411D284602F087FF103654F8084C08
:1002C0006D1EF6B27F1EFFB227B101E054F8084C54
:1002D000002CE4D1B9F1000F18BF02F089FF02F041
:1002E0008BFF00F00100D8F8001080F001000BE057
:1002F000927905F80129761C4A68527905F8012996
:10030000F6B27F1E51F8081C89B14A685378C3F3CE
:100310008103022BF6D14B7E5B06E9D40A7E92065E
:10032000F0D50122FFB28AF80020002FEAD108B1EF
:1003300002F05EFF2E70681EBDE8F087514C002071
:100340002DE9F04784B0804600208DF800008946F2
:10035000DFF8BC07857A9246082DA8BF0725DFF88D
:10036000E876387B00EBC5003D30C6B2304602F07F
:1003700075FC04004DD030196060002020723A7B7B
:100380006068B968861A304602F020FC00AA294647
:10039000701EFFF773FF0021DFF8742B0170527895
:1003A0007978920142EAC11141EA0A1141F00F0144
:1003B00000F8011D48EA091100F8011D6268217A60
:1003C0005118091A217260600B220020E08220750A
:1003D0008DF80C0004F12000DFF8501C02F0F6FB51
:1003E0009DF8000018B1E08A40F00800E0824FF666
:1003F000FE71788D8842ACBF03210221002301AA3F
:10040000204601F06BFD0028204602D002F038FCA7
:10041000002004B0BDE8F087F8B5044602F0ECFE19
:1004200000F0010080F00105DFF8E406076800260F
:100430000EE0787E000609D56168786801F0F4FC6A
:1004400020B1787E00F0BF0078763E4657F8087CF1
:10045000002FEED11EB1707E40F040007076002D6E
:100460001CBFBDE8F14002F0C3BEF1BD2DE9F84369
:1004700080468946002402F0BFFE00F0010080F0B3
:100480000107DFF88C06066800250CE0354605F10B
:100490001800417841F010014170287E40F0800042
:1004A000287656F8086C9EB1707E0006F9D5726801
:1004B0004946404601F0D4FC0028F2D0002DE5D09A
:1004C000287D012804D16868017841F0100101708D
:1004D0000FB102F08DFE15B100F0AAFD01242046F7
:1004E000BDE8F2832DE9F04182B00024009402F0CF
:1004F00083FE00F00100DFF81866376880F0010520
:100500000EE057F8088C22463946304602F089FC46
:10051000394600A802F03DFCB07A401E4746B07252
:1005200067B1787E000605D5788A401E788280B251
:100530000028E6D03C4657F8087CF1E70DB102F000
:1005400057FEB07AE8B1DFF80005DFF8C845407B18
:100550000F281CBF94F82000002812D1DFF8605C3F
:10056000284602F001FB02F058FF3030686004F1C9
:100570006C01284602F0CAFA03E06070204600F0E1
:10058000A0FC00A802F025FC040007D0FFF744FF00
:10059000607E40074CBFE920F020EEE7BDE8F38124
:1005A00070B50546FFF738FFDFF86445DFF898645B
:1005B000A06F80470128F08D08BF401C6882A07A98
:1005C000002804BF707B0F280DD1DFF8F45B2846AC
:1005D00002F0CAFA02F021FF303068602846DFF8E6
:1005E0007C1C02F093FA02F007FEA17A491CA1726A
:1005F000002804BFBDE8704002F0FABD70BD38B5F8
:100600000446607E00F0EF0060762046FFF704FFAE
:10061000DFF8FC542146284602F0F5FB02F0ECFD21
:10062000A97A491CA97208B902F0E2FDDFF81804A2
:10063000407B0F2806D1BDE83440DFF8D4080078AD
:10064000FFF75EBD31BD000010B50446DFF8F803CA
:10065000407886B0C8B101208DF8000004F11C017B
:1006600000208DF801000DF1020002F0ADFD606880
:1006700000788DF80A000B2204F10F010DF10B0038
:1006800002F0A4FA00A802F029FF06B010BD000095
:1006900010B50446FFF77BFDDC2818BFDD2808D025
:1006A000E42818BFF32804D0DE281CBFDF28DB288D
:1006B00005D101462046BDE8104001F015BA10BD35
:1006C00010B586B0044606208DF8000004F11C0128
:1006D0000DF1020002F078FD0B2204F10F010DF183
:1006E0000A0002F073FA00A802F0F8FE06B010BD8E
:1006F00010B5044684B094F8360028B304F12B01F9
:1007000001A802F061FD03208DF80C00CE4890F89E
:100710003A10C38C009101A9A28E2046FFF770FD0C
:10072000DC2818BFDD280BD0E42818BFF32807D039
:10073000DE2818BFDF2803D0E82818BFDB2803D144
:100740000146204601F0D0F904B010BD2DE9F04378
:1007500085B004464FF00009E72602F04DFDDFF8B2
:10076000B0733D6800F0010080F0010802E0A94686
:1007700055F8085C95B1687E0006F8D5287D0128FB
:1007800002BF95F8390021798842F0D14A462946BE
:10079000384602F046FBB87A401EB872B8F1000F36
:1007A00018BF02F025FD002D3BD02846FFF734FE90
:1007B0002978DFF8D80B085C8DF800000B2805D1EC
:1007C000F0206870284601F02FFD29E040B30C2886
:1007D00020D1019595F839008DF80200E868029063
:1007E00005F10C008188ADF80C10817AC90648BF6C
:1007F000002104D49449827B91F83410891A8DF831
:100800000E10417C8DF80F10817C8DF81010C07C8B
:100810008DF81100F0208DF8010000A802F05EFEB6
:1008200000263146204601F05FF905B0BDE8F083AF
:1008300070B5044684B06078F32818BFDF285AD01A
:10084000E82818BFDB2856D0204600F059F80600EB
:1008500050D1207C00284DD004F11101092000F076
:10086000E9F9050046D002208DF808004FF6FF7622
:10087000ADF80060FF236868A17A228900F8013D85
:1008800000F8013D00F8011D6F494B8D1B0A00F86F
:10089000013D498D00F8011D110A00F8011D00F805
:1008A000012D297A6A685118091A297268609DF821
:1008B000080003280CBF01200020E8820B22092039
:1008C000287505F12000DFF8501C02F07FF933464F
:1008D00000AA0321284601F001FB060004BF2846B8
:1008E00000F0FDFBF32E18BFDF2E03D0E82E18BF5B
:1008F000DB2E03D16670204600F06AF804B070BDAC
:1009000038B504460025A07A0B38122828BFE82500
:10091000207B1028A8BFE82501DA0F2804D07C49E5
:10092000097E090758BFE825617B884202D20F295A
:1009300018BFE8254448408D4FF6FF71884208BF34
:10094000EC25242002F080FBDFF87418086120B148
:100950002422211D02F03AF900E01A25284632BD72
:1009600070B504463848217ADFF8A465C51CA97221
:10097000617A80F82C10E17AC170A07A707002F070
:10098000DFFE707838B1211D502003F015F8A11D4D
:10099000E12003F011F85F49012081F82000A87AD6
:1009A0000F2814BF01200020DFF8145828750B22EF
:1009B00004F10D0105F1150002F008F904F1180128
:1009C00005F12000BDE870400B2202F0FFB80000E6
:1009D00010B50446607820B9DFF8E4070069FFF736
:1009E000BFFF2C2020702046BDE8104001F0BEB8AB
:1009F00010B5DFF8CC170446086918B100220A6167
:100A000002F089FB082020702046BDE8104002F06B
:100A100065BDDFF8AC173F48097D90F8200081F0F4
:100A20000101084200D1704780B50748C27890F8AC
:100A30002C10407BFFF784FC00281CBFBDE802405F
:100A400000F04DBB01BD0000D04800202DE9F0436F
:100A5000814687B099F80E00012409F20E0640077E
:100A600039D5318D09F11C00FFF700FD98BBDFF887
:100A70009C0C407920B1B07D022808BF00242AD008
:100A80000B2209F10F0104A802F0A0F8DFF8800C96
:100A9000408D4FF6FE718842ACBF03270227B6F89F
:100AA000288004A9012000F0C5F8050013D03020EB
:100AB000E8822C750B2204A905F1200002F086F8CB
:100AC000434609F11C023946284601F007FA10B9DD
:100AD000284600F004FB10208DF8000009F11C01ED
:100AE0000DF1020002F059FB308DADF80C008DF8CD
:100AF0000E4000A802F0F2FC07B0BDE8F083DFF87A
:100B00001004407800B9704700B500F017BF00002E
:100B10008040002000400020DFF8F80BDFF8F81BD1
:100B200001F154020263DFF8F42B426301F1440245
:100B300082630FF22002C266DFF8E42B4264DFF822
:100B4000742C0267DFF89C2C0A66018B41F00201CD
:100B500001837047030471040204600411047004EB
:100B600002040204010402041004610400041404D9
:100B7000630473047204620443040004130406044F
:100B8000000400040404120400040004000400042F
:100B90005104640000040004000444040004000440
:100BA00000040004650400043504810464000504A5
:100BB000000483040004000002460146032000F004
:100BC000FDBF02460146052000F0F8BF30B50446DF
:100BD00085B0282002F042F8050004D008202870D3
:100BE000242200F0E7BE082000F0DABE10B5DFF8DE
:100BF000244B0FF2C520606782B00FF2A920A067D6
:100C000006E0204602F0E5F8009000A801F0ADF8FB
:100C100020680028F5D1606838B1201D02F0D9F8AD
:100C2000009000A801F0A1F8F5E72060A072E07242
:100C3000207313BD38B504460FF23800255C2846F2
:100C400002F00CF820B1291841600021017232BD78
:100C5000022002F003F850B10FF2C421615C017070
:100C60001A2141700146AA48007802F018F80020C5
:100C700032BD0000004246484045453F354D3600F4
:100C8000821DD2B2C90711D50A2192FBF1F101EB05
:100C90008103A2EB4301C9B241B10A32521AD2B266
:100CA0000529A4BF0A32D2B20B32D2B21328ACBF8C
:100CB000142006208018C0B209300A2190FBF1F000
:100CC000C0B2704780B5DFF84C0A007E800706D5B9
:100CD00002F0EDFC401E8041C043C00F02BD002069
:100CE00002BDDFF8300A017E89070FD5807A58B936
:100CF000DFF8240AC06D48B1407E00F08001481E34
:100D00008041C043C00F70470120704700207047EA
:100D1000DFF8001ADFF8F429097B9278914238BF96
:100D200001F09CBF00207047130A20004D0A2000EC
:100D3000FF0A200038B5040008BF02F05BFF02F094
:100D40005BFA00F00100216880F0010561B1DFF875
:100D5000C4295369A1F108008B4204BF00215161ED
:100D60000021216002F0D7F90DB102F041FA002014
:100D700032BD00000D1A200011B581B0007B20B1FA
:100D800001282CD003282CD03EE0DFF88449607B7A
:100D90000F281EBFDFF87C09807E032804D0DFF80F
:100DA00078190198496E8847019994F83A00887338
:100DB000142001990870DFF85C490199201D01F0A9
:100DC000E8FF02F019FA217B491C217308B902F0EF
:100DD0000FFA20214E48007802F062F813BD15206A
:100DE000E7E70198007A78B101994A68521C4A6095
:100DF00012F8011D019A5173019A0199D27D497B24
:100E000032B109B10A2912DB01A800F0AEFF13BD0F
:100E10000A0008D00A2A06DA0FF23001511811F838
:100E2000011C884203D0082A08BF0828ECD1019988
:100E3000401E087201980199407B0A3008700198A1
:100E40000199407B401C4873B5E700000204020191
:100E50000101010902000000DFF8B808C06F0100BD
:100E600018BF00470020704738B5044601202075A0
:100E700004F1140104F1380042884A800279CA71F1
:100E800004F12C024079087220464B8C94F83810FB
:100E900001F024F8050004BF204600F020F92846A0
:100EA00032BD0000DFF86C08807E032801D00120ED
:100EB0007047202070470000417E41F001014176DB
:100EC0007047017D027E012904D113075CBF417880
:100ED00000F00ABE530603D50D494078896D0847D6
:100EE000012903D1120748BF30210BD442781B2AB5
:100EF00008BF222106D0002A0CBF0FF218020FF201
:100F00002002895C017001460148007801F0C7BEEB
:100F1000A44A0020303016181920231A1C1E300055
:100F2000303017181921301B1D1F300038B5DFF87D
:100F3000E8470546E06D002876D025B11B2D05D188
:100F4000017D052956D00021417055E0E92D2BD1B6
:100F5000807E30B902F0B4FB18B1E06D807D4007AF
:100F60002BD5EE2002F06EFEE06D817E002942D08E
:100F7000827D520705D4491E8176BDE8314002F0DA
:100F800019BF017E01F07F010176E06D017D03292B
:100F900003D1417E41F004014176ED2002F052FE82
:100FA000E06D216E88472AE0E12D1CD102F088FB1C
:100FB00000B3E06D807D40071CD4DFF85407E26D7C
:100FC00000F12201897C9176E26D90F8221052683E
:100FD000917090F82210491C80F822100120BDE881
:100FE000324002F048BE1C2D04D1A16E884700207B
:100FF000E06531BDE06D4570E06DFFF762FFE06DCB
:10100000807D000609D5DFF8080700F22205287E5A
:1010100002F0E6FBE87D02F0A9FB0020E06510216C
:10102000BDE8344000F0F4BC31BD00005C4C002051
:101030002DE9F041002402F0DFF800F00100DFF8B4
:10104000D85680F00108E86D90BBDFF8C876B86F1D
:1010500080473E6840F0100002E0344656F8086CC5
:1010600036B3717E01408142F7D12246314638467F
:1010700001F0D7FEEE65707E000620D4F87A401E9F
:10108000F872B8F1000F18BF02F0B2F8EC6DE18A07
:10109000207AFFF7F5FD3881A07D000613D5E07EAC
:1010A00002F09EFBE86D007FBDE8F04102F05EBB00
:1010B000B8F1000F11D0BDE8F04102F099B8B87A4C
:1010C000401EB872DDE7207EBDE8F041400800F028
:1010D000010080F0010002F0CEBDBDE8F08138B51E
:1010E000DFF8305604466869A04204BF00206861FA
:1010F000207E000706D4207D012803D1DFF80C06EE
:10110000027802E0DFF8040642782146284601F022
:10111000A7FEC0B1696F20468847A07D40070DD467
:1011200002F06AF8E97A491CE97208B902F060F83D
:10113000E08AC0050DD4BDE8314079E7296F20462B
:10114000BDE834400847F12060702046BDE83240D9
:10115000B7E631BD6CE710B5DFF8B815098B04466A
:1011600000208A0705D404F134029279520748BF5F
:10117000E8206022114205D104F134018979890700
:1011800048BFE820DFF8741C227A8979914238BF81
:10119000E82004F134010979002902BF94F83410E1
:1011A0000029F52004D010B92046FFF75DFE28B1D4
:1011B00001462046BDE8104000F096BC10BD00007E
:1011C0003C4C00200D21017002F088B900B585B0BB
:1011D000002101704170DFF8341590F83A30097839
:1011E000DFF830255B0715D4D27A8A4215D30C215B
:1011F0008DF80010019090F839108DF80210C16838
:1012000002910C308188ADF80C10817AC9060CD59A
:10121000002110E0927A8A42E9D20146DFF8000C00
:10122000007801F03CFD05B000BDDFF8F017827BCF
:1012300091F83410891A8DF80E10417C8DF80F103A
:10124000817C8DF81010C07C8DF81100F1208DF894
:10125000010000A802F042F905B000BD6C4000207A
:1012600010B5044604F1580080B201F0F7FC18B143
:10127000047200F15801416010BDDFF8A80B0FF2B5
:101280005911016002220FF29D4141600FF2C91114
:1012900081600FF22521C1600FF2F13101610FF27F
:1012A0005D3141610FF21D3181610FF20D51C1615C
:1012B0000FF2355101620FF2A55141620FF209613F
:1012C00081620FF25921C1620FF2C50101630FF271
:1012D000910141630FF2793181630FF2D151C16302
:1012E000DFF8E81B01640FF2F55141640FF2496128
:1012F00081640021DFF8D80B80F85C1080F85F1063
:101300000FF20971C1633C30016102710121017565
:10131000704730B50446251D83B00120688204F172
:101320002E010220287400A801F037FF6068AB8E00
:10133000401E606000AA616894F83A00087083213A
:101340002879401C2871204600F0C8FD050004BF24
:101350002046FFF7C4FE284603B030BD0000000061
:1013600038B5DFF8AC03DFF8685B90F8350000EBC8
:1013700040010C0102F051F80019A86405F1440085
:10138000BDE83440DFF8501B01F0C0BB4429200009
:1013900030B5DF4C607B93B00F2807D02E208DF83E
:1013A000000000A800F0E2FB13B030BDDFF8205BC6
:1013B00005F1340001F0D8FB608E1421B0FBF1F48C
:1013C00002F02BF80019A86305F13400DFF8081BC0
:1013D00001F09CFB13B030BD10B50446607888BBAB
:1013E00094F8361002291CBF0329E82094F82B102A
:1013F0000B39122928BFE82025D218BB04F12B0194
:10140000E12002F0D9FA04F13801502002F0D4FAB8
:1014100094F83610BE48022902D1E18D018407E01C
:101420004FF6FE710184163004F12E0101F0CCFE5E
:101430000B2204F12001DFF89C0A01F0C7FB2046D3
:10144000FFF767FF30B16070172020702046BDE8BD
:1014500010408BE310BD000070B5DFF8744A94F8BB
:101460005F0084B028BB012084F85F0002F0A6FD75
:1014700000A800F0C5FC04F15401A548C58C052066
:10148000FFF7D8FB060014D00120F0820B220520C4
:10149000307504F1540106F1200001F097FB2B4652
:1014A00000AA0321304600F019FD10B93046FFF7BD
:1014B00016FE04B070BD000010B5044682B00120D5
:1014C00002F08EFD2078202804BFEB206070DFF84A
:1014D000000A90F85F104A0744BF01F0FB0180F852
:1014E0005F1090F85F108A0710D501F0FD0180F8B9
:1014F0005F100A2160788DF801008DF8001000203F
:101500008DF8020000A801F0E9FF13BD2A20207029
:10151000204600F02BFB13BD514C002070B5054652
:1015200086B0012002F05CFDDFF8A44904F134002C
:1015300001F01AFB04F1440001F016FB6868017821
:10154000427801EB0221ADF80410867846B901A972
:10155000532002F031FA05F11C014A2002F02CFA66
:101560000B2205F10F0104F1540001F02FFBBDF82F
:1015700004008DF8096002218DF808100EB14FF6B5
:10158000FF70ADF80A000B2204F1540103A801F02A
:101590001DFB02A801F0A2FF94F85F0080070BD5A5
:1015A00068788DF801000A2100208DF802008DF87E
:1015B000001000A801F092FF002084F85F0006B040
:1015C00070BD000010B5044682B0EB206070DFF8FB
:1015D000000990F85F0080070BD50A208DF8000005
:1015E000EB208DF8010000208DF8020000A801F02A
:1015F00075FF204600F002F813BD000030B5054627
:1016000085B0012002F0ECFCDFF8C44804F134009E
:1016100001F0AAFA04F1440001F0A6FA002084F8CF
:101620005C0084F85F000B2202208DF8000004F1BA
:10163000540168788DF801004FF6FF70ADF8020094
:1016400001A801F0C3FA00A801F048FF05B030BDC1
:1016500010B5044682B0EB206070DFF8740890F893
:101660005F0080070BD50A208DF80000EB208DF875
:10167000010000208DF8020000A801F02FFF204695
:10168000FFF7BCFF204600F07BFE13BD10B50446FB
:1016900082B0012002F0A4FC207A002814BF0020B0
:1016A000EB206070DFF8280890F85F104A0744BF0D
:1016B00001F0FB0180F85F1090F85F108A0716D5E3
:1016C00001F0FD0180F85F10A07B00F01000012800
:1016D000ACBF0120002061788DF802000A228DF84D
:1016E00000208DF8011000A801F0F8FE08E0C807FE
:1016F00006D52A202070EB206070204600F036FAD4
:101700000D202070204601F0E9FE13BD44A4210005
:10171000D04800208040002000400020684C00207D
:10172000070120002DE9F8430446DFF8A40790F8EC
:101730005F1041F0020180F85F10012002F03EFCD2
:10174000607840BBB548408D4FF6FE718842ACBF13
:101750000325022504F11008B4F80E901A2641461C
:101760000520FFF767FA070014D00120F8820B224A
:1017700005203875414607F1200001F027FA4B4655
:10178000221D2946384600F0A9FB060004BF384652
:10179000FFF7A5FC6670607850B18DF801000A2152
:1017A00000208DF802008DF8001000A801F096FED0
:1017B000BDE8F183A105200010B5044682B00120E8
:1017C00002F00EFC2078202804BFEB206070DFF8C8
:1017D000000790F85F104A0744BF01F0FB0180F852
:1017E0005F104DE0FF05200038B50446012002F0EF
:1017F000F7FBDFF8DC5605F1340001F0B5F9207A8B
:10180000002814BF0020EB20607095F85F004107AE
:1018100044BF00F0FB0085F85F0095F85F0081078A
:1018200015D500F0FD0085F85F00A07B00F01000EA
:101830000128ACBF0120002061788DF802000A2247
:101840008DF800208DF8011000A801F047FE0D2052
:101850002070204601F042FE31BD000010B5044664
:1018600082B0012002F0BCFBEB206070DFF8600664
:1018700090F85F104A0744BF01F0FB0180F85F1049
:1018800090F85F108A070FD501F0FD0180F85F1016
:101890000A2160788DF801008DF8001000208DF885
:1018A000020000A801F01AFE13BD000010B50446A6
:1018B000DFF8E00B01F058F92046FFF7CFFF204694
:1018C000BDE8104000F05CBD10B50446DFF8C40B65
:1018D00001F04AF92046BDE81040BFE710B50446C4
:1018E00086B004F11C01DFF8B00B01F043FC08B333
:1018F00009208DF80000EF208DF801006068017864
:10190000427801EB0221ADF8021000798DF8040055
:10191000207A082806BF6068C07900208DF805008D
:101920000B2204F10F010DF1060001F04FF900A8A0
:1019300001F0D4FD06B010BD4DF804ED85B00920CE
:101940008DF80000EE208DF8010000A801F0C6FD22
:1019500005B000BDDFF8440BDFF8C81481623831F0
:10196000C1620FF2BC0101660FF218114166DFF887
:10197000301B0164018B41F0010101837047024675
:10198000014602201AE130B5044685B01C2001F062
:1019900065F9050003D00620287018220AE00A2005
:1019A0008DF800001A208DF8010000A801F096FDC6
:1019B00005B030BD002068702146281D01F006F9F1
:1019C000DFF85C040078294601F069F905B030BD04
:1019D00010B5DFF8C84A206982B018B104F11000D0
:1019E00000F0C3F90020A076DFF8680B006858B15A
:1019F00002E000A800F0B9F9DFF82404007801F053
:101A00007DF900900028F4D113BD00004FEA0001D9
:101A1000DFF80C04007801F043BA0000D048002041
:101A200001017101010101011101010131010101F6
:101A300001018001100161013B0014006301730189
:101A40007201620143010001130106013D013500ED
:101A50000401120100010001000100010401040160
:101A6000330133013C014401320136000001000121
:101A7000650100013500810100010501820183013A
:101A800000010000030271023001600211027002C5
:101A90000102020202028002100261023A004100C9
:101AA00063027302720262024302000213023800F0
:101AB0000002000204021202000200020002000200
:101AC00004020402370037003C02440200023900DD
:101AD00000020002650200023502810200020502D6
:101AE000820283020002000000B585B00378DFF8AF
:101AF000E02A9A5C8DF800200B2A01D100F043BB4C
:101B00005AB30C2A24D11A2902D1002001901FE0D7
:101B1000019090F839208DF80220C2680292028A62
:101B2000ADF80C20827DD20648BF002205D4DFF834
:101B3000A82A837E92F83420D21A8DF80E20427F94
:101B40008DF80F20827F8DF81020C07F8DF8110056
:101B50008DF8011000A801F0C1FC05B000BDDFF850
:101B60003C09817E481E8041C00F704718B4DFF8E1
:101B70002C198A7E037801EB820203F07F03D26D79
:101B8000037002EB43035B7801EB8304E46D04B163
:101B90008B76037812F81320140901EB8401C969CC
:101BA00021B90B2B08DA14BC18219DE702F00F02B3
:101BB00051F8221014BC084711BC7047F0B5074615
:101BC0000FF27C0087B03C5C0D46204601F046F8E1
:101BD000060016D03770002070702946A01970607A
:101BE000002030720FF264003A5C06F1200000F031
:101BF000EDFF8B480078314601F051F8002007B026
:101C0000F0BDDFF8CC098DF80070385C8DF8040069
:101C10000B2806D11A208DF8010000A800F004FB63
:101C20000AE048B10C2804BF002002901A208DF869
:101C3000050001A801F052FC1A2007B0F0BD000019
:101C4000000555534D581C202807020000011C18A0
:101C50001A18181C2403000071490870704770B5E9
:101C60000C4682B0A006DFF8345817D41BE001F010
:101C7000C3FA297B491E297308B901F0B9FA3078F3
:101C80008DF800006E613046FFF770FF9DF8000090
:101C900015281CBF05F1140000F067F8281D01F09D
:101CA00098F80600E3D1200407D40CE06861FFF740
:101CB0005DFF05F1140000F058F85948007801F074
:101CC0001DF80028F2D1E00605D52D208DF8000082
:101CD00000A8FFF74BFFE00705D524208DF8000092
:101CE00000A8FFF743FFA00705D525208DF80000C9
:101CF00000A8FFF73BFF600705D526208DF8000000
:101D000000A8FFF733FF200705D528208DF8000035
:101D100000A8FFF72BFF600608D500208DF8010012
:101D20002C208DF8000000A8FFF720FF200608D522
:101D300000208DF801002F208DF8000000A8FFF78B
:101D400015FF286978B101F057FA2C690021296143
:101D500008B901F04DFA6C612046FFF707FF05F165
:101D6000140000F002F8002076BD38B5040008BF6A
:101D700001F040FF01F040FA00F00100216880F01E
:101D8000010561B1DFF814275369A1F108008B4206
:101D900004BF002151610021216001F0BCF9002D38
:101DA0001CBFBDE8314001F023BA31BD1C480FF221
:101DB000D53181600FF2D931C1600FF24541016127
:101DC000DFF8241B41610FF261418161DFF8541B90
:101DD000C161DFF8B41B01620FF2F971C1630FF248
:101DE000F94101640FF24D5141640FF2ED518164EC
:101DF0000FF28D51C16400214170704744A421004D
:101E0000DFF8D4170A8C4FF6FE739A4204BF1631DE
:101E100001F0C3B902220272098C018070470000F0
:101E2000A44A0020A84B002042784B78C2F38102DC
:101E3000C3F381039A4211D1022A09D142794B7925
:101E40009A4202BF80798979884207D10120704780
:101E5000032A03D1491D401D01F0A8B90020704795
:101E600070B55478067A0B460021C4F38104B4425D
:101E700018D1022C10D154799579008804EB0524EF
:101E8000A4B2A0420ED1D078127900EB022080B229
:101E9000834207D1012105E0032C03D1511D01F03C
:101EA00085F90146084670BD017ADFF82C27022922
:101EB00007D1118C0088814201D101207047002098
:101EC0007047014602F1160001F054B9672820005E
:101ED000D4490020284A00206C4000202DE9F84F0A
:101EE0001546044600222F7ADFF8EC86994608064C
:101EF0004EBF4FF6FF7608F11400468A01F07F00CE
:101F0000A17D89064CBF082100212176A17D4907CA
:101F10004CBF802110216176A17DC9064CBF0021F4
:101F200098F83410A176E18ACB0748BF2022090730
:101F300048BF42F010026168237D491E022B07DB77
:101F40000B2B1CBF5B1E01F8013942F0030200E0BD
:101F50001A4398F84930012B04D1237A672BA8BF84
:101F600042F4805242EA80321FFA82FA022809D1F2
:101F700008F11400C28A120A01F80129C08A01F886
:101F800001090CE0032809D1A1F1070B08F13C017C
:101F9000584601F019F9ABF1010100E050B127B149
:101FA0004E4508BF4AF0400A04D0301201F801093A
:101FB00001F801694AEA872086B2022F07D12888F2
:101FC000000A01F80109288801F8010909E0032F36
:101FD00006D1CF1F2946384601F0F6F8791E00E0F9
:101FE0002FB14FEA192001F8010901F801994A1EA1
:101FF000207D28B998F81430581C88F8140004E0A3
:1020000008F11400837B5D1C85730B70300A10701F
:1020100002F8016D207A61680818801A20726260E7
:1020200000206070BDE8F28F2DE9F047099F8A46D5
:102030000546904699461A263946FEF7FBFD0400F0
:102040001AD00898E08225750B22394604F1200049
:1020500000F0BCFD4B46424651462046FFF73EFF8E
:10206000060009D1ED1F012D03D8607E40F020004D
:1020700060762046FFF733F83046BDE8F08730B58C
:10208000044683B094F83910012001B10520251DC4
:1020900004F12C0168820420287400A801F07DF866
:1020A00060686B8E401E606000AA616894F838001A
:1020B000087003212879401C28712046FFF70EFF85
:1020C000050004BF2046FFF70AF8FFF744B970B5D2
:1020D000044605200D4620702E1D95F83D00A07089
:1020E0006068F16A416105F11C0101F056F8606811
:1020F000718E41810B2295F83A104174002160687D
:102100000176C17305F10F016068193000F05EFDC2
:102110006168B07A88736868616810F8012B8A81F9
:1021200010F8013B42EA03228A8110F8012BD309FF
:102130005B1E9B41DB43DB0F0B7402F007014A1E61
:102140009241D24301EB410101EBD271C9B20818AF
:1021500010F8011B2172E060217A01F007024908A2
:1021600001F0380101EB42010818606131796A68B9
:102170008B18834227BF081A101800202072207481
:1021800070BD00007047417000F04EF805B000BD12
:1021900000B585B002780FF2AC71515C8DF800107B
:1021A0000B2901D11921EEE739B30C291FD1019078
:1021B00090F839108DF80210C1680291018AADF8CB
:1021C0000C10817DC90648BF002105D4DFF8081432
:1021D000827E91F83410891A8DF80E10417F8DF8A7
:1021E0000F10817F8DF81010C07F8DF8110019201D
:1021F0008DF8010000A801F071F905B000BD0000E4
:1022000038B5DFF8B0590446286930B11921FFF715
:102210006BFC05F11000FFF7A8FD6869A04204BF40
:10222000002068612C6131BD10B504468AB0207869
:10223000032808D0052808D0182804D01E2818BF65
:102240001F2802D018E0002000E001208DF81800BF
:1022500004F12B0103A800F0B7FF03208DF8140050
:10226000DFF87403418DC08CADF80210ADF8160094
:1022700002218DF80A101CE002208DF8180004F1EC
:102280001C0103A800F0A0FF03208DF814000B220E
:10229000DFF84403418DC08CADF80210ADF8160094
:1022A00002218DF80A100DF1190004F10F0100F060
:1022B0008DFC0B208DF800000B2260788DF801005A
:1022C00004F10F010DF1190000F080FC00A801F0ED
:1022D00005F90AB010BD000038B5044665789DB90F
:1022E000DFF8F412E08EC98C884218BFE82504F1AB
:1022F0002C00FFF7D9FD88B1002084F839001DB902
:102300002046FFF7BCFE05463DB1657019202070E0
:102310002046BDE83240FFF729BC31BDDFF89818F0
:1023200094F8390091F8201080F001000843E6D1BC
:10233000E825EAE710B586B004218DF8041041784D
:102340008DF80510C18EADF8101000F12C010DF1C3
:10235000060000F022FF0DF10600FFF7A5FD50B1C9
:102360004FF6FF74ADF8004000A9532001F024FBA4
:10237000DFF84808048401A801F0B0F806B010BDE9
:1023800010B588B0044603208DF8040004F11C0148
:102390000DF1060000F018FF606800788DF80E005F
:1023A0000B2204F10F010DF10F0000F00FFC04F1FE
:1023B0001C00FFF779FD50B14FF6FF74ADF80040F7
:1023C00000A9532001F0F8FADFF8F007048401A80F
:1023D00001F084F808B010BDF0B5054695B0686806
:1023E0007D4C4078400611D5A61CE98EB08C884201
:1023F0000CD1DFF8CC07407808B309208DF818001D
:10240000EE208DF8190006A801F068F80BA80190DD
:10241000294600A8FFF75BFE2B208DF8000000A8DE
:10242000FFF7A4FBA07810B19DF8100028B105209B
:102430008DF8000000A801F051F815B0F0BD94F837
:1024400030000028E2D005F11C00FFF72DFD002828
:10245000DCD105F20F05B68C29460620FEF7EAFB13
:102460000700EAD00120F8820B22062038752946A1
:1024700007F1200000F0AAFB334604F11602032105
:102480003846FFF72BFD0028D7D13846FEF727FE48
:1024900015B0F0BD084A0020E6480020804000202A
:1024A0007B122000F8B5054600F0A6FE00F0010002
:1024B00080F001040DB101F035FA01F0ACFB464D9E
:1024C00005F22607387D01F08BF9F87C01F04EF912
:1024D000DFF8EC66707801F033F9E88C01F039F937
:1024E000B88801F038F905F13C0001F03AF9DFF85D
:1024F000C476386C010018BF8047786C010018BFA3
:102500008047B86C010018BF8047F86C010018BF05
:102510008047386D010018BF8047786D010018BFF3
:102520008047B86D010018BF804700F021FAFFF71F
:102530004FFA00203071FEF759FBFFF737FC05F129
:102540002901522001F038FA0CB100F051FE0020B0
:10255000F2BD0000B44F002038B50446072000F05B
:102560007DFB050010D00920287003220020687030
:102570002146281D00F02AFB2946BDE83440DFF83B
:102580004006007800F08BBB31BDDFF834060FF257
:102590006901416200F108020FF2513181620FF2CC
:1025A0008931C1620FF2091101630FF20921416300
:1025B0000FF2B1118163DFF8FC15CA6100F13C0232
:1025C000243048620A620020088301F015BB000035
:1025D0004429200070470000D048002007220270E4
:1025E0000A7A82708A7AC2704A6842600022027255
:1025F000C969C1607047000038B50446DFF8C455AA
:1026000000206870207A0628A4BFE8206870607AED
:102610000F2804DB207A032804D0E8206870207A91
:10262000032806D1DFF88C05007EC0075CBFE820D8
:10263000687021462846FFF7D1FF616805F1180050
:10264000890A81600B22617A0173E17A4173217BEF
:102650008173617BC173A17B01740A214174CB49F1
:1026600091F83A108174DFF86015A96104210171B5
:1026700005F12B0004F10F0100F0A8FA687800289A
:1026800004BF607800280CD1681C407808B1EA21AA
:10269000697001F0EBF826202070042001F079FC2D
:1026A00001E0292020702046BDE83240FFF75EBAE5
:1026B000F0B5DFF810556E1C0446707885B005F152
:1026C0000C0760B9787F0A2809D001F011F9E96890
:1026D0007A7F511801F80B0CF079401CF071786981
:1026E000797F40087861491C7977C00702D4C9B264
:1026F0001D29F4DBC9B21D292DD005F12901E120E6
:1027000001F05AF902208DF810004FF6FF7370782F
:10271000ADF80830002818BF022804D1204600F088
:1027200021F805B0F0BD012807BF0820802107204F
:10273000832105F12B0201920022009202AAFFF7E9
:1027400073FCDB2818BFE52804D0F3281CBFDF2862
:10275000E82805D16870292020702046FFF706FA86
:1027600005B0F0BD38B5DFF85C44616894F8292005
:10277000012000FA02F291436160A178032907D198
:10278000DFF8380490F8350000EB40010D0109E056
:1027900094F824209040401C00EB4002150109B938
:1027A00001F0A4F800F039FE4019606104F1100056
:1027B000FEF7E6BD2DE9F043DFF80864751C80469E
:1027C00068788FB002281CBF0128052840D100205E
:1027D0007070414600A80A9009A8FFF778FC06F13E
:1027E0000C07EC79787E844220D2D6F80C900DE06C
:1027F000B9F80A00BDF80A10884204D100A9484679
:1028000000F0B8FC90B9641E09F12409E4B2002C70
:10281000EED1F068EB7903EBC306242200A900EBAC
:10282000860000F0D3F9E879401CE871DFF88C03EA
:10283000807820B19DF8340008B9787E10B909A8D5
:1028400000F04CFE787E58B1E979814208D101E070
:10285000E8207070292088F800004046FFF786F9CC
:102860000FB0BDE8F08338B5044694F8240003287F
:1028700004BF94F82E0003282CD104F11C014A2037
:1028800001F09AF860680178427801EB0221ADF816
:102890000010851C00A9502001F08EF82878697876
:1028A00000EB0120ADF80000AD1C00A94B2001F0A9
:1028B00083F82946E12001F07FF8681C0178407810
:1028C00001EB0020ADF8000000A9532001F074F8DE
:1028D000002000E0E820DFF8EC124870292020708A
:1028E0002046FFF743F931BD5711200010B5DFF83E
:1028F000D44204F1100000F037F900F0D6FF0420B4
:1029000001F06EFBA078032804BF6078002804D093
:1029100004F12A01E12001F04FF82046BDE8104003
:1029200000F0DCBD5511200000B585B0014600A8BF
:10293000FFF754FEFC208DF8010000A800F0CEFD4A
:1029400005B000BD0C0E020B040B0A0708000F00B7
:1029500030B5044685B0202000F080F9050004D091
:10296000072028701C22FFF725B80720FFF718B8AA
:1029700091480021C16601674FF47F01416781677B
:102980000021C16770470000C5112000D048002019
:1029900010B5894C0020E067E06E68B1616F406857
:1029A000884209DA00F039FDE16E4A688242B8BF18
:1029B00002464A60E06EE067206F38B1E16F19B1FE
:1029C000426849688A4203DAE06701E0E06F40B19B
:1029D000E06F616F40688842BCBFBDE8104000F006
:1029E00040BDBDE8104000F064BDF8B500F004FC47
:1029F00000F00100704D80F00104E86F002840D025
:102A0000696F4068814204DA01F0F4F8E86F002849
:102A100037D000F002FDE96F4968884231D30029C0
:102A200048BF01F0E7F8EE6F00F0E6FB00F00100B0
:102A300080F00107E96E05F16C0001E008461146DF
:102A400021B10A68B142F9D1026004E005F17001D8
:102A5000304600F07CF8E86F864208BFFFF798FF29
:102A60000FB100F0C5FB377BB6680CB100F0C0FBBE
:102A70003846B04700F0C0FB00F0010080F00104D0
:102A8000C4E7002C1CBFBDE8F14000F0B1BBF1BDB4
:102A900038B504460D460EE047496868C96F2018EE
:102AA0008D4202D1002848BF00206860002848BF3E
:102AB00001F0A0F82D68002DEED131BD70B500F009
:102AC0009BFB00F001003C4D2E6FE96E80F001048D
:102AD000686F4042FFF7DCFF06E0686F7168814273
:102AE000A4BF081A70603668002EF6D1A86F696F0F
:102AF00081421CBF686700F079FCFFF749FF002C9A
:102B00001CBFBDE8704000F073BB70BD70B50446DB
:102B10000D4600F071FB00F0010080F0010629680D
:102B2000284601E00846096819B162684B689A4274
:102B3000F8DA046021602868A04208BFFFF728FF88
:102B4000002E1CBFBDE8704000F052BB70BD0A688B
:102B500001E011461A462AB113688242F9D10B608E
:102B6000012070470020704770B5044600F044FB18
:102B7000114EF16E00F0010080F0010506F16C00CD
:102B800001E00846114621B10A68A142F9D102606C
:102B900004E006F170012046FFF7D9FFF06F844290
:102BA00008BFFFF7F5FE002D1CBFBDE8704000F028
:102BB0001FBB70BD8040002000400020D048002096
:102BC000A44A0020F04C00200D1A200003E011F868
:102BD000013B00F8013B13465A1E002BF7D170470A
:102BE00010B513465A1E3BB110F8013B11F8014BCA
:102BF000A342F6D0002010BD012010BD10B5044640
:102C000010460A460146204601F08AFA204610BDC9
:102C10000178407801EB002080B2704702780229E9
:102C200003D1407802EB00207047032906D1417898
:102C3000807802EB012101EB00407047042909D1A3
:102C4000417802EB01218278C07801EB024101EB6F
:102C5000006070471046704701F0D4BA10B5040008
:102C600001D1002010BD04F1080080B200F0ECF9A1
:102C700028B1002101608480FF218171083010BDDE
:102C800080B508B9052002BD10F8021CFF2901D04B
:102C9000042002BD083800F03EFA002002BD0022E8
:102CA000FFE710B50446080013D0DFF82C130978AD
:102CB0008C4203D3FFF7E4FF032010BD50F8081C3B
:102CC000002902BFA0F108018B79FF2B03D0FFF789
:102CD000D7FF052010BD8C710146DFF80033012AB3
:102CE000184602D100F08FF801E000F052F84FF4DE
:102CF0000041204600F0D4F8002010BD2DE9F0413D
:102D000080460025002600F077FA00F00100B34C61
:102D100080F00107206803E006B9054650F8080C6A
:102D200068B110F8021C4145F6D1002E08BF0646D6
:102D3000F4D04FF40041404600F0B2F805E04FF403
:102D40000041404600F0BDF826B12A4631462046F3
:102D500000F067F80FB100F04BFA3046BDE8F081A3
:102D600070B500F032F89D490E6800F0010080F067
:102D7000010001E056F8086C36B116F8021CA142B9
:102D800004BF3178A942F5D108B100F031FA3046DC
:102D900070BD38B500F019F8002145F8081C00F0A6
:102DA0000100216880F0010011B9256006E011469C
:102DB00051F8082C002AFAD141F8085C00281CBF01
:102DC000BDE8314000F014BA31BD04460D4600F0B4
:102DD00013BA38B50446002500F00EFA00F00100E1
:102DE000216880F0010049B10D4655F8081C2160AA
:102DF000002145F8081CFF2105F8021C08B100F06D
:102E0000F7F9284632BD38B5FFF7DFFF216845F8EE
:102E1000081C2560002804BFBDE8314000F0E8B977
:102E200031BD70B505460C46164600F0E5F92A6836
:102E300054F8081C00F0010080F0010094420CBF1F
:102E4000296046F8081C002144F8081CFF2104F8FA
:102E5000021C00281CBFBDE8704000F0C9B970BD5D
:102E6000F8B504460D461646002700F0C5F900F0F7
:102E70000100216880F0010019B925600AE056B10F
:102E8000114651F8082C761E002AF6B2F7D116B179
:102E900041F8085C012708B100F0AAF93846F2BDF4
:102EA00038B504464C4800780D46844207D200F0FD
:102EB000A3F94B49096831F814202A4312E0032092
:102EC00032BD38B50446444800780D46844207D2E6
:102ED00000F092F94249096831F81420AA4301E050
:102EE000032032BD21F8142008B900F081F9002038
:102EF00032BD80B5FF2803D100F07AF9002002BD71
:102F0000072002BD80B5FF2803D100F075F900202D
:102F100002BD072002BD80B500F068F82F490020EF
:102F2000086001F071F901F065FA01F06DFA00F046
:102F300070F8002002BD80B500F001F8FCE72DE933
:102F4000F041002601F0C8FA2348254C007821689A
:102F500031F8161019B9761CF6B28642F7D38642BC
:102F600024D200F049F92168354631F81580002255
:102F700021F8152008B900F03BF94146194F1A4ACB
:102F80003E70304652F8252090470646FF203870A4
:102F900000F032F9216831F81520324321F815206C
:102FA000002804BFBDE8F04100F022B9BDE8F0817F
:102FB00000F8011B0A0A00F8012B0A0C00F8012B8B
:102FC000090E05E000F8011B0A0A00F8012B090CA4
:102FD00000F8011B704700006A3C2000B04F002041
:102FE000B44F0020BC420020604420005D4841F204
:102FF000FC72002111525C4908604FF41C71018081
:1030000048F20401A0F8701241F28851A0F874123D
:10301000704738B5012000F017F8040008BF00F031
:10302000E9FD00F0E9F805464F49201F08602046F9
:1030300000F071F84D4901200870002D04BFBDE873
:10304000314000F0D5B831BDF8B500240025061D8B
:1030500016F003001CBF311D0E1A00F0CDF84349D5
:10306000414A097800F0010080F0010011B1B6B2C8
:10307000112E01D2176800E03D4F3B68C3F3C03CFE
:10308000BCF1000F18BF002525D1EDB1D4F800C068
:103090004FEADC3E63444FEACE3E5B044EEA5343C4
:1030A0002360B6B25B045B0CB34214D3274647B32C
:1030B0003B685C04640CA41BA4B2082C14D3F45326
:1030C00046F400433B8012E05B045B0CB6B2B342B3
:1030D000EDD201253C463B685B0417EB53473B8828
:1030E000002BCAD100270CE043F400433B6039B108
:1030F0001168B94204D13968490417EB5141116094
:103100003F1D08B100F074F817F0030018BF00F07D
:1031100071FD3846F2BD10B5041F1249884203D331
:1031200001F5C051884201D300F064FD2068C0F36E
:10313000C03008B900F05EFD00F05EF8216821F4AF
:103140000041216000F0010007490A6880F0010099
:10315000944238BF0C6000281CBFBDE8104000F04E
:1031600047B810BD34500020347000201C5000209F
:10317000A8520020027A0B7A9A420CD15AB1022A44
:1031800005D100880988884205D101207047032AAB
:1031900008BF00F00BB8002070470A7A0272032AB9
:1031A00008BF00F011B809880180704710B50822E7
:1031B00010F8013B11F8014BA34201D0002010BDD3
:1031C000521EF5D1012010BD0822FFF7FFBC50F8B8
:1031D000041B61B150F8042BD30744BFA9F10103CC
:1031E0009A18002342F8043B091FFAD1EFE7704711
:1031F00080B501F077F902E080B501F06FF900B118
:103200000120C0B202BD10B50FF2D003820853F8FE
:103210002220136800F00300C000FF248440A34371
:1032200001FA00F01843106010BD2849042803D1AA
:10323000086840F4803022E0052803D1086840F493
:1032400000301CE0062803D1086840F4802016E016
:103250000F2805D11E48016841F002010160704746
:1032600010280DD3A0F110010FF21412490952F8E1
:1032700021101038012200F01F0002FA00F008604F
:10328000704714490E2803D1086840F0006014E02C
:103290000F2803D1086840F000700EE010280DD30D
:1032A000A0F110010FF2EC02490952F82110103878
:1032B000012200F01F0002FA00F008607047064883
:1032C000016841F0010101607047000024ED00E059
:1032D00010E000E004ED00E098200D400000000048
:1032E00018ED00E01CED00E020ED00E000E400E05F
:1032F00004E400E008E400E00CE400E010E400E096
:1033000014E400E018E400E01CE400E020E400E045
:1033100024E400E028E400E02CE400E030E400E0F5
:1033200034E400E038E400E03CE400E040E400E0A5
:1033300044E400E048E400E04CE400E050E400E055
:1033400054E400E058E400E05CE400E060E400E005
:1033500064E400E068E400E06CE400E070E400E0B5
:1033600074E400E078E400E07CE400E080E400E065
:1033700084E400E088E400E08CE400E090E400E015
:1033800000E100E004E100E008E100E00CE100E021
:1033900010E100E080E200E084E200E088E200E08A
:1033A0008CE200E090E200E080B5002001F084F9BA
:1033B0004FF47F0000F01AF845486FF008014160B3
:1033C000016841F0080101606FF01001416001687F
:1033D00041F01001016001BD3D48016821F010017C
:1033E0000160016821F008010160DDE738B504469D
:1033F00001F043F9A04228BF00F0FCFBFFF7FCFE00
:10340000054634480460204601F0A8F9002D04BFA9
:10341000BDE83140FFF7ECBE31BD38B5FFF7ECFE3B
:10342000044601F02AF905460CB9FFF7E1FE2948E8
:103430000068854201D3002032BD284632BD38B530
:10344000FFF7DAFE044601F020F905460CB9FFF754
:10345000CFFE20480068854201D3002032BD2846B7
:1034600032BD70B51B4D04462868844228BF00F069
:10347000C1FBFFF7C1FE00F0010080F001066C60A7
:10348000204601F03BF901F0F8F884420AD11249D4
:103490006FF0100008600EB1FFF7AAFEBDE87040A3
:1034A000FFF7A3BA002E1CBFBDE87040FFF7A0BE17
:1034B00070BD7047FFF799BA80B501F0F7F9BDE824
:1034C0000140FFF7FBBA03480068704700000000A6
:1034D000088808402C4F00200C8808402DE9F14353
:1034E00082B004780FF22420255CADF80050002D46
:1034F0004CD04FF6FF780D2C11D100A9532000F0CD
:103500003EFABDF800004FF6FE7188421FBF4045ED
:103510000298007A002800F0A580029E6EE04FF02D
:103520002409052C04D10299097C243148190BE0A7
:10353000072C0BD102988078002828460FBF1B303B
:103540000299097A09FB0100ADF80000BDF80000FE
:10355000FFF784FB06001DD10C2C17D102984068A0
:10356000002813D0FFF748FE00F0010080F00107AB
:103570000298001DFEF7F9FBBDF80000FFF76EFB97
:10358000060004D1002F01D0FFF732FE8DE00FB10D
:10359000FFF72EFE02992A463046FFF717FB052C4F
:1035A00011D17168242206F11800FFF70FFB06F114
:1035B00018007060327C71692430FFF707FB706877
:1035C000243070611AE0072C18D14A480568ADB163
:1035D00000210160B078002806F11000F06002D1EF
:1035E0001B22294605E0307A09FB00F2294606F144
:1035F0001000FFF7EBFA2846FFF78DFD3E48016803
:10360000080003D030468847002845D10D2C2DD125
:10361000029840684178007800F0030201F0E00170
:10362000022A1FDA354A927CC0F38300904201BF20
:103630000029029890F82400022813D106F11C00FA
:1036400000F11E01C07F00F03DF80298C08C40459B
:103650001DD1029840688079022818DB304601F0BD
:1036600095FB10B302A8FEF780FB1EE00C2C0ED1D8
:10367000029840781A281CBF7068002807D0807D07
:10368000C00704D5307C06F10F0100F01BF81C4880
:1036900000783146FFF703FB0C2C06D102984068F6
:1036A00018B10298001DFEF760FBBDE8F7831548CE
:1036B0000078002814BF012801F003BB00207047E8
:1036C00000207047104A12789AB10B783228B8BFA0
:1036D000322002DB6F28A8BF6E20012A05D13238C4
:1036E00058433C2290FBF2F39BB2FF2BC8BFFF2351
:1036F0000B707047884F0020CC4F00205C490020A1
:103700000E500020285000202A50002000161000E3
:1037100000181510020002241440000010000000E0
:1037200065480B218170FF214170C17001707047A5
:1037300080B500F0BAF8BDE80140D9E000F074BFF0
:103740005E490A6800B1022022F0020210430860BC
:1037500070475B4900E05B49C2B20A60000A4860FA
:10376000704701460822584801F06CBB70B5574DB0
:103770002E7844B276B2A642B8BF344604DB6978EC
:1037800049B28C42B8BF0C46FFF736FD311B891C8D
:10379000C9B2494A495DD17008B9FFF729FD00F067
:1037A00002F8E0B270BD80B5FFF726FD4249CA7845
:1037B0000B7800F0010080F001009A4209D0444BE0
:1037C0001B7833B9434B1B781B0602D40A7042495D
:1037D0000A6000281CBFBDE80140FFF709BD01BD1C
:1037E00038B50446A4F10B00122828BF00F002FAF5
:1037F000FFF702FD00F0010080F001052E48847003
:103800003448007808B900F007F8002D1CBFBDE867
:103810003140FFF7EDBC31BD10B52E48007808B13E
:1038200000F0E8F9FFF7E8FC234CA178627800F09B
:10383000010080F00100914211D0617008B1FFF7E2
:10384000D7FC00F03BFC6078244900EB80002C386A
:10385000086001F05FFBBDE8104000F0E8BB002805
:103860001CBFBDE81040FFF7C3BC10BD38B504460F
:103870001B48007808B100F0BDF91A4D287808B14E
:1038800000F0B8F90CB901200DE0032C08BF0320AB
:1038900009D0012C1CBF022C00F0ACF90849FF2212
:1038A0000A6002204A60287031BD0E49002008706D
:1038B00003490D48C08C4FE7A44F00200086084004
:1038C000C8850840D0850840A8850840F4A3210099
:1038D000124E00203C4F0020408608403C860840A5
:1038E0009B420020114E0020D048002000F0CBBFAA
:1038F00080B500F0D2FFBDE80240493840B210F177
:10390000570FB8BF6FF0560002DB0B28A8BF0A2084
:103910005730C0EB0020612190FBF1F0C0B270473E
:10392000EDE728C410B588B0604C202204F16C018A
:1039300000A8FFF74BF920460FF274118C2201F01A
:103940001BFE202200A904F16C00FFF73FF9FFF7EE
:10395000F5FE84F82200FFF7F1FE207508B010BDD7
:10396000A0F140021E2A38BF403804D3A0F1E00184
:10397000102902D23E30C0B270472E20704770B579
:103980000C46FFF7EDFF05462E2D01D1F42070BD4A
:10399000FFF732FC06460FF2A41000EB85014A78CF
:1039A00010F82500414941182046FFF70FF90EB9DC
:1039B000FFF71EFC002070BD2DE9F04704460D46C0
:1039C0003A4E452C08BFB5606CD0FFF7C9FF814661
:1039D0002E2808BFF42066D00FF2601808EB890784
:1039E000B878002804BFF978002915D0F978884202
:1039F00008BFFB2057D0582C05D128888F3846F2B5
:103A00002241884206D22878B978884224BFF978C2
:103A1000814201D2E82046E0FFF7EEFB824618F82B
:103A200029007A7829468019FFF7D0F8BAF1000FFB
:103A300008BFFFF7DDFB06F22A00502C10D0522CF5
:103A400016D0532C10D0E02C26D0E12C1BD0E22C29
:103A50001DD0E52C24D0E62C04BF2978C17721E0C5
:103A6000F08CFFF776FE1DE0708DFFF774FE19E015
:103A700096F8290018B1022000F08BFA12E002201B
:103A800000F0AEFA0EE0007CFFF7AAFE0AE006F1B5
:103A90003C00FFF766FE05E0C07BFFF767FE01E034
:103AA000297881770020BDE8F0870000D048002009
:103AB000360001000600000000000000000F0000BA
:103AC00000000000000000000000000000000300F3
:103AD000FFFF00000403FFFF0000FFFF0F00F401E1
:103AE0000005C4040320000100000B0000000000DA
:103AF000000000000300010F0000000000000000B3
:103B000000000000000000000000000000000000B5
:103B100000000000000000000000000000000000A5
:103B20000000000000000000000000000000000095
:103B30000000000000000000000000000001363618
:103B40000101000102010001030100010401060658
:103B5000080400000C0100340D01000F10040101E5
:103B6000140100FF1608000020020000220100FFDF
:103B700023010001240100FE2501000826020000A7
:103B800028010001290100012A0200002C01000F78
:103B90002E0200003001000131010008320200FF56
:103BA00034010007350102403601000037010001F1
:103BB00038010001390100FF3A010B1C3C080000EC
:103BC000460100084701000F48010001490100FFBC
:103BD0004C0400005004000054040000580400008D
:103BE0005C0400006004000064040000680400003D
:103BF0006C20FFFF01F03CBD80B500F077FCFFF7C3
:103C00008FFD00F0C1F901F053F900F02FF8BDE885
:103C10000140FFF7C9BB80B5FFF7EEFA18B9FFF70F
:103C2000E7FAFFF7E7FF0648007818B901F068F9EE
:103C3000FFF77EFDFFF7D0FBBDE8014001F0A8BD16
:103C40009B42002010B50446A4F1E70082B008288A
:103C50000AD200A92046FFF792FE0098401C00906F
:103C600000A92046FFF7A8FE13BD0A00BE480021A8
:103C70000170C171704738B5BB4C0546207808B15A
:103C8000FFF7B8FF01202070B848007818B1BDE8F0
:103C900032401D2047E165702846B54D022802D10B
:103CA00001F036FE19E000281CBF0128FFF7A2FF33
:103CB000296800202071897DAE4849064CBF90F8E4
:103CC000461090F82510627822B9C07810B1032907
:103CD000A8BF0221A17000F038F8E079C0B92868C7
:103CE00008B9FFF787FF2868A34B4168097801F0FE
:103CF0002001A171416889786171017A40688A1C4C
:103D000000F8012D491CEE221A60C9B201F0AEF88C
:103D1000FFF772FA99499A4A0978127800F001007F
:103D200080F00100114307D18321217008B1FFF712
:103D30005FFABDE831401EE00221217000281CBF5F
:103D4000BDE83140FFF754BA31BD80B5FFF7F6FC4E
:103D5000854991F9023001229A40521E1040C870E4
:103D60004878002804BFBDE8014001F085BDBDE8EA
:103D7000014001F072BD83480168490849000160B3
:103D800000207F49087078484078022808BF01F079
:103D9000C5BD10B5744C607840B9FDF75DF8E178A9
:103DA000814203D3BDE810401C20BCE0BDE81040B8
:103DB00001F085BD10B56C4C0120E071ED20FFF7DE
:103DC00041FF6078BDE8104055E780B56B486C490D
:103DD00000780978084318BFFFF70CFFFFF70CFACB
:103DE00061490A7800F0010080F00100022A07D141
:103DF00083220A7008B1FFF7FBF9BDE80140BAE77A
:103E000000281CBFBDE80140FFF7F2B901BD10B5A5
:103E1000554C607800281CBF0128FFF7EBFE0420FA
:103E2000207000F017F92079524991F82420401CA5
:103E30002071C0B2824203D2BDE81040E12072E09E
:103E400001F12400A178407B4A1C8242B8BF481C83
:103E5000A070FFF77AFF83202070BDE8104098E73C
:103E600010B5FFF7C9F900F0010080F001043E48E9
:103E7000017883290CD1817931B9852101700CB188
:103E8000FFF7B6F900204CE08621017001F0A4FD97
:103E9000002C1CBFBDE81040FFF7AAB910BDF8B553
:103EA00004460D46FFF7A8F900F001002E4F80F000
:103EB00001063878862812D18720387001F0FAFD83
:103EC0000EB1FFF795F97879844204D1002D0CBF2B
:103ED00000201B2000E0E920BDE8F24023E0002E96
:103EE0001CBFBDE8F140FFF783B9F1BD10B5FFF786
:103EF00083F900F0010080F001041B480178862955
:103F000008D18721017001F0D5FD0CB1FFF770F9E0
:103F1000E92006E0002C1CBFBDE81040FFF768B99F
:103F200010BDBDE8104010B504460F480021C17116
:103F3000017000F08FF8FFF736FCFFF76DFC2046AC
:103F4000BDE81040FCF7F2BF10B5094C206808B975
:103F5000FFF750FEFFF773FA2168C86000F07DFBA1
:103F60002168088210BD00003C4F00209B420020C9
:103F70005C400020D048002038880840104E0020C7
:103F8000124E0020908608405F4800214170017069
:103F9000704738B5040008BFFFF72CFEFFF72CF977
:103FA0000546594841782143417000F071F8002DD1
:103FB00004BFBDE83140FFF71BB931BD10B50400A7
:103FC00008BFFFF717FEFFF717F94F494A7822435A
:103FD0004A70002804BFBDE81040FFF709B910BDC2
:103FE00010B5040008BFFFF705FEFFF705F94649C5
:103FF0004A7884F0FF031A404A7008B9FFF7F8F8CE
:10400000BDE8104026E080B5FFF7F6F83E490022F3
:104010004A700A70EF223D490A60ED220A600A6088
:1040200008B9FFF7E5F8BDE8014000F073BF10B52F
:10403000FFF7E2F800F0010080F001043248407818
:1040400008B100F025F8002C1CBFBDE81040FFF7B8
:10405000CFB810BD10B5FFF7CFF800F0010080F029
:1040600001042948407860B929480078000608D43E
:104070002848007828B928480078000658BF00F082
:104080001DF8002C1CBFBDE81040FFF7B1B810BDF3
:1040900080B5FFF7B1F81C490A7800F0010080F004
:1040A000010022B901220A70E321184A1160002898
:1040B0001CBFBDE80140FFF79BB801BD70B5FFF71D
:1040C0009BF800F0010080F001040F48017899B1DD
:1040D000124D00210170EF206860ED20686068607B
:1040E000FFF78AF806462A20FFF7CBF86FF00400A6
:1040F00028600EB9FFF77CF8002C1CBFBDE87040AB
:10410000FFF776B870BD0000524E00203888084096
:10411000104E0020124E00203C4F002034880840F2
:1041200062F30F2262F31F42401810F0030308D01D
:10413000C91A1FD3DB0748BF00F8012D28BF20F89C
:10414000022D130030B414461546103928BF20E95B
:104150003C00FAD8490728BF20E90C0048BF40F8C6
:10416000042D890028BF20F8022D48BF00F8012D3A
:1041700030BC7047C91818BF00F8012DCB0728BF05
:1041800000F8012D7047000080B568B9FF20FEF7E8
:10419000B9FE0021002001F0D5FC1649002008706E
:1041A00001201549087001BD002014490870BDE8C0
:1041B00004400FF2390101F0C5BC70B5104E044641
:1041C00030780D46FF280DD00420FEF747FD38B1AA
:1041D000C02101708570C47001463078FEF75FFD24
:1041E000002070BD012070BD00000000810801F0BA
:1041F0000101E2E79C4E00202B5000201B500020C4
:10420000BB42002000F01BBA79490020486070478B
:1042100070B504460D46164600F018F808B1466021
:1042200070BD1020FEF710FF78B1847205814660E2
:1042300000210160C1606E490A6812B9086070BD52
:104240000A4611680029FBD1106070BD684A1268E7
:104250002AB113898B4204BF937A8342F7D1104667
:10426000704708B1002101817047F8B500F024F8CB
:10427000074600F01DF804460FB9FEF7B9FF0CB170
:104280000020F2BD0820F2BDF8B500F015F800F0EE
:10429000010080F0010700F00BF8040018BFE66091
:1042A0000FB1FEF7A5FF0CB10020F2BD0820F2BD52
:1042B000324629462046ABE704460D461646FEF731
:1042C0009BBF70B504460D46FEF796FF00F0010057
:1042D00080F0010629462046FFF7B8FF040018BF0A
:1042E000FFF7BFFF0EB1FEF783FF0CB1002070BDDA
:1042F000062070BDF8B504460D460026FEF77CFF8B
:1043000000F0010080F0010729462046FFF79EFFDC
:1043100000B146680FB1FEF76BFF3046F2BD2DE9E4
:10432000F04182B005460095FEF766FF304C6168AB
:104330006918616008B9FEF75BFF2668002E51D04E
:1043400000250027FEF758FF00F0010080F001086B
:10435000BDF80200002804BF9DF80100002807D125
:1043600030799DF80010884202D3401A307106E07F
:104370007068009981423ABF401A70607760B088D7
:1043800060B9F08860B9F06800281CBF3189002945
:104390000AD0B07AFEF784FDF0687060B08808B982
:1043A000F08808B1308930B9002D30680CBF20602A
:1043B0002860374600E035463668B8F1000F18BF70
:1043C000FEF716FF67B1B888002804BFF8880028F8
:1043D00003D13989B87AFEF763FD3846FEF79BFEB4
:1043E000002EAED1BDE8F38101484068704700005F
:1043F000644F00200348002181710180704701490A
:10440000887170475C4F002080B51420FEF71CFEB9
:104410001249086014220021FEF7F0FB002001F091
:1044200093FB0120FDF718FC022001F0D7FC0320CC
:1044300003F05CFA042003F031FE052004F03EF99D
:10444000062005F0A7F9072005F0A4FB082005F0D9
:10445000EEFFBDE80240092000F016B8B44F00207E
:10446000535B20005F1C2000295E20001D79200086
:10447000EB85200015872000CB972000A79B20000C
:104480009DA220009D44200012490870704780B50D
:1044900006F008F8BDE8014006F0B4B938B50C469E
:1044A00020040BD50B4D01E0FEF7EAFB2878FEF760
:1044B00025FC0028F8D184F4004032BDA00602D5C6
:1044C00084F0200032BDE00602D584F0100032BD39
:1044D000002032BD1250002006F096B9EFF3108094
:1044E00072B67047EFF3108062B67047F0B5DFF830
:1044F000F40389B0142101603F2181605521C1601E
:10450000FC21DFF8E443DFF8E453DFF8E4636163A0
:104510008521E16701214161152141620021A967DF
:10452000102101630E21416303218163092070651D
:1045300004210B2008608021FF2030602A20FEF734
:1045400062FE80212B20FEF75EFE2A20FEF76DFE24
:104550002B20FEF76AFE80213120FEF754FEDFF8A3
:104560009403DFF87C730068000C3860FEF744FEAB
:104570000221F1670022DFF880130A6028224A60D6
:1045800008B9FEF735FEDFF8740300680003FAD5BA
:10459000306F40F003003067306F4007FCD5306F5C
:1045A00040F00A0030673120FEF73FFE48202060CF
:1045B000FFF76EFD206CC007FCD500201021A26F14
:1045C0005208404180B2491EF9D1002814BFB0F50D
:1045D000607F4BF6BE20DFF82813C2B20A600012DB
:1045E0000860796808000ED0002000220823A66F1A
:1045F000760852415B1EFAD100ABC254401C202801
:10460000F3DB00A88847FFF759FD402020602068B1
:1046100040F020002060002028606860A860E8600A
:104620002861686109B0F0BDDFF8D802016821F0A7
:104630000C0141F0040101608069C0B27047DFF8ED
:10464000C402016821F00C0141F00401016081699C
:10465000406900EB012080B2704710B5FEF7CCFD39
:10466000DFF8A41201220A608A68496841EA02243C
:1046700008B9FEF7BDFDA0B210BD80B5FEF7BCFDC8
:10468000A14900220A604A6805E080B5FEF7B4FD42
:104690009D4910220A604A698DF800200A698DF848
:1046A0000120C9688DF8021000218DF8031008B9A7
:1046B000FEF79EFD009802BD01B5000E18BFFFF782
:1046C00099FAFFF7DAFF9149CA688018009A801AB0
:1046D000C860FEF791FD00228B490A6000289DF812
:1046E00000204A619DF801200A619DF80220CA60FD
:1046F00004BFBDE80140FEF77BBD01BD11B500243C
:1047000081B0000E18BFFFF775FAFEF775FD8049FE
:104710000A6800F0010080F00100D20604D50A68A2
:1047200022F0100201240A6030228A609DF80420E1
:10473000CA619DF805208A619DF806204A616FF0E4
:1047400010024A601CB10A6842F010020A60002898
:104750001CBFBDE81340FEF74BBD13BD11B50024CF
:1047600081B0000E18BFFFF745FAFEF745FD684916
:104770000A6800F0010080F00100120704D50A6801
:1047800022F0080201240A6020228A609DF8042099
:10479000CA619DF805208A619DF806204A614A6831
:1047A00022F008024A601CB10A6842F008020A605E
:1047B00000281CBFBDE81340FEF71ABD13BD38B575
:1047C000534C2068616800EA0105E80604D5FEF74D
:1047D00071FE6FF010006060280704D5FEF76CFED4
:1047E0006FF008000DE0E8070CD54A484A49006818
:1047F00091F9002040B28242B8BF02460A706FF0C1
:104800000100606031BD70B5444C666C2A20FEF733
:1048100038FD434D28683040000705D56FF008008B
:10482000286001F052F913E028683040C00605D531
:104830006FF01000286001F04FF909E0286830405F
:10484000C00705D5606C40084000606400F004FEBD
:10485000206C69680840400707D500F095FB6FF0B1
:104860000400686020684006F7D470BD2D482E49CA
:1048700000680A681040400704D56FF00400086023
:1048800000F030BE704724496FF07F000870204868
:10489000016841F00101016070471D480168490845
:1048A000490001601C4890F90000704738B5FEF7D8
:1048B000A3FC00F00100154D80F00104287828B910
:1048C000FEF701FEE9684018E86001E0002028706A
:1048D000002C1CBFBDE83140FEF78ABC31BD000092
:1048E000344F0020A4860840248608409085084064
:1048F00094870840F80F28001488084004200D40D1
:1049000014700D4000700D40108808407C4E00204F
:104910000888084060860840165000204C860840F1
:1049200030880840948608402C880840DFF8E81456
:1049300000200860704780B502F078FF78B9DFF892
:10494000D804006800E0406848B1417B0129FAD1F1
:10495000016800291CBFBDE8024001F01CBC01BD7C
:10496000DFF8B414096800200A4604E0537B042BE6
:1049700008BF401C5268002AF8D1DFF8A024127842
:10498000C0B282420BD3002001E04968401C0029DC
:10499000FBD1DFF88C140978C0B2814201D201202A
:1049A0007047002070472DE9F0410746DFF8682482
:1049B00016680C46397B002500E07668002E1CBF87
:1049C000327B8A42F9D14FF00108FEB97A89386802
:1049D00000F0CAF8060031D03581387C307407F118
:1049E000100006F011FF70614FF67F41388B308365
:1049F000012570890840708141074FBF40F0800059
:104A0000DFF82014097840EAC11070817089C1096B
:104A100001F00701A4B1022272733268927B52073F
:104A200003D5DFF80424128A328161B34FF67F4246
:104A30001040491E40EAC110708124E0A84632E0CF
:104A400011B94FF000081EE0810605D5FEF704F904
:104A500000F07F005F3008E0C00605D5FEF7FCF8E7
:104A600000F00F000A3000E0012030810420707354
:104A70002021DFF8B8432078FFF73CFC18B92078F4
:104A80002021FEF70DFA75B13289717B304600F0B6
:104A90007EF840B1706908B1FEF73DFB3046FEF785
:104AA0003AFB4FF000084046BDE8F08170B5DFF8F2
:104AB00068432268014684B0002000E05268002A62
:104AC0003DD0137B8B42F9D1517B062937D1106839
:104AD0005589007A8DF8080010680088ADF800004C
:104AE000104600F003F9280528D5BDF80010002075
:104AF00000F027F810BBDFF83053A98C00A808F0AD
:104B000052FC246800E0646814B160890005FAD59D
:104B10004FF6FF767CB120680188B1420ED0A98C97
:104B200008F03FFC1A2809D06468002CF2D0608994
:104B30000005F9D5EEE7002008F037FC012004B0AD
:104B400070BD18B9DFF8D002006800E0406840B1DD
:104B500042891205FAD500291EBF026812888A42CE
:104B6000F4D170470120704770B504460D461646D3
:104B70001C20FEF769FA48B1002141730573468194
:104B800001818173C17304604161416070BD38B5BA
:104B9000002843D0012910D19F4C2468002304E051
:104BA000657B012D08BF5B1C6468002CF8D1A04C0C
:104BB0002478DBB29C4216D211E0042911D1964C24
:104BC0002468002304E0657B042D08BF5B1C646837
:104BD000002CF8D1914C2478DBB29C4203D21120F6
:104BE00032BD02291AD141730281002141608A49F4
:104BF0000A6832B100E00A4651680029FBD15060D2
:104C000000E00860894C20782021FFF773FB18B979
:104C100020782021FEF744F9002032BDC12032BDAA
:104C20007D4A1268002106E092F80DC0844514BF49
:104C3000FF28491C5268002AF6D1C8B2704710B943
:104C40007548006800E0406838B1437B8B42FAD178
:104C50001AB103689B7B5B07F5D470476E490968FE
:104C600000E0496821B10A7B8242FAD108467047C8
:104C7000002070476849096800E0496861B10A6826
:104C800013888342F9D1126A1378527803EB022217
:104C9000D205F2D40846704700207047F8B50446A4
:104CA00000260D4620000AD05B48076800E07F68B8
:104CB0002FB129463846A0470128F8D13E46304654
:104CC000F2BD0020704754490A6813464FF0000CAB
:104CD00001E09C465B6843B18342FAD15868934235
:104CE00001D108607047CCF80400704710B504008B
:104CF00011D0FFF7E8FF2068006AFEF70CFA206881
:104D0000FEF709FA606908B1FEF705FA2046BDE82A
:104D10001040FEF700BA10BD38B501683E4A098858
:104D200012680023002409E0557B052D01BF641C97
:104D300015682D888D4208BF5B1C5268002AF3D18C
:104D40003C490978DBB28B423FBF3B490978E4B26A
:104D50008C422EBF01213449098A01814FF6FF722E
:104D600005214173418941F4006141810068018856
:104D7000914205D02C49898C08F013FB1A2804D1E4
:104D8000BDE83240012008F010BB31BD10B550B174
:104D900050F8081C002902BFA0F108018A79FF2AF7
:104DA00003D0FDF76DFF052010BD204C22788A71DD
:104DB00022490A7801462248FEF752F8012806D116
:104DC00020784FF40051FEF76BF8002010BD04204E
:104DD00010BD70B5FEF710FA194D2E6800F00100F5
:104DE00080F001048EB1114856F8081C00780029A3
:104DF0004FF4005102D0FEF753F801E0FEF761F8DE
:104E0000002231462846FEF70CF80CB1FEF7F0F907
:104E1000304670BD0000000000500020C2A32100F9
:104E2000C3A32100BD4200205C4900200E50002099
:104E3000C1A32100C5A32100C6A32100D1A3210045
:104E40000450002004E011F8013B40F8043B521EDE
:104E5000D2B2002AF7D1704704E050F8043B01F8C1
:104E6000013B521ED2B2002AF7D1704738B5044632
:104E70000D0008BFFEF7BEFE14F8010B0B490860D9
:104E80006D1EEDB2002DF7D131BD38B504460D00D1
:104E900008BFFEF7AFFE0548006804F8010B6D1E61
:104EA000EDB2002DF7D131BD000000002888084088
:104EB000DFF868060021C172416181800FF2ED01C7
:104EC00001610021817181818173704738B5DFF8FC
:104ED000504605202060FEF78FF900F00DF8DFF84E
:104EE00044166FF0040008600DB9FEF781F9E06B1D
:104EF00040F00400E06331BD05462A20FEF7C1B949
:104F000080B5FFF780F8DFF8141600204871BDE87F
:104F10000240ECE210B5DFF8044601206073207B0C
:104F200018B900F003F80020607310BD38B5DFF841
:104F3000F005DFF8F045016C4908490001640521DE
:104F40000160ED2060606060FEF756F9FFF7D4FF66
:104F50006FF0040020600DB9FEF74AF9DFF8BC4598
:104F6000606918B104F11400FBF7E4FE0FF23D0094
:104F7000A17920612079084305D000202071A0711B
:104F8000BDE8314071E231BD10B5DFF89045607B7E
:104F900058B9012020732069804700202073607B6E
:104FA00018B1FFF7C3FF0020607310BD2DE9F84F63
:104FB000DFF868452079002708B1FEF71BFE812045
:104FC0002071DFF86405007838B1DFF86055686A51
:104FD000000606D4686A400603D4277100F045FA3B
:104FE00048E100F0E2FCA86E40084000A866A77106
:104FF00004216079A0722046FFF747FF2078DFF890
:10500000308500F07F00C01EE071C0B27D28BEBFB9
:10501000607800F0070104296ADA00F00700DFF881
:105020001465022804BFE07A002839D100F071F934
:10503000FEF7E2F800F0010080F0010530788628E4
:105040002AD1DFF8F464306808B9FEF7D3FD9DF982
:10505000000000AFA0F14908787800F07F094946C8
:105060004FFA88F0FEF75CFC31684877306880F8CA
:105070001E90306880F81F800DB1FEF7B9F878787F
:10508000000606D5607800F01001E078FEF707FF13
:1050900033E0FEF72BFF30E07DB3FEF7A9F82CE0FC
:1050A0003078862808BFFEF721FF6078A17A71B1B9
:1050B000E27A62B9012935D0022902D107221042D1
:1050C00030D1032903D100F0070103292AD1A178A7
:1050D000C1F381028DF802204FEA91191146DFF8E1
:1050E0005C24126862B9B9F1010F18BF012907D118
:1050F000ED20C8F80800C8F8080000F099F9B9E0F8
:105100000FF25042895C19F802205618F6B2B9F134
:10511000000F03D0410644BFB61EF6B2E179B21CBF
:10512000914202DA00F0AAF9A4E0891B891E61729B
:10513000000748BF2527C9B2C8194C3080B2FBF719
:10514000E7FD606118B9E820C8F80800EAE7002721
:10515000E07A18B9607800F02000A071A07990B3CF
:10516000FEF74AF800F0010080F0010A607800F0D4
:10517000070003280CD1FBF7B4FD00286BD1DFF842
:10518000C0030078002862D008F009FAFE2862D037
:10519000286820F004002860FEF72EF88346FFF709
:1051A000ACFE6FF00100C8F80000BBF1000F08BFB3
:1051B000FEF71EF8A86E40F00100A866BAF1000FD5
:1051C00018BFFEF715F8606900F14C014160011D40
:1051D0004268CA63627A0A7180F8442061780907DC
:1051E0000FD5032180F84410611C606990F84420B9
:1051F000006CFDF7EBFC6069016C90F844205118DD
:105200000164606980F8249061699DF8020081F86A
:105210002E00FFF73AFA61690863FFF71EFA616929
:105220008886607800F0070008736169E07881F88B
:105230003D006178A078C0F3011001F078010843C7
:105240006169384388735EB900F05EF812E0FBF7DD
:1052500039FD00289CD00427286840F004009AE714
:1052600026726178207A090758BF401EA8620FF2A3
:1052700009002061BDE8F18F30B5A84C207A85B0D7
:1052800008B9FEF7B7FC00F043F8A07800A9C0F316
:105290008100C8B162699DF800304D7803EB0523A9
:1052A00013870328138FD38608D10DF1020102F171
:1052B0002600FDF789FF0DF10A0105E08878C9781D
:1052C00000EB0120D08401A9A078800915D0626983
:1052D000937B5B0605D40B784D7803EB0523D386CF
:1052E000891C032804D102F11C00FDF76DFF04E0C6
:1052F0000878497800EB0120908300206169C87527
:1053000000F002F805B030BD0FF23100206103E07B
:10531000217A00A8FFF7B9BD8048814A417A29B9AE
:10532000012111600FF23901016170471029A8BFF6
:1053300010210172007A401E1060704710B5774C42
:105340006069217A006CFFF7A0FD6169207A0A6C20
:1053500082180A64617A081A6072BDE81040DBE7BF
:105360002DE9F8436D4D002402212846FFF78DFDFD
:1053700068786E4F00F080085FEA080002D1E87A92
:10538000022840D1E720FEF75DFC02202871FEF7DD
:1053900061FE2857A0F14906687800F07F09494668
:1053A00070B2FEF7BDFA696981F83A00686980F861
:1053B0003C60686980F83B906869011D00F14C020F
:1053C000CA6390F844300E7942689B1B9A18426079
:1053D000887A400706D51078042803D0386820F072
:1053E000040038605648007818B108F0DFF800B1C2
:1053F00004246869817B44EA080211438173686967
:10540000FBF7BAFC0BE0E820FEF71CFCB86E400886
:105410004000B866AC7105F11400FBF78BFC00206E
:1054200068610520B8624748C5F81000BDE8F1433F
:1054300045480168490606D50068000603D443487C
:10544000ED2101600160002134480171807900285C
:1054500008BF00F00AB87047304800218171007918
:10546000002808BF00F001B8704780B5FEF7F2FDD4
:10547000FEF799F9BDE80140FEF7A7BC10B5274C2F
:1054800030492069884218BFFEF7B4FBE079002854
:1054900004BFBDE81040FFF7CBBF1028A8BF102005
:1054A00020721F49207A401E08600FF20900206117
:1054B00010BD00001FB5194CFFF72AFFE079217AD3
:1054C000401AE071C0B2164928B1102809DA2072DA
:1054D000401E08601FBD052008601A482061FFF7C4
:1054E000A7FF1FBD0D48817B491C817312E510B5D4
:1054F0000A49174CC872010005D1002020602068BD
:1055000040F0090007E002281CBF0128FEF772FBEB
:10551000206840084000206010BD00000C4E0020B4
:105520005086084034880840524E002028860840A3
:10553000308808403C4F00205C400020344F002061
:1055400014500020AD4F20004C8608403888084099
:105550000086084000BE040A62B38B0708D0521EC2
:1055600011F8013B00F8013B00F024808B07F6D1D5
:10557000830740F0208000BF103A07D330B4B1E871
:105580003810103AA0E83810F9D230BC530724BFC5
:10559000B1E80810A0E8081044BF51F8043B40F8F7
:1055A000043BD20724BF31F8022B20F8022B44BF62
:1055B0000B7803707047083A07D3B1E80810083A2F
:1055C00040F8043B40F804CBF7D25307E4E700006F
:1055D00070B54C4C19B9236843F400132360236859
:1055E000494D2B4008B943F08073002914BF4FF494
:1055F0008035002545EA0300104320604FF6FF7612
:10560000606804E0102000F02FF86068761E00F457
:105610008030854218BF002EF4D170BD3B48016830
:10562000002001F0070107290DD8DFE801F004058B
:10563000060708090A0B07E008E009E00AE00BE0AA
:105640000CE00DE0324870473248704732487047EE
:105650003248704732487047324870473248704786
:1056600032487047000000000138FDD17047704794
:105670002F4808210160FEE718B5012100F00F0254
:1056800091400FF2F802C0F3032352F823301C6854
:105690000C431C60002301E0009B5B1C0093009BFB
:1056A000102BF9D3C0F3032352F823301868884332
:1056B000186011BD0FF27C0101E00FF29001C0F300
:1056C000032251F822200123116800F00F0003FA91
:1056D00000F00843106070470FF27001C0F303221E
:1056E00051F822200123116800F00F0003FA00F0A6
:1056F00021EA0000106070470FF26801DFE70FF247
:105700006401EBE700200D40F8FFFEFE04200D4091
:1057100090D003000048E8010024F40000127A0051
:1057200000093D0080841E0040420F0020A10700B8
:1057300074200D4008200D4018200D4028200D40F9
:1057400038200D4048200D40A8200D400C200D4071
:105750001C200D402C200D403C200D404C200D40C5
:10576000AC200D4010200D4020200D4030200D4079
:1057700040200D4050200D40B0200D4014200D4021
:1057800024200D4034200D4044200D4054200D4075
:1057900038B5134C207808B3124D29680903FBD59E
:1057A00011490A6842F003020A600A685207FCD5F0
:1057B000022804D107F09EFFFFF788FB08E00128CC
:1057C00018BFFEF717FA2868000358BFFEF712FA51
:1057D00000202070BDE83140FEF729BC31BD00003B
:1057E0009B42002004200D400488084010B5FDF7BE
:1057F00003FDDFF8281300220A604A688C6808B9A4
:10580000FDF7F6FC2406600E10BD38B5C2480068EE
:10581000C00648BFFEF7EEF9C148C24C012101673E
:105820000160E220A060FF20A060FDF7E5FC00F031
:105830003DF96FF0100020600DB9FDF7D9FCFDF7C0
:10584000DBFC00F033F96FF008002060002D04BF8E
:10585000BDE83140FDF7CCBC31BD80B5FFF7D5FFC9
:10586000B148BC210160B82101600F210160D02145
:105870000160016001600EE080B5FFF7C6FFAA4835
:10588000BC210160172101608121016010210160AC
:10589000D22101608121016010210160D2210160CB
:1058A000D92101600121016009210160BA21016053
:1058B00001210160C5210160D221016001BD10B547
:1058C00000F064F8994C08606FF002002060FDF76A
:1058D00093FC0021616000F00100A168E268944B34
:1058E0001B6880F00100D2B2122B04D2C9B252EA76
:1058F000010308BF491C03236360C9B2A160E260D1
:1059000008B1FDF775FC00F045F8E120E06210BD3C
:1059100080B5FFF77AFF8448BC21C0E72DE9F0414C
:105920007D48016841F010010160016841F0080103
:105930000160FDF761FC00F0010080F00108774D87
:105940007C4C0020286068686E69F6B206F00F0093
:10595000C0F10F07FFB22760FEF755FB0120764923
:105960000870E120A86200202860686868698642A3
:1059700003D0022FA4BF781E2060B8F1000F1CBF17
:10598000BDE8F041FDF734BCBDE8F0816B486949E2
:10599000007870476048016841F0100101600168BB
:1059A00041F008010160FEF773BB5D48006800B17B
:1059B0007047594880B50168C9060CD5016821F0C7
:1059C000100101600068000748BF00F07EF8BDE8E4
:1059D0000140FEF745BA01BD2DE9F8434E4C206861
:1059E000C00648BFFEF706F9FFF700FF814654489E
:1059F0000678152EB8BFFEF7FDF809EB060014383F
:105A0000C0B2142190FBF1F1142202FB1105494EA2
:105A1000491C0220EDB2B0605FFA81F8C6F8008040
:105A2000152DA8BFFEF7E6F8404F6FF00200386072
:105A3000FDF7E2FB03213E4A796000F001001268A5
:105A4000690280F00100122A02D289B201B9012153
:105A500089B2CAB2BA60090AF96008B1FDF7C8FB99
:105A6000E220F862FF20F862FDF7C6FB00F01EF8A6
:105A70006FF0100078620DB9FDF7BAFBBC20F86238
:105A8000B820F862D220F862206840F01000206050
:105A9000E120F862FFF7AAFE484505DA3068404584
:105AA00002D13068401E3060BDE8F18305462A20EF
:105AB000FDF7E7BB1848016821F010010160E22101
:105AC00019480160FF21016070471348016821F007
:105AD00008010160FEF738BA80B50F48016821F06F
