:020000040000FA
:06000000020AF40201E611
:03002B0002077752
:030033000205D8EB
:0300430002079C15
:0300530002012780
:03006B000205B1DA
:1000830002017501FF01010503010F10FEFF50304E
:1000930000000000C22E00000000FF000000FF006F
:1000A300018813000030815A0020FD000200005F28
:1000B3001B000000000000671C000000000000009F
:1000C300000000000000000000000000000000002D
:1000D300000000000000000000010000000000001C
:1000E3000006FFFF010200A710000000E803FFFF66
:1000F3001D11E80364006400B8010202002000003F
:100103000502070101051E02051E020A0A0102B8C3
:100113000B02803E0102FEFFE8030A0500011206FE
:100123000A1401E0C0E074F2120407A2AFE433FE44
:10013300D2AF85A708AFA1EF550854106006121877
:10014300D775A1EFEF5508540860081218DD75A1A3
:10015300F78013EFA2E092F0E508A2E082F05006E8
:1001630012199775A1FEEEF8EEA2E092AF7F01029D
:100173000466C0E074F2120407A2AFE433FFD2AF07
:100183009061A4E0FE759B00E5915E5408600875DC
:1001930091F71219318026E5915E5410600875912C
:1001A300EF1219378017E591A2E092F0EEA2E082F8
:1001B300F0500A9061A4E0C2E0F0121A879061A3A4
:1001C300E0FEE5E95E5404600E121A5D75E9FB90EA
:1001D3006193E0A2E640F2EFF8EFA2E092AF7F0175
:1001E300020466C0E074F2120407A2AFE433FED245
:1001F300AF9061A5E0FFE5BF5F5404600675BFFBE8
:10020300121A9FEEF8EEA2E092AF7F01020466C3DA
:10021300E498F8E499F91202538026C3E49AFAE4C5
:100223009BFBE920E7E9120253E498F8E499F922E9
:10023300C3E498F8E499F9120253E498F8E499F9BD
:10024300C3E49AFAE49BFB22EB20E7CFE920E7E043
:10025300B90010BB0008E88AF084F8AAF022E4FB96
:10026300C8FA22EB70227B10C833C8C933C9335094
:1002730007C39AC3DBF280069A50012ADBEAC8332C
:10028300F4C8C933F4C9FA2275F008E4C833C8C9FD
:1002930033C933C99AC99B5004C92AC93BD5F0EC69
:1002A300FBC833F4C8E4C9FA22080808EAC0E0EB43
:1002B300C0E086F0E7A4FA180986F0E7A42AFA1842
:1002C3000986F0E7A42AFA180986F0E7A42AFA199E
:1002D30086F0E7A4FBE5F02AFA190886F0E7A42BD9
:1002E300FBE5F03AFA190886F0E7A42BFBE5F03AB0
:1002F300FA18180986F0E7A4C5F02BFBE43AFA19BB
:1003030008E7C5F0C6A426F6E5F03BFBE43AFA1885
:1003130086F0E7A4F6E5F00826F6E43B08F6E43AAF
:1003230008F6D0E0FBD0E0FA22E4CFC0E0E4CEC090
:10033300E0E4CDC0E0E4CCC0E075F020E626F608AA
:10034300E633F608E633F608E633F6181818EC3306
:10035300FCED33FDEE33FEEF33FFC3EC9709ED976E
:1003630009EE9709EF97191919400FFFEC97FC094C
:10037300ED97FD09EE97FE191906D5F0BFECF709C5
:10038300EDF709EEF709EFF7191919D0E0FCD0E002
:10039300FDD0E0FED0E0FF222518C582C0E0E519BC
:1003A30034FFC583C0E0E518C3958224F810AF0875
:1003B3008583198582188008858319858218D2AFB1
:1003C300CEF0A3E520F0A37808E608F0A3DEFAEF69
:1003D300F0A3E58124FAF8E608F0A3E608F0A3E623
:1003E30008F0A30808E608F0A3E608F0A3158115B2
:1003F30081D0E0FED0E0F8158115811581E8C0E0D9
:10040300EEC0E022C0D02518C582C0E0E51934FF54
:10041300C583C0E0E518C3958224F310AF08858334
:10042300198582188008858319858218D2AFC8F090
:10043300A3E9F0A3EAF0A3EBF0A37908E709F0A39B
:10044300D8FAECF0A3EDF0A3EEF0A3EFF0A3D0E025
:10045300F0A3D0E0F0A3D0E0F0A3E520F0A3E5F013
:10046300F0A322851983851882E0C0E0A3E0F9A3F5
:10047300E0FAA3E0FBA37808E0F608A3DFFAE0FCC8
:10048300A3E0FDA3E0FEA3E0FFA3E0C0E0A3E0C080
:10049300E0A3E0F5D0A3E0F520A3E0A3F5F010AFCF
:1004A300088583198582188008858319858218D267
:1004B300AFD082D083D0E0F8D0E032120B6FB90016
:1004C300030204FDE490030178C1790F8002F0A3D5
:1004D300D8FCD9FA7AC17B1190008678A279018081
:1004E30015E493A3AD82AE838A828B83F0A3AA82A1
:1004F300AB838D828E83D8E9D9E77582BD7583A0DE
:10050300740612087F75826F758326740012087F44
:100513000C75F0108E1A8F1B85821F85831E85181C
:1005230082851983E0CEA3E0CF851F82851E83EBEE
:10053300C9EAC8EDCBECCAC3E833C8E933C9EA3327
:10054300CAEB33CBC3EA9EF51DEB9FF51CB35004F6
:10055300AB1CAA1DEC33CCED33CDD5F0DAAE1AAF1C
:100563001B22D083D082ECC0E0EDC0E0E493A3FC77
:10057300E493A3FDED4C600D120685EC24FFFCED26
:1005830034FFFD80EFE493A3FCE493A3FDED4C6003
:100593000D120722EC24FFFCED34FFFD80EFD0E0C9
:1005A300FDD0E0FCE493A3C0E0E493C0E022C0E00C
:1005B30074F2120407E589A2E54006E589A2E45036
:1005C300031217759005B9E02401F0758900C2C5BF
:1005D3007F01020466C0E074F2120407E58BA2E017
:1005E30050031217759005BAE02401F0758B00C211
:1005F300E87F01020466851983851882E0A3FEE083
:10060300A3F5207808E0A3F608DFFAE0A3FFE0A350
:10061300C0E0E0A3C0E0E0A3C0E0E0A3C0E0E0A34B
:10062300C0E010AF08858218858319800885821879
:10063300858319D2AFD083D082020885D083D0823C
:10064300E9C0E0E493A3C386F0C5F095F0F908E4AC
:1006530093A386F0C5F095F0700BE493A3C3994080
:1006630005E9048002A3E475F002A42582F582E57E
:10067300F03583F583D0E0F9E493A3C0E0E493C0BD
:10068300E022C0E0C3E49396087401939618400FE8
:10069300E49366700808740193661870007019A3D8
:1006A300A3C3E49396087401939618A3A3400DD0B3
:1006B300E0D0E0D0E00205A1A3A3A3A3A3A3D0E0CD
:1006C300227404800474028000CCC0E0EDC0E0E535
:1006D30018C39CCCAD1950011D10AF068C188D1991
:1006E30080068C188D19D2AF1207E3D0E0FDD0E05D
:1006F300FC2274028000CCC0E0EDC0E0E518C39C8E
:10070300CCAD1950011D10AF068C188D1980068CC5
:10071300188D19D2AF1207C1D0E0FDD0E0FC22C082
:10072300E0C0F088F0E493667008087401936618DB
:100733007000A8F0A3A3700BD0F0D0E0D0E0D0E01D
:100743000205A1A3A3D0F0D0E022D083D082CCC0F5
:10075300E0E493A360061208041470FAE493A36020
:10076300061209511470FAD0E0FCE493A3C0E0E44C
:1007730093C0E022C0E0C0D0E8C0E0E9C0E0A2AF8F
:10078300E433F8D2AFC2C7E8F9E8A2E092AFD0E011
:10079300F9D0E0F8D0D0D0E032C0E074F212040710
:1007A300A2AFE433FED2AFC2C0E5D1A2E45003123C
:1007B3001829EEF8EEA2E092AF7F01020466CAC0E8
:1007C300E0E493A3C582CCC582C583CDC583F0A3E2
:1007D300C582CCC582C583CDC583DAE5D0E0CA2204
:1007E300CAC0E0E0A3C582CCC582C583CDC583F072
:1007F300A3C582CCC582C583CDC583DAE6D0E0CA62
:1008030022C0E0E493A3D39C5010E493A3C39C4081
:100813000AD0E0D0E0D0E002076AA3A3A3D0E0228D
:10082300C008C3E096F50808A3E096420808A3E0D1
:1008330096420808A3E09645087001D3D0082270B9
:1008430009080808226016181818C6C333C608C654
:1008530033C608C633C608C633C6D5E0EA22C58206
:100863002518C582C583351910AF07F51985821878
:100873008007F519858218D2AFC58322C09FF59FE3
:10088300E473D09F22D083D082C09FE493C0E074EE
:100893000193C0E0740293F59F222518F58210AFEF
:1008A30008F518400C15198008F51840021519D2DF
:1008B300AF8519832200C0D0251810AF08F5185052
:1008C3000C05198008F51850020519D2AFD0D022B3
:1008D3007404800A74038006740280027401C0E009
:1008E300F40412089DD0E0120B3122BB0102E7226F
:1008F300C082C08389828A83BB0003E08002E493C1
:10090300D083D082226016080808C6C313C618C64F
:1009130013C618C613C618C613C6D5E0EA2225188F
:10092300F8E43519F9222518FAE43519FB222518BC
:10093300FCE43519FD22C3E0C696F608A3E0C6968B
:10094300F608A3E0C696F608A3E0C696F622C0E032
:10095300E493A36C7009D0E0D0E0D0E002076AA36F
:10096300A3D0E022251810AF08F518400C15198004
:1009730008F51840021519D2AF22E066701008A3DB
:10098300E066700A08A3E066700408A3E06622E745
:100993006670100809E766700A0809E766700408BC
:1009A30009E76622C3E09608A3E09608A3E0960849
:1009B300A3E096A2D265D03322C3E096F008A3E069
:1009C30096F008A3E096F008A3E096F022C3E6971A
:1009D300F60809E697F60809E697F60809E697F692
:1009E30022C3E493960874019396087402939608BD
:1009F3007403939622E627F60809E637F60809E614
:100A030037F60809E637F622E026F608A3E036F6BD
:100A130008A3E036F608A3E036F622700422600D40
:100A230018C6C333C608C633C6D5E0F41822E04659
:100A3300F008A3E046F008A3E046F008A3E046F080
:100A430022E657F60809E657F60809E657F60809B5
:100A5300E657F622E056F608A3E056F608A3E0565A
:100A6300F608A3E056F622E056F008A3E056F00895
:100A7300A3E056F008A3E056F022E026F008A3E036
:100A830036F008A3E036F008A3E036F022E647F696
:100A93000809E647F60809E647F60809E647F62295
:100AA300E4C396F608E496F608E496F608E496F6A8
:100AB30022600D08C6A2E713C618C613C6D5E0F315
:100AC30022C6F4C608C6F4C608C6F4C608C6F4C6E9
:100AD30022C3E7960809E7960809E7960809E79607
:100AE30022C3E09608A3E09608A3E09608A3E09645
:100AF3002275D00075813F75180175190300020432
:100B0300BE600C08C6C313C618C613C6D5E0F422CC
:100B1300E6F008A3E6F008A3E6F008A3E6F022E077
:100B2300F608A3E0F608A3E0F608A3E0F622CAC09D
:100B3300E0E6F0A308DAFAD0E0FA22C5822518C568
:100B430082C5833519C58322E8F0A3E9F0A3EAF04F
:100B5300A3EBF022E0F8A3E0F9A3E0FAA3E0FB2281
:100B6300E0FAA3E0FBA3E0FCA3E0FD22E5C754F811
:100B73004401F5C77901222518F582E43519F58377
:100B830022C2AF75D69F0200002212088829640092
:100B9300120888AC6400120888C86400120888F937
:100BA3006400120888386500120888396600120844
:100BB30088E86600120888756900120888CE6A0002
:100BC300120888616B00120888EB6B0012088851C9
:100BD3006C00120888906C00120888066D001208D9
:100BE300885B6E00120888FE6E00120888166F007C
:100BF300120888B96F00120888437200120888E44B
:100C03007300120888027400120888008002120818
:100C1300885A8002120888C480021208884D810213
:100C23001208880982021208885182021208888CED
:100C33008202120888E282021208884A830212089A
:100C430088CE8302120888E783021208880C840284
:100C53001208884A8402120888998402120888C2FA
:100C63008402120888118502120888BD85021208C1
:100C730088858602120888EA8602120888B78702E6
:100C8300120888FD87021208881988021208884B07
:100C93008802120888F38902120888CA8A02120895
:100CA30088F68A021208882C8B021208884D8B0260
:100CB3001208885C8B02120888678B021208881B53
:100CC3008C021208888E8C02120888008D0212088A
:100CD30088088D02120888838D02120888DC8D0231
:100CE3001208881F8E02120888B19002120888F732
:100CF30091021208888794021208886F95021208DD
:100D030088A2950212088864960212088813970233
:100D13001208885B9702120888BD9702120888E2BE
:100D230097021208885A9802120888E29802120859
:100D3300884699021208882B9A02120888509A0250
:100D4300120888719B02120888849B021208881873
:100D53009C02120888629D02120888729D02120882
:100D630088819E02120888FA9E021208883C9F021C
:100D7300120888789F021208884CA102120888B1D1
:100D8300A302120888C5A302120888CFA30212087F
:100D930088D9A302120888E3A302120888EDA302EC
:100DA30012088806A40212088810A4021208881ADE
:100DB300A40212088824A4021208884CA402120870
:100DC3008857A402120888A1A402120888ABA402BF
:100DD300120888B6A402120888DAA402120888FE50
:100DE300A4021208885FA502120888AAA5021208A5
:100DF30088C6A50212088830A6021208887CA602BB
:100E0300120888C4A6021208883FA702120888D9CC
:100E1300A7021208889DA9021208880BAA021208C9
:100E2300883DAB0212088863AB02120888D3AC0278
:100E330012088887B00212088887B2021208885FF6
:100E4300B402120888F8B4021208880AB70212081A
:100E530088CCB70212088818B8021208887EB80234
:100E630012088890B802120888E0BA021208880DA6
:100E7300BC021208885FBC0212088804BD02120873
:100E830088BFBE02120888F0BF021208880EC00293
:100E930012088863C00212088861C1021208888997
:100EA300C102120888ECC102120888EDC2021208BE
:100EB3008860C3021208888EC402120888F9C4022B
:100EC300120888E9C5021208884FC8021208887DF3
:100ED300C80212088878C90212088816CB021208C1
:100EE3008866CB021208881ECC02120888D3CC0273
:100EF30012088837CD02120888F0CD0212088890B4
:100F0300CE02120888F4CE021208883ECF021208DD
:100F1300887BCF02120888E3D002120888C98201B5
:100F2300120888018301120888DA850112088820D3
:100F330086011208883D8701120888A287011208DA
:100F430088F38801120888E48B01120888038D0155
:100F5300120888D897011208887998011208886CBA
:100F63009B011208886C9C01120888F49C011208EA
:100F730088449E011208882B9F0112088894A101BE
:100F8300120888A2A3011208882FA4011208880B53
:100F9300A50112088834A501120888E1A5011208E9
:100FA30088CCA601120888A4A70112088804A80106
:100FB3001208882DA8011208885AA801120888ABC4
:100FC300AA0112088886AB01120888CAAB0112086D
:100FD300883BAC01120888F4AC0112088826AD01E5
:100FE3001208886DAD01120888A0AD0112088805AA
:100FF300AE0112088854AE0112088859AE011208D6
:1010030088ADAE01120888F7AE01120888F3AF016C
:1010130012088858B001120888BFB001120888E48A
:10102300B301120888B8B40112088822B601120865
:1010330088FCB801120888A4B901120888CBBB0147
:1010430012088870BC01120888AEBC011208888798
:10105300BE011208889ABE01120888A3BE011208B5
:1010630088ACBE01120888C1BE01120888E0BE0127
:10107300120888BFC00112088812C1011208886DC6
:10108300C101120888B7C101120888C3C20112083E
:10109300881AC30112088869C401120888B2C401FE
:1010A30012088892C501120888BDC6011208887308
:1010B300C70112088875C80112088877C901120888
:1010C300885DCA0112088874CA01120888B1CA016E
:1010D300120888BBCA01120888C6CA01120888E42C
:1010E300CA0112088826CB0112088884CB01120892
:1010F30088A9CB01120888C3CB0112088850CC0100
:1011030012088889CC01120888D7CD0112088829D2
:10111300CE0112088843CF011208886ACF01120852
:101123008806D00112088882D001120888CED10126
:10113300120888E9D201120888AFD301120888592E
:10114300D401120888DED40112088846D50112089A
:1011530088FBD5011208884DD601120888B3D60141
:101163001208887CD7011208889FD7011208885774
:10117300D8011208887BD8011208889DD80112086B
:1011830088FED80112088849DB0112088824DC0193
:10119300120888CEDC011208880FDF011208885D6F
:1011A300DF01120888A0DF01120888F8DF011208A6
:1011B3008856E00112088880E001120888A4E00143
:1011C300120888D5E001120888FFE001120888465A
:1011D300E1011208889AE101120888F6E101120878
:1011E30088F7E20112088861E4011208889FE4018C
:1011F300120888C8E40112088859E501120888A377
:10120300E501120888C7E5011208881AE6011208E9
:101213008835E601120888F0E6011208881AE7010A
:101223001208885DE701120888B3E701120888BF36
:10123300EA01120888F2EA01120888AFEB011208EA
:10124300888AEC011208881AED011208885BED0107
:1012530012088842C8051208887AC8051208889BB4
:10126300C805120888DDC80512088841C905120897
:10127300884BC9051208885BC90512088892C905FD
:101283001208883BCD0512088803CF05120888F79A
:10129300D00512088895D1051208881CD2051208BA
:1012A300884D8003120888F68003120888D58103CD
:1012B300120888F082031208881083031208883208
:1012C3008403120888CF85031208883C860312081A
:1012D300881287031208881888031208887D8803F8
:1012E300120888B988031208881289031208884BE8
:1012F3008903120888948903120888268A0312082E
:1013030088C38A03120888988B03120888658C03A4
:10131300120888F28C03120888188D031208884576
:101323008D03120888768D031208884B8E031208EA
:10133300885B8E03120888AE8E03120888BB8E0367
:10134300120888C88E03120888D18E0312088835C4
:101353008F03120888938F03120888DE8F03120805
:1013630088F98F031208882090031208883D9003A0
:10137300120888499003120888ED91031208880621
:101383009203120888829203120888959203120826
:1013930088A592031208884B9303120888BB940311
:1013A300120888CE95031208886E9603120888786F
:1013B3009603120888E69603120888F79603120824
:1013C30088369703120888649703120888319803B4
:1013D300120888889803120888CD98031208882376
:1013E30099031208884199031208888F99031208F8
:1013F300885D9A03120888AB9A03120888ED9A0352
:10140300120888709B031208889A9B03120888D0DD
:101413009B03120888DF9B031208883D9C03120874
:1014230088B59C03120888F69C03120888459D031F
:10143300120888709D031208888A9D03120888A4E5
:101443009D03120888799E03120888839E0312085D
:1014530088BE9E03120888CE9E031208881F9F032E
:10146300120888339F0312088851A0031208886664
:10147300A00312088800A1031208887FA1031208A1
:101483008822A2031208882DA2031208887AA303D4
:1014930012088896A303120888EEA3031208885C37
:1014A300A403120888A8A403120888C2A40312087C
:1014B3008822A503120888C0A5031208880BA60377
:1014C3001208886EA80312088806A9031208887DEB
:1014D300A903120888C3AB03120888DBAB03120805
:1014E30088DEAB03120888EAAB03120888FEAB035D
:1014F30012088806AC031208883DAC031208883131
:10150300AD03120888BBAD031208883DAE03120871
:1015130088B2AE031208888AAF03120888ACAF03FF
:1015230012088843B0031208884FB003120888AC2E
:10153300B003120888AFB0031208881EB103120863
:10154300886AB2031208887DB30312088808B403BB
:101553001208881BB503120888E5B503120888161C
:10156300B6031208883CB60312088845B60312086E
:101573008874B60312088824B703120888D4B70303
:1015830012088847B803120888F9B8031208886C50
:10159300B903120888ABB903120888F4B903120817
:1015A300886A92051208880E93051208885D9305D0
:1015B300120888DC93051208888694051208889E11
:1015C3009705120888579A05120888819E05120804
:1015D30088B99E05120888E79E05120888799F0539
:1015E300120888CD9F0512088800A00512088829D3
:1015F300A00512088877A005120888FCA005120828
:1016030088E2E1041208886AE204120888D4E2043A
:1016130012088848E3041208881AE6041208883D71
:10162300E60412088896E60412088888E70412087C
:1016330088F2E704120888A9E90412088804EB0475
:1016430012088876EB04120888EFEB04120888C6A8
:10165300EC0412088820ED041208886AED041208CD
:10166300886EEF0412088898F004120888C1F10408
:10167300120888D0F20412088841F304120888A1E2
:10168300F304120888DEF3041208887CF4041208B9
:10169300884BF504120888008005120888E380054A
:1016A300120888C083051208886B8505120888A96B
:1016B30086051208880F88051208888D8805120888
:1016C300887289051208882A8A05120888668A059D
:1016D300120888898A05120888AC8A051208883797
:1016E3008B05120888E38B05120888F48D05120810
:1016F30088758E05120888E78F051208882C9105D6
:10170300120888339205120888CD7E00120888DEFD
:101713007E00120888B27F0012088827AA061208E2
:101723008835AA06120888D8FF011208880DB20668
:101733001208881DB2061208883DB206120888DD19
:10174300B206120888DE9A06120888869B061208DB
:1017530088C89D061208884BA80612088878A80630
:10176300120888F7A8061208880CA90612088870C0
:10177300A906120888DFA906120888F1E1051208F4
:1017830088FEE10512088849E2051208886EE20521
:101793001208889EE205120888D4E205120888FD23
:1017A300E2051208882BE30512088832E4051208C3
:1017B30088C8E50512088803E70512088835E70598
:1017C300120888DBE7051208882DE80512088851FE
:1017D300E80512088801E905120888008006120846
:1017E30088198006120888AF8006120888AD810622
:1017F3001208880D8406120888ABB4061208883BC9
:1018030074001208888B7400120888877700120806
:10181300885C7800120888567900120888E47A00F8
:101823001208883C7D00120888DA7D001208882A95
:101833007E00120888387E00120888F655001208C8
:10184300887E7E00120888A77E00120888B57E0075
:10185300120888C8D20512088802D3051208889591
:10186300D40512088800D5051208882CD50512085E
:101873008845D50512088863D5051208885AD60508
:10188300120888BAD7051208889AD805120888DB87
:10189300D90512088819DA0512088844DA051208EE
:1018A300886FDA05120888E06300120888AFAD0676
:1018B300120888D8AD06120888ECAD0612088836DF
:1018C300AE0612088881AE06120888CCAE0612084E
:1018D300882FAF0612088832AF0612088840AF0679
:1018E30012088851AF061208885294061208888C91
:1018F3009406120888F494061208882295061208A2
:10190300886F9506120888AD9506120888E8950633
:101913001208881296061208883896061208889BC1
:101923009606120888C996061208885F9706120859
:10193300887797061208888C9706120888F3B406EE
:1019430012088810B50612088834B50612088841B3
:10195300EF05120888D5F005120888E3F005120890
:101963008803F1051208882CF10512088889F1050E
:10197300120888E5F1051208887AF205120888FF33
:10198300F20512088890F30512088882F4051208FC
:101993008896F405120888A9F405120888CBF40583
:1019A300120888EBB2061208881CB3061208884D89
:1019B300B3061208887AB306120888B29006120892
:1019C300882191061208884C9106120888EF910627
:1019D300120888F78C061208881A8D061208882CBC
:1019E3008D061208883A8D06120888638D06120840
:1019F300887F8D061208889B8D06120888B68D068F
:101A0300120888778E06120888F48E061208882B2F
:101A13008F06120888808F06120888D58F06120851
:101A2300880390061208881190061208882B9006E6
:101A33001208889F90061208883CB406120888FD95
:101A4300BB0512088846BC0512088872BC0512083B
:101A5300888BBC05120888ABBC0512088815BD0528
:101A63001208884FBD05120888AEC2051208887D8A
:101A7300C405120888C3C40512088830C5051208B6
:101A830088DEC6051208880EC70512088828C70510
:101A93001208883CC70512088890C705120888F306
:101AA300C70512088808C80512088853FE011208E2
:101AB300886AFE0112088893FE01120888B9FE01A4
:101AC300120888E6FE0112088816FF0112088837FB
:101AD300FF011208886EFF0112088896FF011208A1
:101AE3008898FF051208886D840612088884840686
:101AF300120888F685061208882B86061208885372
:101B030086061208888086061208889986061208B7
:101B130088DA8606120888588706120888A487067A
:101B2300120888F887061208882F88061208886129
:101B33008806120888ADFD02120888D0FD0212083B
:101B43008854FE0212088894FF02120888D9B0064E
:101B5300120888ECA506120888FCA7061208884715
:101B6300B50412088891B704120888C5B70412088F
:101B73008808B80412088820B8041208889AB804A0
:101B8300120888C6B804120888E5BA0412088866E1
:101B9300BC0412088878BD0412088806BE04120823
:101BA3008884BE041208884ABF04120888E3BF046D
:101BB3001208882DC004120888FBC004120888FF8D
:101BC300C104120888A0C204120888BCC404120805
:101BD3008801C6041208885CC6041208885FC6041C
:101BE3001208888EC60412088891C60412088860F9
:101BF300C7041208882FC804120888FEC8041208F4
:101C030088D2C904120888A6CA041208887ACB04A9
:101C1300120888A5CB04120888D0CB04120888A325
:101C2300CC0412088877CD041208887CA306120816
:101C3300889FA3061208889BA40612088847A50656
:101C430012088882A50612088870FC03120888EE21
:101C5300FC03120888FEFC0312088828FD031208FF
:101C630088C39B04120888C69B041208884B9D04F2
:101C7300120888BB9D04120888459E04120888F93F
:101C83009E04120888AD9F0412088871A0041208EC
:101C93008825A10412088832A304120888E6A30445
:101CA3001208889AA40412088829A504120888280F
:101CB300A60412088897A6041208882FA7041208FE
:101CC300885CA904120888B2AA0412088808AC0424
:101CD30012088862AD041208888AAE04120888E2EA
:101CE300AE0412088875AF0412088850B0041208B5
:101CF3008882B004120888B0B30412088851B4046F
:101D0300120888CCB4041208881CEE01120888C695
:101D1300EE01120888EDEE01120888ACF0011208FA
:101D230088CAF1011208889EF20112088838F4016A
:101D33001208888FF401120888A3F4011208881F7F
:101D4300F50112088856F70112088897F70112085F
:101D5300886EF8011208881AF901120888BBF90184
:101D6300120888FFF90112088817FA011208885629
:101D7300FA01120888C6FA0112088801FB01120849
:101D8300880BFC0112088858FC01120888BFFD016A
:101D9300120888DCFD01120888C49706120888E738
:101DA3009706120888329906120888629A06120862
:101DB30088F1AB061208881AAC0612088839AC06FB
:101DC30012088859AC06120888B7AC06120888DDD9
:101DD300AC061208889EAD06120888ACAD06120840
:101DE300885FA10512088874A105120888D0A1058F
:101DF30012088878A205120888A1A205120888C6CD
:101E0300A205120888EAA305120888F8A605120895
:101E13008806A70512088868A705120888A6A705DB
:101E2300120888C1A7051208885CA805120888054E
:101E3300A90512088858A905120888DBA905120804
:101E4300884BAA0512088884AA051208880FAB05D7
:101E5300120888A1AB05120888F8AB05120888564A
:101E6300AC0512088868AC051208887AAC0512081C
:101E730088A0AC05120888A9AC05120888FAAD053C
:101E830012088892AE05120888C5DA051208883D43
:101E9300DC05120888E8DC0512088810DD05120845
:101EA3008821DD0512088824E00512088844E0052E
:101EB300120888ABB306120888E39D061208882827
:101EC3009E06120888759E061208883EA006120810
:101ED30088008004120888C081041208880F8204D5
:101EE300120888868404120888EB8404120888EC9C
:101EF3008704120888528804120888868A04120804
:101F030088708B04120888D38B04120888638C04AE
:101F1300120888098D04120888628D04120888C18A
:101F23008D04120888208E04120888EC8F0412088E
:101F330088A991041208887F9404120888C1940424
:101F4300120888239504120888359504120888AA74
:101F530095041208885C9604120888859A0412086E
:101F6300884A9B04120888D1FF04120888ECFF04F6
:101F730012088804F50512088824F5051208882A32
:101F8300F60512088876F60512088896F6051208F3
:101F930088E9F60512088856F7051208889CF705A4
:101FA30012088800F805120888ACFA05120888039D
:101FB300AF0512088810B005120888E0B0051208B2
:101FC3008826B305120888BCB3051208880BB4052C
:101FD3001208883BB4051208887FB4051208885F8D
:101FE300B5051208884DB60512088862B6051208B1
:101FF30088F2B605120888B1B805120888E5BA0553
:1020030012088859BB051208888DBB05120888621F
:10201300AF0612088802B00612088866B0061208D6
:1020230088A9B0061208882EDC031208889BDC03FB
:102033001208884EDD03120888AEDE03120888F208
:10204300DF03120888E7E00312088801E10312089E
:102053008867E103120888E4E10312088852E20367
:102063001208886AE203120888CEE2031208884A3B
:10207300E3031208886BE303120888F1E3031208F1
:10208300883DE503120888A3E503120888CFE5031A
:102093001208882AE6031208880BE7031208884B04
:1020A300E70312088870E703120888C7E7031208DA
:1020B300880CE80312088843E8031208888BE803B6
:1020C300120888A3E80312088881E903120888A28A
:1020D300E90312088802EA0312088866EA03120871
:1020E30088C2EA0312088809EB031208884FEE033B
:1020F30012088896EE03120888E6EF031208882573
:10210300F003120888C2F003120888CEF103120804
:10211300882DF203120888B0F203120888BAF30379
:10212300120888EBF303120888F9F30312088818DE
:10213300F40312088838F403120888C7F40312085A
:102143008808F50312088828F5031208885FF50349
:10215300120888A7F503120888CAF503120888D461
:10216300F50312088833F60312088873F60312087E
:1021730088B4F603120888F7F6031208881EF703DB
:1021830012088880F703120888FAF70312088838C0
:10219300FA03120888DEFE04120888EFFE04120810
:1021A3008872FF04120888F87F00120888D9F504A2
:1021B30012088832F60412088868F704120888A9FE
:1021C300F704120888DCF90412088825FA041208B7
:1021D300887BFA04120888F8FA041208884BFC0476
:1021E30012088891FD04120888B6FD041208881BA2
:1021F300FE04120888A3FE0412088856D1021208AE
:102203008879D1021208888AD10212088860D20222
:10221300120888E3D2021208886CD3021208884895
:10222300D402120888DAD4021208888ED502120862
:102233008842D60212088831D702120888F8D702DA
:102243001208885DD80212088823DF02120888FF6B
:10225300E10212088848E202120888D3E202120857
:102263008848E4021208884BE40212088841E50218
:10227300120888BEE60212088805E902120888C41B
:10228300ED0212088825EF0212088826F1021208CF
:10229300889EF502120888B3F50212088842F802F4
:1022A30012088856F902120888F5FA02120888C63D
:1022B300FB021208882BFC02120888AEFC021208EB
:1022C3008829BA0312088804BB03120888ACBB032D
:1022D30012088808BC03120888C9BC031208887B4B
:1022E300BD03120888FEBF031208886EC0031208DC
:1022F300885EC103120888F5C103120888A0C203CF
:102303001208884CC30312088875C703120888C6CD
:10231300C903120888CCCA0312088867CE031208BF
:10232300887DCF031208886AD0031208881AD10364
:10233300120888C2D10312088853D403120888F5FF
:10234300D5031208889BD70312088862D8031208A2
:10235300880FD90312088873DA031208888CCD0416
:1023630012088819CE041208888ECE04120888E752
:10237300CE041208888BCF04120888DACF0412081F
:102383008848D00412088801D10412088851D20465
:102393001208888BD204120888C3D304120888D881
:1023A300D304120888FFD3041208884BD5041208FB
:1023B3008878D50412088892D504120888AED5040B
:1023C300120888C9D504120888DAD504120888E6E9
:1023D300D60412088889D7041208888ED7041208F5
:1023E3008818D80412088834D90412088871DA04CA
:1023F3001208880DDC0412088830DD041208880FE7
:10240300DE0412088862DE041208887BDE041208E8
:1024130088DEDF0412088837E104120888BB8806C7
:102423001208883989061208887889061208885A9A
:102433008A06120888C88A06120888618B06120861
:1024430088648C06120888BDFA05120888DFFA052D
:102453001208883CFB051208886AFB051208889F4E
:10246300FB05120888C5FB05120888E9FB0512085D
:10247300880FFC0512088822FD051208886EFD05E9
:1024830012088885FD05120888ADFE05120888BD6F
:10249300FE05120888DAFE05120888F7FE05120801
:1024A300880AFF0512088804E905120888ADEE05BD
:1024B300120888BBEE05120888C0EE05120888438F
:1024C300A1061208885BA106120888A1A2061208B9
:1024D3008868A306120888B1FF02120888CC7F001F
:1024E30012088837B5061208886EB5061208889751
:1024F300B5061208889D5500120888245500120855
:1025030088FA540012088842540012088875520051
:10251300120888455200120888095200120888F5EB
:10252300510012088836510012088883500012089F
:1025330088324E00120888074E00120888A84D0002
:10254300120888194C00120888A74B0012088884C7
:102553004B00120888C84A001208886B4900120809
:1025630088224900120888FC48001208883848006D
:10257300120888824600120888224600120888F34F
:102583004500120888F04500120888996300120874
:1025930088E36200120888576200120888486200C4
:1025A300120888355F00120888825C00120888DBF5
:1025B30045001208889B45001208888245001208CE
:1025C300888C4400120888495B001208884B440039
:1025D300120888D84300120888A543001208884AC5
:1025E30043001208881943001208886A5A00120827
:1025F30088E23F001208889658001208889ADA0584
:10260300120888F43E00120888AE3D001208885A6A
:102613003D001208884E3D00120888B53C001208A0
:1026230088833B00120888DE380012088881360050
:102633001208883536001208881A3500120888AF48
:102643003400120888D93300120888953300120821
:10265300885C32001208885756001208882332001B
:10266300120888F13100120888557E0000000080AE
:10267300FBE4730000000000000000000000000005
:10268300000000000000F8000000000000003330EC
:1026930000000000100C06100C06000000000000F3
:1026A30000000040C07840C0784000043F04043F6D
:1026B300040400007088FC08300000001820FF218B
:1026C3001E0000F008F000E018000000211C031EAB
:1026D300211E0000F00888700000001E2123241929
:1026E30027211010160E000000000000000000005B
:1026F300000000000000E0180402000000000718BA
:1027030020400000020418E00000000040201807E9
:10271300000000404080F0804040000202010F01B1
:10272300020200000000F0000000000101011F018F
:10273300010100000000000000000080B0700000F4
:102743000000000000000000000000000101010182
:102753000101010000000000000000003030000013
:1027630000000000000000806018040060180601EB
:1027730000000000E010080810E000000F10202007
:10278300100F00001010F8000000000020203F2070
:1027930020000000700808088870000030282422F8
:1027A300213000003008888848300000182020209D
:1027B300110E000000C02010F800000007042424BC
:1027C3003F240000F8088888080800001921202009
:1027D300110E0000E0108888180000000F1120205F
:1027E300110E0000380808C83808000000003F0038
:1027F3000000000070880808887000001C22212156
:10280300221C0000E010080810E000000031222222
:10281300110F00000000C0C00000000000003030B5
:102823000000000000008000000000000080600045
:10283300000000000080402010080000010204088E
:102843001020004040404040404000040404040481
:102853000404000008102040800000002010080439
:10286300020100007048080808F00000000030363C
:10287300010000C030C828E810E00007182724230F
:10288300140B000000C038E0000000203C230202CB
:1028930027382008F8888888700000203F202020EF
:1028A300110E00C03008080808380007182020203F
:1028B30010080008F808080810E000203F20202036
:1028C300100F0008F88888E8081000203F20202314
:1028D30020180008F88888E8081000203F2000032B
:1028E300000000C030080808380000071820202224
:1028F3001E020008F808000008F808203F21010123
:10290300213F20000808F8080800000020203F208D
:1029130020000000000808F8080800C08080807FBD
:1029230000000008F888C028180800203F2001266E
:1029330038200008F8080000000000203F20202075
:1029430020300008F8F800F8F80800203F003F00A6
:102953003F200008F830C00008F808203F20000797
:10296300183F00E01008080810E0000F1020202096
:10297300100F0008F808080808F000203F210101A3
:10298300010000E01008080810E0000F18242438A4
:10299300504F0008F8888888887000203F20000383
:1029A3000C302000708808080838000038202121E6
:1029B300221C00180808F8080818000000203F200F
:1029C30000000008F808000008F808001F20202075
:1029D300201F000878880000C83808000007380E58
:1029E300010000F80800F80008F800033C0700079E
:1029F3003C0300081868808068180820302C030303
:102A03002C30200838C800C83808000000203F20B8
:102A130000000010080808C83808002038262120C4
:102A2300201800000000FE020202000000007F40A8
:102A3300404000000C30C000000000000000010610
:102A430038C00000020202FE000000004040407F48
:102A53000000000000040202020400000000000065
:102A630000000000000000000000008080808080E3
:102A730080808000020204000000000000000000CB
:102A830000000000008080808000000019242222C2
:102A9300223F2008F8008080000000003F11202022
:102AA300110E000000008080800000000E11202025
:102AB300201100000000808088F800000E11202003
:102AC300103F200000808080800000001F2222220F
:102AD300221300008080F0888888180020203F207F
:102AE3002000000000808080808000006B9494941C
:102AF30093600008F8008080800000203F210000E0
:102B0300203F2000809898000000000020203F20F4
:102B1300200000000000809898000000C0808080A2
:102B23007F000008F8000080808000203F24022DF1
:102B3300302000000808F8000000000020203F209B
:102B43002000008080808080808000203F20003F24
:102B530020003F8080008080800000203F21000013
:102B6300203F200000808080800000001F20202064
:102B7300201F00808000808000000080FFA12020B3
:102B8300110E000000008080808000000E112020C4
:102B9300A0FF80808080008080800020203F212053
:102BA3000001000000808080808000003324242402
:102BB300241900008080E0808000000000001F20B6
:102BC3002000008080000000808000001F20202063
:102BD300103F20808080000080808000010E30083C
:102BE30006010080800080008080800F300C030C81
:102BF300300F0000808000808080000020312E0E86
:102C0300312000808080000080808080818E701859
:102C130006010000808080808080000021302C220B
:102C230021300000000000807C0202000000000050
:102C33003F404000000000FF00000000000000FFD4
:102C43000000000002027C800000000040403F00C2
:102C5300000000000601010202040400000000005D
:102C630000000087000100B7112400020030122584
:102C7300000200321226000200341227000200363E
:102C830012280001003812290001003912860001C0
:102C9300003E122A0001003F122B00010040122CBB
:102CA30000010044122D0008009F112E0001004571
:102CB300122F0001004612300001004712310001BB
:102CC30000481232000100A71133000100A811349B
:102CD300000100491236000100A911380001004A21
:102CE3001239000100431263000100B411640001B2
:102CF3000041126500010042126D000100B511711F
:102D03000008009711660001005B12430001004CAC
:102D130012440002004D12450001004F124600020A
:102D230000501247000800AC114800010052124B3A
:102D33000001005312040001005E12A100010061B2
:102D430012370001006012880001005F123C00018D
:102D530000AA113D0001004B124900020054126702
:102D6300000100B6114D00020056124E000100583A
:102D7300124F00020059123E000100AB1104040679
:102D8300006710000000000000000136360101005A
:102D9300010201000103010001040106060502000E
:102DA30000070100340801000F090401010D0100AF
:102DB300FF0E08000017020000190100FF1A0100AE
:102DC300011B0100FE1C0100081D0200001F010081
:102DD3000120010001210200002301000F24020051
:102DE300002601000127010008280200FF2A010034
:102DF300072B0102402C0100002D0100012E0100D0
:102E0300012F0100FF30010B1C310800003A0100C3
:102E1300083B01000F3C0100013D0100FF3E04009F
:102E23000042040000460400004A0400004E04006F
:102E33000052040000560400005A0400005E20FF04
:102E4300FF36000100060000000F00000000000034
:102E53000000000000000003FFFF00000403FFFF69
:102E63000000FFFF0FF4010005C40403200001006C
:102E7300000B000000000000000003010F00000031
:102E8300000000000000000000000000000000003F
:102E9300000000000000000000000000000000002F
:102EA300000000000000000000000000000000001F
:102EB300000000000000000000000000000000010E
:102EC300037103010301030103010301032203024D
:102ED30003010310030003000300030003000300C6
:102EE3000300034203000324030603000300030457
:102EF300031203250323032503230304030403000D
:102F030003000300034403000300032303000365DA
:102F130003210035038103000305030003000300BD
:102F230003000325032303010171010101010111C1
:102F33000101013101010101018001100161013B26
:102F43000014006301730172016201430100011364
:102F53000106013D013500040112010001000100D9
:102F630001000104010401330133013C0144013236
:102F730001360000010001650100013500810100F7
:102F83000105018201830100010302710230016026
:102F930002110270020102020202028002100261A7
:102FA300023A0041006302730272026202430200AA
:102FB300021302380000020002040212020002009F
:102FC300020002000204020402370037003C0244FC
:102FD300020002390000020002650200023502818C
:102FE300020002050282028302000203047104024A
:102FF30004600411047004020402040104020410B6
:10300300046104000414046304730472046204433B
:10301300040004130406040004000404041204005E
:1030230004000400040004510464000004000400CC
:10303300044404000400040004000465040004358F
:103043000481046400050400048304000403007184
:103053000030016000110070003102200350048031
:10306300001000610000001400630073007200622E
:1030730000430000001300060000000000040012DB
:1030830000000000000000000004000400370037C7
:10309300003C024400000000000000000065000046
:1030A30000350081000000050000008300000000DF
:1030B30000032313007322010003230200252203CC
:1030C300002B22040031220500372206004322117F
:1030D30000672214006D22150055221F005B22FF9A
:1030E300FF000001590F06890F08830F0B950F107E
:1030F300CF0E025F0F05770F07650F0C410F0D4DC4
:103103000F64130DFF000007ECFDFDFDECDCDCCCD0
:10311300BCACAC9C9C8C7C7C6C6C5C5C5C4C4C3C1C
:103123003C2C2C1C1C03EAF5E5D5D5C5B5A5959516
:1031330085857575656555554545353525251515BC
:103143000500160F00000B150B020002220F3300BF
:10315300000E5A6967426565416C6C69616E63650F
:10316300303901030507090B0D0F00020406080A95
:103173000C0D303017181921301B1D1F3000034A66
:1031830049434E181A250502000119161816161878
:103193002303000C0E020B040B0A0708000F00396F
:1031A3003D3F373C3C362C442D3030161819202334
:1031B3001A1C1E30020402010101010902E8030086
:1031C3000000BE040A0E00000000003C007F00E87F
:1031D300033C000A0303081000030005FF1E1E0C36
:1031E30005280901040409101504000C0808C0820D
:1031F300C083121601900310743FF0A37426F0905D
:1032030003127439F0A37426F09003147433F0A3FB
:103213007426F0900316742DF0A37426F0024BA0CD
:1032230074F712039BE9FE900302E4F0EE900301AE
:10323300F09012501244441250717CAC7D117A0507
:103243007B03122021901252E090030DF090030EA5
:103253007497F0A3741102557374F412039B8A08D4
:103263008B09EB5480700302332F900301E0F912B2
:103273001E298A0A8B0BAE0AAF0BEE4F7003023383
:1032830026125C4CE0F9125038900320125873A3B5
:10329300A3A3A3A3A3A3A3E0640270378A828B83AF
:1032A30012505380078C828D831251BEEC4D6020E7
:1032B3008C828D83E06A7003A3E06B70E88C828D4F
:1032C30083A3A3E06970DE901258126900F0804C6A
:1032D3001226038E828F83E064017034EE24181269
:1032E300338D1208DF1253CF1206C4EE24121233A9
:1032F3008D1208DF1262C41208DB124B5B1206C880
:10330300EE24171262D01215B9740A1208B8800C91
:10331300E064027007EEFAEFFB122549EEFAEFFBC9
:10332300121E17AA08E5096480FB805BEAA2E0503D
:10333300149003181255836006126BE5122674E588
:1033430008640180395402600C9011C17401F0EAE1
:103353006402FA8032EA540860291226098B0BEAC8
:10336300450B7016900322E4F0A3F0A3F0A3F07AC8
:1033730008FB900301E0F9121F97E5086408FAAB14
:103383000980047A007B00023DA91261B8F50A782E
:103393000A2274F412039BEA4B9003186026ECF0A4
:1033A300A3EDF08A088B09E4F50AF50B78081208F7
:1033B300D37A017B00900301E0F9121F8B7404128E
:1033C30008B8800FE4F0A3F07A01FB900301E0F961
:1033D300121F97023DA974F412039B8A088B098A72
:1033E300828B83126A8612619338F583E02409FA8B
:1033F3007B00121E118A0A8B0BAE0AAF0BEE4F70C5
:103403000302349F8E828F837402F0A3E41254E884
:10341300A3A3A3A3E8F0A3E9125075A3A3A3A3A3B3
:10342300A3A3F0E5082403F8E435091245A01261CB
:10343300933AF58312586CF0EE2409FAE43FFB8EBD
:10344300828F83A3A3124AB2F5838882E0A2E58E1A
:10345300828F83A3A3A3A3A3500474018001E4F088
:10346300E5082403F888828983125053EA1268E638
:103473003BF5831234A21208D7EA1261933B124B35
:10348300648E828F83125051121DE774031208B8A1
:10349300EEFAEFFB900301E0F9121E1D023DA9E0D5
:1034A300F508A3E0F509750A0078082274F21203FF
:1034B3009B8A088B09ECFAEDFB740E120B7AE0FC85
:1034C3001216318A0C8B0DAE0CAF0DEE4F6031AC82
:1034D30008AD0912161FE96027AC08AD09EEFAEF33
:1034E300FB121625E970158E828F83123508EEFACA
:1034F300EFFB121619AA08AB0912164979008002CC
:1035030079B4800EA3A3A3E0F508A3E0F509221282
:1035130008B87F060205F974EF12039B74F71209CA
:10352300678A0A8B0BECFEEDFF750DB3750C007506
:103533001000800205109031E7E493F8E510C3987A
:103543004003023629851008AA087B001216918AC7
:10355300088B09EA450960DC8A828B83A3A3A3A3B2
:10356300A3E0250CF50CF50EC3E50A950EE50B94C7
:103573000050C17C157D007900EEFAEFFB121DF3BC
:10358300850882850983A3A3A3A3A3E0F8E50AC35F
:10359300950C2825E0F8E433F9E50828F582E509D8
:1035A30039F58312505F12104FEAFCEBFDEEFAEF90
:1035B300FB122021850882850983A3E06401700A38
:1035C3001253CF740112541A803DAC18AD198508FB
:1035D30082850983125051121679E96030740812FA
:1035E3000B7AE0C0E01253CFD0E0F07408120B7AEC
:1035F300E06403700CAC18AD1912585A12202180E4
:103603000C8518828519831253DF12507185088245
:1036130085098312458EA3A3125422C0E0125E9340
:10362300D0E0F0750D00A90D74091208B87F0902E6
:1036330005F974F712039BE9FE8A828B83A3A3A384
:10364300A3A3A3E0540860338A828B83A3A3A3A319
:10365300A3A3E0540260218A828B83A3A3A3A3A321
:10366300A3A3A3A3E06406600F74E96E600A74CD9C
:103673006E600574F06E700312262102524074E8E6
:1036830012039B74F81209677406120B7A126AC04C
:10369300ECFEEDFF89177515001238C812163D8A26
:1036A3000A8B0BEA450B700302387AEE2410125A88
:1036B30038A90A120DDF8A128B13EA45137003022D
:1036C300387AEE2403F50CE43FF50DEE2406F508F5
:1036D300E43FF5097C008508821261EC1216438AE7
:1036E300108B11850C82850D831238BD12457085B0
:1036F3001282851383A3A3A3A31245261238BDA365
:10370300A3A3A3125C76851282851383A3A3A3A329
:10371300A3A3126C4012540E1208D71261923F12E7
:103723004B64851282851383A312504B121DE774D9
:10373300031208B87514007423120B7AE0F516749B
:1037430024120B7A780C120B220237FF8510828524
:10375300118312505112167F850882850983A3EACB
:10376300F0A3EB1238D9A3A312511F123B69A2E6AF
:10377300500F850882850983A3A3A3A3A3E0D2E105
:10378300F0E51570668508828509831264919003BC
:1037930076E0687003A3E069705185088285098328
:1037A300A3A3A3125A3D75100078101208DF780CFA
:1037B3001208D3E516F51078101208DF7426120BE1
:1037C3007A1206C89003831206C879007410120B8C
:1037D3007A12505712250D740A1208B8850882858B
:1037E3000983A3A3A3A3A3E04405F074012514FC58
:1037F3001238C81216438A108B110514E5104511AF
:103803006050851408C3E508950AE4950B5043E519
:103813001475F006A4F8A9F0E51228F8E51339F9B0
:10382300E8240CF508E439F509850882F583E412E8
:10383300742EE06401600302374F75150185088219
:1038430085098374011238D9125EE5E8F0A3E90211
:103853003766AA12AB13120DE578121208DBAD1608
:103863007424120B7AE0FCA917EEFAEFFB12262759
:1038730074021208B8803E8E828F83A3A3A3E0C094
:10388300E07403120B7AD0E0F0EE24121261B1C09F
:10389300E07404120B7AD0E0F0E50A450B7009746A
:1038A30005120B7A74B980077405120B7A7410121F
:1038B3004B7A1225137408023ED8E08512828513D1
:1038C30083A3A3A3228E828F831261FA8E828F83B6
:1038D300A3A3A3E0F922127432A32274E812039B78
:1038E30074F2120967E9851882851983F08A0A8BB5
:1038F3000B8C168D177426120B7A1242DCAA0CFB62
:10390300120DD3E9F514AA0CAB0D120DD9E9F51577
:10391300E5147003023B51751300800F8E828F8371
:10392300A3A3A3A3A3E0D2E3F00513E50C12502C49
:10393300350DF583E0F8E513C3984003023B48E5F2
:10394300147003023B48E51375F006A4F8A9F0E5EB
:103953000C28F8E50D39F9E8240CFEE439FF8E82D2
:103963008F83A3A3A3A3A3E0A2E040BD750E008EA3
:10397300828F83E07043125052120CAD8A088B0978
:10398300A808A909E849603188828983A3A3A3A36E
:10399300E06401600D88828983A3A3A3A3E0640389
:1039A30070178E828F83A3A3A3A3A3E0D2E7F0753E
:1039B3000E01E515700302392C750F0075080875A3
:1039C3000900E5176003750F207C087D00790074FA
:1039D30001120929121DF38E828F83E0603C90034C
:1039E300C6E064017018E50FD2E3F50F75091012F4
:1039F300648D7401120B7A124A9B74FF803A430F51
:103A03000C75080C8E828F83A3123B5F12506D746A
:103A130001120B7A74FFF0A3801E85188285198327
:103A2300E06009E50FD2E6F50F75080A12648D749C
:103A330001120B7AE8F0A3E9F07403120B7AE50F95
:103A4300125F18C0E07405120B7AD0E0F07406120E
:103A53000B7A7401F0120929122543740D120B7AA3
:103A6300E06003023B237409120B7A12456B8E82CA
:103A73008F83A3A3A3A3F07409120B7A123B7212D0
:103A830042D2E516123B6960119003C6E0C0E074B0
:103A930009120B7A1242E8D0E0F0850C82850D837F
:103AA300A3A3A3E0C0E07409120B7A12621CD0E056
:103AB3001251E6C0E07409120B7A1242F2D0E0F020
:103AC3007409120B7A123B5F126A9E125F21125025
:103AD30053126A7FEAF0A3EB125F07C0E0126A7722
:103AE300D0E0F07409120B7A123CA1123B56124734
:103AF300BF3B125EF412618B123EEC75120078101C
:103B03001208D7124B5FEA1250253BF5831250532C
:103B1300121DE774031208B8740112092912253D16
:103B23008E828F83A3A3A3A3A3E0D2E0F0740D122C
:103B33000B7AE0600302391FE50EA2E0500215156F
:103B4300151402392C7900AA0CAB0D12261B740E26
:103B5300023ED8A3A3A3A3126496EA221264968515
:103B63000A82850B8322123B6D2212662BE02212FE
:103B730047DE1253C939F583E508F0A3E509F022BE
:103B830074F012039B74E9120967EAFEEBFF8908DC
:103B93008E828F83A3A3A3A3A3A3A3A3E0F9120DF0
:103BA300FD8A0C8B0DEA450D7003023C9CE5087001
:103BB300157C048E828F83A3A3A3A3A3A3A3A3E053
:103BC300F9120E03804F7C088E828F83A3A3A3A3D5
:103BD300A3A3A3A3E0F9120E038A0A8B0BEA450BF6
:103BE3006033E508F50978091208DF850C82850D35
:103BF30083A3A3A3A3A3A3A3E0FD8A828B83A3A38D
:103C0300A3E0FC8A828B83A3123CA1E0F91215B3D3
:103C130074011208B8124B55125581607C88828951
:103C23008312504F7406120B7A123CAB125053742A
:103C330008120B7A123CABA3A3E0C0E07410120B82
:103C43007AD0E0F0850C82850D83A312504B740E5D
:103C5300120B7A126AC07411120B7AE4123B69FADE
:103C6300A3E0CA241FF582E43AF5831245ABE0C40E
:103C730013135403FC70027C0488828983E0F9786F
:103C83000C1208DB742059FD744059F974021209AF
:103C93002912262774021208B8741702454D1262BE
:103CA30000850A82850B8322EAF0A3EB124963A302
:103CB300A32274F712039B74FA120967E9FE7F01CA
:103CC3008F087D0080047508000D12450DE0F8EDA6
:103CD300C3985027ED75F006A4F8A9F0EA28F8EB8D
:103CE30039F9E8125F1239F583E0A2E050D8540C99
:103CF30060D4E0A2E250D27F0080CE8A828B83A37D
:103D0300A3A3A3A3A3E0703EE508A2E040057401CA
:103D13006E70338A828B83A3A3A3A3A3A37401121C
:103D23006944E0C0E07403120B7AD0E012693CE00E
:103D3300C0E07404120B7AD0E0F07405120B7AEF32
:103D4300124B7A122513740602523DC082C0837946
:103D53000112261B024BA074F412039BEA4B602D45
:103D63009003C2E0640270259011C1E4F08A088BCD
:103D730009F50AF50B78081208D37A027B00900341
:103D830001E0F9121F8B74041208B880129011C15C
:103D93007401F07A027B00900301E0F9121F97800F
:103DA3000574021208B87F040205F974E812039B34
:103DB30074FC1209677402120B7AE4F0A3F0900307
:103DC30020125B43851882851983E4F0A3F07514F0
:103DD30001900370E0A2E35003023E65121FA98A1B
:103DE300088B098C0A8D0B8A0C8B0D8C0E8D0F9012
:103DF3000322780C120939123EE07810790C120A6A
:103E0300D450077A017B00023ED6850C14850D152C
:103E1300850E16850F177814791012032CA814A990
:103E230015901258E0C398E4995003E0F514123E3C
:103E3300E0780C791012032CE4F512F51378087965
:103E4300101209D09003227808120B138014126405
:103E530092900320125071EEFAEFFB121ECBAE08C4
:103E6300AF09EE4F60658E828F83A3A3A3E0F8E5CD
:103E730014C3985029EE2403F582E43FF583A81474
:103E8300E0C398F060217402120B7A12661712587D
:103E93008EEEF0A3EF124D91FEA3E0FF80C48E825D
:103EA3008F83A3A3A3E4F08E828F83A312350785A8
:103EB30018828519831255838E828F83A3A3A3A3AC
:103EC300608C124B421245B4A380897402120B7AA0
:103ED30012505374041208B87F100205F990125659
:103EE300123EECE4F512F51322E0F510A3E0F51110
:103EF3002274F212039B8A0A8B0BE9FE7A007B0081
:103F030090032012350A900320125583601E0A8500
:103F13000882850983A3A3A3A3125583600E0AEA2B
:103F230070010B88088909E8450970E3901259125A
:103F33006492C3EA98EB994003023FDF7A067B0061
:103F4300121EC58A0C8B0DA80CA90DE8497003023B
:103F53003FDF88828983E50AF0A3E50BF0EE8882D0
:103F63008983A3A3F090125812480AA3A312495EAF
:103F7300E4F0A3F0900320125577600B8508828547
:103F8300098312506D801F900320125071900370AB
:103F9300E0A2E34011121FA9EAF8EBF9ECFAEDFBFA
:103FA300900322120B4B900370E0A2E3502E7A0889
:103FB3007B00900301E0F9121F9DEA4B4C4D701CEE
:103FC30090125612723678081208D37A087B009042
:103FD3000301E0F9121F9174041208B80235157435
:103FE300F212039B74F3120967EAFEEBFF8E828FD2
:103FF30083A3A3A3A3A3A3A3A3A3A3E0F50A90115D
:10400300C1E0700579BA0242C675080175090075E9
:104013000C00750D007C087D007900AA18AB1912FD
:104023001DF37405120B7A74011242FE54046012DC
:104033007402120B7AE0D2E61242FE540870037542
:104043000803E05410600674404508F508E054087E
:1040530060227402120B7AE044C01242FE542060C4
:104063000A7403120B7AE0D2E080087403120B7A0D
:10407300E0D2E1F08E828F83A3A3A3A3A3A3A3A380
:10408300E07016121055851882851983126AC07460
:1040930002120B7AE0D2E2802C640F7010740212C9
:1040A3000B7A12430674044508F508807B8E828FD1
:1040B30083A3A3A3A3A3A3A3A3E064028E828F83FA
:1040C3007006124A8DF08060A3A3A3A3A3A3A3A3A6
:1040D300E06403700DAC18AD19EEFAEFFB1225CDB9
:1040E30080468E828F83A3A3A3A3A3A3A3A3E06489
:1040F3000170359003C6E060107402120B7A12430C
:1041030006750910750AFF80187402120B7AE044D1
:104113000C12588E74FDF0A374FFF074044508F577
:10412300088E828F831242DCEE24151261B1A2E065
:10413300503F7402120B7AE0540C701B8E828F83F3
:104143001250531223D5E9700579BB0242C674029B
:10415300120B7AE0D2E5F0EE24151261B1A2E05021
:10416300107402120B7AE0540C64047004E0D2E57C
:10417300F0EE24111261B1C0E07404120B7AD0E0A6
:10418300124B7A122543740C120B7AE0600302423D
:10419300BF7408120B7A123B72EE24181261B1C07D
:1041A300E01242D2D0E0125EFCE0C0E07408120BD1
:1041B3007A126A891261A838F583D0E0124A9564AD
:1041C3000170119003C6E0C0E07408120B7A12422A
:1041D300E8D0E0F07408120B7A12587D2417FAE441
:1041E3003FFB8A828B83E0FCE8241CF582E439F5EB
:1041F30083ECF0A3E4125593E0C0E0E82422F582B7
:10420300E439F583D0E0F07408120B7A1242F2E538
:104213000AF07408120B7A1247DA1247BF39F58392
:10422300E50CF0A3E50D126240FCA3E0FD126AA9C0
:10423300ECF0A3ED1245391251C21242CB3912648C
:104243009FC0E0E8242FF582E439F583D0E0F0EE57
:10425300241B1261B1C0E07408120B7A126A92D067
:10426300E0F0EE241A1261B1C0E07408120B7A1266
:104273006A89125A2E38F583D0E0126AC61234A323
:104283001208D71253B51251C2740B120B7A124A89
:1042930075121DE774031208B8EE24151261B154A8
:1042A300406012900330125583600AAA18AB1912AA
:1042B3006BE5122674AA18AB1912253D740C120B68
:1042C3007AE0F9740D023512E82428F582E422E835
:1042D3002412F582E439F583221242E022E0F50C40
:1042E300A3E0F50D22126A8D125E7D38F58322124A
:1042F3006A8D2423F582E438F58322F0EE24151227
:1043030061B822E0D2E312662B12431022124B4A09
:10431300E8F0A3E9F02274F712039B7E638A828B91
:1043230083E0600C7905120C05E9F87456C398FE16
:1043330090036EE0600CF9120C05E9F8EEC39824C3
:10434300F2FEEEF902524074F612039B74FE120958
:1043530067851882851983126AC0E9FEECFAEDFBC2
:104363009005391255836035A818A9198808890959
:1043730078081208DB7D01740E120B7AE0FCEEF96B
:10438300900539124C0912267474021208B88B096D
:10439300EA450960047900800679B2800279B602A1
:1043A300457874F712039BE9FE900310125583605E
:1043B3001F7409120B7AE0F50878081208DFEEF98A
:1043C300900310124C0912267474011208B880026B
:1043D30079B602524074F712039B8908ECFEEDFF95
:1043E30079B5E508245F600C14603114601224F879
:1043F3006041804A900303125ED9E8F0A3E9801973
:1044030090053B125577603690053B124C091226F6
:10441300748E828F83EAF0A3EBF080209003121254
:1044230063DA601AEEFCEFFD900312124C091226B8
:1044330074800B90030E1250571220217900025200
:10444300401264969003032274F512039BEAFEEB79
:10445300FF8C088D09750A0112104FEAFCEBFDEE83
:10446300FAEFFB12201BE96401700B9003761245EF
:10447300C0125071800EAC08AD09EEFAEFFB120CBE
:1044830053E9F50AA90A026D0174F612039BEAFEC9
:10449300EBFF7A0C7B00121EC5EA4B606AEE242008
:1044A3001261B18A828B83F0EE2421124515F0EE5E
:1044B3002422124515A3F0EE2423124515A3A312BB
:1044C3005A4312451E12506DEE1242CC3FF5831231
:1044D300451EA3A3A3A3A3A3E8F0A3E9125A528AF8
:1044E300828B83A3A3A3A3A3A3A3A3F0EE242F12DE
:1044F30061B1C0E012450DD0E01251EFF8A3E0F92D
:104503008A828B8312506802457DEA1250303BF554
:1045130083221261B88A828B83A3221264968A82D1
:104523008B8322124313EE12454422F582E43FF5B6
:1045330083E4F0A3F022F0EE1253C222EE124544BC
:10454300222412F582E43FF583221208B87F080281
:1045530005F912455D8882F58322F8E43FF988085E
:10456300890922124A6DA3221245CEE022124B6B17
:10457300F8A3E0F92274021208B87F020205F9C019
:1045830082C0831245E8E4F0024BA012507C22F56E
:1045930083E02AFAA3E03B227901020885F98882A5
:1045A3008983E0FAA3E0CA22E0FAA3E0F5838A82D2
:1045B30022E0FAA3E0F5838A82A3A3A3221245C4CF
:1045C3002212649A85088285098322124ABDC8246F
:1045D3000EF582E438F58322C082C0831245E87465
:1045E30001F0024BA0EA1268E03BF5832202459BEF
:1045F300C082C08390032674BBF0A37425F090039C
:104603002874AFF0A37425F090032A7485F0A37483
:1046130025F090032C74B5F0A37425F0024BA0741D
:10462300F412039BEAFEEBFF124678F508121055CD
:104633008A0A8B0BA80AA90B8E828F831245ABE0E3
:10464300687003A3E069602AE508A2E550248E821E
:104653008F83A3E0FB900326124C091226748E82EB
:104663008F83126A89240A12557D7006124678C216
:10467300E5F0023DA98E828F83124566A3E0227482
:10468300F412039BEA2408FCE43BFD8C828D831225
:1046930047DA124D4FE0FE74035EF50912502B39D1
:1046A30012587B88828983F0A3A882A983E50960D5
:1046B3000974026509600302474D740C5EF50860D6
:1046C3001774086508601174046508701374026533
:1046D300097005EEA2E4402A1247E324231248108E
:1046E300740C650870161247CC24241247F5FCA3FA
:1046F300E0CC1247BF3CF583A31248167402650948
:104703007005EEA2E440431247CC24261247F5FF7E
:10471300A3E0CF125A34A31248161247D02428120A
:1047230048251242CC3CF583A3124816E5086012D3
:1047330074086508600C740C6508600674046508E9
:1047430070081247E324221248101247E31247B3BA
:104753007005EEA2E1500C1247E3125A2E3C1247A9
:10476300C5800E9003021247C7900302E004124A69
:10477300C2A3A882A983EEA2E750321247CC242118
:104783001248251247B360251247E324301248101C
:10479300EEA2E150188A828B83A3A3A3A3A3A3A3AE
:1047A300A31245A52431F582E43A1247C5023DA977
:1047B3002421F582E43CF583E05403222424F5828A
:1047C300E422F58312480AF022EA2408FC8C828D45
:1047D30083E0FFA3E0CF221247DE2212649AE8228D
:1047E3008A828B83A3A3A3A3A3A3A3A3E0FCA3E035
:1047F300CC22F582E43FF58312480AF0A3A882A9EC
:10480300838C828D83E022E08882898322F582E48F
:104813003CF58312481A22E088828983F0A308A911
:104823008322F582E43FF58312481A8C828D83E05C
:10483300FCA3E0CC22C082C0838A828B8312467C95
:10484300F8740358F98A828B83A3A37401F0E96097
:10485300057402697061740C58FC601474086C6010
:104863000F74046C70137402697005E8A2E4401DB0
:104873008A828B83A3A37402F0740C6C700A8A82FD
:104883008B83A3A3E02402F07402697005E8A2E419
:1048930040258A828B83A3A3E02404F0EC600F7489
:1048A300086C600A740C6C600574046C70098A826D
:1048B3008B83A3A3E004F0E8A2E750318A828B83C1
:1048C300A3A3E0041264A5F9A3E0F5838982A3A35B
:1048D300A3E0540360178A828B83A3A3E004F0E868
:1048E300A2E150098A828B83A3A3E004F08A828B1E
:1048F30083A3A3E004F0024BA0C082C0838A828B0F
:1049030083A3A3A3A3A3A3A3A3A3A3125583600C6D
:104913008A828B83A3A312504B121ECB024BA0742B
:10492300F712039BEAFEEBFF8E828F831253D7A30A
:10493300A3A3A3A3A3A3A3E4F012495EA3A3A3A3E6
:10494300A3A3F0A3F0E81268E039F583E4F012259D
:104953006DEEFAEFFB122579025240A3124963224E
:10496300124AC2A3A3A3A32274F112039B74F312EA
:104973000967EAFEEBFF740C120B7A7401F012253F
:10498300738E828F83A3A3A3A3A3A3A3A3A3A3121F
:1049930055836006124C021226741261AE60030244
:1049A3004A337C087D007900AA18AB19121DF374F1
:1049B30002120B7A7401124A62124A8D124A95F856
:1049C300A3E0C81268CA38F583E02409C0E0740480
:1049D300120B7AD0E0F07405120B7A124B78122581
:1049E30043740C120B7AE070477408120B7A12515D
:1049F3002A740E124A621251C08508828983A3AABF
:104A030082AB8312202112504712450D12622C12E1
:104A130008D71268C4124B64E5082409FAE435097F
:104A2300FB121DE774031208B8AA18AB1912253D2F
:104A33008E828F83A3A3A3A3A3A3A3A312558360EF
:104A430006125047121ECBEEFAEFFB122567740CC9
:104A5300120B7AE0C0E01254A9D0E0F002543812ED
:104A6300558D124A6922124A6D22124ABDF5838876
:104A73008222124A7C12620022124A8022124ABD0A
:104A8300C8242BF582E438F58322124B46E8F0A3C1
:104A9300E922125A5FA3E0221243138E828F83A36B
:104AA300A3A322EE2402F8E43FF98882898322EA51
:104AB300F0A3EB124AC2124ABD22E0F8A3E022F0AF
:104AC3008882898322C082C08374F9120967124BDA
:104AD30038125071EA2402F8E43BF988828983E0B2
:104AE3002401124B317402120B7A124AB2F98882F2
:104AF3008983A3A3A3A3A3A3A3A3A3E0FC8882897D
:104B030083A3A3A3A3A3A3A3A3A3A3E0FBECFA748C
:104B130004120B7A124D7E124D5EC0E07406120B26
:104B23007AD0E0124B7A1225077407024B9DFAA341
:104B3300E03400FB228A828B83A3A3A3A3A3A31243
:104B43004B4622124B4A22124ABDF9851882851917
:104B53008322EE1268CA3F221253E6221268F83506
:104B63000BF583E0FC7D0022124B6F22F085088257
:104B7300850983E0227401F0AA18AB1922124B961F
:104B830022C082C083124C0D7003122555800E8AF9
:104B9300828B83A3A3124A6DE0221208B8D083D07C
:104BA30082020885C082C08390125BE07025901159
:104BB300B6E0701F8A828B83A3A3A3A3A3E0701321
:104BC300124C0D60388A828B83A3A3126BE4E064DA
:104BD30007602A8A828B83A3A3A3A3A3A3A3A3E02F
:104BE30070128A828B83124C1360097A347B011210
:104BF30021A7800990032E124C09122674809EEE81
:104C0300FAEFFB900328124A6922124B92640622A0
:104C1300124B9664052274F612039B74FA12096709
:104C2300EAFEEBFF7403120B7A125E83740312091C
:104C3300291225611261AE6003024D4485188285F5
:104C430019837432F07405120B7A126C33C0E0745A
:104C530001120B7AD0E0124D85C0E07402120B7A78
:104C6300D0E0124D8BF8A3E0F9E849601BE8125E2F
:104C7300B339F583E0FAE8124D4939F583E02AF8B0
:104C83007401120B7AE028F0AA18AB19120D258AC9
:104C9300088B09A808A909E8497003024D398E82D7
:104CA3008F8312505388828983A3A3124D7E125E91
:104CB300C9391251EBC0E0E8124D4FD0E01251E672
:104CC300C0E0E82421F582E439F583D0E0124D9168
:104CD300C0E0E8242AF582E439F583D0E0F07405D6
:104CE300120B7AE0FCE8124D5E2C124B31E81250A5
:104CF3002539F583124D7E242DF582E439F583ECB5
:104D0300124D8BFAA3E0FBEA4B6019E8242BFAE47B
:104D130039FB8E828F83A3A31247E7124D493CF5DB
:104D230083124D668E828F83A3A3A3A3A3A3A3A3FE
:104D3300E8F0A3E9800AEEFAEFFB122567124D585B
:104D4300F0740602457A2416F582E4222420F582C3
:104D5300E439F583221254AD74102212503039F520
:104D630083E022E0FC8A828B83E02CFCA3E0340006
:104D7300FD8A828B83ECF0A3EDF022EAF0A3EBF043
:104D8300E822124D96A3E022125597A3E022124D7A
:104D930096E022124D9A22124D9E22F08E828F832C
:104DA300A3A3A3A32274F612039BEAFEEBFF1261F3
:104DB300AE70421225738E828F83A3A3A3A3A3A3F2
:104DC300A3A3A3A31255836006124C0212267412E6
:104DD30061AE700B125047120D1F124E028015EE7A
:104DE3002408124555125053121ECB85088285099B
:104DF30083E4F0A3F0EEFAEFFB12256702457D1280
:104E030054ADE92274F612039BEAFEEBFF8C088D86
:104E1300091223D5E9700479018011AC08AD09EEBC
:104E2300FAEFFB90032C124C0912267402457D7491
:104E3300F112039B74F31209678A088B09740C122D
:104E43000B7A1251DB121DF3850882850983A3A314
:104E5300E064046003024EFF7404120B7A7422F0C0
:104E6300740C120B7AE0600302501B8508828509DB
:104E730083124B421250717402120B7A7401125452
:104E830001C0E07405120B7AD0E0125432F8A3E0AB
:104E9300F97406120B7A1254CAA3A3A3A3A3A3A360
:104EA300E0640170097402120B7AE0D2E5F0AA18EB
:104EB300AB19122543740C120B7AE0600302501BEA
:104EC3007408120B7A126A8912502538F583125B23
:104ED300438E828F8374051250751254E0E8496043
:104EE3006E8508828509831262281208D77C101206
:104EF3005036121DE774031208B8805F8508828557
:104F03000983A3A3E06401600D850882850983A357
:104F1300A3E06406700A7404120B7A7423024E62CF
:104F2300850882850983A3A3E06402600D85088256
:104F3300850983A3A3E06403700A7404120B7A74D3
:104F43001B024E62740C120B7A74B3F002501B7C7A
:104F5300107D007900125038121DF3EE2412FE501A
:104F6300010F850882850983A3A3E06401600D8591
:104F73000882850983A3A3E06406700D85088285F2
:104F83000983A3A3A3E0126C28850882850983A360
:104F9300A3A3A3A3A3125057120C41EE2408FE505F
:104FA300010F850882850983A3A3E06404601A8541
:104FB3000882850983A3A3E06401600D85088285C7
:104FC3000983A3A3E06406700FEEFCEFFD7A007B78
:104FD3000079AB1225D38011850882850983A3A3A9
:104FE300A3A3A3A3A3125040F085088285098312CB
:104FF30050531210DFE960087408120B7A125C6ECA
:10500300E50812502C3509125581AA18AB19600511
:1050130012255B800312253D740C120B7AE0F90212
:105023005438242BF582E422E812503022240BF565
:1050330082E4227D00EE2402FAE43FFB22A3E08E09
:10504300828F83228E828F83A3A3A3A3A3A3A3A36D
:10505300126200221251C6EEFAEFFB22A3A3A3A30E
:10506300A3A3125EDDA3A3A3A3A3A3A3A3A312439A
:10507300132212541E12507C22E08E828F83A322AD
:1050830074F612039B74F3120967EAFEEBFF7C08C4
:105093007D007900AA18AB19121DF31251B1120B3E
:1050A3007A740CF07405120B7A7401125A5A60095F
:1050B3007402120B7A742180077402120B7A740142
:1050C300124B7A122543740C120B7AE07042740867
:1050D300120B7A12512A7406124D911251A3122007
:1050E30021124AA612511FA3A3A3A3A3A31253FCE5
:1050F300850882850983A3A3A3A3A3A3A3A3A312C0
:105103005588E0C0E0125EB9D0E0124B7A12253D1B
:10511300740C120B7AE0F9740D02457AE08508826B
:10512300850983A3A3A3221251D4880889098882FD
:10513300F5832274F712039B74F3120967EAFEEBFB
:10514300FF7C087D007900AA18AB19121DF31251D8
:10515300B1120B7A7409F07405120B7A7401124DB3
:1051630091640170097402120B7A7421800774022E
:10517300120B7A7401124B7A122543740C120B7AB8
:10518300E0701A7408120B7A1251CC74071251EFA3
:105193001251A3122021AA18AB1912253D02523431
:1051A300FCA3E0FD88828983A3AA82AB83228E823B
:1051B3008F83124B46124313740422A3A3A3A31297
:1051C30051C622E0FCA3E0FD221251D488828983D8
:1051D30022124A8012649A22E4F07C08FDF9AA188C
:1051E300AB1922126624E022F5837401126AB7A375
:1051F300E022C082C08312257F90032E744FF0A358
:105203007425F0024BA074F712039BE9FE1268C4E5
:10521300125581601A88828983A3E054037010EECB
:10522300FB12502B39F58312526CE0F91215AD8045
:105233000C740C120B7AE0F9740D1208B87F01029A
:1052430005F9C082C083EAF8EBF988828983A3A3B6
:10525300A3A3A3E0FB88828983A3A3A3A312526C15
:10526300A3E0F91215AD024BA0E0FA88828983A36B
:10527300A32274F012039B8A088B098C0A8D0B8975
:105283000FEA125EA5E02430FA7B00121E118A0C8D
:105293008B0DAE0CAF0DEE4F70030253B28E828FA7
:1052A30083740112638C1208D77C177D00EE2419D6
:1052B300FAE43FFB121DE774031208B8850A0C8554
:1052C3000B0D780C1208D77C09125036121DE774A7
:1052D300031208B87410120B7A1253DF1250717450
:1052E30012120B7A1253D7E0C0E01253BDD0E01272
:1052F3005EEAC0E01253B5D0E01253FCC0E0125B8B
:105303002ED0E0F07414120B7AE0C0E012453FD0C7
:10531300E0F0EE242712452E7415120B7A120B5768
:105323001253CF120B4B125EABE50F125401F8A3CD
:10533300E0F9124B55F5831250717419120B7AE090
:10534300C0E0125ECFD0E0126C48E0602FEE24275D
:1053530012586224301253EE240E126C241274205D
:105363001208D7E5081261933509124B648A828BC0
:1053730083125053121DE774031208B8EE241A1255
:1053830061B15403601D90031E125583600CEEFA45
:10539300EFFB126BE51226748015EEFAEFFB121E7B
:1053A30017800CEEFAEFFB900301E0F9121E1D02C9
:1053B3004550EE125F123FF58322EE1253C22212C2
:1053C30053C93FF58322240FF582E422EE1261A82C
:1053D3003FF583221264968882898322126496128F
:1053E30053E622EE1250303FF58322F8E43FF98A68
:1053F300828B83124313E50822126963E02212545D
:105403001EA3A3A3A3A3A3A3A3E022F50CA3E0F5E8
:105413000D750E00780C2212541E221254D622A3AC
:10542300A3A3A3A312542B221254D6A3A3E022F0C6
:10543300125EBDE022740D1208B87F070205F974ED
:10544300F112039B8A088B097A0F7B00121E118AC3
:105453000A8B0BAE0AAF0BEE4F60498E828F8374BB
:10546300051254E8E8F0A3E91254E01254A91254C7
:10547300CA12622C1208D77C087D00EE2404FAE4D9
:105483003FFB121DE774031208B885088285098360
:10549300A3A3A3A3A3A3E0C0E01254B7D0E0125484
:1054A300BF121E1D80941254AD22EE240CF582E42B
:1054B3003FF58322EE1268EA3FF58322F0EEFAEF1E
:1054C300FB9010A7E0F9221254CE22E8F0A3E912D0
:1054D30054D622F0850882850983A3A32212542B74
:1054E300F8A3E0F9221254EC22124B6FF8A3E0F96F
:1054F3008E828F83A3A322C082C083E99011C2F05E
:1055030090031A7457F0A37426F090031C74C7F029
:10551300A37425F090031E749DF0A37425F0024B31
:10552300A074F712039BEAFEEBFF8908EE4F7003AA
:1055330012171B9003321255837008900332802296
:1055430012649288828983A3A3A3A3A3A3A3A3A37F
:1055530012557788828983A3A3A3A3A3A3A3A3A399
:1055630070DEEEF0A3EF125593E4F0125588E508D0
:10557300F0025240126200EA4B22F582E438F583CE
:105583001247DE4922A312558D22124D9AA3A3225C
:1055930012559722125A63A3A32274F712039B9006
:1055A3000332800D8E828F83A3A3A3A3A3A3A3A3FC
:1055B300A3125B43EE4F60348E828F83A3A3A3A316
:1055C300A3A3A3E06970DD8E828F83A3A3A3A3E0CB
:1055D3006A7003A3E06B70CC8E828F83A3A3A3A313
:1055E300A3A3E06C70BEEEFAEFFB80047A007B00AD
:1055F30002524074F712039B900332125B439003F1
:1056030032123B5A687002EB69701EE0C82409F538
:1056130082E438F58312649290033212507190033E
:1056230032125B438024125B36EE4F601D8E828FF5
:1056330083A3A3A3A3A3123B56687002EB6970E68E
:105643008A828B83A3A3A312505F121ECBEEFAEFC1
:10565300FB02524074F012039B74FA1209678A0822
:105663008B098A828B83A3A3A3A3A3A3A3A3E06031
:10567300336401602F8A828B831250531210DFE947
:105683007022850882850983A3A3A3A3A3A3A3A34D
:10569300E0640370147404120931AA08AB091225DB
:1056A300CDE97016790202584B8508828509831269
:1056B30064927404120B7A125071E5082411126C6F
:1056C3001B2432124B31121EC58A0A8B0BAE0AAF52
:1056D3000BEE4F70030258497C327D007900121D96
:1056E300F37402120929850882850983A3A3A3A35E
:1056F300A3A3A3A3A3E0F91215FB7402120B7AE090
:10570300C0E0125A1DD0E0F0EE242CF50AE43FF578
:105713000B7403120B7AE0850A82850B83F07901FF
:10572300EEFAEFFB1224FB85080C85090D750E00BC
:10573300780C1208D77C1C7D0012585A121DE7748E
:10574300031208B8EE243012586224321253EE24A6
:1057530011F8E43509F9E8FCE9FD8C828D831258D0
:105763007D125A271253F6125C461274201208D780
:105773008C828D83125873125053121DE7740312D7
:1057830008B87404120B7A125ED912506D9003029A
:1057930012586CA3A3A3F0900302E004F0121FA914
:1057A300126ABCEE242A1261C0750D00850A828537
:1057B3000B83E0780C120A1E8A828B83E50CF012AD
:1057C3005850E50C12588EE4F0E5082415126C1BB2
:1057D300A2E074015007120B7A74018004120B7A51
:1057E300E4F0EE242712455DAA18AB191215E3E97C
:1057F30024FE850882850983F0EE242EF8E43FF920
:10580300E8FCE9FD125882120253E88E828F83A3CB
:10581300A3A3A3A3A3A3A3F01258821202538B0939
:10582300EA4509600F8E828F83A3A3A3A3A3A3A337
:10583300A3E004F0EE24201261B144081262351291
:105843001E53790080027910740602454DEE242917
:10585300F582E43FF58322EE240BFAE43FFB22F8C2
:10586300E43FF9E8FAE9FBEE2212507CA3A3A3225A
:105873001251C68A828B8322F583126496EE228CA0
:10588300828D831245C4E0FA7B0022F0851882855D
:1058930019832274F412039BEAFEEBFF121FA91271
:1058A3006ABC90124CE0F8EE242B1261B1C398400D
:1058B30003025A011261CC7012EE242B1261B1045F
:1058C300125A52C0E0125850D0E0F0EE2428126170
:1058D300B1FC7900800109EE242C1261B1F8E9C30F
:1058E300985026750801750900E97808120A1E12F6
:1058F30061CC550860E0E92CFC750801750900E9E5
:105903007808120A1EE04508F0EE2427125A38EEF2
:10591300125A27EC8A088AF0A4F8ABF0E42BF9E0DA
:1059230098F8A3E099F9C3E89508E99400EE4035A7
:1059330024271261B1F81261CC6030125A1D125A39
:105943003DA3E4F0EC7050EE24201261B144201228
:105953004A95C0E0EE125A34D0E0F0EE2430125AE9
:1059630038A3E0805812585174FFF0900366E0FAB0
:1059730090124FE0F508EA8508F0A4ABF075F064E7
:10598300A4FAADF075F064EBA42DFB8E828F83A394
:10599300A3EAF0A3EB80ACEE24201261B154DF1232
:1059A3005A43ECF08C08EE24271261B18508F0A469
:1059B300FAABF0EE2430F582E43F124592FB125A23
:1059C30013EAF0A3EB125A5AC0E0EE2425F582E461
:1059D3003FF583D0E0F0EE241CF582E43FF583E845
:1059E300125C76900334125583600BECF9126BE56D
:1059F300122674E9701712585A1225F1800F7BE9A9
:105A0300125C5F1215ADEEFAEFFB12183B023DA9D3
:105A1300EE241EF582E43FF58322EE242DF582E485
:105A23003FF58322125A2E3FF58322242EF582E47A
:105A330022125A49221261B8FA2212507CA3F02290
:105A4300F0EE125A49222426F582E43FF58322F030
:105A5300EE242A1261B822125A5FE022125A6322FC
:105A6300124D9EA3A3A32274F412039B900332123C
:105A73005B43121FA98A0A8B0B78FF79FF8020E012
:105A8300C39AFCA3E09BFDC3EC98ED99500E8E8264
:105A93008F83A3A3E0C39AF8A3E09BF9125B36EECE
:105AA3004F605C8E828F83125053E50AC39AFAE5E6
:105AB3000B9BFB8E828F831251C0C3EA9CEB9D8E9E
:105AC300828F83A3A340B8A3A3A3A3E06402701AA5
:105AD300EE240B1261CF6009125B2E125053121E7B
:105AE30017EEFAEFFB12183B8007EEFAEFFB1225D5
:105AF300F77A017B009011C2E0F9121E53802974DA
:105B0300FF68700374FF69601F88088909E4F50A58
:105B1300F50B78081208D37A017B009011C2E0F9E3
:105B2300121F8B74041208B8023DA9EE1268FA3FE3
