:020000040000FA
:06000000020AF40201E611
:03002B0002077752
:030033000205D8EB
:0300430002079C15
:0300530002012780
:03006B000205B1DA
:1000830002017501FF01010503010F10FEFF5C3042
:1000930000000000CE2E00000000FF000000FF0063
:1000A300018813000030815A0020FD000200005F28
:1000B3001B000000000000671C000000000000009F
:1000C300000000000000000000000000000000002D
:1000D300000000000000000000010000000000001C
:1000E3000006FFFF010200A710000000E803FFFF66
:1000F3001D11E80364006400B8010202002000003F
:100103000502070101051E02051E020A0A0102B8C3
:100113000B02803E0102FEFFE8030A0500015505BC
:100123000A1401E0C0E074F2120407A2AFE433FE44
:10013300D2AF85A708AFA1EF550854106006121877
:10014300D775A1EFEF5508540860081218DD75A1A3
:10015300F78013EFA2E092F0E508A2E082F05006E8
:1001630012199775A1FEEEF8EEA2E092AF7F01029D
:100173000466C0E074F2120407A2AFE433FFD2AF07
:100183009061A4E0FE759B00E5915E5408600875DC
:1001930091F71219318026E5915E5410600875912C
:1001A300EF1219378017E591A2E092F0EEA2E082F8
:1001B300F0500A9061A4E0C2E0F0121A879061A3A4
:1001C300E0FEE5E95E5404600E121A5D75E9FB90EA
:1001D3006193E0A2E640F2EFF8EFA2E092AF7F0175
:1001E300020466C0E074F2120407A2AFE433FED245
:1001F300AF9061A5E0FFE5BF5F5404600675BFFBE8
:10020300121A9FEEF8EEA2E092AF7F01020466C3DA
:10021300E498F8E499F91202538026C3E49AFAE4C5
:100223009BFBE920E7E9120253E498F8E499F922E9
:10023300C3E498F8E499F9120253E498F8E499F9BD
:10024300C3E49AFAE49BFB22EB20E7CFE920E7E043
:10025300B90010BB0008E88AF084F8AAF022E4FB96
:10026300C8FA22EB70227B10C833C8C933C9335094
:1002730007C39AC3DBF280069A50012ADBEAC8332C
:10028300F4C8C933F4C9FA2275F008E4C833C8C9FD
:1002930033C933C99AC99B5004C92AC93BD5F0EC69
:1002A300FBC833F4C8E4C9FA22080808EAC0E0EB43
:1002B300C0E086F0E7A4FA180986F0E7A42AFA1842
:1002C3000986F0E7A42AFA180986F0E7A42AFA199E
:1002D30086F0E7A4FBE5F02AFA190886F0E7A42BD9
:1002E300FBE5F03AFA190886F0E7A42BFBE5F03AB0
:1002F300FA18180986F0E7A4C5F02BFBE43AFA19BB
:1003030008E7C5F0C6A426F6E5F03BFBE43AFA1885
:1003130086F0E7A4F6E5F00826F6E43B08F6E43AAF
:1003230008F6D0E0FBD0E0FA22E4CFC0E0E4CEC090
:10033300E0E4CDC0E0E4CCC0E075F020E626F608AA
:10034300E633F608E633F608E633F6181818EC3306
:10035300FCED33FDEE33FEEF33FFC3EC9709ED976E
:1003630009EE9709EF97191919400FFFEC97FC094C
:10037300ED97FD09EE97FE191906D5F0BFECF709C5
:10038300EDF709EEF709EFF7191919D0E0FCD0E002
:10039300FDD0E0FED0E0FF222518C582C0E0E519BC
:1003A30034FFC583C0E0E518C3958224F810AF0875
:1003B3008583198582188008858319858218D2AFB1
:1003C300CEF0A3E520F0A37808E608F0A3DEFAEF69
:1003D300F0A3E58124FAF8E608F0A3E608F0A3E623
:1003E30008F0A30808E608F0A3E608F0A3158115B2
:1003F30081D0E0FED0E0F8158115811581E8C0E0D9
:10040300EEC0E022C0D02518C582C0E0E51934FF54
:10041300C583C0E0E518C3958224F310AF08858334
:10042300198582188008858319858218D2AFC8F090
:10043300A3E9F0A3EAF0A3EBF0A37908E709F0A39B
:10044300D8FAECF0A3EDF0A3EEF0A3EFF0A3D0E025
:10045300F0A3D0E0F0A3D0E0F0A3E520F0A3E5F013
:10046300F0A322851983851882E0C0E0A3E0F9A3F5
:10047300E0FAA3E0FBA37808E0F608A3DFFAE0FCC8
:10048300A3E0FDA3E0FEA3E0FFA3E0C0E0A3E0C080
:10049300E0A3E0F5D0A3E0F520A3E0A3F5F010AFCF
:1004A300088583198582188008858319858218D267
:1004B300AFD082D083D0E0F8D0E032120B6FB90016
:1004C300030204FDE490030178C1790F8002F0A3D5
:1004D300D8FCD9FA7AC17B1190008678A279018081
:1004E30015E493A3AD82AE838A828B83F0A3AA82A1
:1004F300AB838D828E83D8E9D9E77582987583A5FE
:10050300740612087F75827B758326740012087F38
:100513000C75F0108E1A8F1B85821F85831E85181C
:1005230082851983E0CEA3E0CF851F82851E83EBEE
:10053300C9EAC8EDCBECCAC3E833C8E933C9EA3327
:10054300CAEB33CBC3EA9EF51DEB9FF51CB35004F6
:10055300AB1CAA1DEC33CCED33CDD5F0DAAE1AAF1C
:100563001B22D083D082ECC0E0EDC0E0E493A3FC77
:10057300E493A3FDED4C600D120685EC24FFFCED26
:1005830034FFFD80EFE493A3FCE493A3FDED4C6003
:100593000D120722EC24FFFCED34FFFD80EFD0E0C9
:1005A300FDD0E0FCE493A3C0E0E493C0E022C0E00C
:1005B30074F2120407E589A2E54006E589A2E45036
:1005C300031217759005B9E02401F0758900C2C5BF
:1005D3007F01020466C0E074F2120407E58BA2E017
:1005E30050031217759005BAE02401F0758B00C211
:1005F300E87F01020466851983851882E0A3FEE083
:10060300A3F5207808E0A3F608DFFAE0A3FFE0A350
:10061300C0E0E0A3C0E0E0A3C0E0E0A3C0E0E0A34B
:10062300C0E010AF08858218858319800885821879
:10063300858319D2AFD083D082020885D083D0823C
:10064300E9C0E0E493A3C386F0C5F095F0F908E4AC
:1006530093A386F0C5F095F0700BE493A3C3994080
:1006630005E9048002A3E475F002A42582F582E57E
:10067300F03583F583D0E0F9E493A3C0E0E493C0BD
:10068300E022C0E0C3E49396087401939618400FE8
:10069300E49366700808740193661870007019A3D8
:1006A300A3C3E49396087401939618A3A3400DD0B3
:1006B300E0D0E0D0E00205A1A3A3A3A3A3A3D0E0CD
:1006C300227404800474028000CCC0E0EDC0E0E535
:1006D30018C39CCCAD1950011D10AF068C188D1991
:1006E30080068C188D19D2AF1207E3D0E0FDD0E05D
:1006F300FC2274028000CCC0E0EDC0E0E518C39C8E
:10070300CCAD1950011D10AF068C188D1980068CC5
:10071300188D19D2AF1207C1D0E0FDD0E0FC22C082
:10072300E0C0F088F0E493667008087401936618DB
:100733007000A8F0A3A3700BD0F0D0E0D0E0D0E01D
:100743000205A1A3A3D0F0D0E022D083D082CCC0F5
:10075300E0E493A360061208041470FAE493A36020
:10076300061209511470FAD0E0FCE493A3C0E0E44C
:1007730093C0E022C0E0C0D0E8C0E0E9C0E0A2AF8F
:10078300E433F8D2AFC2C7E8F9E8A2E092AFD0E011
:10079300F9D0E0F8D0D0D0E032C0E074F212040710
:1007A300A2AFE433FED2AFC2C0E5D1A2E45003123C
:1007B3001829EEF8EEA2E092AF7F01020466CAC0E8
:1007C300E0E493A3C582CCC582C583CDC583F0A3E2
:1007D300C582CCC582C583CDC583DAE5D0E0CA2204
:1007E300CAC0E0E0A3C582CCC582C583CDC583F072
:1007F300A3C582CCC582C583CDC583DAE6D0E0CA62
:1008030022C0E0E493A3D39C5010E493A3C39C4081
:100813000AD0E0D0E0D0E002076AA3A3A3D0E0228D
:10082300C008C3E096F50808A3E096420808A3E0D1
:1008330096420808A3E09645087001D3D0082270B9
:1008430009080808226016181818C6C333C608C654
:1008530033C608C633C608C633C6D5E0EA22C58206
:100863002518C582C583351910AF07F51985821878
:100873008007F519858218D2AFC58322C09FF59FE3
:10088300E473D09F22D083D082C09FE493C0E074EE
:100893000193C0E0740293F59F222518F58210AFEF
:1008A30008F518400C15198008F51840021519D2DF
:1008B300AF8519832200C0D0251810AF08F5185052
:1008C3000C05198008F51850020519D2AFD0D022B3
:1008D3007404800A74038006740280027401C0E009
:1008E300F40412089DD0E0120B3122BB0102E7226F
:1008F300C082C08389828A83BB0003E08002E493C1
:10090300D083D082226016080808C6C313C618C64F
:1009130013C618C613C618C613C6D5E0EA2225188F
:10092300F8E43519F9222518FAE43519FB222518BC
:10093300FCE43519FD22C3E0C696F608A3E0C6968B
:10094300F608A3E0C696F608A3E0C696F622C0E032
:10095300E493A36C7009D0E0D0E0D0E002076AA36F
:10096300A3D0E022251810AF08F518400C15198004
:1009730008F51840021519D2AF22E066701008A3DB
:10098300E066700A08A3E066700408A3E06622E745
:100993006670100809E766700A0809E766700408BC
:1009A30009E76622C3E09608A3E09608A3E0960849
:1009B300A3E096A2D265D03322C3E096F008A3E069
:1009C30096F008A3E096F008A3E096F022C3E6971A
:1009D300F60809E697F60809E697F60809E697F692
:1009E30022C3E493960874019396087402939608BD
:1009F3007403939622E627F60809E637F60809E614
:100A030037F60809E637F622E026F608A3E036F6BD
:100A130008A3E036F608A3E036F622700422600D40
:100A230018C6C333C608C633C6D5E0F41822E04659
:100A3300F008A3E046F008A3E046F008A3E046F080
:100A430022E657F60809E657F60809E657F60809B5
:100A5300E657F622E056F608A3E056F608A3E0565A
:100A6300F608A3E056F622E056F008A3E056F00895
:100A7300A3E056F008A3E056F022E026F008A3E036
:100A830036F008A3E036F008A3E036F022E647F696
:100A93000809E647F60809E647F60809E647F62295
:100AA300E4C396F608E496F608E496F608E496F6A8
:100AB30022600D08C6A2E713C618C613C6D5E0F315
:100AC30022C6F4C608C6F4C608C6F4C608C6F4C6E9
:100AD30022C3E7960809E7960809E7960809E79607
:100AE30022C3E09608A3E09608A3E09608A3E09645
:100AF3002275D00075813F75180175190300020432
:100B0300BE600C08C6C313C618C613C6D5E0F422CC
:100B1300E6F008A3E6F008A3E6F008A3E6F022E077
:100B2300F608A3E0F608A3E0F608A3E0F622CAC09D
:100B3300E0E6F0A308DAFAD0E0FA22C5822518C568
:100B430082C5833519C58322E8F0A3E9F0A3EAF04F
:100B5300A3EBF022E0F8A3E0F9A3E0FAA3E0FB2281
:100B6300E0FAA3E0FBA3E0FCA3E0FD22E5C754F811
:100B73004401F5C77901222518F582E43519F58377
:100B830022C2AF75D69F0200002212088835640086
:100B9300120888B86400120888D464001208880513
:100BA300650012088844650012088845660012082B
:100BB30088F46600120888816900120888DA6A00DE
:100BC3001208886D6B00120888F76B001208885DA5
:100BD3006C001208889C6C00120888126D001208C1
:100BE30088676E001208880A6F00120888226F0057
:100BF300120888C56F001208884F7200120888F027
:100C030073001208880E740012088800800212080C
:100C1300885A8002120888C480021208884D810213
:100C23001208880982021208885182021208888CED
:100C33008202120888E282021208884A830212089A
:100C430088CE8302120888E783021208880C840284
:100C53001208884A8402120888998402120888C2FA
:100C63008402120888118502120888BD85021208C1
:100C730088858602120888EA8602120888B78702E6
:100C8300120888FD87021208881988021208884B07
:100C93008802120888F38902120888CA8A02120895
:100CA30088F68A021208882C8B021208884D8B0260
:100CB3001208885C8B02120888678B021208881B53
:100CC3008C021208888E8C02120888008D0212088A
:100CD30088088D02120888838D02120888DC8D0231
:100CE3001208881F8E02120888B19002120888F732
:100CF30091021208888794021208886F95021208DD
:100D030088A2950212088864960212088813970233
:100D13001208885B9702120888BD9702120888E2BE
:100D230097021208885A9802120888E29802120859
:100D3300884699021208882B9A02120888509A0250
:100D4300120888719B02120888849B021208881873
:100D53009C02120888629D02120888729D02120882
:100D630088819E02120888FA9E021208883C9F021C
:100D7300120888789F021208884CA102120888B1D1
:100D8300A302120888C5A302120888CFA30212087F
:100D930088D9A302120888E3A302120888EDA302EC
:100DA30012088806A40212088810A4021208881ADE
:100DB300A40212088824A4021208884CA402120870
:100DC3008857A402120888A1A402120888ABA402BF
:100DD300120888B6A402120888DAA402120888FE50
:100DE300A4021208885FA502120888AAA5021208A5
:100DF30088C6A50212088830A6021208887CA602BB
:100E0300120888C4A6021208883FA702120888D9CC
:100E1300A7021208889DA9021208880BAA021208C9
:100E2300883DAB0212088863AB02120888D3AC0278
:100E330012088887B00212088887B2021208885FF6
:100E4300B402120888F8B4021208880AB70212081A
:100E530088CCB70212088818B8021208887EB80234
:100E630012088890B802120888E0BA021208880DA6
:100E7300BC021208885FBC0212088804BD02120873
:100E830088BFBE02120888F0BF021208880EC00293
:100E930012088863C00212088861C1021208888997
:100EA300C102120888ECC102120888EDC2021208BE
:100EB3008860C3021208888EC402120888F9C4022B
:100EC300120888E9C5021208884FC8021208887DF3
:100ED300C80212088878C90212088816CB021208C1
:100EE3008866CB021208881ECC02120888D3CC0273
:100EF30012088837CD02120888F0CD0212088890B4
:100F0300CE02120888F4CE021208883ECF021208DD
:100F1300887BCF02120888E3D002120888C98201B5
:100F2300120888018301120888DA850112088820D3
:100F330086011208883D8701120888A287011208DA
:100F430088F38801120888E48B01120888038D0155
:100F5300120888D897011208887998011208886CBA
:100F63009B011208886C9C01120888F49C011208EA
:100F730088449E011208882B9F0112088894A101BE
:100F8300120888A2A3011208882FA4011208880B53
:100F9300A50112088834A501120888E1A5011208E9
:100FA30088CCA601120888A4A70112088804A80106
:100FB3001208882DA8011208885AA801120888ABC4
:100FC300AA0112088886AB01120888CAAB0112086D
:100FD300883BAC01120888F4AC0112088826AD01E5
:100FE3001208886DAD01120888A0AD0112088805AA
:100FF300AE0112088854AE0112088859AE011208D6
:1010030088ADAE01120888F7AE01120888F3AF016C
:1010130012088858B001120888BFB001120888E48A
:10102300B301120888B8B40112088822B601120865
:1010330088FCB801120888A4B901120888CBBB0147
:1010430012088870BC01120888AEBC011208888798
:10105300BE011208889ABE01120888A3BE011208B5
:1010630088ACBE01120888C1BE01120888E0BE0127
:10107300120888BFC00112088812C1011208886DC6
:10108300C101120888B7C101120888C3C20112083E
:10109300881AC30112088869C401120888B2C401FE
:1010A30012088892C501120888BDC6011208887308
:1010B300C70112088875C80112088877C901120888
:1010C300885DCA0112088874CA01120888B1CA016E
:1010D300120888BBCA01120888C6CA01120888E42C
:1010E300CA0112088826CB0112088884CB01120892
:1010F30088A9CB01120888C3CB0112088850CC0100
:1011030012088889CC01120888D7CD0112088829D2
:10111300CE0112088843CF011208886ACF01120852
:101123008806D00112088882D001120888CED10126
:10113300120888E9D201120888AFD301120888592E
:10114300D401120888DED40112088846D50112089A
:1011530088FBD5011208884DD601120888B3D60141
:101163001208887CD7011208889FD7011208885774
:10117300D8011208887BD8011208889DD80112086B
:1011830088FED80112088849DB0112088824DC0193
:10119300120888CEDC011208880FDF011208885D6F
:1011A300DF01120888A0DF01120888F8DF011208A6
:1011B3008856E00112088880E001120888A4E00143
:1011C300120888D5E001120888FFE001120888465A
:1011D300E1011208889AE101120888F6E101120878
:1011E30088F7E20112088861E4011208889FE4018C
:1011F300120888C8E40112088859E501120888A377
:10120300E501120888C7E5011208881AE6011208E9
:101213008835E601120888F0E6011208881AE7010A
:101223001208885DE701120888B3E701120888BF36
:10123300EA01120888F2EA01120888AFEB011208EA
:10124300888AEC011208881AED011208885BED0107
:1012530012088859CB0512088891CB05120888B269
:10126300CB05120888F4CB0512088858CC05120860
:101273008862CC0512088872CC05120888A9CC05AF
:1012830012088852D0051208881AD2051208880E4F
:10129300D405120888ACD40512088833D505120882
:1012A300884D8003120888F68003120888D58103CD
:1012B300120888F082031208881083031208883208
:1012C3008403120888CF85031208883C860312081A
:1012D300881287031208881888031208887D8803F8
:1012E300120888B988031208881289031208884BE8
:1012F3008903120888948903120888268A0312082E
:1013030088C38A03120888988B03120888658C03A4
:10131300120888F28C03120888188D031208884576
:101323008D03120888768D031208884B8E031208EA
:10133300885B8E03120888AE8E03120888BB8E0367
:10134300120888C88E03120888D18E0312088835C4
:101353008F03120888938F03120888DE8F03120805
:1013630088F98F031208882090031208883D9003A0
:10137300120888499003120888ED91031208880621
:101383009203120888829203120888959203120826
:1013930088A592031208884B9303120888BB940311
:1013A300120888CE95031208886E9603120888786F
:1013B3009603120888E69603120888F79603120824
:1013C30088369703120888649703120888319803B4
:1013D300120888889803120888CD98031208882376
:1013E30099031208884199031208888F99031208F8
:1013F300885D9A03120888AB9A03120888ED9A0352
:10140300120888709B031208889A9B03120888D0DD
:101413009B03120888DF9B031208883D9C03120874
:1014230088B59C03120888F69C03120888459D031F
:10143300120888709D031208888A9D03120888A4E5
:101443009D03120888799E03120888839E0312085D
:1014530088BE9E03120888CE9E031208881F9F032E
:10146300120888339F0312088851A0031208886664
:10147300A00312088800A1031208887FA1031208A1
:101483008822A2031208882DA2031208887AA303D4
:1014930012088896A303120888EEA3031208885C37
:1014A300A403120888A8A403120888C2A40312087C
:1014B3008822A503120888C0A5031208880BA60377
:1014C3001208886EA80312088806A9031208887DEB
:1014D300A903120888C3AB03120888DBAB03120805
:1014E30088DEAB03120888EAAB03120888FEAB035D
:1014F30012088806AC031208883DAC031208883131
:10150300AD03120888BBAD031208883DAE03120871
:1015130088B2AE031208888AAF03120888ACAF03FF
:1015230012088843B0031208884FB003120888AC2E
:10153300B003120888AFB0031208881EB103120863
:10154300886AB2031208887DB30312088808B403BB
:101553001208881BB503120888E5B503120888161C
:10156300B6031208883CB60312088845B60312086E
:101573008874B60312088824B703120888D4B70303
:1015830012088847B803120888F9B8031208886C50
:10159300B903120888ABB903120888F4B903120817
:1015A300887BA2051208881FA3051208886EA3056D
:1015B300120888EDA30512088897A405120888AFBE
:1015C300A70512088868AA0512088892AE051208B2
:1015D30088CAAE05120888F8AE051208888AAF05D6
:1015E300120888DEAF0512088811B0051208883A80
:1015F300B00512088888B0051208880DB1051208D5
:1016030088E2E1041208886AE204120888D4E2043A
:1016130012088848E3041208881AE6041208883D71
:10162300E60412088896E60412088888E70412087C
:1016330088F2E704120888A9E90412088804EB0475
:1016430012088876EB04120888EFEB04120888C6A8
:10165300EC0412088820ED041208886AED041208CD
:10166300886EEF0412088898F004120888C1F10408
:10167300120888D0F20412088841F304120888A1E2
:10168300F304120888DEF3041208887CF4041208B9
:10169300884BF504120888008005120888E380054A
:1016A300120888C083051208886B8505120888A96B
:1016B30086051208880F88051208888D8805120888
:1016C300887289051208882A8A05120888668A059D
:1016D300120888898A05120888AC8A051208883797
:1016E3008B05120888E38B05120888F48D05120810
:1016F30088758E05120888E78F05120888469105BC
:101703001208887C9205120888D97E00120888EA9C
:101713007E00120888BE7F0012088826AD061208D4
:101723008834AD06120888D87F001208880CB506E5
:101733001208881CB5061208883CB506120888DC16
:10174300B506120888B99F0612088861A006120818
:1017530088A3A206120888D4FD0512088801FE0595
:1017630012088880FE0512088895FE05120888F97C
:10177300FE0512088868FF0512088808E5051208A7
:101783008815E50512088860E50512088885E505D2
:10179300120888B5E505120888EBE50512088814D8
:1017A300E60512088842E60512088849E70512088B
:1017B30088DFE8051208881AEA051208884CEA054A
:1017C300120888F2EA0512088844EB0512088868B3
:1017D300EB0512088818EC05120888DB840612084A
:1017E30088F484061208888A850612088888860683
:1017F300120888E88806120888AAB70612088847DC
:1018030074001208889774001208889377001208EE
:1018130088687800120888627900120888F07A00D4
:10182300120888487D00120888E67D001208883671
:101833007E00120888447E00120888617E00120828
:1018430088025600120888B37E00120888C17E0001
:10185300120888DFD50512088819D605120888AC46
:10186300D70512088817D80512088843D805120827
:10187300885CD8051208887AD80512088871D905BA
:10188300120888D1DA05120888B1DB05120888F23C
:10189300DC0512088830DD051208885BDD051208B7
:1018A3008886DD05120888B1DD05120888EC63001F
:1018B300120888D7B006120888EBB00612088835DC
:1018C300B10612088880B106120888CBB106120847
:1018D300882EB20612088831B2061208883FB20673
:1018E30012088850B2061208882D990612088867D4
:1018F3009906120888CF9906120888FD99061208DE
:10190300884A9A06120888889A06120888C39A0693
:10191300120888ED9A06120888139B061208887627
:101923009B06120888A49B061208883A9C06120894
:1019330088529C06120888679C06120888F2B7062C
:101943001208880FB80612088833B8061208885898
:10195300F205120888ECF305120888FAF305120859
:10196300881AF40512088843F405120888A0F405C0
:10197300120888FCF40512088891F50512088816E8
:10198300F605120888A7F60512088899F7051208C4
:1019930088ADF705120888C0F705120888E2F70535
:1019A300120888EAB5061208881BB6061208884C86
:1019B300B60612088879B6061208888D95061208AD
:1019C30088FC9506120888279606120888CA960688
:1019D300120888D29106120888F591061208880722
:1019E30092061208881592061208883E920612087B
:1019F300885A9206120888769206120888919206EF
:101A0300120888529306120888CF93061208880694
:101A130094061208885B9406120888B0940612088C
:101A230088DE9406120888EC940612088806950648
:101A33001208887A95061208883BB706120888149C
:101A4300BF051208885DBF0512088889BF05120803
:101A530088A2BF05120888C2BF051208882CC005DA
:101A630012088866C005120888C5C505120888943F
:101A7300C705120888DAC70512088847C80512087F
:101A830088F5C90512088825CA051208883FCA05C2
:101A930012088853CA05120888A7CA051208880ABB
:101AA300CB051208881FCB0512088852FE011208C5
:101AB3008869FE0112088892FE01120888B8FE01A7
:101AC300120888E5FE0112088815FF0112088836FE
:101AD300FF011208886DFF0112088895FF011208A3
:101AE30088B0FF051208884889061208885F8906AE
:101AF300120888D18A06120888068B061208882ED7
:101B03008B061208885B8B06120888748B061208F2
:101B130088B58B06120888338C061208887F8C06DA
:101B2300120888D38C061208880A8D061208883C8E
:101B33008D06120888ADFD02120888D0FD02120836
:101B43008854FE0212088894FF02120888D8B3064C
:101B5300120888C7AA06120888D7AC061208884755
:101B6300B50412088891B704120888C5B70412088F
:101B73008808B80412088820B8041208889AB804A0
:101B8300120888C6B804120888E5BA0412088866E1
:101B9300BC0412088878BD0412088806BE04120823
:101BA3008884BE041208884ABF04120888E3BF046D
:101BB3001208882DC004120888FBC004120888FF8D
:101BC300C104120888A0C204120888BCC404120805
:101BD3008801C6041208885CC6041208885FC6041C
:101BE3001208888EC60412088891C60412088860F9
:101BF300C7041208882FC804120888FEC8041208F4
:101C030088D2C904120888A6CA041208887ACB04A9
:101C1300120888A5CB04120888D0CB04120888A325
:101C2300CC0412088877CD0412088857A806120836
:101C3300887AA80612088876A90612088822AA06B6
:101C43001208885DAA0612088870FC03120888EE41
:101C5300FC03120888FEFC0312088828FD031208FF
:101C630088C39B04120888C69B041208884B9D04F2
:101C7300120888BB9D04120888459E04120888F93F
:101C83009E04120888AD9F0412088871A0041208EC
:101C93008825A10412088832A304120888E6A30445
:101CA3001208889AA40412088829A504120888280F
:101CB300A60412088897A6041208882FA7041208FE
:101CC300885CA904120888B2AA0412088808AC0424
:101CD30012088862AD041208888AAE04120888E2EA
:101CE300AE0412088875AF0412088850B0041208B5
:101CF3008882B004120888B0B30412088851B4046F
:101D0300120888CCB4041208881CEE01120888C695
:101D1300EE01120888EDEE01120888ACF0011208FA
:101D230088CAF1011208889EF20112088838F4016A
:101D33001208888FF401120888A3F4011208881F7F
:101D4300F50112088856F70112088897F70112085F
:101D5300886DF80112088819F901120888BAF90187
:101D6300120888FEF90112088816FA01120888552C
:101D7300FA01120888C5FA0112088800FB0112084B
:101D8300880AFC0112088857FC01120888BEFD016D
:101D9300120888DBFD011208889F9C06120888C27E
:101DA3009C061208880D9E061208883D9F0612089D
:101DB30088F0AE0612088819AF0612088838AF06F5
:101DC30012088858AF06120888B6AF06120888DCD6
:101DD300AF061208889DB006120888ABB006120839
:101DE3008870B10512088885B105120888E1B1052C
:101DF30012088889B205120888B2B205120888D77A
:101E0300B205120888FBB30512088809B705120842
:101E13008817B70512088879B705120888B7B70578
:101E2300120888D2B7051208886DB80512088816FB
:101E3300B90512088869B905120888ECB9051208B2
:101E4300885CBA0512088895BA0512088820BB0574
:101E5300120888B2BB0512088809BC0512088867F6
:101E6300BC0512088879BC051208888BBC051208CA
:101E730088B1BC05120888BABC051208880BBE05D8
:101E8300120888A3BE05120888DCDD0512088854F1
:101E9300DF05120888FFDF0512088827E00512080E
:101EA3008838E0051208883BE3051208885BE305E0
:101EB300120888AAB606120888BEA206120888036A
:101EC300A30612088850A30612088819A50612084B
:101ED30088008004120888C081041208880F8204D5
:101EE300120888868404120888EB8404120888EC9C
:101EF3008704120888528804120888868A04120804
:101F030088708B04120888D38B04120888638C04AE
:101F1300120888098D04120888628D04120888C18A
:101F23008D04120888208E04120888EC8F0412088E
:101F330088A991041208887F9404120888C1940424
:101F4300120888239504120888359504120888AA74
:101F530095041208885C9604120888859A0412086E
:101F6300884A9B041208886DB80612088888B80648
:101F73001208881BF8051208883BF80512088841E7
:101F8300F9051208888DF905120888ADF9051208BC
:101F93008800FA051208886DFA05120888B3FA0555
:101FA30012088817FB05120888C3FD05120888B3B9
:101FB3009205120888C093051208889094051208A8
:101FC30088D696051208886C9705120888BB970572
:101FD300120888EB97051208882F98051208880FB6
:101FE3009905120888FD9905120888129A051208A6
:101FF30088A29A05120888619C05120888959E0597
:10200300120888FC9F0512088863A105120888D767
:10201300A1051208880BA20512088861B2061208EE
:102023008801B30612088865B306120888A8B306A8
:102033001208882EDC031208889BDC031208884EE2
:10204300DD03120888AEDE03120888F2DF031208EC
:1020530088E7E00312088801E10312088867E103B7
:10206300120888E4E10312088852E2031208886A1E
:10207300E203120888CEE2031208884AE303120837
:10208300886BE303120888F1E3031208883DE50334
:10209300120888A3E503120888CFE5031208882AEB
:1020A300E6031208880BE7031208884BE7031208BC
:1020B3008870E703120888C7E7031208880CE8034F
:1020C30012088843E8031208888BE803120888A3E0
:1020D300E80312088881E903120888A2E9031208B9
:1020E3008802EA0312088866EA03120888C2EA0330
:1020F30012088809EB031208884FEE03120888962A
:10210300EE03120888E6EF0312088825F00312088D
:1021130088C2F003120888CEF1031208882DF20357
:10212300120888B0F203120888BAF303120888EB86
:10213300F303120888F9F30312088818F40312084A
:102143008838F403120888C7F40312088808F503D3
:1021530012088828F5031208885FF503120888A778
:10216300F503120888CAF503120888D4F503120888
:102173008833F60312088873F603120888B4F6034B
:10218300120888F7F6031208881EF70312088880DE
:10219300F703120888FAF70312088838FA031208BB
:1021A30088DEFE04120888EFFE0412088872FF041A
:1021B300120888F77F00120888D9F50412088832BC
:1021C300F60412088868F704120888A9F7041208AD
:1021D30088DCF90412088825FA041208887BFA04BB
:1021E300120888F8FA041208884BFC041208889134
:1021F300FD04120888B6FD041208881BFE041208A9
:1022030088A3FE0412088856D10212088879D102E5
:102213001208888AD10212088860D202120888E361
:10222300D2021208886CD30212088848D40212081A
:1022330088DAD4021208888ED50212088842D602A0
:1022430012088831D702120888F8D7021208885D6D
:10225300D80212088823DF02120888FFE10212085D
:102263008848E202120888D3E20212088848E4028E
:102273001208884BE40212088841E502120888BE5E
:10228300E60212088805E902120888C4ED02120862
:102293008825EF0212088826F1021208889EF502AB
:1022A300120888B3F50212088842F8021208885609
:1022B300F902120888F5FA02120888C6FB0212080E
:1022C300882BFC02120888AEFC0212088829BA0384
:1022D30012088804BB03120888ACBB0312088808E1
:1022E300BC03120888C9BC031208887BBD0312080B
:1022F30088FEBF031208886EC0031208885EC103FC
:10230300120888F5C103120888A0C2031208884C7A
:10231300C30312088875C703120888C6C9031208C5
:1023230088CCCA0312088867CE031208887DCF03BE
:102333001208886AD0031208881AD103120888C2C7
:10234300D10312088853D403120888F5D503120861
:10235300889BD70312088862D8031208880FD90311
:1023630012088873DA031208888CCD0412088819BE
:10237300CE041208888ECE04120888E7CE04120811
:10238300888BCF04120888DACF0412088848D00457
:1023930012088801D10412088851D2041208888BCC
:1023A300D204120888C3D304120888D8D3041208AD
:1023B30088FFD3041208884BD50412088878D50403
:1023C30012088892D504120888AED504120888C969
:1023D300D504120888DAD504120888E6D604120850
:1023E3008889D7041208888ED70412088818D8045D
:1023F30012088834D90412088871DA041208880D87
:10240300DC0412088830DD041208880FDE04120889
:102413008862DE041208887BDE04120888DEDF048B
:1024230012088837E104120888968D06120888146A
:102433008E06120888538E06120888358F061208F6
:1024430088A38F061208883C90061208883F9106DD
:102453001208880080061208882280061208887FE6
:102463008006120888AD8006120888E280061208EA
:10247300880881061208882C810612088852810672
:10248300120888658206120888B18206120888C875
:102493008206120888F08306120888008406120850
:1024A300881D84061208883A84061208884D84061B
:1024B3001208881BEC05120888C4F105120888D29B
:1024C300F105120888D7F1051208881EA60612081E
:1024D3008836A6061208887CA70612088843A80631
:1024E300120888B1FF02120888D1FF041208883647
:1024F300B806120888D7FF0112088898B806120890
:1025030088A955001208883055001208880655001E
:102513001208884E5400120888815200120888510C
:10252300520012088815520012088801520012083E
:10253300884251001208888F50001208883E4E00CE
:10254300120888134E00120888B44D00120888251B
:102553004C00120888B34B00120888904B001208F5
:1025630088D44A001208887749001208882E490047
:102573001208880849001208884448001208888E07
:1025830046001208882E4600120888FF45001208EC
:1025930088FC4500120888A56300120888EF6200D2
:1025A3001208886362001208885462001208884186
:1025B3005F001208888E5C00120888E74500120845
:1025C30088A745001208888E4500120888984400A1
:1025D300120888555B00120888574400120888E4E3
:1025E3004300120888B143001208885643001208BA
:1025F30088254300120888765A00120888EE3F00A7
:10260300120888A25800120888AEB0061208880083
:102613003F00120888BA3D00120888663D00120880
:10262300885A3D00120888C13C001208888F3B007D
:10263300120888EA38001208888D3600120888418B
:102643003600120888263500120888BB34001208A9
:1026530088E53300120888A1330012088868320025
:102663001208886356001208882F3200120888FD6A
:1026730031001208888A7E0000000080FBE47300AA
:102683000000000000000000000000000000000047
:102693000000F800000000000000333000000000DC
:1026A300100C06100C0600000000000000000040A3
:1026B300C07840C0784000043F04043F0404000095
:1026C3007088FC08300000001820FF211E0000F075
:1026D30008F000E018000000211C031E211E00006A
:1026E300F00888700000001E2123241927211010F0
:1026F300160E0000000000000000000000000000B3
:102703000000E01804020000000007182040000049
:10271300020418E0000000004020180700000040F9
:102723004080F0804040000202010F0102020000DD
:102733000000F0000000000101011F010101000081
:102743000000000000000080B070000000000000E6
:10275300000000000000000001010101010101006F
:102763000000000000000000303000000000000006
:1027730000000080601804006018060100000000DB
:10278300E010080810E000000F102020100F0000D8
:102793001010F8000000000020203F20200000005F
:1027A30070080808887000003028242221300000B7
:1027B300300888884830000018202020110E0000BF
:1027C30000C02010F8000000070424243F24000068
:1027D300F80888880808000019212020110E00003D
:1027E300E0108888180000000F112020110E00004F
:1027F300380808C83808000000003F000000000047
:1028030070880808887000001C222121221C000007
:10281300E010080810E0000000312222110F000030
:102823000000C0C0000000000000303000000000C5
:102833000000800000000000008060000000000035
:10284300008040201008000001020408102000400E
:1028530040404040404000040404040404040000D9
:10286300081020408000000020100804020100002E
:102873007048080808F0000000003036010000C06E
:1028830030C828E810E0000718272423140B0000A1
:1028930000C038E0000000203C2302022738200853
:1028A300F8888888700000203F202020110E00C087
:1028B30030080808083800071820202010080008EE
:1028C300F808080810E000203F202020100F00081F
:1028D300F88888E8081000203F20202320180008EB
:1028E300F88888E8081000203F200003000000C09B
:1028F3003008080838000007182020221E020008AC
:10290300F808000008F808203F210101213F2000BA
:102913000808F8080800000020203F2020000000DD
:10292300000808F8080800C08080807F00000008C5
:10293300F888C028180800203F2001263820000806
:10294300F8080000000000203F202020203000086D
:10295300F8F800F8F80800203F003F003F20000887
:10296300F830C00008F808203F200007183F00E0B7
:102973001008080810E0000F10202020100F000896
:10298300F808080808F000203F210101010000E0D9
:102993001008080810E0000F18242438504F0008CE
:1029A300F8888888887000203F2000030C302000BE
:1029B300708808080838000038202121221C0018DC
:1029C3000808F8080818000000203F20000000084D
:1029D300F808000008F808001F202020201F000826
:1029E30078880000C83808000007380E010000F896
:1029F3000800F80008F800033C0700073C03000840
:102A03001868808068180820302C03032C302008B5
:102A130038C800C83808000000203F20000000101C
:102A2300080808C83808002038262120201800008C
:102A33000000FE020202000000007F404040000050
:102A43000C30C000000000000000010638C0000088
:102A5300020202FE000000004040407F0000000030
:102A63000004020202040000000000000000000055
:102A73000000000000000080808080808080800053
:102A8300020204000000000000000000000000003B
:102A9300008080808000000019242222223F200829
:102AA300F8008080000000003F112020110E00007C
:102AB30000008080800000000E1120202011000003
:102AC3000000808088F800000E112020103F2000B5
:102AD30000808080800000001F2222222213000039
:102AE3008080F0888888180020203F202000000084
:102AF30000808080808000006B9494949360000831
:102B0300F8008080800000203F210000203F20004B
:102B1300809898000000000020203F202000000043
:102B23000000809898000000C08080807F0000082B
:102B3300F8000080808000203F24022D3020000018
:102B43000808F8000000000020203F20200000803B
:102B530080808080808000203F20003F20003F80D5
:102B630080008080800000203F210000203F200063
:102B730000808080800000001F202020201F008014
:102B83008000808000000080FFA12020110E000043
:102B930000008080808000000E112020A0FF808034
:102BA3008080008080800020203F212000010000E1
:102BB30000808080808000003324242424190000B6
:102BC3008080E0808000000000001F202000008043
:102BD30080000000808000001F202020103F208004
:102BE3008080000080808000010E30080601008094
:102BF300800080008080800F300C030C300F0000B9
:102C0300808000808080000020312E0E31200080E3
:102C13008080000080808080818E70180601000013
:102C2300808080808080000021302C2221300000B1
:102C3300000000807C020200000000003F404000D2
:102C4300000000FF00000000000000FF0000000083
:102C530002027C800000000040403F0000000000B2
:102C630006010102020404000000000000000087C6
:102C7300000100B7112400020030122500020032C7
:102C83001226000200341227000200361228000127
:102C9300003812290001003912860001003E122A71
:102CA3000001003F122B00010040122C00010044E0
:102CB300122D0008009F112E00010045122F000164
:102CC3000046123000010047123100010048123261
:102CD300000100A71133000100A8113400010049CD
:102CE3001236000100A911380001004A123900010F
:102CF30000431263000100B4116400010041126536
:102D030000010042126D000100B511710008009727
:102D130011660001005B12430001004C12440002E3
:102D2300004D12450001004F1246000200501247A9
:102D3300000800AC114800010052124B000100537F
:102D430012040001005E12A10001006112370001AC
:102D5300006012880001005F123C000100AA113DCF
:102D63000001004B1249000200541267000100B633
:102D7300114D00020056124E00010058124F00027E
:102D83000059123E000100AB110404060067100055
:102D930000000000000001363601010001020100BD
:102DA30001030100010401060605020000070100FA
:102DB300340801000F090401010D0100FF0E080092
:102DC3000017020000190100FF1A0100011B010096
:102DD300FE1C0100081D0200001F0100012001006C
:102DE30001210200002301000F240200002601003C
:102DF3000127010008280200FF2A0100072B010216
:102E0300402C0100002D0100012E0100012F0100C3
:102E1300FF30010B1C310800003A0100083B0100A0
:102E23000F3C0100013D0100FF3E0400004204008D
:102E330000460400004A0400004E0400005204004F
:102E430000560400005A0400005E20FFFF36000114
:102E530000060000000F000000000000000000005A
:102E630000000003FFFF00000403FFFF0000FFFF5B
:102E73000FF4010005C4040320000100000B00004F
:102E830000000000000003010F000000000000002C
:102E9300000000000000000000000000000000002F
:102EA300000000000000000000000000000000001F
:102EB300000000000000000000000000000000000F
:102EC3000000000000000000000000010371030186
:102ED300030103010301030103220302030103109E
:102EE3000300030003000300030003000300034285
:102EF3000300032403060300030003040312032552
:102F03000323032503230304030403000300030033
:102F13000344030003000323030003650321003577
:102F230003810300030503000300030003000325DB
:102F330003230301017101010101011101010131A8
:102F430001010101018001100161013B00140063D3
:102F53000173017201620143010001130106013D86
:102F63000135000401120100010001000100010408
:102F7300010401330133013C0144013201360000F5
:102F83000100016501000135008101000105018295
:102F9300018301000103027102300160021102701A
:102FA300020102020202028002100261023A00419F
:102FB30000630273027202620243020002130238C8
:102FC30000000200020402120200020002000200DA
:102FD3000204020402370037003C024402000239B3
:102FE30000000200026502000235028102000205B0
:102FF30002820283020002030471040204600411CA
:1030030004700402040204010402041004610400B5
:103013000414046304730472046204430400041379
:103023000406040004000404041204000400040061
:103033000400045104640000040004000444040078
:1030430004000400040004650400043504810464DE
:1030530000050400048304000403007100300160D0
:103063000011007000310220035004800010006141
:10307300000000140063007300720062004300004C
:10308300001300060000000000040012000000000E
:10309300000000000004000400370037003C024435
:1030A3000000000000000000006500000035008102
:1030B300000000050000008300000000000F231340
:1030C300007F2201000F2302003122030037220474
:1030D300003D220500432206004F221100732214F3
:1030E300007922150061221F006722FFFF00000103
:1030F300590F06890F08830F0B950F10CF0E025F30
:103103000F05770F07650F0C410F0D4D0F64130D5E
:10311300FF000007ECFDFDFDECDCDCCCBCACAC9CA3
:103123009C8C7C7C6C6C5C5C5C4C4C3C3C2C2C1C0C
:103133001C03EAF5E5D5D5C5B5A5959585857575C2
:103143006565555545453535252515150500160F76
:1031530000000B150B020002220F3300000E5A6908
:1031630067426565416C6C69616E63653039010363
:103173000507090B0D0F00020406080A0C0D303079
:1031830017181921301B1D1F3000034A49434E18DD
:103193001A25050200011916181616182303000C28
:1031A3000E020B040B0A0708000F00393D3F373CA2
:1031B3003C362C442D303016181920231A1C1E308F
:1031C300020402010101010902E803000000BE0438
:1031D3000A0E00000000003C007F00E8033C000AE8
:1031E3000303081000030005FF1E1E0C0528090138
:1031F300040409101504000C0808C082C0831216C9
:1032030001900310744BF0A37426F09003127445DD
:10321300F0A37426F0900314743FF0A37426F09087
:1032230003167439F0A37426F0024BAC74F712033F
:103233009BE9FE900302E4F0EE900301F09012503C
:1032430012445012507D7CAC7D117A057B03122011
:103253002D901252E090030DF090030E7497F0A39B
:10326300741102557F74F412039B8A088B09EB5483
:1032730080700302333B900301E0F9121E298A0A8E
:103283008B0BAE0AAF0BEE4F7003023332125C5856
:10329300E0F912504490032012587FA3A3A3A3A3E1
:1032A300A3A3A3E0640270378A828B8312505F80EA
:1032B300078C828D831251CAEC4D60208C828D83E2
:1032C300E06A7003A3E06B70E88C828D83A3A3E0B4
:1032D3006970DE90125812690CF0804C12260F8E22
:1032E300828F83E064017034EE241812339912083C
:1032F300DF1253DB1206C4EE24121233991208DFD5
:103303001262D01208DB124B671206C8EE241712A2
:1033130062DC1215B9740A1208B8800CE0640270FA
:1033230007EEFAEFFB122555EEFAEFFB121E17AA72
:1033330008E5096480FB805BEAA2E050149003185F
:1033430012558F6006126BF1122680E50864018026
:10335300395402600C9011C17401F0EA6402FA80DE
:1033630032EA540860291226158B0BEA450B7016B6
:10337300900322E4F0A3F0A3F0A3F07A08FB9003F8
:1033830001E0F9121F97E5086408FAAB0980047A93
:10339300007B00023DB51261C4F50A780A2274F479
:1033A30012039BEA4B9003186026ECF0A3EDF08A1E
:1033B300088B09E4F50AF50B78081208D37A017B28
:1033C30000900301E0F9121F8B74041208B8800FF8
:1033D300E4F0A3F07A01FB900301E0F9121F9702D6
:1033E3003DB574F412039B8A088B098A828B83127E
:1033F3006A9212619F38F583E02409FA7B00121E5A
:10340300118A0A8B0BAE0AAF0BEE4F70030234AB7B
:103413008E828F837402F0A3E41254F4A3A3A3A3B4
:10342300E8F0A3E9125081A3A3A3A3A3A3A3F0E508
:10343300082403F8E435091245AC12619F3AF58379
:10344300125878F0EE2409FAE43FFB8E828F83A3AF
:10345300A3124ABEF5838882E0A2E58E828F83A3FE
:10346300A3A3A3A3500474018001E4F0E50824039B
:10347300F88882898312505FEA1268F23BF583125F
:1034830034AE1208D7EA12619F3B124B708E828FC3
:103493008312505D121DE774031208B8EEFAEFFBB6
:1034A300900301E0F9121E1D023DB5E0F508A3E00B
:1034B300F509750A0078082274F212039B8A088BB7
:1034C30009ECFAEDFB740E120B7AE0FC1216318A4A
:1034D3000C8B0DAE0CAF0DEE4F6031AC08AD091285
:1034E300161FE96027AC08AD09EEFAEFFB121625AB
:1034F300E970158E828F83123514EEFAEFFB1216E4
:1035030019AA08AB091216497900800279B4800E12
:10351300A3A3A3E0F508A3E0F509221208B87F06E8
:103523000205F974EF12039B74F71209678A0A8B79
:103533000BECFEEDFF750DB3750C007510008002EA
:1035430005109031F3E493F8E510C3984003023675
:1035530035851008AA087B001216918A088B09EAA0
:10356300450960DC8A828B83A3A3A3A3A3E0250C74
:10357300F50CF50EC3E50A950EE50B940050C17CDE
:10358300157D007900EEFAEFFB121DF385088285A5
:103593000983A3A3A3A3A3E0F8E50AC3950C2825F5
:1035A300E0F8E433F9E50828F582E50939F58312F3
:1035B300506B12104FEAFCEBFDEEFAEFFB12202DDD
:1035C300850882850983A3E06401700A1253DB74C2
:1035D30001125426803DAC18AD19850882850983F4
:1035E30012505D121679E960307408120B7AE0C04C
:1035F300E01253DBD0E0F07408120B7AE06403703E
:103603000CAC18AD1912586612202D800C85188247
:103613008519831253EB12507D8508828509831225
:10362300459AA3A312542EC0E0125E9FD0E0F0751A
:103633000D00A90D74091208B87F090205F974F782
:1036430012039BE9FE8A828B83A3A3A3A3A3A3E014
:10365300540860338A828B83A3A3A3A3A3A3E05458
:103663000260218A828B83A3A3A3A3A3A3A3A3A3FF
:10367300E06406600F74E96E600A74CD6E600574D1
:10368300F06E700312262D02524C74E812039B74E1
:10369300F81209677406120B7A126ACCECFEEDFF7E
:1036A30089177515001238D412163D8A0A8B0BEA56
:1036B300450B7003023886EE2410125A44A90A12ED
:1036C3000DDF8A128B13EA45137003023886EE244A
:1036D30003F50CE43FF50DEE2406F508E43FF50988
:1036E3007C008508821261F81216438A108B1185BB
:1036F3000C82850D831238C912457C85128285138D
:1037030083A3A3A3A31245321238C9A3A3A3A3126D
:103713005C82851282851383A3A3A3A3A3A3126C44
:103723004C12541A1208D712619E3F124B70851225
:1037330082851383A3125057121DE774031208B82E
:103743007514007423120B7AE0F5167424120B7AA5
:10375300780C120B2202380B8510828511831250CC
:103763005D12167F850882850983A3EAF0A3EB1215
:1037730038E5A3A312512B123B75A2E6500F85081F
:1037830082850983A3A3A3A3A3E0D2E1F0E5157087
:103793006685088285098312649D900376E06870CC
:1037A30003A3E0697051850882850983A3A3A3124B
:1037B3005A4975100078101208DF780C1208D3E507
:1037C30016F51078101208DF7426120B7A1206C849
:1037D3009003831206C879007410120B7A12506397
:1037E300122519740A1208B8850882850983A3A3D0
:1037F300A3A3A3E04405F074012514FC1238D412EA
:1038030016438A108B110514E51045116050851479
:1038130008C3E508950AE4950B5043E51475F006D3
:10382300A4F8A9F0E51228F8E51339F9E8240CF512
:1038330008E439F509850882F583E412743AE064F3
:1038430001600302375B751501850882850983745E
:10385300011238E5125EF1E8F0A3E9023772AA1209
:10386300AB13120DE578121208DBAD167424120B9C
:103873007AE0FCA917EEFAEFFB1226337402120862
:10388300B8803E8E828F83A3A3A3E0C0E0740312AB
:103893000B7AD0E0F0EE24121261BDC0E074041282
:1038A3000B7AD0E0F0E50A450B70097405120B7A28
:1038B30074B980077405120B7A7410124B861225A3
:1038C3001F7408023EE4E0851282851383A3A3A339
:1038D300228E828F831262068E828F83A3A3A3E03C
:1038E300F92212743EA32274E812039B74F21209A4
:1038F30067E9851882851983F08A0A8B0B8C168DEC
:10390300177426120B7A1242E8AA0CFB120DD3E9A4
:10391300F514AA0CAB0D120DD9E9F515E5147003D6
:10392300023B5D751300800F8E828F83A3A3A3A335
:10393300A3E0D2E3F00513E50C125038350DF583FF
:10394300E0F8E513C3984003023B54E51470030207
:103953003B54E51375F006A4F8A9F0E50C28F8E547
:103963000D39F9E8240CFEE439FF8E828F83A3A37B
:10397300A3A3A3E0A2E040BD750E008E828F83E077
:10398300704312505E120CAD8A088B09A808A9096E
:10399300E849603188828983A3A3A3A3E06401601B
:1039A3000D88828983A3A3A3A3E0640370178E8287
:1039B3008F83A3A3A3A3A3E0D2E7F0750E01E515BC
:1039C3007003023938750F00750808750900E5178B
:1039D3006003750F207C087D0079007401120929AA
:1039E300121DF38E828F83E0603C9003C6E0640176
:1039F3007018E50FD2E3F50F75091012649974017D
:103A0300120B7A124AA774FF803A430F0C75080C05
:103A13008E828F83A3123B6B1250797401120B7A3F
:103A230074FFF0A3801E851882851983E06009E581
:103A33000FD2E6F50F75080A1264997401120B7A16
:103A4300E8F0A3E9F07403120B7AE50F125F24C0C8
:103A5300E07405120B7AD0E0F07406120B7A74014D
:103A6300F012092912254F740D120B7AE06003023C
:103A73003B2F7409120B7A1245778E828F83A3A38F
:103A8300A3A3F07409120B7A123B7E1242DEE516F1
:103A9300123B7560119003C6E0C0E07409120B7A03
:103AA3001242F4D0E0F0850C82850D83A3A3A3E03A
:103AB300C0E07409120B7A126228D0E01251F2C0EE
:103AC300E07409120B7A1242FED0E0F07409120B73
:103AD3007A123B6B126AAA125F2D12505F126A8B25
:103AE300EAF0A3EB125F13C0E0126A83D0E0F07434
:103AF30009120B7A123CAD123B621247CB3B125FA9
:103B030000126197123EF875120078101208D7124E
:103B13004B6BEA1250313BF58312505F121DE77471
:103B2300031208B874011209291225498E828F8362
:103B3300A3A3A3A3A3E0D2E0F0740D120B7AE06079
:103B43000302392BE50EA2E05002151515140239B4
:103B5300387900AA0CAB0D122627740E023EE4A39B
:103B6300A3A3A31264A2EA221264A2850A82850B8C
:103B73008322123B7922126637E0221247EA12535C
:103B8300D539F583E508F0A3E509F02274F01203B3
:103B93009B74E9120967EAFEEBFF89088E828F8323
:103BA300A3A3A3A3A3A3A3A3E0F9120DFD8A0C8BE4
:103BB3000DEA450D7003023CA8E50870157C048EE0
:103BC300828F83A3A3A3A3A3A3A3A3E0F9120E034A
:103BD300804F7C088E828F83A3A3A3A3A3A3A3A355
:103BE300E0F9120E038A0A8B0BEA450B6033E508F2
:103BF300F50978091208DF850C82850D83A3A3A339
:103C0300A3A3A3A3E0FD8A828B83A3A3A3E0FC8ADF
:103C1300828B83A3123CADE0F91215B37401120831
:103C2300B8124B6112558D607C8882898312505B78
:103C33007406120B7A123CB712505F7408120B7A97
:103C4300123CB7A3A3E0C0E07410120B7AD0E0F0EB
:103C5300850C82850D83A3125057740E120B7A12B2
:103C63006ACC7411120B7AE4123B75FAA3E0CA24EE
:103C73001FF582E43AF5831245B7E0C413135403E6
:103C8300FC70027C0488828983E0F9780C1208DBDB
:103C9300742059FD744059F974021209291226330C
:103CA30074021208B8741702455912620C850A820D
:103CB300850B8322EAF0A3EB12496FA3A32274F7C7
:103CC30012039B74FA120967E9FE7F018F087D00D6
:103CD30080047508000D124519E0F8EDC3985027CC
:103CE300ED75F006A4F8A9F0EA28F8EB39F9E81223
:103CF3005F1E39F583E0A2E050D8540C60D4E0A2F3
:103D0300E250D27F0080CE8A828B83A3A3A3A3A396
:103D1300A3E0703EE508A2E0400574016E70338AAB
:103D2300828B83A3A3A3A3A3A37401126950E0C04E
:103D3300E07403120B7AD0E0126948E0C0E0740427
:103D4300120B7AD0E0F07405120B7AEF124B861245
:103D5300251F7406025249C082C0837901122627A7
:103D6300024BAC74F412039BEA4B602D9003C2E048
:103D7300640270259011C1E4F08A088B09F50AF5F5
:103D83000B78081208D37A027B00900301E0F91242
:103D93001F8B74041208B880129011C17401F07A59
:103DA300027B00900301E0F9121F97800574021251
:103DB30008B87F040205F974E812039B74FC120926
:103DC300677402120B7AE4F0A3F0900320125B4FA6
:103DD300851882851983E4F0A3F0751401900370AC
:103DE300E0A2E35003023E71121FA98A088B098CDB
:103DF3000A8D0B8A0C8B0D8C0E8D0F900322780C81
:103E0300120939123EEC7810790C120AD450077A51
:103E1300017B00023EE2850C14850D15850E168587
:103E23000F177814791012032CA814A9159012589F
:103E3300E0C398E4995003E0F514123EEC780C7952
:103E43001012032CE4F512F513780879101209D037
:103E53009003227808120B13801412649E9003209F
:103E630012507DEEFAEFFB121ECBAE08AF09EE4FF8
:103E730060658E828F83A3A3A3E0F8E514C39850F3
:103E830029EE2403F582E43FF583A814E0C398F0F8
:103E930060217402120B7A12662312589AEEF0A371
:103EA300EF124D9DFEA3E0FF80C48E828F83A3A3F8
:103EB300A3E4F08E828F83A31235138518828519AC
:103EC3008312558F8E828F83A3A3A3A3608C124B7F
:103ED3004E1245C0A380897402120B7A12505F748C
:103EE300041208B87F100205F9901256123EF8E446
:103EF300F512F51322E0F510A3E0F5112274F21286
:103F0300039B8A0A8B0BE9FE7A007B009003201245
:103F1300351690032012558F601E0A850882850985
:103F230083A3A3A3A312558F600E0AEA70010B8823
:103F3300088909E8450970E390125912649EC3EA9F
:103F430098EB994003023FEB7A067B00121EC58A69
:103F53000C8B0DA80CA90DE8497003023FEB888276
:103F63008983E50AF0A3E50BF0EE88828983A3A396
:103F7300F0901258124816A3A312496AE4F0A3F072
:103F8300900320125583600B8508828509831250A4
:103F930079801F90032012507D900370E0A2E340CC
:103FA30011121FA9EAF8EBF9ECFAEDFB90032212C8
:103FB3000B4B900370E0A2E3502E7A087B00900332
:103FC30001E0F9121F9DEA4B4C4D701C90125612E2
:103FD300724278081208D37A087B00900301E0F953
:103FE300121F9174041208B802352174F212039B54
:103FF30074F3120967EAFEEBFF8E828F83A3A3A3F8
:10400300A3A3A3A3A3A3A3E0F50A9011C1E07005A2
:1040130079BA0242D2750801750900750C00750D55
:10402300007C087D007900AA18AB19121DF37405F2
:10403300120B7A740112430A540460127402120BB5
:104043007AE0D2E612430A54087003750803E05479
:1040530010600674404508F508E0540860227402B5
:10406300120B7AE044C012430A5420600A7403120C
:104073000B7AE0D2E080087403120B7AE0D2E1F00D
:104083008E828F83A3A3A3A3A3A3A3A3E07016127B
:104093001055851882851983126ACC7402120B7A23
:1040A300E0D2E2802C640F70107402120B7A124378
:1040B3001274044508F508807B8E828F83A3A3A323
:1040C300A3A3A3A3A3E064028E828F837006124A84
:1040D30099F08060A3A3A3A3A3A3A3A3E0640370A5
:1040E3000DAC18AD19EEFAEFFB1225D980468E827E
:1040F3008F83A3A3A3A3A3A3A3A3E0640170359019
:1041030003C6E060107402120B7A12431275091091
:10411300750AFF80187402120B7AE0440C12589A45
:1041230074FDF0A374FFF074044508F5088E828FC4
:10413300831242E8EE24151261BDA2E0503F7402DF
:10414300120B7AE0540C701B8E828F8312505F1215
:1041530023E1E9700579BB0242D27402120B7AE0C3
:10416300D2E5F0EE24151261BDA2E05010740212E4
:104173000B7AE0540C64047004E0D2E5F0EE2411F1
:104183001261BDC0E07404120B7AD0E0124B8612A8
:10419300254F740C120B7AE060030242CB740812B1
:1041A3000B7A123B7EEE24181261BDC0E01242DE90
:1041B300D0E0125F08E0C0E07408120B7A126A952F
:1041C3001261B438F583D0E0124AA16401701190F2
:1041D30003C6E0C0E07408120B7A1242F4D0E0F098
:1041E3007408120B7A1258892417FAE43FFB8A8267
:1041F3008B83E0FCE8241CF582E439F583ECF0A31F
:10420300E412559FE0C0E0E82422F582E439F58307
:10421300D0E0F07408120B7A1242FEE50AF074083B
:10422300120B7A1247E61247CB39F583E50CF0A35C
:10423300E50D12624CFCA3E0FD126AB5ECF0A3EDB0
:104243001245451251CE1242D7391264ABC0E0E891
:10425300242FF582E439F583D0E0F0EE241B1261BC
:10426300BDC0E07408120B7A126A9ED0E0F0EE240F
:104273001A1261BDC0E07408120B7A126A95125AC1
:104283003A38F583D0E0126AD21234AF1208D7124B
:1042930053C11251CE740B120B7A124A81121DE7CD
:1042A30074031208B8EE24151261BD5440601290D5
:1042B300033012558F600AAA18AB19126BF112263C
:1042C30080AA18AB19122549740C120B7AE0F97401
:1042D3000D02351EE82428F582E422E82412F58233
:1042E300E439F583221242EC22E0F50CA3E0F50D4C
:1042F30022126A99125E8938F58322126A9924235D
:10430300F582E438F58322F0EE24151261C422E02D
:10431300D2E312663712431C22124B56E8F0A3E98C
:10432300F02274F712039B7E638A828B83E0600C16
:104333007905120C05E9F87456C398FE90036EE0F4
:10434300600CF9120C05E9F8EEC39824F2FEEEF9BD
:1043530002524C74F612039B74FE1209678518828D
:10436300851983126ACCE9FEECFAEDFB900539124C
:10437300558F6035A818A919880889097808120883
:10438300DB7D01740E120B7AE0FCEEF99005391215
:104393004C1512268074021208B88B09EA4509608D
:1043A300047900800679B2800279B602458474F7F5
:1043B30012039BE9FE90031012558F601F740912BC
:1043C3000B7AE0F50878081208DFEEF99003101273
:1043D3004C1512268074011208B8800279B6025275
:1043E3004C74F712039B8908ECFEEDFF79B5E508E1
:1043F300245F600C14603114601224F86041804A19
:10440300900303125EE5E8F0A3E9801990053B12DF
:104413005583603690053B124C151226808E828F91
:1044230083EAF0A3EBF080209003121263E6601A94
:10443300EEFCEFFD900312124C15122680800B90B8
:10444300030E12506312202D790002524C1264A203
:104453009003032274F512039BEAFEEBFF8C088D95
:1044630009750A0112104FEAFCEBFDEEFAEFFB129D
:104473002027E96401700B9003761245CC12507D1E
:10448300800EAC08AD09EEFAEFFB120C53E9F50A06
:10449300A90A026D0D74F612039BEAFEEBFF7A0C78
:1044A3007B00121EC5EA4B606AEE24201261BD8AAE
:1044B300828B83F0EE2421124521F0EE2422124553
:1044C30021A3F0EE2423124521A3A3125A4F124530
:1044D3002A125079EE1242D83FF58312452AA3A33C
:1044E300A3A3A3A3E8F0A3E9125A5E8A828B83A352
:1044F300A3A3A3A3A3A3A3F0EE242F1261BDC0E043
:10450300124519D0E01251FBF8A3E0F98A828B839C
:10451300125074024589EA12503C3BF58322126122
:10452300C48A828B83A3221264A28A828B8322127F
:10453300431FEE12455022F582E43FF583E4F0A3D6
:10454300F022F0EE1253CE22EE124550222412F541
:1045530082E43FF583221208B87F080205F9124569
:10456300698882F58322F8E43FF9880889092212D1
:104573004A79A3221245DAE022124B77F8A3E0F935
:104583002274021208B87F020205F9C082C08312A6
:1045930045F4E4F0024BAC12508822F583E02AFA8A
:1045A300A3E03B227901020885F988828983E0FA36
:1045B300A3E0CA22E0FAA3E0F5838A8222E0FAA309
:1045C300E0F5838A82A3A3A3221245D0221264A614
:1045D30085088285098322124AC9C8240EF582E41C
:1045E30038F58322C082C0831245F47401F0024B74
:1045F300ACEA1268EC3BF583220245A7C082C08374
:1046030090032674C7F0A37425F090032874BBF0BD
:10461300A37425F090032A7491F0A37425F09003FA
:104623002C74C1F0A37425F0024BAC74F412039BF9
:10463300EAFEEBFF124684F5081210558A0A8B0B2B
:10464300A80AA90B8E828F831245B7E0687003A373
:10465300E069602AE508A2E550248E828F83A3E0F7
:10466300FB900326124C151226808E828F83126ACA
:1046730095240A1255897006124684C2E5F0023D5C
:10468300B58E828F83124572A3E02274F412039BCA
:10469300EA2408FCE43BFD8C828D831247E6124D2D
:1046A3005BE0FE74035EF5091250373912588788B0
:1046B300828983F0A3A882A983E50960097402654E
:1046C300096003024759740C5EF5086017740865A6
:1046D300086011740465087013740265097005EEAF
:1046E300A2E4402A1247EF242312481C740C6508E5
:1046F30070161247D82424124801FCA3E0CC1247B9
:10470300CB3CF583A3124822740265097005EEA21F
:10471300E440431247D82426124801FFA3E0CF12F6
:104723005A40A31248221247DC242812483112426D
:10473300D83CF583A3124822E50860127408650883
:10474300600C740C650860067404650870081247F1
:10475300EF242212481C1247EF1247BF7005EEA246
:10476300E1500C1247EF125A3A3C1247D1800E9097
:1047730003021247D3900302E004124ACEA3A88295
:10478300A983EEA2E750321247D8242112483112EE
:1047930047BF60251247EF243012481CEEA2E150B8
:1047A300188A828B83A3A3A3A3A3A3A3A31245B1B4
:1047B3002431F582E43A1247D1023DB52421F58232
:1047C300E43CF583E05403222424F582E422F583B8
:1047D300124816F022EA2408FC8C828D83E0FFA3A2
:1047E300E0CF221247EA221264A6E8228A828B8350
:1047F300A3A3A3A3A3A3A3A3E0FCA3E0CC22F582DA
:10480300E43FF583124816F0A3A882A9838C828D16
:1048130083E022E08882898322F582E43CF58312D7
:10482300482622E088828983F0A308A98322F5829F
:10483300E43FF5831248268C828D83E0FCA3E0CC11
:1048430022C082C0838A828B83124688F8740358FD
:10485300F98A828B83A3A37401F0E960057402696A
:104863007061740C58FC601474086C600F74046CF1
:1048730070137402697005E8A2E4401D8A828B8379
:10488300A3A37402F0740C6C700A8A828B83A3A3B3
:10489300E02402F07402697005E8A2E440258A82EC
:1048A3008B83A3A3E02404F0EC600F74086C600A0C
:1048B300740C6C600574046C70098A828B83A3A3E7
:1048C300E004F0E8A2E750318A828B83A3A3E004DB
:1048D3001264B1F9A3E0F5838982A3A3A3E054038F
:1048E30060178A828B83A3A3E004F0E8A2E1500956
:1048F3008A828B83A3A3E004F08A828B83A3A3E041
:1049030004F0024BACC082C0838A828B83A3A3A32F
:10491300A3A3A3A3A3A3A312558F600C8A828B83A3
:10492300A3A3125057121ECB024BAC74F712039B76
:10493300EAFEEBFF8E828F831253E3A3A3A3A3A309
:10494300A3A3A3E4F012496AA3A3A3A3A3A3F0A37D
:10495300F0E81268EC39F583E4F0122579EEFAEF0A
:10496300FB12258502524CA312496F22124ACEA391
:10497300A3A3A32274F112039B74F3120967EAFE43
:10498300EBFF740C120B7A7401F012257F8E828F69
:1049930083A3A3A3A3A3A3A3A3A3A312558F6006D7
:1049A300124C0E1226801261BA6003024A3F7C0841
:1049B3007D007900AA18AB19121DF37402120B7A49
:1049C3007401124A6E124A99124AA1F8A3E0C8125E
:1049D30068D638F583E02409C0E07404120B7AD05A
:1049E300E0F07405120B7A124B8412254F740C12EB
:1049F3000B7AE070477408120B7A125136740E1258
:104A03004A6E1251CC8508828983A3AA82AB831292
:104A1300202D1250531245191262381208D712680A
:104A2300D0124B70E5082409FAE43509FB121DE79F
:104A330074031208B8AA18AB191225498E828F8302
:104A4300A3A3A3A3A3A3A3A312558F60061250533A
:104A5300121ECBEEFAEFFB122573740C120B7AE0E5
:104A6300C0E01254B5D0E0F0025444125599124AF2
:104A73007522124A7922124AC9F583888222124A80
:104A83008812620C22124A8C22124AC9C8242BF5BE
:104A930082E438F58322124B52E8F0A3E922125A3A
:104AA3006BA3E02212431F8E828F83A3A3A322EE64
:104AB3002402F8E43FF98882898322EAF0A3EB1207
:104AC3004ACE124AC922E0F8A3E022F08882898301
:104AD30022C082C08374F9120967124B4412507DBD
:104AE300EA2402F8E43BF988828983E02401124B2B
:104AF3003D7402120B7A124ABEF988828983A3A3FA
:104B0300A3A3A3A3A3A3A3E0FC88828983A3A3A352
:104B1300A3A3A3A3A3A3A3E0FBECFA7404120B7A4D
:104B2300124D8A124D6AC0E07406120B7AD0E0125D
:104B33004B861225137407024BA9FAA3E03400FB3A
:104B4300228A828B83A3A3A3A3A3A3124B52221271
:104B53004B5622124AC9F985188285198322EE120F
:104B630068D63F221253F222126904350BF583E013
:104B7300FC7D0022124B7B22F0850882850983E0AD
:104B8300227401F0AA18AB1922124BA222C082C0D0
:104B930083124C197003122561800E8A828B83A3C2
:104BA300A3124A79E0221208B8D083D08202088582
:104BB300C082C08390125BE070259011B6E0701F35
:104BC3008A828B83A3A3A3A3A3E07013124C19605F
:104BD300388A828B83A3A3126BF0E06407602A8A6E
:104BE300828B83A3A3A3A3A3A3A3A3E070128A82AC
:104BF3008B83124C1F60097A347B011221B3800925
:104C030090032E124C15122680809EEEFAEFFB9035
:104C13000328124A7522124B9E640622124BA26489
:104C2300052274F612039B74FA120967EAFEEBFF7E
:104C33007403120B7A125E8F740312092912256D05
:104C43001261BA6003024D5085188285198374324C
:104C5300F07405120B7A126C3FC0E07401120B7AE8
:104C6300D0E0124D91C0E07402120B7AD0E0124DE5
:104C730097F8A3E0F9E849601BE8125EBF39F583B2
:104C8300E0FAE8124D5539F583E02AF87401120B66
:104C93007AE028F0AA18AB19120D258A088B09A807
:104CA30008A909E8497003024D458E828F8312508B
:104CB3005F88828983A3A3124D8A125ED53912516C
:104CC300F7C0E0E8124D5BD0E01251F2C0E0E824F7
:104CD30021F582E439F583D0E0124D9DC0E0E8244C
:104CE3002AF582E439F583D0E0F07405120B7AE0FB
:104CF300FCE8124D6A2C124B3DE812503139F58312
:104D0300124D8A242DF582E439F583EC124D97FA7E
:104D1300A3E0FBEA4B6019E8242BFAE439FB8E820B
:104D23008F83A3A31247F3124D553CF583124D72A3
:104D33008E828F83A3A3A3A3A3A3A3A3E8F0A3E9D2
:104D4300800AEEFAEFFB122573124D64F07406022B
:104D530045862416F582E4222420F582E439F5837E
:104D6300221254B974102212503C39F583E022E028
:104D7300FC8A828B83E02CFCA3E03400FD8A828BC7
:104D830083ECF0A3EDF022EAF0A3EBF0E822124D5E
:104D9300A2A3E0221255A3A3E022124DA2E0221205
:104DA3004DA622124DAA22F08E828F83A3A3A3A322
:104DB3002274F612039BEAFEEBFF1261BA704212F1
:104DC300257F8E828F83A3A3A3A3A3A3A3A3A3A3BC
:104DD30012558F6006124C0E1226801261BA700BA8
:104DE300125053120D1F124E0E8015EE2408124559
:104DF3006112505F121ECB850882850983E4F0A3FC
:104E0300F0EEFAEFFB1225730245891254B9E92239
:104E130074F612039BEAFEEBFF8C088D091223E163
:104E2300E9700479018011AC08AD09EEFAEFFB904B
:104E3300032C124C1512268002458974F112039B30
:104E430074F31209678A088B09740C120B7A1251D6
:104E5300E7121DF3850882850983A3A3E064046038
:104E630003024F0B7404120B7A7422F0740C120BAE
:104E73007AE06003025027850882850983124B4E2E
:104E830012507D7402120B7A740112540DC0E07437
:104E930005120B7AD0E012543EF8A3E0F97406121F
:104EA3000B7A1254D6A3A3A3A3A3A3A3E064017014
:104EB300097402120B7AE0D2E5F0AA18AB19122595
:104EC3004F740C120B7AE060030250277408120B24
:104ED3007A126A9512503138F583125B4F8E828FA6
:104EE3008374051250811254ECE849606E85088280
:104EF3008509831262341208D77C10125042121DA6
:104F0300E774031208B8805F850882850983A3A329
:104F1300E06401600D850882850983A3A3E064062C
:104F2300700A7404120B7A7423024E6E850882850C
:104F33000983A3A3E06402600D850882850983A326
:104F4300A3E06403700A7404120B7A741B024E6E9E
:104F5300740C120B7A74B3F00250277C107D007925
:104F630000125044121DF3EE2412FE50010F850867
:104F730082850983A3A3E06401600D850882850906
:104F830083A3A3E06406700D850882850983A3A328
:104F9300A3E0126C34850882850983A3A3A3A3A38A
:104FA300A3125063120C41EE2408FE50010F850832
:104FB30082850983A3A3E06404601A8508828509B6
:104FC30083A3A3E06401600D850882850983A3A3FD
:104FD300E06406700FEEFCEFFD7A007B0079AB1204
:104FE30025DF8011850882850983A3A3A3A3A3A337
:104FF300A312504CF085088285098312505F12106A
:10500300DFE960087408120B7A125C7AE508125023
:1050130038350912558DAA18AB196005122567801A
:1050230003122549740C120B7AE0F9025444242B21
:10503300F582E422E812503C22240BF582E4227D1F
:1050430000EE2402FAE43FFB22A3E08E828F832248
:105053008E828F83A3A3A3A3A3A3A3A312620C2271
:105063001251D2EEFAEFFB22A3A3A3A3A3A3125ED2
:10507300E9A3A3A3A3A3A3A3A3A312431F2212548D
:105083002A12508822E08E828F83A32274F61203A1
:105093009B74F3120967EAFEEBFF7C087D0079003D
:1050A300AA18AB19121DF31251BD120B7A740CF02E
:1050B3007405120B7A7401125A6660097402120B9A
:1050C3007A742180077402120B7A7401124B8612D0
:1050D300254F740C120B7AE070427408120B7A128B
:1050E30051367406124D9D1251AF12202D124AB241
:1050F30012512BA3A3A3A3A3A3125408850882854B
:105103000983A3A3A3A3A3A3A3A3A3125594E0C0BA
:10511300E0125EC5D0E0124B86122549740C120BC7
:105123007AE0F9740D024586E0850882850983A338
:10513300A3A3221251E0880889098882F583227487
:10514300F712039B74F3120967EAFEEBFF7C087DF9
:10515300007900AA18AB19121DF31251BD120B7A74
:105163007409F07405120B7A7401124D9D64017079
:10517300097402120B7A742180077402120B7A7479
:1051830001124B8612254F740C120B7AE0701A74BD
:1051930008120B7A1251D874071251FB1251AF1235
:1051A300202DAA18AB19122549025240FCA3E0FD99
:1051B30088828983A3AA82AB83228E828F83124B38
:1051C3005212431F740422A3A3A3A31251D222E0B9
:1051D300FCA3E0FD221251E08882898322124A8CCB
:1051E3001264A622E4F07C08FDF9AA18AB19221276
:1051F3006630E022F5837401126AC3A3E022C08201
:10520300C08312258B90032E745BF0A37425F002E8
:105213004BAC74F712039BE9FE1268D012558D60F4
:105223001A88828983A3E054037010EEFB1250376F
:1052330039F583125278E0F91215AD800C740C1213
:105243000B7AE0F9740D1208B87F010205F9C082E8
:10525300C083EAF8EBF988828983A3A3A3A3A3E01D
:10526300FB88828983A3A3A3A3125278A3E0F91234
:1052730015AD024BACE0FA88828983A3A32274F0B4
:1052830012039B8A088B098C0A8D0B890FEA125E25
:10529300B1E02430FA7B00121E118A0C8B0DAE0C88
:1052A300AF0DEE4F70030253BE8E828F83740112D3
:1052B30063981208D77C177D00EE2419FAE43FFBAC
:1052C300121DE774031208B8850A0C850B0D780CC0
:1052D3001208D77C09125042121DE774031208B852
:1052E3007410120B7A1253EB12507D7412120B7A54
:1052F3001253E3E0C0E01253C9D0E0125EF6C0E0FF
:105303001253C1D0E0125408C0E0125B3AD0E0F06F
:105313007414120B7AE0C0E012454BD0E0F0EE2497
:105323002712453A7415120B7A120B571253DB12DC
:105333000B4B125EB7E50F12540DF8A3E0F9124BB5
:1053430061F58312507D7419120B7AE0C0E0125E8E
:10535300DBD0E0126C54E0602FEE242712586E2449
:10536300301253FA240E126C3012742C1208D7E543
:105373000812619F3509124B708A828B8312505F2A
:10538300121DE774031208B8EE241A1261BD540308
:10539300601D90031E12558F600CEEFAEFFB126B2B
:1053A300F11226808015EEFAEFFB121E17800CEE29
:1053B300FAEFFB900301E0F9121E1D02455CEE12A9
:1053C3005F1E3FF58322EE1253CE221253D53FF5D3
:1053D3008322240FF582E422EE1261B43FF5832287
:1053E3001264A288828983221264A21253F222EEEB
:1053F30012503C3FF58322F8E43FF98A828B8312F3
:10540300431FE5082212696FE02212542AA3A3A3C3
:10541300A3A3A3A3A3E022F50CA3E0F50D750E004F
:10542300780C2212542A221254E222A3A3A3A3A388
:10543300125437221254E2A3A3E022F0125EC9E011
:1054430022740D1208B87F070205F974F112039B49
:105453008A088B097A0F7B00121E118A0A8B0BAE06
:105463000AAF0BEE4F60498E828F8374051254F49A
:10547300E8F0A3E91254EC1254B51254D612623870
:105483001208D77C087D00EE2404FAE43FFB121DCA
:10549300E774031208B8850882850983A3A3A3A32D
:1054A300A3A3E0C0E01254C3D0E01254CB121E1DDC
:1054B30080941254B922EE240CF582E43FF5832242
:1054C300EE1268F63FF58322F0EEFAEFFB9010A799
:1054D300E0F9221254DA22E8F0A3E91254E222F0AE
:1054E300850882850983A3A322125437F8A3E0F920
:1054F300221254F822124B7BF8A3E0F98E828F8399
:10550300A3A322C082C083E99011C2F090031A744E
:1055130063F0A37426F090031C74D3F0A37425F0F6
:1055230090031E74A9F0A37425F0024BAC74F71218
:10553300039BEAFEEBFF8908EE4F700312171B90E3
:10554300033212558F7008900332802212649E88B2
:10555300828983A3A3A3A3A3A3A3A3A3125583888D
:10556300828983A3A3A3A3A3A3A3A3A370DEEEF0C3
:10557300A3EF12559FE4F0125594E508F002524C44
:1055830012620CEA4B22F582E438F5831247EA49AA
:1055930022A312559922124DA6A3A3221255A32288
:1055A300125A6FA3A32274F712039B900332800D48
:1055B3008E828F83A3A3A3A3A3A3A3A3A3125B4F4F
:1055C300EE4F60348E828F83A3A3A3A3A3A3A3E090
:1055D3006970DD8E828F83A3A3A3A3E06A7003A304
:1055E300E06B70CC8E828F83A3A3A3A3A3A3E06CF1
:1055F30070BEEEFAEFFB80047A007B0002524C741B
:10560300F712039B900332125B4F900332123B66F7
:10561300687002EB69701EE0C82409F582E438F56E
:105623008312649E90033212507D900332125B4FBB
:105633008024125B42EE4F601D8E828F83A3A3A34F
:10564300A3A3123B62687002EB6970E68A828B83C4
:10565300A3A3A312506B121ECBEEFAEFFB02524C24
:1056630074F012039B74FA1209678A088B098A8201
:105673008B83A3A3A3A3A3A3A3A3E06033640160C9
:105683002F8A828B8312505F1210DFE97022850804
:1056930082850983A3A3A3A3A3A3A3A3E0640370A5
:1056A300147404120931AA08AB091225D9E970163A
:1056B300790202585785088285098312649E74040F
:1056C300120B7A12507DE5082411126C2724321232
:1056D3004B3D121EC58A0A8B0BAE0AAF0BEE4F7001
:1056E300030258557C327D007900121DF3740212B7
:1056F3000929850882850983A3A3A3A3A3A3A3A33D
:10570300A3E0F91215FB7402120B7AE0C0E0125AFF
:1057130029D0E0F0EE242CF50AE43FF50B740312D4
:105723000B7AE0850A82850B83F07901EEFAEFFBB1
:1057330012250785080C85090D750E00780C1208D3
:10574300D77C1C7D00125866121DE774031208B83B
:10575300EE243012586E24321253FA2411F8E43531
:1057630009F9E8FCE9FD8C828D83125889125A33BA
:10577300125402125C5212742C1208D78C828D833D
:1057830012587F12505F121DE774031208B8740495
:10579300120B7A125EE5125079900302125878A325
:1057A300A3A3F0900302E004F0121FA9126AC8EE4B
:1057B300242A1261CC750D00850A82850B83E0785B
:1057C3000C120A1E8A828B83E50CF012585CE50CDE
:1057D30012589AE4F0E5082415126C27A2E074012C
:1057E3005007120B7A74018004120B7AE4F0EE2452
:1057F30027124569AA18AB191215E3E924FE850897
:1058030082850983F0EE242EF8E43FF9E8FCE9FDF4
:1058130012588E120253E88E828F83A3A3A3A3A3ED
:10582300A3A3A3F012588E1202538B09EA45096011
:105833000F8E828F83A3A3A3A3A3A3A3A3E004F048
:10584300EE24201261BD4408126241121E537900F6
:10585300800279107406024559EE2429F582E43F4B
:10586300F58322EE240BFAE43FFB22F8E43FF9E848
:10587300FAE9FBEE22125088A3A3A3221251D28A83
:10588300828B8322F5831264A2EE228C828D831293
:1058930045D0E0FA7B0022F08518828519832274B3
:1058A300F412039BEAFEEBFF121FA9126AC89012BF
:1058B3004CE0F8EE242B1261BDC3984003025A0D4D
:1058C3001261D87012EE242B1261BD04125A5EC00D
:1058D300E012585CD0E0F0EE24281261BDFC7900A0
:1058E300800109EE242C1261BDF8E9C39850267596
:1058F3000801750900E97808120A1E1261D85508D3
:1059030060E0E92CFC750801750900E97808120AC2
:105913001EE04508F0EE2427125A44EE125A33ECE7
:105923008A088AF0A4F8ABF0E42BF9E098F8A3E036
:1059330099F9C3E89508E99400EE403524271261EC
:10594300BDF81261D86030125A29125A49A3E4F003
:10595300EC7050EE24201261BD4420124AA1C0E035
:10596300EE125A40D0E0F0EE2430125A44A3E08005
:105973005812585D74FFF0900366E0FA90124FE0FE
:10598300F508EA8508F0A4ABF075F064A4FAADF06D
:1059930075F064EBA42DFB8E828F83A3A3EAF0A39F
:1059A300EB80ACEE24201261BD54DF125A4FECF0B1
:1059B3008C08EE24271261BD8508F0A4FAABF0EE43
:1059C3002430F582E43F12459EFB125A1FEAF0A3EE
:1059D300EB125A66C0E0EE2425F582E43FF583D04E
:1059E300E0F0EE241CF582E43FF583E8125C82903C
:1059F300033412558F600BECF9126BF1122680E918
:105A030070171258661225FD800F7BE9125C6B122A
:105A130015ADEEFAEFFB121841023DB5EE241EF56B
:105A230082E43FF58322EE242DF582E43FF58322C1
:105A3300125A3A3FF58322242EF582E422125A5554
:105A4300221261C4FA22125088A3F022F0EE125AF5
:105A530055222426F582E43FF58322F0EE242A1210
:105A630061C422125A6BE022125A6F22124DAAA36A
:105A7300A3A32274F412039B900332125B4F121FF1
:105A8300A98A0A8B0B78FF79FF8020E0C39AFCA3D5
:105A9300E09BFDC3EC98ED99500E8E828F83A3A3F8
:105AA300E0C39AF8A3E09BF9125B42EE4F605C8E71
:105AB300828F8312505FE50AC39AFAE50B9BFB8E34
:105AC300828F831251CCC3EA9CEB9D8E828F83A37A
:105AD300A340B8A3A3A3A3E06402701AEE240B129D
:105AE30061DB6009125B3A12505F121E17EEFAEF88
:105AF300FB1218418007EEFAEFFB1226037A017BB3
:105B0300009011C2E0F9121E53802974FF687003DC
:105B130074FF69601F88088909E4F50AF50B7808A2
:105B23001208D37A017B009011C2E0F9121F8B7423
