:020000040000FA
:06000000020AF40201E611
:03002B0002077752
:030033000205D8EB
:0300430002079C15
:0300530002012780
:03006B000205B1DA
:1000830002017501FF01010503010F10FEFFB42FEB
:1000930000000000262E00000000FF000000FF000B
:1000A300018813000030815A0020FD00020000F98E
:1000B3001A000000000000011C0000000000000006
:1000C300000000000000000000000000000000002D
:1000D300000000000000000000010000000000001C
:1000E3000006FFFF010200A710000000E803FFFF66
:1000F3001D11E80364006400B8010202002000003F
:100103000502070101051E02051E020A0A0102B8C3
:100113000B02803E0102FEFFE8030A0500011206FE
:100123000A1401E0C0E074F2120407A2AFE433FE44
:10013300D2AF85A708AFA1EF550854106006121877
:100143007175A1EFEF55085408600812187775A16F
:10015300F78013EFA2E092F0E508A2E082F05006E8
:1001630012193175A1FEEEF8EEA2E092AF7F010203
:100173000466C0E074F2120407A2AFE433FFD2AF07
:100183009061A4E0FE759B00E5915E5408600875DC
:1001930091F71218CB8026E5915E54106008759193
:1001A300EF1218D18017E591A2E092F0EEA2E0825F
:1001B300F0500A9061A4E0C2E0F0121A219061A30A
:1001C300E0FEE5E95E5404600E1219F775E9FB9051
:1001D3006193E0A2E640F2EFF8EFA2E092AF7F0175
:1001E300020466C0E074F2120407A2AFE433FED245
:1001F300AF9061A5E0FFE5BF5F5404600675BFFBE8
:10020300121A39EEF8EEA2E092AF7F01020466C340
:10021300E498F8E499F91202538026C3E49AFAE4C5
:100223009BFBE920E7E9120253E498F8E499F922E9
:10023300C3E498F8E499F9120253E498F8E499F9BD
:10024300C3E49AFAE49BFB22EB20E7CFE920E7E043
:10025300B90010BB0008E88AF084F8AAF022E4FB96
:10026300C8FA22EB70227B10C833C8C933C9335094
:1002730007C39AC3DBF280069A50012ADBEAC8332C
:10028300F4C8C933F4C9FA2275F008E4C833C8C9FD
:1002930033C933C99AC99B5004C92AC93BD5F0EC69
:1002A300FBC833F4C8E4C9FA22080808EAC0E0EB43
:1002B300C0E086F0E7A4FA180986F0E7A42AFA1842
:1002C3000986F0E7A42AFA180986F0E7A42AFA199E
:1002D30086F0E7A4FBE5F02AFA190886F0E7A42BD9
:1002E300FBE5F03AFA190886F0E7A42BFBE5F03AB0
:1002F300FA18180986F0E7A4C5F02BFBE43AFA19BB
:1003030008E7C5F0C6A426F6E5F03BFBE43AFA1885
:1003130086F0E7A4F6E5F00826F6E43B08F6E43AAF
:1003230008F6D0E0FBD0E0FA22E4CFC0E0E4CEC090
:10033300E0E4CDC0E0E4CCC0E075F020E626F608AA
:10034300E633F608E633F608E633F6181818EC3306
:10035300FCED33FDEE33FEEF33FFC3EC9709ED976E
:1003630009EE9709EF97191919400FFFEC97FC094C
:10037300ED97FD09EE97FE191906D5F0BFECF709C5
:10038300EDF709EEF709EFF7191919D0E0FCD0E002
:10039300FDD0E0FED0E0FF222518C582C0E0E519BC
:1003A30034FFC583C0E0E518C3958224F810AF0875
:1003B3008583198582188008858319858218D2AFB1
:1003C300CEF0A3E520F0A37808E608F0A3DEFAEF69
:1003D300F0A3E58124FAF8E608F0A3E608F0A3E623
:1003E30008F0A30808E608F0A3E608F0A3158115B2
:1003F30081D0E0FED0E0F8158115811581E8C0E0D9
:10040300EEC0E022C0D02518C582C0E0E51934FF54
:10041300C583C0E0E518C3958224F310AF08858334
:10042300198582188008858319858218D2AFC8F090
:10043300A3E9F0A3EAF0A3EBF0A37908E709F0A39B
:10044300D8FAECF0A3EDF0A3EEF0A3EFF0A3D0E025
:10045300F0A3D0E0F0A3D0E0F0A3E520F0A3E5F013
:10046300F0A322851983851882E0C0E0A3E0F9A3F5
:10047300E0FAA3E0FBA37808E0F608A3DFFAE0FCC8
:10048300A3E0FDA3E0FEA3E0FFA3E0C0E0A3E0C080
:10049300E0A3E0F5D0A3E0F520A3E0A3F5F010AFCF
:1004A300088583198582188008858319858218D267
:1004B300AFD082D083D0E0F8D0E032120B6FB90016
:1004C300030204FDE490030178A6790F8002F0A3F0
:1004D300D8FCD9FA7AA67B1190008678A27901809C
:1004E30015E493A3AD82AE838A828B83F0A3AA82A1
:1004F300AB838D828E83D8E9D9E775823E75838974
:10050300740612087F7582D3758325740012087FE1
:100513000C75F0108E1A8F1B85821F85831E85181C
:1005230082851983E0CEA3E0CF851F82851E83EBEE
:10053300C9EAC8EDCBECCAC3E833C8E933C9EA3327
:10054300CAEB33CBC3EA9EF51DEB9FF51CB35004F6
:10055300AB1CAA1DEC33CCED33CDD5F0DAAE1AAF1C
:100563001B22D083D082ECC0E0EDC0E0E493A3FC77
:10057300E493A3FDED4C600D120685EC24FFFCED26
:1005830034FFFD80EFE493A3FCE493A3FDED4C6003
:100593000D120722EC24FFFCED34FFFD80EFD0E0C9
:1005A300FDD0E0FCE493A3C0E0E493C0E022C0E00C
:1005B30074F2120407E589A2E54006E589A2E45036
:1005C3000312170F9005B9E02401F0758900C2C525
:1005D3007F01020466C0E074F2120407E58BA2E017
:1005E300500312170F9005BAE02401F0758B00C277
:1005F300E87F01020466851983851882E0A3FEE083
:10060300A3F5207808E0A3F608DFFAE0A3FFE0A350
:10061300C0E0E0A3C0E0E0A3C0E0E0A3C0E0E0A34B
:10062300C0E010AF08858218858319800885821879
:10063300858319D2AFD083D082020885D083D0823C
:10064300E9C0E0E493A3C386F0C5F095F0F908E4AC
:1006530093A386F0C5F095F0700BE493A3C3994080
:1006630005E9048002A3E475F002A42582F582E57E
:10067300F03583F583D0E0F9E493A3C0E0E493C0BD
:10068300E022C0E0C3E49396087401939618400FE8
:10069300E49366700808740193661870007019A3D8
:1006A300A3C3E49396087401939618A3A3400DD0B3
:1006B300E0D0E0D0E00205A1A3A3A3A3A3A3D0E0CD
:1006C300227404800474028000CCC0E0EDC0E0E535
:1006D30018C39CCCAD1950011D10AF068C188D1991
:1006E30080068C188D19D2AF1207E3D0E0FDD0E05D
:1006F300FC2274028000CCC0E0EDC0E0E518C39C8E
:10070300CCAD1950011D10AF068C188D1980068CC5
:10071300188D19D2AF1207C1D0E0FDD0E0FC22C082
:10072300E0C0F088F0E493667008087401936618DB
:100733007000A8F0A3A3700BD0F0D0E0D0E0D0E01D
:100743000205A1A3A3D0F0D0E022D083D082CCC0F5
:10075300E0E493A360061208041470FAE493A36020
:10076300061209511470FAD0E0FCE493A3C0E0E44C
:1007730093C0E022C0E0C0D0E8C0E0E9C0E0A2AF8F
:10078300E433F8D2AFC2C7E8F9E8A2E092AFD0E011
:10079300F9D0E0F8D0D0D0E032C0E074F212040710
:1007A300A2AFE433FED2AFC2C0E5D1A2E45003123C
:1007B30017C3EEF8EEA2E092AF7F01020466CAC04F
:1007C300E0E493A3C582CCC582C583CDC583F0A3E2
:1007D300C582CCC582C583CDC583DAE5D0E0CA2204
:1007E300CAC0E0E0A3C582CCC582C583CDC583F072
:1007F300A3C582CCC582C583CDC583DAE6D0E0CA62
:1008030022C0E0E493A3D39C5010E493A3C39C4081
:100813000AD0E0D0E0D0E002076AA3A3A3D0E0228D
:10082300C008C3E096F50808A3E096420808A3E0D1
:1008330096420808A3E09645087001D3D0082270B9
:1008430009080808226016181818C6C333C608C654
:1008530033C608C633C608C633C6D5E0EA22C58206
:100863002518C582C583351910AF07F51985821878
:100873008007F519858218D2AFC58322C09FF59FE3
:10088300E473D09F22D083D082C09FE493C0E074EE
:100893000193C0E0740293F59F222518F58210AFEF
:1008A30008F518400C15198008F51840021519D2DF
:1008B300AF8519832200C0D0251810AF08F5185052
:1008C3000C05198008F51850020519D2AFD0D022B3
:1008D3007404800A74038006740280027401C0E009
:1008E300F40412089DD0E0120B3122BB0102E7226F
:1008F300C082C08389828A83BB0003E08002E493C1
:10090300D083D082226016080808C6C313C618C64F
:1009130013C618C613C618C613C6D5E0EA2225188F
:10092300F8E43519F9222518FAE43519FB222518BC
:10093300FCE43519FD22C3E0C696F608A3E0C6968B
:10094300F608A3E0C696F608A3E0C696F622C0E032
:10095300E493A36C7009D0E0D0E0D0E002076AA36F
:10096300A3D0E022251810AF08F518400C15198004
:1009730008F51840021519D2AF22E066701008A3DB
:10098300E066700A08A3E066700408A3E06622E745
:100993006670100809E766700A0809E766700408BC
:1009A30009E76622C3E09608A3E09608A3E0960849
:1009B300A3E096A2D265D03322C3E096F008A3E069
:1009C30096F008A3E096F008A3E096F022C3E6971A
:1009D300F60809E697F60809E697F60809E697F692
:1009E30022C3E493960874019396087402939608BD
:1009F3007403939622E627F60809E637F60809E614
:100A030037F60809E637F622E026F608A3E036F6BD
:100A130008A3E036F608A3E036F622700422600D40
:100A230018C6C333C608C633C6D5E0F41822E04659
:100A3300F008A3E046F008A3E046F008A3E046F080
:100A430022E657F60809E657F60809E657F60809B5
:100A5300E657F622E056F608A3E056F608A3E0565A
:100A6300F608A3E056F622E056F008A3E056F00895
:100A7300A3E056F008A3E056F022E026F008A3E036
:100A830036F008A3E036F008A3E036F022E647F696
:100A93000809E647F60809E647F60809E647F62295
:100AA300E4C396F608E496F608E496F608E496F6A8
:100AB30022600D08C6A2E713C618C613C6D5E0F315
:100AC30022C6F4C608C6F4C608C6F4C608C6F4C6E9
:100AD30022C3E7960809E7960809E7960809E79607
:100AE30022C3E09608A3E09608A3E09608A3E09645
:100AF3002275D00075813F75180175190300020432
:100B0300BE600C08C6C313C618C613C6D5E0F422CC
:100B1300E6F008A3E6F008A3E6F008A3E6F022E077
:100B2300F608A3E0F608A3E0F608A3E0F622CAC09D
:100B3300E0E6F0A308DAFAD0E0FA22C5822518C568
:100B430082C5833519C58322E8F0A3E9F0A3EAF04F
:100B5300A3EBF022E0F8A3E0F9A3E0FAA3E0FB2281
:100B6300E0FAA3E0FBA3E0FCA3E0FD22E5C754F811
:100B73004401F5C77901222518F582E43519F58377
:100B830022C2AF75D69F0200002212088838B20233
:100B9300120888BBB202120888D7B202120888D89A
:100BA300B30212088865B602120888BEB70212089B
:100BB3008851B802120888DBB80212088841B902CA
:100BC30012088880B902120888F6B9021208884B05
:100BD300BB02120888EEBB0212088806BC02120888
:100BE30088A9BC0212088833BF02120888D4C00245
:100BF300120888F2C002120888553100120888AF23
:100C03003100120888193200120888A23200120833
:100C1300885E3300120888ED33001208880634001A
:100C23001208882B3400120888693400120888B827
:100C33003400120888E134001208883035001208A5
:100C430088DC3500120888A43600120888093700AA
:100C5300120888D637001208881C38001208883812
:100C630038001208886A3800120888123A001208FD
:100C730088E93A00120888153B00120888493B00AE
:100C83001208886A3B00120888793B00120888849E
:100C93003B00120888383C00120888AB3C0012085D
:100CA300881D3D00120888253D00120888483E0033
:100CB3001208887B3E001208883D3F00120888EC2A
:100CC3003F0012088834400012088896400012083A
:100CD30088BB4000120888334100120888BB4100DA
:100CE3001208881F4200120888044300120888294A
:100CF30043001208884A44001208885D4400120821
:100D030088F144001208883B46001208884B4600CD
:100D13001208885A4700120888D34700120888151A
:100D23004800120888514800120888254A00120812
:100D3300888A4C001208889E4C00120888A84C0030
:100D4300120888B24C00120888BC4C00120888C6EE
:100D53004C00120888DF4C00120888E94C00120886
:100D630088F34C00120888FD4C00120888254D00BA
:100D7300120888304D001208887A4D0012088884C2
:100D83004D001208888F4D00120888B34D001208D9
:100D930088D74D00120888384E00120888834E0009
:100DA3001208889F4E00120888094F0012088855C0
:100DB3004F001208889D4F0012088818500012082F
:100DC30088B25000120888765200120888E4520054
:100DD3001208881654001208883C5400120888AC84
:100DE3005500120888605900120888605B001208D9
:100DF30088385D00120888D15D00120888E35F001F
:100E0300120888A56000120888F16000120888574C
:100E13006100120888696100120888B9630012082A
:100E230088E66400120888386500120888DD6500CA
:100E3300120888986700120888C96800120888E7B2
:100E430068001208883C69001208883A6A00120890
:100E530088626A00120888C56A00120888C66B0097
:100E6300120888396C00120888676D00120888D24E
:100E73006D00120888C26E001208882871001208DB
:100E830088567100120888517200120888EF7300A7
:100E93001208883F7400120888F77400120888AC9F
:100EA3007500120888107600120888C976001208A7
:100EB30088697700120888CD7700120888177800B0
:100EC300120888547800120888BC7900120888BD7B
:100ED3008201120888F58201120888CE8501120862
:100EE30088148601120888318701120888968701C1
:100EF300120888E78801120888D88B01120888F73E
:100F03008C01120888CC97011208886D9801120889
:100F130088609B01120888609C01120888E89C0184
:100F2300120888389E011208881F9F0112088888BA
:100F3300A10112088896A30112088823A4011208AC
:100F430088FFA40112088828A501120888D5A501E5
:100F5300120888C0A60112088898A701120888F809
:100F6300A70112088821A8011208884EA8011208B7
:100F7300889FAA011208887AAB01120888BEAB01C8
:100F83001208882FAC01120888E8AC011208881AED
:100F9300AD0112088861AD0112088894AD011208F1
:100FA30088F9AD0112088848AE011208884DAE01D8
:100FB300120888A1AE01120888EBAE01120888E777
:100FC300AF011208884CB001120888B3B0011208AF
:100FD30088D8B301120888ACB40112088816B60188
:100FE300120888F0B80112088898B901120888BF5E
:100FF300BB0112088864BC01120888A2BC01120854
:10100300887BBE011208888EBE0112088897BE0134
:10101300120888A0BE01120888B5BE01120888D440
:10102300BE01120888B3C0011208881DC10112084D
:10103300886CC201120888B5C20112088895C301E1
:10104300120888C0C40112088876C501120888787E
:10105300C6011208887AC70112088860C8011208FD
:101063008877C801120888B4C801120888BEC8016D
:10107300120888C9C801120888E7C801120888291C
:10108300C90112088887C901120888ACC90112086E
:1010930088C6C90112088853CA011208888CCA017C
:1010A300120888DACB011208882CCC011208884672
:1010B300CD011208886DCD0112088809CE011208EE
:1010C3008885CE01120888D1CF01120888ECD0019F
:1010D300120888B2D1011208885CD201120888E193
:1010E300D20112088849D301120888FED3011208DD
:1010F3008850D401120888B6D4011208887FD5011C
:10110300120888A2D5011208885AD6011208887ECF
:10111300D601120888A0D60112088801D701120847
:10112300884CD90112088827DA01120888D1DA011C
:1011330012088812DD0112088860DD01120888A3F5
:10114300DD01120888FBDD0112088859DE0112084F
:101153008883DE01120888A7DE01120888D8DE0121
:1011630012088802DF0112088849DF011208889DEE
:10117300DF01120888F9DF01120888FAE00112087A
:101183008864E201120888A2E201120888CBE20116
:101193001208885CE301120888A6E301120888CAD2
:1011A300E3011208881DE40112088838E4011208DB
:1011B30088F3E4011208881DE50112088860E5013F
:1011C300120888B6E501120888C2E801120888F5FA
:1011D300E801120888B2E9011208888DEA011208B1
:1011E300881DEB011208885EEB0112088875B105B2
:1011F300120888ADB105120888CEB105120888100F
:10120300B20512088874B2051208887EB205120866
:10121300888EB205120888C5B2051208886EB60515
:1012230012088836B8051208882ABA05120888C831
:10123300BA051208884FBB0512088878C102120844
:101243008821C20212088800C3021208881BC40244
:101253001208883BC4021208885DC502120888FA86
:10126300C60212088867C7021208883DC80212081E
:101273008843C902120888A8C902120888E4C9026F
:101283001208883DCA0212088876CA02120888BF6B
:10129300CA0212088851CB02120888EECB02120848
:1012A30088C3CC0212088890CD021208881DCE0292
:1012B30012088843CE0212088870CE02120888A151
:1012C300CE0212088876CF0212088886CF0212084F
:1012D30088D9CF02120888E6CF02120888F3CF021A
:1012E300120888FCCF0212088860D002120888BE58
:1012F300D00212088809D10212088824D1021208E8
:10130300884BD10212088868D10212088874D1026E
:1013130012088818D30212088831D302120888AD44
:10132300D302120888C0D302120888D0D30212084D
:101333008876D402120888E6D502120888F9D60204
:1013430012088899D702120888A3D70212088811B5
:10135300D80212088822D80212088861D80212081B
:10136300888FD8021208885CD902120888B3D90280
:10137300120888F8D9021208884EDA021208886C1B
:10138300DA02120888BADA0212088888DB02120825
:1013930088D6DB0212088818DC021208889BDC025C
:1013A300120888C5DC02120888FBDC021208880ACE
:1013B300DD0212088868DD02120888E0DD021208E7
:1013C3008821DE0212088870DE021208889BDE0282
:1013D300120888B5DE02120888CFDE02120888A43C
:1013E300DF02120888AEDF02120888E9DF02120862
:1013F30088F9DF021208884AE0021208885EE002D8
:101403001208887CE10212088891E1021208882BF5
:10141300E202120888AAE2021208884DE3021208C7
:101423008858E302120888A5E402120888C1E4027E
:1014330012088819E50212088887E502120888D382
:10144300E502120888EDE5021208884DE60212084B
:1014530088EBE60212088836E70212088899E90247
:1014630012088831EA02120888A8EA02120888EEF4
:10147300EC0212088806ED0212088809ED02120830
:101483008815ED0212088829ED0212088831ED0251
:1014930012088868ED021208885CEE02120888E6DA
:1014A300EE0212088868EF02120888DDEF021208C4
:1014B30088B5F002120888D7F0021208886EF1028C
:1014C3001208887AF102120888D7F102120888DA22
:1014D300F10212088849F20212088895F3021208F1
:1014E30088A8F40212088833F50212088846F60227
:1014F30012088810F70212088841F7021208886759
:10150300F70212088870F7021208889FF702120880
:10151300884FF802120888FFF80212088872F9024D
:1015230012088824FA0212088897FA02120888D649
:10153300FA021208881FFB0212088883E1041208CA
:101543008827E20412088876E204120888F5E20488
:101553001208889FE304120888B7E604120888700B
:10156300E9041208889AED04120888D2ED041208DF
:101573008800EE0412088892EE04120888E6EE044E
:1015830012088819EF0412088842EF0412088890A1
:10159300EF0412088815F0041208888CCD04120891
:1015A3008814CE041208887ECE04120888F2CE0472
:1015B300120888C4D104120888E7D10412088840AD
:1015C300D20412088832D3041208889CD304120868
:1015D3008853D504120888AED60412088820D7048D
:1015E30012088899D70412088870D804120888CA88
:1015F300D80412088814D90412088818DB041208C6
:101603008842DC041208886BDD041208887ADE0441
:10161300120888EBDE041208884BDF04120888885E
:10162300DF0412088826E004120888F5E004120893
:10163300881FEC0112088802ED01120888DFEF0110
:101643001208888AF101120888C8F2011208882E4C
:10165300F401120888ACF40112088891F50112080C
:101663008849F60112088885F601120888A8F60150
:10167300120888CBF60112088856F701120888026F
:10168300F80112088813FA0112088894FA01120863
:101693008806FC011208884BFD0112088852FE01DE
:1016A300120888A29C06120888B39C061208888731
:1016B3009D06120888AE9406120888BC9406120888
:1016C30088A9A106120888949E06120888A49E067B
:1016D300120888C49E06120888649F06120888F6BA
:1016E300FC031208889EFD03120888E0FF0312081A
:1016F30088D29206120888FF92061208887E930603
:10170300120888939306120888F7930612088866CE
:10171300940612088829D40512088836D4051208BD
:101723008881D405120888A6D405120888D6D40562
:101733001208880CD50512088835D5051208886368
:10174300D5051208886AD60512088800D80512083C
:10175300883BD9051208886DD90512088813DA0564
:1017630012088865DA0512088889DA0512088839AB
:10177300DB0512088854FB021208886DFB0212086D
:101783008803FC0212088801FD0212088861FF0227
:10179300120888C9A006120888E3A6051208883330
:1017A300A7051208882FAA0512088804AB0512089A
:1017B30088FEAB051208888CAD05120888E4AF05D6
:1017C30012088882B005120888D2B005120888E092
:1017D300B005120888FDB00512088826B105120865
:1017E300884FB1051208885DB10512088805A40267
:1017F3001208883AC505120888CDC605120888382C
:10180300C70512088864C7051208887DC705120832
:10181300889BC70512088892C805120888F2C90573
:10182300120888D2CA0512088813CC0512088851F9
:10183300CC051208887CCC05120888A7CC051208B1
:1018430088D2CC051208883698061208885F980655
:10185300120888739806120888EFB10212088808E4
:101863009906120888539906120888B69906120831
:1018730088B99906120888C79906120888D8990664
:101883001208880080061208883A8006120888A287
:101893008006120888D080061208881D8106120867
:1018A300885B8106120888968106120888C0810623
:1018B300120888E68106120888498206120888778A
:1018C30082061208880D83061208882583061208EB
:1018D300883A830612088811A1061208882EA106E9
:1018E30012088852A1061208882F7A00120888C3AA
:1018F3007B00120888D17B00120888F17B00120854
:10190300881A7C00120888777C00120888D37C0030
:10191300120888687D00120888ED7D001208887E11
:101923007E00120888707F00120888847F001208E6
:1019330088977F00120888B97F00120888729F0673
:10194300120888A39F06120888D49F0612088801EC
:10195300A00612088852F805120888C1F805120873
:1019630088ECF8051208888FF90512088897F405A2
:10197300120888BAF405120888CCF405120888DA2C
:10198300F40512088803F5051208881FF5051208E7
:10199300883BF50512088856F50512088817F605E1
:1019A30012088894F605120888CBF60512088820D9
:1019B300F70512088875F705120888A3F7051208BA
:1019C30088B1F705120888CBF7051208883FF80598
:1019D30012088865FF051208889E9A05120888E791
:1019E3009A05120888139B051208882C9B05120878
:1019F300884C9B05120888B69B05120888F09B0546
:101A03001208884FA1051208881EA30512088864CE
:101A1300A305120888D1A3051208887FA50512081B
:101A230088AFA505120888C9A505120888DDA50594
:101A330012088831A60512088894A605120888A9F9
:101A4300A605120888E99906120888009A06120862
:101A530088299A061208884F9A061208887C9A06E3
:101A6300120888AC9A06120888CD9A0612088804D0
:101A73009B061208882C9B061208887EA006120873
:101A8300880DEC0512088824EC0512088896ED05EC
:101A9300120888CBED05120888F3ED05120888209B
:101AA300EE0512088839EE051208887AEE05120849
:101AB30088F8EE0512088844EF0512088898EF05A8
:101AC300120888CFEF0512088801F005120888CEA6
:101AD3009006120888F1900612088875910612087C
:101AE30088B592061208886E9B061208886F8E06C8
:101AF3001208887F900612088847B5041208889157
:101B0300B704120888C5B70412088808B804120875
:101B13008820B8041208889AB804120888C6B80442
:101B2300120888E5BA0412088866BC04120888788B
:101B3300BD0412088806BE0412088884BE04120875
:101B4300884ABF04120888E3BF041208882DC00422
:101B5300120888FBC004120888FFC104120888A079
:101B6300C204120888BCC40412088801C6041208FF
:101B7300885CC6041208885FC6041208888EC604EF
:101B830012088891C60412088860C7041208882FB7
:101B9300C804120888FEC804120888D2C9041208AF
:101BA30088A6CA041208887ACB04120888A5CB0435
:101BB300120888D0CB04120888A3CC0412088877B3
:101BC300CD04120888FF8B06120888228C0612089F
:101BD300881E8D06120888CA8D06120888058E068F
:101BE300120888F2FB0512088870FC051208888029
:101BF300FC05120888AAFC05120888C39B04120876
:101C030088C69B041208884B9D04120888BB9D0458
:101C1300120888459E04120888F99E04120888ADAC
:101C23009F0412088871A00412088825A1041208D1
:101C33008832A304120888E6A3041208889AA4042D
:101C430012088829A50412088828A6041208889770
:101C5300A6041208882FA7041208885CA904120896
:101C630088B2AA0412088808AC0412088862AD047A
:101C73001208888AAE04120888E2AE041208887536
:101C8300AF0412088850B00412088882B004120806
:101C930088B0B30412088851B404120888CCB40481
:101CA300120888BFEC0312088869ED0312088890B4
:101CB300ED031208884FEF031208886DF003120832
:101CC3008841F103120888DBF20312088832F30318
:101CD30012088846F303120888C2F303120888F92E
:101CE300F5031208883AF60312088811F70312085D
:101CF30088BDF7031208885EF803120888A2F80368
:101D0300120888BAF803120888F9F80312088869D8
:101D1300F903120888A4F903120888AEFA0312081B
:101D230088FBFA0312088862FC031208887FFC030D
:101D3300120888728306120888958306120888B8E9
:101D43008406120888E88506120888789606120821
:101D530088A19606120888C09606120888E096069F
:101D63001208883E97061208886497061208882589
:101D7300980612088833980612088800800512080E
:101D83008815800512088871800512088819810555
:101D93001208884281051208886781051208888B1A
:101DA3008205120888998505120888A785051208F7
:101DB3008809860512088847860512088862860501
:101DC300120888FD8605120888A68705120888F977
:101DD30087051208887C8805120888EC8805120894
:101DE30088258905120888B08905120888428A0562
:101DF300120888998A05120888F78A051208880943
:101E03008B051208881B8B05120888418B05120865
:101E1300884A8B051208889B8C05120888338D0528
:101E2300120888FDCC0512088875CE051208882093
:101E3300CF0512088848CF0512088859CF05120824
:101E4300885CD2051208887CD20512088863FF04D7
:101E5300120888648606120888A98606120888F67E
:101E63008606120888BF88061208880080041208B4
:101E730088C081041208880F8204120888868404AB
:101E8300120888EB8404120888EC8704120888522D
:101E93008804120888868A04120888708B04120842
:101EA30088D38B04120888638C04120888098D0474
:101EB300120888628D04120888C18D0412088820D4
:101EC3008E04120888EC8F04120888A99104120862
:101ED300887F9404120888C1940412088823950407
:101EE300120888359504120888AA95041208885C9C
:101EF3009604120888859A041208884A9B041208DB
:101F03008855A10612088870A10612088879E10590
:101F130012088899E1051208889FE205120888EBE8
:101F2300E2051208880BE3051208885EE305120830
:101F330088CBE30512088811E40512088875E405C7
:101F430012088821E705120888A48D05120888B1B4
:101F53008E05120888818F05120888C7910512081B
:101F6300885D9205120888AC9205120888DC9205F8
:101F7300120888209305120888009405120888EE39
:101F8300940512088803950512088893950512088D
:101F930088529705120888869905120888FA9905C8
:101FA3001208882E9A0512088889FE0112088829CA
:101FB300FF011208888DFF01120888D0FF01120863
:101FC300885CCE03120888C9CE031208887CCF032D
:101FD300120888DCD0031208881DD203120888E790
:101FE300D2031208884DD303120888CAD3031208F8
:101FF3008838D4031208883BD403120888B7D40363
:10200300120888D8D4031208885ED503120888AA58
:10201300D60312088810D7031208883CD703120886
:102023008897D703120888D7D703120888FCD703E9
:1020330012088853D80312088898D803120888CF47
:10204300D80312088817D9031208882FD903120856
:10205300880DDA031208882EDA031208888EDA0351
:10206300120888F2DA031208884EDB0312088895F7
:10207300DB03120888DBDE0312088822DF03120861
:102083008872E003120888B1E0031208884EE10366
:102093001208885AE203120888B9E2031208883C3E
:1020A300E30312088846E40312088877E40312085E
:1020B3008885E403120888A4E403120888A7E403CC
:1020C30012088836E50312088877E5031208889713
:1020D300E503120888CEE50312088816E603120802
:1020E3008819E60312088823E60312088882E603A8
:1020F300120888C2E60312088803E7031208884619
:10210300E7031208886DE703120888CFE703120874
:102113008849E80312088887EA03120888A19D0604
:10212300120888B29D06120888359E06120888F2A6
:102133007F00120888FBBB0512088854BC051208EF
:10214300888ABD05120888CBBD05120888FEBF0525
:1021530012088847C0051208889DC0051208881A0E
:10216300C1051208886DC205120888B3C305120899
:1021730088D8C3051208883DC405120888C5C4055C
:102183001208880080031208882380031208883409
:1021930080031208880A81031208888D81031208BC
:1021A30088168203120888F2820312088884830344
:1021B300120888388403120888EC8403120888DB29
:1021C3008503120888A2860312088807870312086A
:1021D30088CD8D03120888A99003120888F2900312
:1021E3001208887D9103120888F29203120888F579
:1021F3009203120888EB9303120888689503120868
:1022030088AF97031208886E9C03120888CF9D033A
:10221300120888D09F0312088848A4031208885D17
:10222300A403120888ECA60312088800A803120866
:10223300889FA90312088870AA03120888D5AA03E5
:1022430012088858AB0312088857AC031208883267
:10225300AD03120888DAAD0312088836AE031208FC
:1022630088F7AE03120888A9AF031208882CB203BB
:102273001208889CB2031208888CB30312088823BF
:10228300B403120888CEB4031208887AB50312087F
:1022930088A3B903120888F4BB03120888FABC03A5
:1022A30012088895C003120888ABC10312088898E6
:1022B300C20312088848C303120888F0C303120834
:1022C3008881C60312088823C803120888C9C90372
:1022D30012088890CA031208883DCB03120888A10C
:1022E300CC0312088878F00412088805F104120858
:1022F300887AF104120888D3F10412088877F2046B
:10230300120888C6F20412088850F304120888A041
:10231300F404120888DAF40412088812F604120886
:102323008827F6041208884EF6041208889AF704E0
:10233300120888C7F704120888E1F704120888FD19
:10234300F70412088818F80412088829F8041208F8
:102353008835F904120888D8F904120888DDF904CD
:1023630012088877FB041208888BFC041208886A19
:10237300FD04120888F1FD041208880AFE041208FD
:10238300885BF005120888D9F00512088818F10552
:10239300120888FAF10512088868F2051208880104
:1023A300F30512088804F40512088832E7051208B9
:1023B3008854E705120888B1E705120888DFE705A6
:1023C30012088814E8051208883AE8051208885E9E
:1023D300E80512088884E80512088897E9051208B9
:1023E30088E3E905120888FAE90512088822EB0553
:1023F30012088832EB051208884FEB051208886C27
:10240300EB051208887FEB051208883CDB051208F0
:1024130088E5E005120888F3E005120888F8E0056E
:10242300120888C48906120888DC890612088824E1
:102433008B06120888EB8B0612088832A006120856
:1024430088D4FF05120888C1FF0212088880A106FC
:10245300120888C8A106120888ACA30212088833A0
:10246300A30212088809A30212088851A2021208C3
:102473008884A00212088854A00212088818A002B7
:1024830012088804A002120888459F021208889245
:102493009E02120888419C02120888169C021208A8
:1024A30088B79B02120888289A02120888B69902F4
:1024B300120888939902120888D798021208887A1A
:1024C30097021208883197021208880B97021208A4
:1024D3008847960212088891940212088831940260
:1024E300120888029402120888FF9302120888A82F
:1024F300B102120888F2B00212088866B00212080C
:102503008857B00212088844AD0212088891AA02C3
:10251300120888EA9302120888AA93021208889183
:1025230093021208889B920212088858A902120883
:10253300885A9202120888E79102120888B491021D
:102543001208885991021208882891021208887982
:10255300A802120888F18D02120888A5A6021208A3
:1025630088BD9806120888038D02120888BD8B0265
:10257300120888698B021208885D8B02120888C4CE
:102583008A02120888928902120888ED86021208CC
:1025930088908402120888448402120888298302DE
:1025A300120888BE8202120888E88102120888A4F1
:1025B30081021208886B800212088866A40212083E
:1025C3008832800212088800800212088800C5053C
:1025D30000000080FBE47300000000000000000026
:1025E30000000000000000000000F80000000000F0
:1025F3000000333000000000100C06100C06000031
:102603000000000000000040C07840C07840000493
:102613003F04043F040400007088FC0830000000FD
:102623001820FF211E0000F008F000E01800000051
:10263300211C031E211E0000F00888700000001EEC
:102643002123241927211010160E0000000000007A
:1026530000000000000000000000E0180402000079
:102663000000071820400000020418E000000000EA
:1026730040201807000000404080F08040400002E6
:1026830002010F01020200000000F000000000013F
:1026930001011F0101010000000000000000008093
:1026A300B070000000000000000000000000000007
:1026B3000101010101010100000000000000000010
:1026C30030300000000000000000008060180400AB
:1026D3006018060100000000E010080810E0000088
:1026E3000F102020100F00001010F8000000000051
:1026F30020203F2020000000700808088870000098
:102703003028242221300000300888884830000017
:1027130018202020110E000000C02010F800000037
:10272300070424243F240000F808888808080000D0
:1027330019212020110E0000E010888818000000E5
:102743000F112020110E0000380808C838080000B7
:1027530000003F0000000000708808088870000037
:102763001C222121221C0000E010080810E00000B8
:1027730000312222110F00000000C0C00000000041
:102783000000303000000000000080000000000066
:10279300008060000000000000804020100800005E
:1027A3000102040810200040404040404040000423
:1027B3000404040404040000081020408000000006
:1027C30020100804020100007048080808F0000007
:1027D30000003036010000C030C828E810E00007D0
:1027E30018272423140B000000C038E00000002049
:1027F3003C23020227382008F888888870000020CC
:102803003F202020110E00C03008080808380007B8
:102813001820202010080008F808080810E00020FD
:102823003F202020100F0008F88888E808100020B7
:102833003F20202320180008F88888E8081000208B
:102843003F200003000000C03008080838000007DC
:10285300182020221E020008F808000008F80820AB
:102863003F210101213F20000808F808080000006B
:1028730020203F2020000000000808F8080800C0BE
:102883008080807F00000008F888C0281808002096
:102893003F20012638200008F8080000000000202F
:1028A3003F20202020300008F8F800F8F808002026
:1028B3003F003F003F200008F830C00008F8082020
:1028C3003F200007183F00E01008080810E0000F41
:1028D30010202020100F0008F808080808F0002036
:1028E3003F210101010000E01008080810E0000F7B
:1028F30018242438504F0008F888888888700020EE
:102903003F2000030C3020007088080808380000BE
:1029130038202121221C00180808F8080818000094
:1029230000203F2000000008F808000008F8080015
:102933001F202020201F000878880000C8380800C6
:102943000007380E010000F80800F80008F800033B
:102953003C0700073C0300081868808068180820BB
:10296300302C03032C30200838C800C83808000076
:1029730000203F2000000010080808C83808002085
:1029830038262120201800000000FE020202000069
:1029930000007F40404000000C30C00000000000F9
:1029A3000000010638C00000020202FE0000000021
:1029B3004040407F000000000004020202040000C7
:1029C3000000000000000000000000000000008084
:1029D300808080808080800002020400000000006C
:1029E30000000000000000000080808080000000E4
:1029F30019242222223F2008F800808000000000D2
:102A03003F112020110E0000000080808000000094
:102A13000E112020201100000000808088F80000A3
:102A23000E112020103F20000080808080000000D5
:102A33001F222222221300008080F0888888180039
:102A430020203F2020000000008080808080000044
:102A53006B94949493600008F800808080000020B9
:102A63003F210000203F20008098980000000000D4
:102A730020203F20200000000000809898000000E4
:102A8300C08080807F000008F800008080800020E4
:102A93003F24022D302000000808F8000000000049
:102AA30020203F20200000808080808080800020C4
:102AB3003F20003F20003F80800080808000002076
:102AC3003F210000203F2000008080808000000024
:102AD3001F202020201F00808000808000000080B5
:102AE300FFA12020110E00000000808080800000E4
:102AF3000E112020A0FF8080808000808080002035
:102B0300203F2120000100000080808080800000A1
:102B130033242424241900008080E08080000000F6
:102B230000001F2020000080800000008080000043
:102B33001F202020103F20808080000080808000A4
:102B4300010E300806010080800080008080800F25
:102B5300300C030C300F0000808000808080000068
:102B630020312E0E31200080808000008080808004
:102B7300818E7018060100008080808080800000B4
:102B830021302C2221300000000000807C02020052
:102B9300000000003F404000000000FF0000000074
:102BA300000000FF0000000002027C800000000023
:102BB30040403F000000000006010102020404003F
:102BC30000000000000000870001009C11240002A7
:102BD3000015122500020017122600020019122701
:102BE3000002001B12280001001D12290001001E13
:102BF300128600010023122A00010024122B000177
:102C03000025122C00010029122D00080084112E2A
:102C13000001002A122F0001002B12300001002CAA
:102C230012310001002D12320001008C113300011A
:102C3300008D11340001002E12360001008E113870
:102C43000001002F123900010028126300010099CE
:102C5300116400010026126500010027126D0001B6
:102C6300009A11710008007C1166000100401243B4
:102C73000001003112440002003212450001003409
:102C83001246000200351247000800911148000166
:102C93000037124B0001003812040001004312A157
:102CA300000100461237000100451288000100446C
:102CB300123C0001008F113D000100301249000257
:102CC300003912670001009B114D0002003B124EB8
:102CD3000001003D124F0002003E123E0001009031
:102CE3001104040600671000000000000000013614
:102CF3003601010001020100010301000104010684
:102D03000605020000070100340801000F09040151
:102D1300010D0100FF0E0800001702000019010059
:102D2300FF1A0100011B0100FE1C0100081D020027
:102D3300001F010001200100012102000023010006
:102D43000F240200002601000127010008280200C9
:102D5300FF2A0100072B0102402C0100002D010076
:102D6300012E0100012F0100FF30010B1C3108006F
:102D7300003A0100083B01000F3C0100013D010046
:102D8300FF3E04000042040000460400004A040021
:102D9300004E04000052040000560400005A0400D0
:102DA300005E20FFFF36000100060000000F000058
:102DB300000000000000000000000003FFFF00000F
:102DC3000403FFFF0000FFFF0FF4010005C4040329
:102DD30020000100000B00000000000000000301C0
:102DE3000F000000000000000000000000000000D1
:102DF30000000000000000000000000000000000D0
:102E030000000000000000000000000000000000BF
:102E130000000000000000000000000000000000AF
:102E23000000000103710301030103010301030116
:102E33000322030203010310030003000300030042
:102E430003000300030003420300032403060300FB
:102E530003000304031203250323032503230304AD
:102E630003040300030003000344030003000323DC
:102E730003000365032100350381030003050300F9
:102E83000300030003000325032303010171010170
:102E93000101011101010131010101010180011051
:102EA3000161013B0014006301730172016201437C
:102EB300010001130106013D013500040112010067
:102EC3000100010001000104010401330133013C4D
:102ED30001440132013600000100016501000135A2
:102EE30000810100010501820183010001030271D8
:102EF300023001600211027002010202020202802A
:102F030002100261023A004100630273027202621C
:102F130002430200021302380000020002040212FC
:102F2300020002000200020002040204023700371A
:102F3300003C024402000239000002000265020064
:102F430002350281020002050282028302000203AB
:102F530004710402046004110470040204020401F5
:102F6300040204100461040004140463047304726F
:102F7300046204430400041304060400040004046C
:102F8300041204000400040004000451046400005B
:102F93000400040004440400040004000400046565
:102FA3000400043504810464000504000483040060
:102FB3000403007100300160001100700031022031
:102FC30003500480001000610000001400630073CC
:102FD30000720062004300000013000600000000BE
:102FE30000040012000000000000000000040004C0
:102FF30000370037003C02440000000000000000DE
:10300300006500000035008100000005000000831A
:1030130000000000008B221300FB2101008B220221
:1030230000AD210300B3210400B9210500BF21062F
:1030330000CB211100EF211400F5211500DD211F24
:1030430000E321FFFF0000010B0F063B0F08350FC4
:103053000B470F10810E02110F05290F07170F0CD5
:10306300F30E0DFF0E64C50CFF000007ECFDFDFD24
:10307300ECDCDCCCBCACAC9C9C8C7C7C6C6C5C5C7D
:103083005C4C4C3C3C2C2C1C1C03EAF5E5D5D5C50B
:10309300B5A595958585757565655555454535354D
:1030A300252515150500160F00000B150B02000250
:1030B300220F3300000E5A6967426565416C6C69E3
:1030C300616E6365303901030507090B0D0F0002BB
:1030D3000406080A0C0D303017181921301B1D1F68
:1030E3003000034A49434E181A25050200011916F8
:1030F300181616182303000C0E020B040B0A0708FC
:10310300000F00393D3F373C3C362C442D30301600
:10311300181920231A1C1E3002040201010101099F
:1031230002E803000000BE040A0E00000000003C99
:10313300007F00E8033C000A0303081000030005B6
:10314300FF1E1E0C05280901040409101504000CB8
:103153000808C082C0837900EA12335A3BF583C062
:1031630082C08390034212775FD083D082C3E09CF6
:10317300A3E09D500CEA240B1231A71231876001A2
:103183000902480EEA75F00BA4FAA8F075F00BEBF0
:10319300A428FB900344E02AF8A3E03B8882F5834C
:1031A300E0540F22F582E43B1259582274F71203BC
:1031B3009B8908124FF1A3E0F9E875F00BA4F8AC72
:1031C300F075F00BE9A42C1233D5E8FEE9FF740186
:1031D300650860067402650870228A828B83123741
:1031E30001740265087021EA2403FA50010B120CE2
:1031F3001DE970148E828F83E4F0800CEA2403FCB3
:10320300E43B1236F8120C178E828F83E0D2E7F07C
:103213001220B7024C9974F412039B1237BB790046
:103223008E828F83E06075890A890B8064E50A7555
:10323300F00BA4FAA8F075F00BE50B12319370496B
:10324300E50A75F00BA4F8AAF075F00BE50B123341
:10325300B68E828F83E08508828509831247C21266
:103263003678EE2403FCE43F12334D120C17124E52
:103273002C1263891241B2D2E7F01220B779019080
:103283000342E0F50AA3E0F50B050AE50A7002051F
:103293000B1235D4E50A9AE50B9B40910252DF7479
:1032A300F512039BEAFEEBFF750A01740B120B7A0E
:1032B300123DA5EC4D6015EC12335A3D1237C97916
:1032C30001120BFFE508450960758023E5084509F0
:1032D300604412335835091237C912334E120C1D8C
:1032E300E96401701BEEFAEFFB120C05E9F50A85A0
:1032F30008828509831236707902AA08AB09801106
:103303001236F9120C1DE9640170347903EEFAEFF9
:10331300FB120BFF80298E828F83A3E064FE700370
:10332300A3E0F4700B1236F9120C1DE96401700C62
:10333300EEFAEFFB120C05E9F50A8003750A0002A9
:103343003C31E50A2403FCE4350BFDE5082403FACC
:10335300E43509FB22E50812678E2274F712039BFA
:10336300900342124F49EA4B602FEA75F00BA4FA1F
:10337300A8F075F00BEBA428FBEAFEEBFF121E5F2F
:10338300900344124F499003441259436012EEFCD8
:10339300EFFD7900121D8D8007900344E4F0A3F044
:1033A300024C99F9023B44E875F00BA4F8AAF075B6
:1033B300F00BE9A42AF9900344E028F508A3E039C7
:1033C300F50922F9E875F00BA4F8AAF075F00BE9FA
:1033D300A42AF9900344E028F8A3E039F9229003E2
:1033E30042124C80C3EE98EF9922C082C083EC4D09
:1033F3006005121FBB80097C087D007900121D8DBA
:1034030002480E74F612039B7900EA4B60177800AA
:10341300EA28F582E41260A060047901780808E8DC
:10342300C3940840EB023B4474F712039B74F312FA
:103433000967ECFEEDFF851882851983E4F0041219
:103443000B7AEAF0A3EB124C72120C3B7403120BCF
:103453007AAC82AD83EEFAEFFB120C17EEFAEFFBB8
:10346300120C1D024C9474F712039B74F312096738
:10347300ECFEEDFF851882851983E4F0EAFCEBFD91
:103483007403120B7AAA82AB83120C17AA18AB1916
:10349300120C417401120B7A1247CF8E828F831262
:1034A3004C6374FE68700374FF69600479018002E1
:1034B3007900024C9474F712039BEAFEEBFF120BA4
:1034C300F9E9F508740165087011123521F4FA88D9
:1034D300828983E05A4480F01220B702412774F7AF
:1034E30012039BEAFEEBFF7508008E828F83E06078
:1034F3002A120BF9E9F50874016508701E123521CB
:10350300FA88828983E05A70128E828F83E0448026
:10351300FA88828983E04AF01220B7024127124ECB
:10352300301242FF1233C68E828F83E02274F4126C
:10353300039B8A088B097C007D00EA123350120C2E
:1035430017E5081236927900850882850983A3E07E
:1035530064FE7003A3E0F460757E007F008066EE76
:10356300FAEFFB1231876058EEFAEFFBEA75F00BC6
:10357300A4FAA8F075F00BEBA428FB900344E02A0F
:10358300F50AA3E03BF50B850882850983A3126046
:103593007B850A82850B83A3E06A7003A3E06B70CB
:1035A3001FE50A2403FAE4350BFB120C1DE9640141
:1035B3007006123345120C17123687790112759370
:1035C3000EEE70010F1235D4EE9AEF9B409102522A
:1035D300DF90034212595AC32274F312039B8A08E1
:1035E3008B098A828B83123670EA123692750C002D
:1035F300EA123350120C1DE96401706A7E007F00E9
:10360300805FEEF8EFF9E875F00BA4F8AAF075F017
:103613000BE9A42AF9900344127605E0540F603CA9
:10362300EEF8EFF9E875F00BA4F8AAF075F00BE9E2
:10363300A42AF9900344E028F50AA3E039F50B1214
:103643003345121FB5E964017012850A82850B8325
:10365300123678123687750C011275930EEE7001CF
:103663000F1233E1409CA90C7F050205F9A374FEF8
:10367300F0A304F022A3124C80850882850983A35A
:103683001244EB22E50812369CEEF0A3EFF022126F
:10369300369C74FEF0A304F0221267923509F58379
:1036A3002274F512039BEAFEEBFF8E828F831236A0
:1036B300707C007D001236F9120C17EEFAEFFB1244
:1036C3000BF9E9F50A7401650A7027124C79123374
:1036D300AA850882F58312370112334E120C1DE9B5
:1036E3006401700EE5082403FCE435091236F81270
:1036F3000C17023C31FDEE2403FAE43FFB22A31234
:1037030060851244EB2274F212039B74E61209677C
:103713001237BB750C01750800750900750A007531
:103723000B00851882851983E4F0EE2403FCE43F43
:10373300FD7403120B7AAA82AB83120C17AA18AB7F
:1037430019120C41E96401701F740B120B7A1237C2
:10375300CB7401120B7A12607F7003A3E069604A95
:10376300A818A91988088909740D120B7A1247C180
:10377300A31247CF740E120B7A124C63740D120905
:1037830029120C3BE964017009740D120921880A9E
:10379300890B780A1208DBAC08AD09EEFAEFFB12CD
:1037A3000C0B74021208B8E9F50CEEFAEFFB120CDD
:1037B30035A90C741A025FDBEAFEEBFF124E30747C
:1037C300FEF0A304F022F5831242FFF9124E3012E9
:1037D30044EB22C082C08378007900800508E8703A
:1037E30001091235D4E89AE99B5029E8FAE9FBEA82
:1037F30075F00BA4FAACF075F00BEBA42CFB900363
:1038030044E02AFCA3E03B8C82F583E0540F70CDA7
:1038130079008002790102480EC082C08390314F43
:10382300E49375F016A4FCADF079FF7A657B0A1278
:103833001D8D02480E74F612039BEAF87508007D8D
:10384300008012ED126092C3994009E0FAE8C39A2E
:10385300400205080D90314FE493FAEDC39A40E31B
:10386300AA087B00023B4474F012039B74F3120911
:10387300678A0C8B0D8C088D09890AEC4509601643
:10388300AA08AB09120C898A0E8B0FAE0EAF0FEE8E
:103893004F600302395D7B0080010B12637F500F81
:1038A300123A0570F5746528FE740A39FF80047EA8
:1038B300007F00EE4F70030239B19031301239D8D6
:1038C30060217403650A60067404650A70157A043E
:1038D3007903120C5F90314FE493FC90313012392D
:1038E300DE502990312E1239D860287401650A60A0
:1038F300067402650A701C7A027901120C5F90311A
:103903004FE493FC90312E1239DE40077A007B009E
:103913000239D58518828519837401F0120B7AE573
:103923000CF0A3E50DF0AC08AD097403120B7AAAF1
:1039330082AB83120C17AA18AB19120C4D740B121D
:103943000B7A1244E48E828F83A3A3A3A3A3A3E4DD
:1039530012775BAA0CAB0D1211517800E50A6007D0
:10396300C39405500278048E828F83E50CF0A3E59F
:103973000D126D3FE50AF0E88E828F83A3A3A3A304
:10398300A31263905001097A027B0012024B123D8D
:10399300EBA3125FBBA3123E2FE50A600DC3940392
:1039A3005008123DBA1239F68003123DD1F07A0461
:1039B3007900120C5F8A0890314FE493FAC3E5084B
:1039C3009AEB940040059011A9E4F012102BEEFA43
:1039D300EFFB023D8F1239EEE849221239EEECC3B8
:1039E30098F8E499F9C3EA98EB9922E493F87401FF
:1039F30093F922F9EE2414F582E43FF583E8F0A36A
:103A0300E922EB75F016A4F8A9F0123E24F422740F
:103A1300F212039B74F31209678A088B09ECFEED1B
:103A2300FF750A00EEFAEFFB120C898A0C8B0DA8C6
:103A33000CA90DE8497003023AD688828983E065B0
:103A4300087004A3E065097003023AD6888289836B
:103A5300A3A3A3A3E0C39405507988828983126B3F
:103A6300BF1250ADE0603488828983A3A3A3A3E08F
:103A7300C394035026903138E493FA740193FB12F4
:103A83004025903132E493FA740193FBE82414F552
:103A930082E439F583EAF0A3EB800DE82412123AAD
:103AA300DDF0E82414123ADDF08518828519837459
:103AB30001F0120B7A126BBFF0EEFCEFFD740312F0
:103AC3000B7AAA82AB83120C17AA18AB19120C4DEE
:103AD300750A01A90A740D025FDBF582E439F583E7
:103AE30074FEF0A3042274F612039B120C838A085B
:103AF3008B09A808A909E849601488828983A3A3CC
:103B0300A3A3E06009C394055004790180027900FE
:103B1300802F74F612039B120C838A088B09A80862
:103B2300A909E849601488828983A3A3A3A3E06059
:103B330009C39403500479018002790080031208B9
:103B4300B87F020205F974F612039B120C838A8272
:103B53008B83E5824583600BA3A3A3A3E070047961
:103B6300018002790080DAC082C083EAFCEBFD7A2F
:103B7300007B0002480BC082C0837C007D000248AA
:103B83000B74F512039B74F3120967EAFEEBFF8CC7
:103B9300088D09C3EC94F8ED94FF4004EE4F606A7E
:103BA300750A00801974FF6508700474FF65096065
:103BB3000B126EBC7004A3E06509603B050A9031EB
:103BC3004FE493F8E50AC3985040E50A123A0660B9
:103BD300EBEE4F60D0123C18120B7A124C6E120CA3
:103BE30047E960D87403120B7AAC82AD83EEFAEF27
:103BF300FB121FB5E960C5E50A75F016A4F8A9F034
:103C0300746528FA740A39FB80047A007B00740D0A
:103C13001208B8801B8518828519837401F07467B4
:103C230028F582740A39F583124C80740B22A90A91
:103C33007F030205F974F412039B74F31209677589
:103C43000800120C898A0A8B0BAE0AAF0BEE4F6089
:103C53001F123C9B123C2B120B7A124C6E120C2F30
:103C63007C167D0079FFEEFAEFFB121D8D750801BE
:103C73007A047900120C5F8A0A90314FE493FAC3F5
:103C8300E50A9AEB940050099011A97401F01210FF
:103C93002BA908740D0252DC8518828519837401DF
:103CA300F08E828F83A3A32274F712039BE9FC7423
:103CB300FE6A700374FF6B7D007003802C0D123D50
:103CC3000D5026ED123A0660F41279A06A7003A330
:103CD300E06B70E98012ED75F016A4F8A9F0127983
:103CE300936018E0640360130D123D0D5015EC60F2
:103CF300E5123E1860F2C3940550ED127100126094
:103D03007880047AFE7BFF024C9990314FE493F85C
:103D1300EDC39822120C9B02480EC082C083790126
:103D230080F274F012039B8A0A8B0B7A04790112D6
:103D33000C5F8A0C8B0DEA450D6040EA2AFAEB33DF
:103D4300FB121E5F8A088B09AE08AF09EE4F60268F
:103D53007AFE7BFF120CA174FE6A700374FF6B6022
:103D63001E850882850983124F49E5082402F50858
:103D730050E2050980DE750C0080047E007F00851B
:103D83000A82850B83E50C124E7D8005740D1208A3
:103D9300B87F080205F9E493F8ECC398221277631D
:103DA300EC22E0F508A3E0F509221208B87F0C0223
:103DB30005F97F070205F99031381239EEEE1270DA
:103DC300F71244EB903132E493F874019322EE241A
:103DD30012123DDFF0EE2414123DDF22F582E43FA0
:103DE300F58374FEF0A30422E88E828F83A3A3A33A
:103DF300A3A3A3A3A3123E107401123E10A374AA9B
:103E0300F0EE2410F582E43FF583E4F022126D62B4
:103E1300A3A3A3A322ED75F016A4F8A9F0123E24E0
:103E230022746928F582740A12784F22A3F0124E85
:103E330030E4F0EE240CF582E43FF583E4F0A3F0E4
:103E4300A3F0A3F022C082C0837D008009EA24FF8F
:103E53001AEB34FFFB0D123D0D5016123E18C3949E
:103E63000550F2EA4B70E6746528FA740A39FB8050
:103E7300047A007B0002480E74F712039B74F3125A
:103E830009677E00023F13EF75F017A4F8A9F0123B
:103E9300797612616175F016A4FAABF074652AF5B0
:103EA30082740A1263B37003A3E0696040EF75F094
:103EB30017A4F8AAF0EAF912797639F5831247CFF5
:103EC3007401120B7AE0687003A3E069601FEF7559
:103ED300F017A4F8EAF9743528FC740C39FD74035F
:103EE300120B7AAA82AB83121FB5E96013EF75F048
:103EF30017A4F8A9F0743328FA740C39FB12115D76
:103F03000F90313EE493F8EFC3985003023E8A0EBC
:103F130090314F1274E5501FEE127999F47003A398
:103F2300E0F460EB123C18120B7A124C6E120C4741
:103F3300E960DC7F0080CA024C9474F712039B741F
:103F4300F31209679004151259437003023FE97590
:103F53000800802BE50875F016A4F8EAF9747928AF
:103F6300F582740A12784B64FE7003A3E0F4600DCB
:103F7300747728F582740A39F583125FD1050890A6
:103F8300314F125F9A505FE50875F016A4F8AAF056
:103F9300EAF9123E2060E6C3940350E1747728F5F2
:103FA30082740A12594070ACE50875F016A4F8EA59
:103FB300F9746528F8740A39F9E8FEE9FF124087B5
:103FC30012407D1225D8123C9B123C2B120B7A1205
:103FD3004C6E120C47E960A57403120B7AAA82ABEC
:103FE30083120C958097024C9474F612039B120C67
:103FF300838A088B09A808A909E84960208882896F
:1040030083A3A3A3A3E06011C39403500CE8241477
:10401300F582E4126078124025790180027900026A
:104023003B44E82412F582E439F583EAF0A3EBF08C
:104033002274F712039BEAFEEBFF90040F1259431D
:1040430060309004151259436028900419125943A3
:1040530060201272411225D8E97017124078122598
:10406300D8E96401700C8E828F83A3A312722E127F
:1040730025D8024C99124087A3A312595A900415CC
:1040830012723822903132E493FC740193FD8E82D4
:104093008F8322C082C08390034B7423F0A3740FD9
:1040A300F090034D741DF0A3740FF0900351743717
:1040B300F0A3740DF002480E74F712039BEAFEEBB3
:1040C300FF900385E06408601CE0640460178E823F
:1040D3008F83E0540364017041125D33F812412C65
:1040E300E0640670358E828F83A3A3E064FE7003C1
:1040F300A3E0F460258E828F83A3A31267747003F9
:10410300A3E0697008EE24151267696005120FCBEE
:104113008003120FD1E9F50880037508C2EEFAEFA8
:10412300FB121E65A908024C99A3E0F5838882223D
:1041330074F412039B8A088B091242FBFAE82AFAE9
:10414300E43400FB121E5F8A0A8B0BAE0AAF0BEE40
:104153004F6055850882850983E0FC7D0079001254
:104163001D8D8E828F83A31236701210078E828F5D
:1041730083A3A3A3A3EAF0A3EB1241B2F8EE28F8BA
:10418300E43F1237CE850882850983A3E0C0E0129D
:104193006375D0E0F012101912636BE91244DAE090
:1041A300C0E01244D0D0E0F0EEFAEFFB0252DFF0B1
:1041B300850882850983E02274F412039B74E81254
:1041C30009678A088B098C0A8D0BE9FE900385E049
:1041D30064046005E06408700479C2803CA3780835
:1041E300120B13EE90038C12443E121D8D85188220
:1041F3008519837808120B137405120B7AEEF07489
:1042030004120B7A7401F07407120B7AE4F0900332
:10421300857402124C721223D50252DA74F412031B
:104223009B74E8120967EAFEEBFF900346125943B9
:1042330060030242F67A077B00121E5F9003461268
:104243004F4990034612594370030242F28E828F04
:1042530083120B57900346E0FCA3E0F5838C821294
:104263000B4BEE2404F50AE43FF50B850A82F58334
:10427300E0C0E0900346125917A3A3A3D0E0F0EEE9
:104283002405F508E43FF509850882F583E0C0E0DD
:10429300900346125925D0E0124C68C0E0900346C3
:1042A3001242FFC82406F582E438F583D0E01244B5
:1042B3003E121D8D8E828F83120B578518828519AE
:1042C30083120B4B850A82850B83E0C0E0740512D1
:1042D3000B7AD0E01241B2C0E07404120B7AD0E042
:1042E300F07407120B7AE4124C721223D58006790C
:1042F30010800279010252DA8A828B83E0F8A3E00C
:1043030022C082C083900346125943601090034633
:1043130012607B121E65900346E4F0A3F0120F4176
:104323001210FD02480E74F412039B74E81209671D
:104333008A0A8B0BECFEEDFF89087428120B7AE0D6
:10434300FC7429120B7AE0FD740F6C7005740F6D09
:10435300601290122DE064026005ECC39D50057954
:10436300C102443B7424120B7A120B57900386123A
:104373000B4BE50890038CF0EC90038AF0EDA3F06F
:10438300742A120B7AE090038DF074FF650A7004AF
:1043930074FF650B7024901241E0F47003A3E0F402
:1043A300700C121DA5900383EAF0A3EB8012901208
:1043B3004112711DE8F0A3E980069003831263891B
:1043C300F0EE4F6017EEFAEFFB1211B1E9640170E2
:1043D3000BEEFCEFFD7A977B03121FBB900376E491
:1043E300F0A3F0900379F0A3F0900396F090122DD0
:1043F300E06402700890038A740FF0A3F0900385C1
:10440300740512443E121D8D7404120B7AE4F0906D
:104413000386120B57851882851983120B4B900361
:104423008CE0C0E07405120B7AD0E0F07407120B35
:104433007AE4124C721223D50252DAF07C187D0012
:104443007900AA18AB1922C082C08390034AE07096
:10445300031221E9120CFB02480E74F012039B9025
:10446300034AE09011A8700FE060057900122081E3
:104473009011A8E4F0804AE06401600890034AE0E8
:10448300F91220819011A87401F090034AE0F460BE
:1044930030E0F50CE4F50DF50EF50FF09082797828
:1044A30008120B22780C79081202AC780C1208D38C
:1044B3007A807B009003D0E0F9121F257404120860
:1044C300B87AA87B1179411223BD023D94EE2411E1
:1044D300F582E43FF58322F0850882850983A3A34F
:1044E300221263AB1244EB22E8F0A3E9F02274F644
:1044F30012039B74E2120967851882851983ECF015
:10450300A3EDF0EAFEEBFF8908900385E064046005
:1045130005E06408700579C202461B7429120B7A00
:10452300E064FE7003A3E0F4700579C302461B7CCC
:10453300197D0079007405120929121D8D900385D8
:104543007403124C7279501223BD7429120929790C
:104553004B1223BD851882851983124634E50890D2
:104563000378F07429120B7A12462A7428120B7AF4
:10457300E0F509900370124620121FBB74CE550953
:104583004480C0E0741D120B7AD0E0F0742B120B40
:104593007AE004900396F0741A120B7A7402F074A2
:1045A30029120B7A1247CF7412120B7AE8F0A3E99F
:1045B3001247C8741B120B7A124C637410120B7AD5
:1045C300E508F0740D120B7AE4F090038B740FF08E
:1045D3007A8B7B0379541223BD90038A740FF07A8C
:1045E3008A7B0379471223BD90038AE0C3940F505B
:1045F3001F7410120B7AE0C0E07402120B7AD0E041
:10460300F07404120B7A7401F0041209291223E1E5
:1046130074051209291223C3741E023B41F0EEFCF8
:10462300EFFD7A977B0322124C809003791244EBBF
:10463300221271211244EB2274F712039BEB9003B5
:104643008DF0120F2F024C9974F712039B74E91229
:104653000967EAFEEBFF7508008E828F83A3A3A38D
:10466300E0C0E07406120B7AD0E0123CA3E0C0E095
:104673007408120B7AD0E0F07409120B7A740112E9
:1046830047C2125943600D8E828F8312607B120CD6
:104693001DE970357407120B7AE4F01210017404EB
:1046A300120B7A124F49900385E06404700E1210C6
:1046B3000D7402120B7AEAF0A3EB80487402120B1A
:1046C3007A74FDF0A374FF803BAC18AD198E828F12
:1046D3008312607B120C298E828F83A3A3A3A3E092
:1046E30070307407120B7A74011247C87402120BEC
:1046F3007A124C638E828F831247CF7404120B7A23
:10470300E8F0A3E9F07402120929121049E9F50847
:10471300803E1247C9740A120B7A124C6374141246
:104723000B7A123CA1A3E0C0E07415120B7AD0E01F
:10473300F07416120B7A1247C112775F740C120BC6
:104743007AAA82AB83121FBB740A12092912209919
:10475300A9087417024C9674F712039B74F8120994
:1047630067EAFEEBFF7900900385E064086005E0EB
:104773006404704585188285198374FDF0A374FF62
:10478300F01210017402120B7A124F497405120BC6
:104793007A1247C1A3E0C0E07404120B7AD0E0128E
:1047A30047C2E0C0E07406120B7AD0E0F07407123F
:1047B3000B7AE4124C721210497408024C96E4F01E
:1047C3008E828F8322F0851882851983124C802272
:1047D300C082C08390035774D3F0A3740DF0900389
:1047E300FD74A3F0A37410F090035B7409F0A37439
:1047F3000EF090035D74D3F0A3740DF090035F7417
:104803000FF0A3740EF08003120C8FD083D08202BA
:10481300088574F412039B74F91209678A088B09DB
:104823008C0A8D0B8518828519837808120B1374F3
:1048330004120B7AE9F07405120B7AE4F074061291
:104843000B7AE4124C72120CE374070252DC74F517
:1048530012039B8A088B098A828B83127596EE4F0B
:104863007003024A0990031412594360158A828B1C
:1048730083A3A3E0F9EEFAEFFB90031512412D1287
:1048830025D88E828F83A3A3A3A3A3A3A3A3A3E06B
:10489300640260030249728E828F83A3A3A3A3A33E
:1048A300A3E054027003024996850882850983A315
:1048B300A3E064E97003024996850882850983A30E
:1048C300A3E064CD7003024996850882850983A31A
:1048D300A3E064F070030249968E828F83A3A3A39F
:1048E300A3A3A3A3A3A3A3E07016901231E0048EA5
:1048F300828F83A3A3A3A3A3A3A3A3A3A3F0801043
:10490300124A1A121079E970077A307B0112212FAB
:10491300850882850983A3A3E0701F750A008009B7
:104923007A367B0112212F050A850882850983A324
:10493300A3A3E0F8E50AC39840E68E828F83A3A37E
:10494300A3A3A3A3A3A3126D56A3A3A3A37404F0C9
:104953009012321263A5E8124A0C121F37EA4B4C2D
:104963004D700C7A207B009003D0E0F9121DED8E80
:10497300828F83A3A3A3A3A3A3A3A3A3E06402603F
:10498300128E828F83A3A3A3A3A3A3A3A3A3E064F1
:104993000670738E828F83A3A3A3A3A3A3E0A2E0D5
:1049A3005064850882850983A3A3E0F9EEFAEFFB3F
:1049B30012247D8E828F83A3A3A3A3A3A3E054FE1B
:1049C300F0124A1A121079E9850882850983A3A394
:1049D300702AE070237A2F7B0112212F7E00850835
:1049E30082850983A3A3A3E0F8EEC39850187A360F
:1049F3007B0112212F0E80E67A318005E070077A61
:104A03002D7B0112212F023C33F0A3E9F07A207BA6
:104A1300009003D0E0F9228E828F831272381259EC
:104A23005A2274EC12039B74DB120967EAFEEBFF54
:104A33008C108D11750E007405120931120B9F74C1
:104A430012120B7AE070087415120B7AE06020746E
:104A530005120B7AE0A2E6501B8E828F83A3A3A3D9
:104A6300A3A3A3A3A3A312607B121079E960057A21
:104A730035024B6E7405120B7AE0540C6404700516
:104A8300750D018003750D00E0A2E55030750E0130
:104A9300E50DA2E040271210078A088B09A808A990
:104AA30009125D33687003A3E0696011740512098C
:104AB3003112678312249BE96003024B6C74051265
:104AC3000B7AE0A2E650227406120B7AE0540370CC
:104AD300187405120B7AE0540C640C600CE0540C4F
:104AE30064086005750C018003750C007405120BD6
:104AF3007AE05403F8740268700E740512093112D7
:104B03006783120BB1024C587401687041E50CA223
:104B1300E0500B7405120931126783120BA574055B
:104B23001209217403120B7AE8F0A3E9124C788579
:104B33001882851983E8F0A3E9124C68C0E0740277
:104B4300120B7AD0E0124C721225A9024C58E8607D
:104B530003024C5890036DE0640170178E828F83BB
:104B6300A3A3A3A3A3A3E0700A7A347B0112212F8A
:104B7300024C587424120B7A7402124C78741C126F
:104B83000B7A124C63E50CA2E0500B740512093149
:104B9300126783120BA57439120B7A7808120B2251
:104BA300E50DA2E0EE5072240F126769C0E074179E
:104BB300120B7AD0E0F09003161259437003024CA3
:104BC300581210078A128B13A812A913741C120B04
:104BD3007AE0687003A3E069707B78081208D3E574
:104BE3000EF50878081208DF8E828F83A3A3A3A390
:104BF300E0F50878081208DF78101208DBA90C74B6
:104C03000D12093174241209299003161260ED1252
:104C130025D874081208B8803C126767F50C780C25
:104C23001208DF78081208D3E50EF5087808120891
:104C3300DF78101208DB9003831206C8EE241212E9
:104C43006769F97426120931740F12092912247144
:104C5300740A1208B87425023DADA3A3A3A3A3A3AA
:104C6300E81244EC22126D5EA3E022E8F0A3E9F01F
:104C7300AA18AB1922F0124E30124C8022124C8427
:104C830022E0F8A3E0F92274F712039B1220638059
:104C930005740D1208B87F010205F974F712039B1E
:104CA30012206980F174F712039B12207580E7C00C
:104CB30082C08312206F02480E74F712039B1220E6
:104CC3007B80D374F712039B7409120B7AE0F50807
:104CD30078081208DF12208D740180B7C082C08368
:104CE30012209902480EC082C08312209F02480EF0
:104CF30074F712039B1220A5809C74F712039BEA9E
:104D0300FEEBFF89087401650870147900120E4BDD
:104D1300903144E493FC7900EEFAEFFB120DC102EB
:104D23004C9974F712039B122093024C9974F4125A
:104D3300039B74F9120967E9FE8A088B098C0A8DB3
:104D43000B9010DD125943602BEE85188285198371
:104D5300F07401120B7A7808120B137413120B7A86
:104D63001247CF7405120B7A124C6E9010DD12604D
:104D7300ED1225D802484CC082C0831220E10248BC
:104D83000E74F712039B1220B1024C9974F71203AD
:104D93009B9011ABE0F97E00800B124FFF540D6422
:104DA300017001190E124F965003E970ED024C99F0
:104DB30074F712039B9011ACE0F97E00800B124F45
:104DC300FF548D64817001190E124F965003E970E0
:104DD300ED024C9974F212039B890BE975F006A45A
:104DE300A9F0240CF508E439F509E5082AFAE435B5
:104DF30009FB121E5F8A0C8B0DAE0CAF0DEE4F60DC
:104E030021AC08AD097900121D8D124E2CE50BF073
:104E1300EE2508F8EF3509F98E828F83A3A3A31239
:104E23004C5DEEFAEFFB025FDE124E3022EE1267AC
:104E3300923FF5832274F612039BEAFEEBFF120DF9
:104E43009D9011AAE0F8E9C39840099003531260BA
:104E53007B120DA3EE2402F8E43FF9880889099038
:104E630003551264A1900355E004124E7D120DA95F
:104E7300850882850983E00233A6F0EEFAEFFB2270
:104E8300C082C083790090035380010912607B8A3A
:104E9300828B83E582458370F202480E74F7120316
:104EA3009BEAFEEBFFEE4F605A90035312594360A7
:104EB30052888289837A007B00EE65827003EF65F6
:104EC300836013AA82AB831247CF88828983E582EA
:104ED3004583602F80E3900353126164687002EF8F
:104EE300698E828F8370081247CF90035380031219
:104EF3007226124C63EEFAEFFB122579EEFAEFFB02
:104F0300121E65024C99C082C083900353800488AB
:104F1300828983125943600A88828983123DA04D96
:104F230070ED8A828B83E4F0A3F0E84960068882FF
:104F330089838003900353124F4902480EEE241ACB
:104F4300F582E43FF583EAF0A3EBF02212595AEA23
:104F53004B2274F712039B90035380048A828B8342
:104F6300124F4F60277E0080010E124F9650EDEED8
:104F730075F006A4FCADF0EA2CFCEB3DFDEC24102F
:104F8300F582E43DF583E06970DF80047A007B00FD
:104F9300024C99124FF5EEC3982274F712039B7DCE
:104FA3000080010D124FF1EDC398503BED75F006F3
:104FB300A4FEA8F0E8FFEA2EFEEB3FFFEE2410125A
:104FC30067696970DEED75F006A4FEE8FFEA2EFA64
:104FD300EB3FFBEA2411F582E41260A04CF0EA24D3
:104FE3000CFA50070B80047A007B00024C99124F95
:104FF300F522EA1267923BF583E0F822EE75F0069C
:10500300A4FCADF0EA2CFCEB3DFDEC2411F582E4AD
:105013003DF583E02274F612039B120EB77B0080EA
:1050230016EB75F006A4F8A9F01264CFE41250ADA4
:10503300F0A3126497F00B90314612638240E27A38
:105043000080168A0875090074037808120A1E1274
:105053005FA21263A0A3E4F00A903154E493F8EA48
:10506300C39840DF7900801A8908750900740378B2
:1050730008120A1E745B12759E740F1273D71236D0
:105083007109903149126BA540DE90314AE4939047
:105093000361F09082791206C47A107B009003D0EA
:1050A300E0F9121F2B7404023B41126BB3A3227469
:1050B300F012039B74F51209678A088B09890A8C1D
:1050C3000BE9A2E050147508FC7509FFA2E1500535
:1050D300D2E402517BD2E302517B120E9F8A0C8BE6
:1050E3000DA80CA90D900376E0687003A3E0696036
:1050F3000EAC0A7902AA08AB09120E99E970057978
:105103000002524CE50AF50C780C1208DF79027C98
:10511300FE7DFFAA08AB09120E1574011208B8E947
:10512300600302524AE50AC2E5F50A9003C3E07040
:1051330049E50AA2E640437403120931AA08AB0900
:10514300120C23E9702E12591E12113F8A0C8B0D7B
:10515300AE0CAF0DEE4F6022EE2402FAE43FFB12D9
:105163000C1DE96015EE2402FCE43FFD74031209F3
:1051730029121FBBE50AD2E5F50A900356E0F50CA8
:1051830090037612540E780E1208DB7D017C00909A
:105193000356E0F9AA0EAB0F120E5774021208B8A9
:1051A300E9F8900356E004F0E8600302524AE50A86
:1051B300A2E55004740E80027406C0E07401120B61
:1051C3007AD0E0124C721210618A0E8B0FAE0EAFC2
:1051D3000FEE4F606E125D10121001124F4012520B
:1051E300637401F07478550AA31277C8E50C12773B
:1051F300C8A3E508F0E509125251E4F0E50AA2E577
:10520300500F7403120931E82406FAE439FB121F24
:10521300BB8E828F83A3A374FDF0A374FFF0E50B11
:105223006018903145E493F8E50BC398500CEE24D5
:1052330013F582E43FF583E50BF0EEFAEFFB120C76
:10524300D180067910800279C7740B023D91888260
:105253008983A3A3A3A312525D22126BB7A3A32234
:10526300EE12678E3F12526C22F583124C848882B1
:1052730089832274F412039B7A007B109003D0E09D
:10528300F9121F37EA4B4C4D60089003E27401F0AA
:10529300804390118EE0640190122E7006E0FC7939
:1052A300018004E0FC79037A007B00120DC1903188
:1052B30036E493F508740193F509E4F50AF50B78E0
:1052C300081208D37A007B109003D0E0F9121F254F
:1052D30074041208B8800574181208B87F04020514
:1052E300F974F012039B8A088B098C0A8D0B890CC5
:1052F300121079E960057AFF0253D290122DE0640F
:105303000260030253FE90313CE493F9AA08AB090F
:10531300120EC9E960030253F87900AA08AB091217
:105323000E9FA90C120E938A0E8B0FAE0EAF0FEECB
:105333004F70030253E48E828F83A3A3A3A3A3120C
:105343006ABB707312607B8E828F83A3A3A3A3A314
:10535300A3E05418604D903143E4938E828F83A36E
:10536300A3A3A3F07410120B7A12775F7412120BBB
:105373007A12540EEA650A7003EB650B6012EA6C4D
:105383007002EB6D600AEA650E7003EB650F701B2C
:10539300780E1208DBAA0AAB0B12117B74021208F7
:1053A300B88008900375126D4DA3F074FE6A700304
:1053B30074FF6B601E8051A3A3A3E06403602A8E75
:1053C300828F83A3A3A3A3A3E0640470067AFE7B66
:1053D300FF80358E828F83A3A3A3A3A3E06402700F
:1053E300089003C2E0640270127907AA08AB09129D
:1053F3000EC9E96006AA08AB09800DAA08AB09909B
:1054030003571260ED1225D8023D94E0F50EA3E098
:10541300F50F2274F712039BEAFEEBFF120C71E9FE
:10542300700AEEFAEFFB120C7DE96006EEFAEFFB71
:1054330080047AFE7BFF024C9974EE12039B8A0A66
:105443008B0B8C0C8D0D890E750800121079E97980
:105453000060030255A2AA0AAB0B120E9FA90E12FB
:105463000E938A108B11AE10AF11EE4F60198E821E
:105473008F83A3A3A3A3A3E0640270529003C2E0AB
:10548300640270030255A0AA0AAB0B1260EA12254C
:10549300D8120C838A108B11A810A911E849700344
:1054A3000255A088828983A3A3A3A3A3E0A2E0401B
:1054B300030255A0750901A2E1504B7901AC0AAD75
:1054C3000BAA0CAB0D120DF1E970470255A08E82A9
:1054D3008F83A3A3A3A3A3E0640360258E828F839A
:1054E300A3A3A3A3A3E0640160030255A079078EDD
:1054F300828F83A3A312607B120EC9E96003025556
:10550300A0750902801088828983A3A3A3A3A3D2D1
:10551300E1F0EE4F603A8E828F83A3A3A3A3A3A3EC
:10552300E05418602B7508018E828F83A3A31206A3
:10553300C87510FE7511FF78101208DB7900AC0AEC
:10554300AD0BAA0CAB0D120EAB74041208B8804D50
:105553007900AA0CAB0D120E9F8A108B11A810A90B
:1055630011900376E0687003A3E0697014903144EE
:10557300E493FCA90EAA0AAB0B120DC175080180B6
:105583001CA909AC0AAD0BAA0CAB0D120DF1E97005
:105593000C750801A90EAA0AAB0B120E4BA90880C1
:1055A300031208B87F0A0205F974EB12039B74F027
:1055B3001209678A0C8B0D8C088D097512069004ED
:1055C30003125943601712591E1211698A108B1165
:1055D300EA451160088A828B83A3E06068E50C24A6
:1055E3001DF50EE4350DF50F850E82125B3AF514A9
:1055F30088828983A3A3A3E0FA88828983A3A3A3D0
:10560300A3E0F8E4C8F9EA28FEE439FFAA08AB09E5
:10561300120E51850E82850F83125925E029F50B51
:10562300E50AA2E5500375120E7487550A700F74CC
:1056330018550A641860071259086512600C7AD36A
:105643007B0012212F79000258F2530A78C3EE949B
:10565300F8EF94FF50247900EEFAEFFB120E938AD1
:105663000E8B0FA80EA90FE849600F88828983A3C8
:10567300A3A3A3A3A3E0541870CB78081208DB7D7F
:1056830000AC0BA91412594F120E5774021208B82A
:10569300E9F874036860AE7425120B7A1275A3607F
:1056A300030257697418550A7003025824E50AD295
:1056B300E0F50AA2E45004D2E1F50AA90A12594F0F
:1056C300120E938A128B13A812A913E849605C88FF
:1056D300828983A3A3A3A3A3A3E05418604D888264
:1056E3008983A3A3A3A3A3E06401703FE51045113D
:1056F300603912775C88828983A3A312607B1211BD
:10570300698A128B13A812A913E849601E8882893B
:1057130083A3E06016851082851183A3E0FA888253
:105723008983A3E0C39A5003025648E50AF510782B
:10573300101208DF125949120E1574011208B8E944
:1057430070247C007D00850E82850F8374FFF01228
:105753005D2BA3A3A3E060061258FC12775FA90B8D
:1057630012594F120D6D850E82850F83E0F470037D
:10577300A3E0F4603C9003C2E06402700302564865
:1057830012594F9003591260ED1225D8EA6508703B
:1057930003EB65096003025648EEFAEFFB900359E9
:1057A3001260ED1225D8850E82850F83EAF0A3EBF4
:1057B300F078081208DB7D01AC0BA91412594F12C3
:1057C3000E5774021208B8A90AEEFAEFFB120E9FE5
:1057D3008A088B09A808A909900376E0687003A3D7
:1057E300E06960030258E4EEFAEFFB120C838A08C7
:1057F3008B09A808A909E849606F88828983A3A354
:10580300A3A3E06401600D88828983A3A3A3A3E01B
:1058130064027055AC18AD19EEFAEFFB120C23803D
:105823005690036FE06014E50AF51078101208DF54
:10583300125949120E1574011208B8E50AF51078C9
:10584300101208DF79027CFE7DFFEEFAEFFB120EE9
:105853001574011208B8E96003025769850E828541
:105863000F8374FFF0A30257B3121001EAFCEBFDA0
:10587300AA18AB19121FBB850C82850D83A3A3A3A2
:10588300A3A3A3A3A3E06401700E1258FC12775FD5
:105893007408120929121FBB125B22125915E04426
:1058A30030F50878081208DF740112092188088985
:1058B3000978081208DB740B120921880889097812
:1058C300081208DBE514F50878081208DF7900EE02
:1058D300FCEFFD12594F120DEB74061208B8025675
:1058E30048125B22F583125925E50BF01210197447
:1058F300101208B87F0D0205F9E50C2415F582E4B2
:10590300350DF58322E50C2417F582E4350DF58377
:10591300E022F583E0F812412CA322900383125B6B
:105923005622127238A3A3A3A3A322E50D75F00692
:10593300A4F8AAF0EAF974BF28F582740E39F58346
:10594300124C80E849227901AC08AD0912678C3505
:105953000D12595822F583E0FAA3E0FB2274EE12EC
:10596300039B74F01209678A0C8B0DECFAEDFB753F
:105973000F08900403125943603112775C121169C6
:105983008A088B09AC08AD09EC4D601F8C828D83AE
:10599300A3E070171263955001097A027B0012028B
:1059A3004BE88C828D83F0A37407F0125B22125BA9
:1059B3003AF50E88828983125B2CE0FAE4CAFBEC89
:1059C3002AFEE43BFF88828983A3A3125B2CA3A353
:1059D300E0FBECF508E43BF50988828983A3A3A3E4
:1059E300A3A3A3A3E0F50BE50AA2E45003750F10EC
:1059F300A2E550067408250FF50F748F550A70073A
:105A0300125908650F600A7AD37B0012212F025BBB
:105A13001D530A707800E50AA2E4501FE50C241D0B
:105A230012590C2408FCA3E03400FD740812092960
:105A3300121FBB7808E50AC2E4F50AE50AA2E5509D
:105A430022E50C241D12590C28F8A3E03400F9E8D0
:105A53002408FCE439FDAA18AB19121FBBE50AC2DE
:105A6300E5F50AA90EEEFAEFFB120E8D90315412F2
:105A73006BA55029891075110074037810120A1E42
:105A830074202510F582740F3511F583E0F8E50BCA
:105A9300C3985007E50BF078008004807D7804906C
:105AA3000376E06E7003A3E06F605FE87019E50AA8
:105AB300F50F780F1208DF125B49120E15740112ED
:105AC30008B8E970558005740468704E780A1208A6
:105AD300DF7401120921880C890D780C1208DB741C
:105AE3000B120921880C890D780C1208DBE50EF5E1
:105AF3000A780A1208DFA90BAC08AD09EEFAEFFB2E
:105B0300120DEB74061208B88010780A1208DF121F
:105B13005B49120E1574011208B874100255A4E5FE
:105B23000C241DF582E4350D22A3A3A3E0FC888297
