:020000040000FA
:06000000020AF40201E611
:03002B0002077752
:030033000205D8EB
:0300430002079C15
:0300530002012780
:03006B000205B1DA
:1000830002017501FF01010503010F10FEFF62303C
:1000930000000000D42E00000000FF000000FF005D
:1000A300018813000030815A0020FD000200006522
:1000B3001B0000000000006D1C0000000000000099
:1000C300000000000000000000000000000000002D
:1000D300000000000000000000010000000000001C
:1000E3000006FFFF010200A710000000E803FFFF66
:1000F3001D11E80364006400B8010202002000003F
:100103000502070101051E02051E020A0A0105B8C0
:100113000B02803E0102FEFFE8030A0500015505BC
:100123000A1401E0C0E074F2120407A2AFE433FE44
:10013300D2AF85A708AFA1EF550854106006121877
:10014300DD75A1EFEF5508540860081218E375A197
:10015300F78013EFA2E092F0E508A2E082F05006E8
:1001630012199D75A1FEEEF8EEA2E092AF7F010297
:100173000466C0E074F2120407A2AFE433FFD2AF07
:100183009061A4E0FE759B00E5915E5408600875DC
:1001930091F71219378026E5915E54106008759126
:1001A300EF12193D8017E591A2E092F0EEA2E082F2
:1001B300F0500A9061A4E0C2E0F0121A8D9061A39E
:1001C300E0FEE5E95E5404600E121A6375E9FB90E4
:1001D3006193E0A2E640F2EFF8EFA2E092AF7F0175
:1001E300020466C0E074F2120407A2AFE433FED245
:1001F300AF9061A5E0FFE5BF5F5404600675BFFBE8
:10020300121AA5EEF8EEA2E092AF7F01020466C3D4
:10021300E498F8E499F91202538026C3E49AFAE4C5
:100223009BFBE920E7E9120253E498F8E499F922E9
:10023300C3E498F8E499F9120253E498F8E499F9BD
:10024300C3E49AFAE49BFB22EB20E7CFE920E7E043
:10025300B90010BB0008E88AF084F8AAF022E4FB96
:10026300C8FA22EB70227B10C833C8C933C9335094
:1002730007C39AC3DBF280069A50012ADBEAC8332C
:10028300F4C8C933F4C9FA2275F008E4C833C8C9FD
:1002930033C933C99AC99B5004C92AC93BD5F0EC69
:1002A300FBC833F4C8E4C9FA22080808EAC0E0EB43
:1002B300C0E086F0E7A4FA180986F0E7A42AFA1842
:1002C3000986F0E7A42AFA180986F0E7A42AFA199E
:1002D30086F0E7A4FBE5F02AFA190886F0E7A42BD9
:1002E300FBE5F03AFA190886F0E7A42BFBE5F03AB0
:1002F300FA18180986F0E7A4C5F02BFBE43AFA19BB
:1003030008E7C5F0C6A426F6E5F03BFBE43AFA1885
:1003130086F0E7A4F6E5F00826F6E43B08F6E43AAF
:1003230008F6D0E0FBD0E0FA22E4CFC0E0E4CEC090
:10033300E0E4CDC0E0E4CCC0E075F020E626F608AA
:10034300E633F608E633F608E633F6181818EC3306
:10035300FCED33FDEE33FEEF33FFC3EC9709ED976E
:1003630009EE9709EF97191919400FFFEC97FC094C
:10037300ED97FD09EE97FE191906D5F0BFECF709C5
:10038300EDF709EEF709EFF7191919D0E0FCD0E002
:10039300FDD0E0FED0E0FF222518C582C0E0E519BC
:1003A30034FFC583C0E0E518C3958224F810AF0875
:1003B3008583198582188008858319858218D2AFB1
:1003C300CEF0A3E520F0A37808E608F0A3DEFAEF69
:1003D300F0A3E58124FAF8E608F0A3E608F0A3E623
:1003E30008F0A30808E608F0A3E608F0A3158115B2
:1003F30081D0E0FED0E0F8158115811581E8C0E0D9
:10040300EEC0E022C0D02518C582C0E0E51934FF54
:10041300C583C0E0E518C3958224F310AF08858334
:10042300198582188008858319858218D2AFC8F090
:10043300A3E9F0A3EAF0A3EBF0A37908E709F0A39B
:10044300D8FAECF0A3EDF0A3EEF0A3EFF0A3D0E025
:10045300F0A3D0E0F0A3D0E0F0A3E520F0A3E5F013
:10046300F0A322851983851882E0C0E0A3E0F9A3F5
:10047300E0FAA3E0FBA37808E0F608A3DFFAE0FCC8
:10048300A3E0FDA3E0FEA3E0FFA3E0C0E0A3E0C080
:10049300E0A3E0F5D0A3E0F520A3E0A3F5F010AFCF
:1004A300088583198582188008858319858218D267
:1004B300AFD082D083D0E0F8D0E032120B6FB90016
:1004C300030204FDE490030178C1790F8002F0A3D5
:1004D300D8FCD9FA7AC17B1190008678A279018081
:1004E30015E493A3AD82AE838A828B83F0A3AA82A1
:1004F300AB838D828E83D8E9D9E775829E7583A5F8
:10050300740612087F758281758326740012087F32
:100513000C75F0108E1A8F1B85821F85831E85181C
:1005230082851983E0CEA3E0CF851F82851E83EBEE
:10053300C9EAC8EDCBECCAC3E833C8E933C9EA3327
:10054300CAEB33CBC3EA9EF51DEB9FF51CB35004F6
:10055300AB1CAA1DEC33CCED33CDD5F0DAAE1AAF1C
:100563001B22D083D082ECC0E0EDC0E0E493A3FC77
:10057300E493A3FDED4C600D120685EC24FFFCED26
:1005830034FFFD80EFE493A3FCE493A3FDED4C6003
:100593000D120722EC24FFFCED34FFFD80EFD0E0C9
:1005A300FDD0E0FCE493A3C0E0E493C0E022C0E00C
:1005B30074F2120407E589A2E54006E589A2E45036
:1005C3000312177B9005B9E02401F0758900C2C5B9
:1005D3007F01020466C0E074F2120407E58BA2E017
:1005E300500312177B9005BAE02401F0758B00C20B
:1005F300E87F01020466851983851882E0A3FEE083
:10060300A3F5207808E0A3F608DFFAE0A3FFE0A350
:10061300C0E0E0A3C0E0E0A3C0E0E0A3C0E0E0A34B
:10062300C0E010AF08858218858319800885821879
:10063300858319D2AFD083D082020885D083D0823C
:10064300E9C0E0E493A3C386F0C5F095F0F908E4AC
:1006530093A386F0C5F095F0700BE493A3C3994080
:1006630005E9048002A3E475F002A42582F582E57E
:10067300F03583F583D0E0F9E493A3C0E0E493C0BD
:10068300E022C0E0C3E49396087401939618400FE8
:10069300E49366700808740193661870007019A3D8
:1006A300A3C3E49396087401939618A3A3400DD0B3
:1006B300E0D0E0D0E00205A1A3A3A3A3A3A3D0E0CD
:1006C300227404800474028000CCC0E0EDC0E0E535
:1006D30018C39CCCAD1950011D10AF068C188D1991
:1006E30080068C188D19D2AF1207E3D0E0FDD0E05D
:1006F300FC2274028000CCC0E0EDC0E0E518C39C8E
:10070300CCAD1950011D10AF068C188D1980068CC5
:10071300188D19D2AF1207C1D0E0FDD0E0FC22C082
:10072300E0C0F088F0E493667008087401936618DB
:100733007000A8F0A3A3700BD0F0D0E0D0E0D0E01D
:100743000205A1A3A3D0F0D0E022D083D082CCC0F5
:10075300E0E493A360061208041470FAE493A36020
:10076300061209511470FAD0E0FCE493A3C0E0E44C
:1007730093C0E022C0E0C0D0E8C0E0E9C0E0A2AF8F
:10078300E433F8D2AFC2C7E8F9E8A2E092AFD0E011
:10079300F9D0E0F8D0D0D0E032C0E074F212040710
:1007A300A2AFE433FED2AFC2C0E5D1A2E45003123C
:1007B300182FEEF8EEA2E092AF7F01020466CAC0E2
:1007C300E0E493A3C582CCC582C583CDC583F0A3E2
:1007D300C582CCC582C583CDC583DAE5D0E0CA2204
:1007E300CAC0E0E0A3C582CCC582C583CDC583F072
:1007F300A3C582CCC582C583CDC583DAE6D0E0CA62
:1008030022C0E0E493A3D39C5010E493A3C39C4081
:100813000AD0E0D0E0D0E002076AA3A3A3D0E0228D
:10082300C008C3E096F50808A3E096420808A3E0D1
:1008330096420808A3E09645087001D3D0082270B9
:1008430009080808226016181818C6C333C608C654
:1008530033C608C633C608C633C6D5E0EA22C58206
:100863002518C582C583351910AF07F51985821878
:100873008007F519858218D2AFC58322C09FF59FE3
:10088300E473D09F22D083D082C09FE493C0E074EE
:100893000193C0E0740293F59F222518F58210AFEF
:1008A30008F518400C15198008F51840021519D2DF
:1008B300AF8519832200C0D0251810AF08F5185052
:1008C3000C05198008F51850020519D2AFD0D022B3
:1008D3007404800A74038006740280027401C0E009
:1008E300F40412089DD0E0120B3122BB0102E7226F
:1008F300C082C08389828A83BB0003E08002E493C1
:10090300D083D082226016080808C6C313C618C64F
:1009130013C618C613C618C613C6D5E0EA2225188F
:10092300F8E43519F9222518FAE43519FB222518BC
:10093300FCE43519FD22C3E0C696F608A3E0C6968B
:10094300F608A3E0C696F608A3E0C696F622C0E032
:10095300E493A36C7009D0E0D0E0D0E002076AA36F
:10096300A3D0E022251810AF08F518400C15198004
:1009730008F51840021519D2AF22E066701008A3DB
:10098300E066700A08A3E066700408A3E06622E745
:100993006670100809E766700A0809E766700408BC
:1009A30009E76622C3E09608A3E09608A3E0960849
:1009B300A3E096A2D265D03322C3E096F008A3E069
:1009C30096F008A3E096F008A3E096F022C3E6971A
:1009D300F60809E697F60809E697F60809E697F692
:1009E30022C3E493960874019396087402939608BD
:1009F3007403939622E627F60809E637F60809E614
:100A030037F60809E637F622E026F608A3E036F6BD
:100A130008A3E036F608A3E036F622700422600D40
:100A230018C6C333C608C633C6D5E0F41822E04659
:100A3300F008A3E046F008A3E046F008A3E046F080
:100A430022E657F60809E657F60809E657F60809B5
:100A5300E657F622E056F608A3E056F608A3E0565A
:100A6300F608A3E056F622E056F008A3E056F00895
:100A7300A3E056F008A3E056F022E026F008A3E036
:100A830036F008A3E036F008A3E036F022E647F696
:100A93000809E647F60809E647F60809E647F62295
:100AA300E4C396F608E496F608E496F608E496F6A8
:100AB30022600D08C6A2E713C618C613C6D5E0F315
:100AC30022C6F4C608C6F4C608C6F4C608C6F4C6E9
:100AD30022C3E7960809E7960809E7960809E79607
:100AE30022C3E09608A3E09608A3E09608A3E09645
:100AF3002275D00075813F75180175190300020432
:100B0300BE600C08C6C313C618C613C6D5E0F422CC
:100B1300E6F008A3E6F008A3E6F008A3E6F022E077
:100B2300F608A3E0F608A3E0F608A3E0F622CAC09D
:100B3300E0E6F0A308DAFAD0E0FA22C5822518C568
:100B430082C5833519C58322E8F0A3E9F0A3EAF04F
:100B5300A3EBF022E0F8A3E0F9A3E0FAA3E0FB2281
:100B6300E0FAA3E0FBA3E0FCA3E0FD22E5C754F811
:100B73004401F5C77901222518F582E43519F58377
:100B830022C2AF75D69F020000221208883B640080
:100B9300120888BE6400120888DA64001208880B01
:100BA30065001208884A65001208884B660012081F
:100BB30088FA6600120888876900120888E06A00CC
:100BC300120888736B00120888FD6B001208886393
:100BD3006C00120888A26C00120888186D001208B5
:100BE300886D6E00120888106F00120888286F0045
:100BF300120888CB6F00120888557200120888F615
:100C03007300120888147400120888008002120806
:100C1300885A8002120888C480021208884D810213
:100C23001208880982021208885182021208888CED
:100C33008202120888E282021208884A830212089A
:100C430088CE8302120888E783021208880C840284
:100C53001208884A8402120888998402120888C2FA
:100C63008402120888118502120888BD85021208C1
:100C730088858602120888EA8602120888B78702E6
:100C8300120888FD87021208881988021208884B07
:100C93008802120888F38902120888CA8A02120895
:100CA30088F68A021208882C8B021208884D8B0260
:100CB3001208885C8B02120888678B021208881B53
:100CC3008C021208888E8C02120888008D0212088A
:100CD30088088D02120888838D02120888DC8D0231
:100CE3001208881F8E02120888B19002120888F732
:100CF30091021208888794021208886F95021208DD
:100D030088A2950212088864960212088813970233
:100D13001208885B9702120888BD9702120888E2BE
:100D230097021208885A9802120888E29802120859
:100D3300884699021208882B9A02120888509A0250
:100D4300120888719B02120888849B021208881873
:100D53009C02120888629D02120888729D02120882
:100D630088819E02120888FA9E021208883C9F021C
:100D7300120888789F021208884CA102120888B1D1
:100D8300A302120888C5A302120888CFA30212087F
:100D930088D9A302120888E3A302120888EDA302EC
:100DA30012088806A40212088810A4021208881ADE
:100DB300A40212088824A4021208884CA402120870
:100DC3008857A402120888A1A402120888ABA402BF
:100DD300120888B6A402120888DAA402120888FE50
:100DE300A4021208885FA502120888AAA5021208A5
:100DF30088C6A50212088830A6021208887CA602BB
:100E0300120888C4A6021208883FA702120888D9CC
:100E1300A7021208889DA9021208880BAA021208C9
:100E2300883DAB0212088863AB02120888D3AC0278
:100E330012088887B00212088887B2021208885FF6
:100E4300B402120888F8B4021208880AB70212081A
:100E530088CCB70212088818B8021208887EB80234
:100E630012088890B802120888E0BA021208880DA6
:100E7300BC021208885FBC0212088804BD02120873
:100E830088BFBE02120888F0BF021208880EC00293
:100E930012088863C00212088861C1021208888997
:100EA300C102120888ECC102120888EDC2021208BE
:100EB3008860C3021208888EC402120888F9C4022B
:100EC300120888E9C5021208884FC8021208887DF3
:100ED300C80212088878C90212088816CB021208C1
:100EE3008866CB021208881ECC02120888D3CC0273
:100EF30012088837CD02120888F0CD0212088890B4
:100F0300CE02120888F4CE021208883ECF021208DD
:100F1300887BCF02120888E3D002120888C98201B5
:100F2300120888018301120888DA850112088820D3
:100F330086011208883D8701120888A287011208DA
:100F430088F38801120888E48B01120888038D0155
:100F5300120888D897011208887998011208886CBA
:100F63009B011208886C9C01120888F49C011208EA
:100F730088449E011208882B9F0112088894A101BE
:100F8300120888A2A3011208882FA4011208880B53
:100F9300A50112088834A501120888E1A5011208E9
:100FA30088CCA601120888A4A70112088804A80106
:100FB3001208882DA8011208885AA801120888ABC4
:100FC300AA0112088886AB01120888CAAB0112086D
:100FD300883BAC01120888F4AC0112088826AD01E5
:100FE3001208886DAD01120888A0AD0112088805AA
:100FF300AE0112088854AE0112088859AE011208D6
:1010030088ADAE01120888F7AE01120888F3AF016C
:1010130012088858B001120888BFB001120888E48A
:10102300B301120888B8B40112088822B601120865
:1010330088FCB801120888A4B901120888CBBB0147
:1010430012088870BC01120888AEBC011208888798
:10105300BE011208889ABE01120888A3BE011208B5
:1010630088ACBE01120888C1BE01120888E0BE0127
:10107300120888BFC00112088812C1011208886DC6
:10108300C101120888B7C101120888C3C20112083E
:10109300881AC30112088869C401120888B2C401FE
:1010A30012088892C501120888BDC6011208887308
:1010B300C70112088875C80112088877C901120888
:1010C300885DCA0112088874CA01120888B1CA016E
:1010D300120888BBCA01120888C6CA01120888E42C
:1010E300CA0112088826CB0112088884CB01120892
:1010F30088A9CB01120888C3CB0112088850CC0100
:1011030012088889CC01120888D7CD0112088829D2
:10111300CE0112088843CF011208886ACF01120852
:101123008806D00112088882D001120888CED10126
:10113300120888E9D201120888AFD301120888592E
:10114300D401120888DED40112088846D50112089A
:1011530088FBD5011208884DD601120888B3D60141
:101163001208887CD7011208889FD7011208885774
:10117300D8011208887BD8011208889DD80112086B
:1011830088FED80112088849DB0112088824DC0193
:10119300120888CEDC011208880FDF011208885D6F
:1011A300DF01120888A0DF01120888F8DF011208A6
:1011B3008856E00112088880E001120888A4E00143
:1011C300120888D5E001120888FFE001120888465A
:1011D300E1011208889AE101120888F6E101120878
:1011E30088F7E20112088861E4011208889FE4018C
:1011F300120888C8E40112088859E501120888A377
:10120300E501120888C7E5011208881AE6011208E9
:101213008835E601120888F0E6011208881AE7010A
:101223001208885DE701120888B3E701120888BF36
:10123300EA01120888F2EA01120888AFEB011208EA
:10124300888AEC011208881AED011208885BED0107
:101253001208889CCB05120888D4CB05120888F5A0
:10126300CB0512088837CC051208889BCC051208D9
:1012730088A5CC05120888B5CC05120888ECCC05E6
:1012830012088895D0051208885DD2051208885186
:10129300D405120888EFD40512088876D5051208FC
:1012A300884D8003120888F68003120888D58103CD
:1012B300120888F082031208881083031208883208
:1012C3008403120888CF85031208883C860312081A
:1012D300881287031208881888031208887D8803F8
:1012E300120888B988031208881289031208884BE8
:1012F3008903120888948903120888268A0312082E
:1013030088C38A03120888988B03120888658C03A4
:10131300120888F28C03120888188D031208884576
:101323008D03120888768D031208884B8E031208EA
:10133300885B8E03120888AE8E03120888BB8E0367
:10134300120888C88E03120888D18E0312088835C4
:101353008F03120888938F03120888DE8F03120805
:1013630088F98F031208882090031208883D9003A0
:10137300120888499003120888ED91031208880621
:101383009203120888829203120888959203120826
:1013930088A592031208884B9303120888BB940311
:1013A300120888CE95031208886E9603120888786F
:1013B3009603120888E69603120888F79603120824
:1013C30088369703120888649703120888319803B4
:1013D300120888889803120888CD98031208882376
:1013E30099031208884199031208888F99031208F8
:1013F300885D9A03120888AB9A03120888ED9A0352
:10140300120888709B031208889A9B03120888D0DD
:101413009B03120888DF9B031208883D9C03120874
:1014230088B59C03120888F69C03120888459D031F
:10143300120888709D031208888A9D03120888A4E5
:101443009D03120888799E03120888839E0312085D
:1014530088BE9E03120888CE9E031208881F9F032E
:10146300120888339F0312088851A0031208886664
:10147300A00312088800A1031208887FA1031208A1
:101483008822A2031208882DA2031208887AA303D4
:1014930012088896A303120888EEA3031208885C37
:1014A300A403120888A8A403120888C2A40312087C
:1014B3008822A503120888C0A5031208880BA60377
:1014C3001208886EA80312088806A9031208887DEB
:1014D300A903120888C3AB03120888DBAB03120805
:1014E30088DEAB03120888EAAB03120888FEAB035D
:1014F30012088806AC031208883DAC031208883131
:10150300AD03120888BBAD031208883DAE03120871
:1015130088B2AE031208888AAF03120888ACAF03FF
:1015230012088843B0031208884FB003120888AC2E
:10153300B003120888AFB0031208881EB103120863
:10154300886AB2031208887DB30312088808B403BB
:101553001208881BB503120888E5B503120888161C
:10156300B6031208883CB60312088845B60312086E
:101573008874B60312088824B703120888D4B70303
:1015830012088847B803120888F9B8031208886C50
:10159300B903120888ABB903120888F4B903120817
:1015A30088BEA20512088862A305120888B1A305A4
:1015B30012088830A405120888DAA405120888F2F4
:1015C300A705120888ABAA05120888D5AE0512082C
:1015D300880DAF051208883BAF05120888CDAF050B
:1015E30012088821B00512088854B0051208887DB6
:1015F300B005120888CBB00512088850B10512084F
:1016030088E2E1041208886AE204120888D4E2043A
:1016130012088848E3041208881AE6041208883D71
:10162300E60412088896E60412088888E70412087C
:1016330088F2E704120888A9E90412088804EB0475
:1016430012088876EB04120888EFEB04120888C6A8
:10165300EC0412088820ED041208886AED041208CD
:10166300886EEF0412088898F004120888C1F10408
:10167300120888D0F20412088841F304120888A1E2
:10168300F304120888DEF3041208887CF4041208B9
:10169300884BF504120888008005120888E380054A
:1016A300120888C083051208886B8505120888A96B
:1016B30086051208880F88051208888D8805120888
:1016C300886D8905120888258A05120888618A05AC
:1016D300120888A98A05120888CC8A05120888EF9F
:1016E3008A051208887A8B05120888268C05120849
:1016F30088378E05120888B88E051208882A900547
:10170300120888899105120888BF9205120888DF9C
:101713007E00120888F07E00120888C47F00120839
:10172300882CAD061208883AAD06120888DE7F00C1
:1017330012088812B50612088822B50612088842D4
:10174300B506120888E2B506120888BF9F0612087C
:101753008867A006120888A9A20612088817FE0542
:1017630012088844FE05120888C3FE05120888D8AB
:10177300FE051208883CFF05120888ABFF05120816
:10178300884BE50512088858E505120888A3E50586
:10179300120888C8E505120888F8E5051208882E9E
:1017A300E60512088857E60512088885E60512083B
:1017B300888CE70512088822E9051208885DEA0586
:1017C3001208888FEA0512088835EB051208888706
:1017D300EB05120888ABEB051208885BEC051208D1
:1017E30088DB8406120888F484061208888A850632
:1017F300120888888606120888E88806120888FB7B
:10180300B7061208884D74001208889D74001208E8
:10181300889977001208886E780012088868790022
:10182300120888F67A001208884E7D00120888ECA8
:101833007D001208883C7E001208884A7E00120848
:1018430088085600120888907E00120888B97E0026
:10185300120888C77E0012088822D6051208885C01
:10186300D605120888EFD7051208885AD80512083A
:101873008886D8051208889FD805120888BDD80520
:10188300120888B4D90512088814DB05120888F4F5
:10189300DB0512088835DD0512088873DD0512089B
:1018A300889EDD05120888C9DD05120888F26300E9
:1018B300120888B4B006120888DDB006120888F151
:1018C300B0061208883BB10612088886B1061208D2
:1018D30088D1B10612088834B20612088837B206D6
:1018E30012088845B20612088856B20612088833D1
:1018F30099061208886D9906120888D59906120868
:1019030088039A06120888509A061208888E9A0647
:10191300120888C99A06120888F39A0612088819C9
:101923009B061208887C9B06120888AA9B0612084D
:1019330088409C06120888589C061208886D9C06ED
:1019430012088843B80612088860B806120888840B
:10195300B8061208889BF2051208882FF4051208AE
:10196300883DF4051208885DF40512088886F4059D
:10197300120888E3F4051208883FF505120888D495
:10198300F50512088859F605120888EAF6051208C3
:1019930088DCF705120888F0F70512088803F805B4
:1019A30012088825F805120888F0B5061208882160
:1019B300B60612088852B6061208887FB6061208C1
:1019C300889395061208880296061208882D9606B3
:1019D300120888D09606120888D29106120888F554
:1019E30091061208880792061208881592061208B3
:1019F300883E92061208885A920612088876920642
:101A0300120888919206120888589306120888D5FE
:101A130093061208880C940612088861940612082B
:101A230088B69406120888E49406120888F294068D
:101A33001208880C950612088880950612088841BA
:101A4300B70612088857BF05120888A0BF051208F9
:101A530088CCBF05120888E5BF0512088805C005B4
:101A63001208886FC005120888A9C00512088808E3
:101A7300C605120888D7C7051208881DC8051208AD
:101A8300888AC80512088838CA0512088868CA05F2
:101A930012088882CA0512088896CA05120888EABD
:101AA300CA051208884DCB0512088862CB051208B7
:101AB3008852FE0112088869FE0112088892FE010D
:101AC300120888B8FE01120888E5FE01120888157D
:101AD300FF0112088836FF011208886DFF01120802
:101AE3008895FF01120888B0B7061208884889064E
:101AF3001208885F8906120888D18A0612088806A8
:101B03008B061208882E8B061208885B8B06120838
:101B130088748B06120888B58B06120888338C06E6
:101B23001208887F8C06120888D38C061208880A4C
:101B33008D061208883C8D06120888ADFD02120836
:101B430088D0FD0212088854FE0212088894FF020E
:101B5300120888DEB306120888CDAA06120888DDAB
:101B6300AC0612088847B50412088891B704120816
:101B730088C5B70412088808B80412088820B80476
:101B83001208889AB804120888C6B804120888E5AF
:101B9300BA0412088866BC0412088878BD041208C7
:101BA3008806BE0412088884BE041208884ABF044B
:101BB300120888E3BF041208882DC004120888FBAA
:101BC300C004120888FFC104120888A0C2041208C6
:101BD30088BCC40412088801C6041208885CC604C1
:101BE3001208885FC6041208888EC60412088891FA
:101BF300C60412088860C7041208882FC804120894
:101C030088FEC804120888D2C904120888A6CA0428
:101C13001208887ACB04120888A5CB04120888D04E
:101C2300CB04120888A3CC0412088877CD041208C9
:101C3300885DA80612088880A8061208887CA90671
:101C430012088828AA0612088863AA061208887050
:101C5300FC03120888EEFC03120888FEFC0312083A
:101C63008828FD03120888C39B04120888C69B04B6
:101C73001208884B9D04120888BB9D0412088845EE
:101C83009E04120888F99E04120888AD9F04120866
:101C93008871A00412088825A10412088832A304BD
:101CA300120888E6A3041208889AA4041208882953
:101CB300A50412088828A60412088897A604120807
:101CC300882FA7041208885CA904120888B2AA0402
:101CD30012088808AC0412088862AD041208888AC6
:101CE300AE04120888E2AE0412088875AF04120825
:101CF3008850B00412088882B004120888B0B30474
:101D030012088851B404120888CCB4041208881C41
:101D1300EE01120888C6EE01120888EDEE011208E2
:101D230088ACF001120888CAF1011208889EF201FA
:101D330012088838F4011208888FF401120888A366
:101D4300F4011208881FF50112088856F7011208DA
:101D53008897F7011208886DF80112088819F901AC
:101D6300120888BAF901120888FEF90112088816C8
:101D7300FA0112088855FA01120888C5FA011208F7
:101D83008800FB011208880AFC0112088857FC012D
:101D9300120888BEFD01120888DBFD01120888A520
:101DA3009C06120888C89C06120888139E0612080F
:101DB30088439F06120888F6AE061208881FAF06EE
:101DC3001208883EAF061208885EAF06120888BC68
:101DD300AF06120888E2AF06120888A3B0061208FD
:101DE30088B1B006120888B3B105120888C8B105D6
:101DF30012088824B205120888CCB205120888F5A7
:101E0300B2051208881AB3051208883EB4051208F1
:101E1300884CB7051208885AB705120888BCB7055D
:101E2300120888FAB70512088815B805120888B091
:101E3300B80512088859B905120888ACB905120803
:101E4300882FBA051208889FBA05120888D8BA05E0
:101E530012088863BB05120888F5BB051208884C75
:101E6300BC05120888AABC05120888BCBC05120868
:101E730088CEBC05120888F4BC05120888FDBC0591
:101E83001208884EBE05120888E6BE051208881F90
:101E9300DE0512088897DF0512088842E00512085C
:101EA300886AE0051208887BE0051208887EE3054E
:101EB3001208889EE305120888B0B606120888C483
:101EC300A20612088809A30612088856A306120858
:101ED300881FA506120888008004120888C08104A0
:101EE3001208880F8204120888868404120888EB7B
:101EF3008404120888EC87041208885288041208A4
:101F030088868A04120888708B04120888D38B048D
:101F1300120888638C04120888098D0412088862E9
:101F23008D04120888C18D04120888208E041208BB
:101F330088EC8F04120888A991041208887F9404FE
:101F4300120888C19404120888239504120888355E
:101F53009504120888AA95041208885C960412084E
:101F630088859A041208884A9B04120888BEB8061A
:101F7300120888D9B8061208885EF8051208887E08
:101F8300F80512088884F905120888D0F9051208A3
:101F930088F0F90512088843FA05120888B0FA0593
:101FA300120888F6FA051208885AFB0512088806F3
:101FB300FE05120888F69205120888039405120894
:101FC30088D39405120888199705120888AF9705D6
:101FD300120888FE97051208882E98051208887241
:101FE3009805120888529905120888409A05120824
:101FF30088559A05120888E59A05120888A49C0555
:10200300120888D89E051208883FA005120888A6E2
:10201300A1051208881AA2051208884EA205120803
:102023008867B20612088807B3061208886BB306DE
:10203300120888AEB3061208882EDC031208889BA8
:10204300DC031208884EDD03120888AEDE03120893
:1020530088F2DF03120888E7E00312088801E1032E
:1020630012088867E103120888E4E1031208885222
:10207300E2031208886AE203120888CEE203120818
:10208300884AE3031208886BE303120888F1E30329
:102093001208883DE503120888A3E503120888CFD8
:1020A300E5031208882AE6031208880BE7031208DF
:1020B300884BE70312088870E703120888C7E70311
:1020C3001208880CE80312088843E8031208888B77
:1020D300E803120888A3E80312088881E9031208B9
:1020E30088A2E90312088802EA0312088866EA0351
:1020F300120888C2EA0312088809EB031208884F02
:10210300EE0312088896EE03120888E6EF0312081E
:102113008825F003120888C2F003120888CEF10361
:102123001208882DF203120888B0F203120888BA45
:10213300F303120888EBF303120888F9F303120878
:102143008818F40312088838F403120888C7F403C4
:1021530012088808F50312088828F5031208885F17
:10216300F503120888A7F503120888CAF5031208B5
:1021730088D4F50312088833F60312088873F6032C
:10218300120888B4F603120888F7F6031208881EAB
:10219300F70312088880F703120888FAF703120876
:1021A3008838FA03120888DEFE04120888EFFE045A
:1021B30012088872FF04120888FD7F00120888D96C
:1021C300F50412088832F60412088868F704120826
:1021D30088A9F704120888DCF90412088825FA0490
:1021E3001208887BFA04120888F8FA041208884B4C
:1021F300FC0412088891FD04120888B6FD04120835
:10220300881BFE04120888A3FE0412088856D10214
:1022130012088879D1021208888AD10212088860CC
:10222300D202120888E3D2021208886CD302120881
:102233008848D402120888DAD4021208888ED5029C
:1022430012088842D60212088831D702120888F889
:10225300D7021208885DD80212088823DF02120809
:1022630088FFE10212088848E202120888D3E202DA
:1022730012088848E4021208884BE40212088841D5
:10228300E502120888BEE60212088805E902120870
:1022930088C4ED0212088825EF0212088826F1028D
:1022A3001208889EF502120888B3F50212088842C4
:1022B300F80212088856F902120888F5FA02120881
:1022C30088C6FB021208882BFC02120888AEFC02A7
:1022D30012088829BA0312088804BB03120888ACC1
:1022E300BB0312088808BC03120888C9BC03120880
:1022F300887BBD03120888FEBF031208886EC003E3
:102303001208885EC103120888F5C103120888A069
:10231300C2031208884CC30312088875C703120846
:1023230088C6C903120888CCCA0312088867CE037B
:102333001208887DCF031208886AD0031208881A0E
:10234300D103120888C2D10312088853D403120898
:1023530088F5D5031208889BD70312088862D8032F
:102363001208880FD90312088873DA031208888CBD
:10237300CD0412088819CE041208888ECE041208E0
:1023830088E7CE041208888BCF04120888DACF04BA
:1023930012088848D00412088801D1041208885111
:1023A300D2041208888BD204120888C3D3041208FB
:1023B30088D8D304120888FFD3041208884BD504A5
:1023C30012088878D50412088892D504120888AEBA
:1023D300D504120888C9D504120888DAD50412086E
:1023E30088E6D60412088889D7041208888ED70491
:1023F30012088818D80412088834D904120888717E
:10240300DA041208880DDC0412088830DD0412088F
:10241300880FDE0412088862DE041208887BDE045B
:10242300120888DEDF0412088837E1041208889650
:102433008D06120888148E06120888538E06120819
:1024430088358F06120888A38F061208883C9006E9
:102453001208883F91061208880080061208882215
:1024630080061208887F8006120888AD800612084D
:1024730088E280061208880881061208882C8106E3
:10248300120888528106120888658206120888B1EC
:102493008206120888C88206120888F0830612088A
:1024A300880084061208881D84061208883A840668
:1024B3001208884D84061208885EEC051208880706
:1024C300F20512088815F2051208881AF205120897
:1024D3008824A6061208883CA60612088882A70646
:1024E30012088849A806120888B1FF02120888D189
:1024F300FF0412088887B806120888D7FF0112085C
:1025030088E9B806120888AF5500120888365500C6
:102513001208880C55001208885454001208888742
:1025230052001208885752001208881B52001208E2
:1025330088075200120888485100120888955000F5
:10254300120888444E00120888194E00120888BAEF
:102553004D001208882B4C00120888B94B00120852
:1025630088964B00120888DA4A001208887D4900D1
:102573001208883449001208880E49001208884A54
:10258300480012088894460012088834460012084E
:1025930088054600120888024600120888AB6300CB
:1025A300120888F562001208886962001208885AC6
:1025B3006200120888475F00120888945C001208C2
:1025C30088ED4500120888AD45001208889445003F
:1025D3001208889E44001208885B5B001208885D1D
:1025E3004400120888EA4300120888B7430012081F
:1025F300885C43001208882B43001208887C5A0029
:10260300120888F43F00120888A85800120888F4BA
:10261300DD05120888063F00120888C03D00120835
:10262300886C3D00120888603D00120888C73C0092
:10263300120888953B00120888F038001208889326
:1026430036001208884736001208882C3500120815
:1026530088C13400120888EB3300120888A73300BE
:102663001208886E320012088869560012088835ED
:102673003200120888033200120888677E000000C7
:102683000080FBE473000000000000000000000075
:102693000000000000000000F8000000000000003F
:1026A300333000000000100C06100C060000000080
:1026B300000000000040C07840C0784000043F04A0
:1026C300043F040400007088FC0830000000182058
:1026D300FF211E0000F008F000E018000000211C9C
:1026E300031E211E0000F00888700000001E212335
:1026F300241927211010160E00000000000000000E
:102703000000000000000000E018040200000000C8
:10271300071820400000020418E0000000004020D9
:102723001807000000404080F08040400002020192
:102733000F01020200000000F0000000000101018F
:102743001F01010100000000000000000080B070C4
:102753000000000000000000000000000000010174
:102763000101010101000000000000000000303001
:1027730000000000000000000080601804006018E2
:10278300060100000000E010080810E000000F1030
:102793002020100F00001010F8000000000020207F
:1027A3003F202000000070080808887000003028CF
:1027B3002422213000003008888848300000182087
:1027C3002020110E000000C02010F80000000704B4
:1027D30024243F240000F8088888080800001921F1
:1027E3002020110E0000E0108888180000000F114F
:1027F3002020110E0000380808C838080000000027
:102803003F000000000070880808887000001C2248
:102813002121221C0000E010080810E00000003114
:102823002222110F00000000C0C0000000000000C1
:102833003030000000000000800000000000008035
:10284300600000000000008040201008000001022A
:10285300040810200040404040404040000404046D
:10286300040404040000081020408000000020102D
:102873000804020100007048080808F00000000086
:102883003036010000C030C828E810E000071827E0
:102893002423140B000000C038E0000000203C2378
:1028A300020227382008F8888888700000203F201B
:1028B3002020110E00C0300808080838000718202F
:1028C300202010080008F808080810E000203F2026
:1028D3002020100F0008F88888E8081000203F2007
:1028E300202320180008F88888E8081000203F20DB
:1028F3000003000000C03008080838000007182053
:1029030020221E020008F808000008F808203F21D2
:102913000101213F20000808F808080000002020DA
:102923003F2020000000000808F8080800C080804D
:10293300807F00000008F888C028180800203F2086
:10294300012638200008F8080000000000203F207E
:10295300202020300008F8F800F8F80800203F0095
:102963003F003F200008F830C00008F808203F204F
:102973000007183F00E01008080810E0000F1020BF
:102983002020100F0008F808080808F000203F2155
:102993000101010000E01008080810E0000F1824EE
:1029A3002438504F0008F8888888887000203F201A
:1029B30000030C3020007088080808380000382015
:1029C3002121221C00180808F8080818000000201C
:1029D3003F2000000008F808000008F808001F2046
:1029E3002020201F000878880000C838080000074E
:1029F300380E010000F80800F80008F800033C074F
:102A030000073C0300081868808068180820302CF1
:102A130003032C30200838C800C838080000002001
:102A23003F2000000010080808C838080020382696
:102A33002120201800000000FE0202020000000016
:102A43007F40404000000C30C00000000000000048
:102A5300010638C00000020202FE000000004040F0
:102A6300407F000000000004020202040000000096
:102A730000000000000000000000000000808080D3
:102A830080808080800002020400000000000000BB
:102A930000000000000000808080800000001924F6
:102AA3002222223F2008F8008080000000003F110E
:102AB3002020110E000000008080800000000E1115
:102AC3002020201100000000808088F800000E11F3
:102AD3002020103F200000808080800000001F2203
:102AE3002222221300008080F0888888180020208A
:102AF3003F202000000000808080808000006B94D5
:102B0300949493600008F8008080800000203F21A7
:102B13000000203F20008098980000000000202043
:102B23003F20200000000000809898000000C08033
:102B330080807F000008F8000080808000203F2410
:102B4300022D302000000808F800000000002020BB
:102B53003F202000008080808080808000203F20F4
:102B6300003F20003F8080008080800000203F21C4
:102B73000000203F200000808080800000001F2094
:102B83002020201F00808000808000000080FFA1A3
:102B93002020110E000000008080808000000E11B4
:102BA3002020A0FF80808080008080800020203F44
:102BB30021200001000000808080808000003324F9
:102BC3002424241900008080E0808000000000009D
:102BD3001F202000008080000000808000001F2054
:102BE3002020103F20808080000080808000010E24
:102BF300300806010080800080008080800F300C48
:102C0300030C300F000080800080808000002031A2
:102C13002E0E312000808080000080808080818E95
:102C230070180601000080808080808000002130C1
:102C33002C2221300000000000807C0202000000F2
:102C430000003F404000000000FF000000000000C3
:102C530000FF0000000002027C80000000004040F2
:102C63003F0000000000060101020204040000000E
:102C7300000000000087000100B7112400020030AB
:102C8300122500020032122600020034122700022D
:102C9300003612280001003812290001003912867B
:102CA3000001003E122A0001003F122B00010040E8
:102CB300122C00010044122D0008009F112E000168
:102CC3000045122F00010046123000010047123167
:102CD300000100481232000100A71133000100A8CF
:102CE3001134000100491236000100A91138000116
:102CF300004A1239000100431263000100B4116459
:102D030000010041126500010042126D000100B58F
:102D130011710008009711660001005B1243000166
:102D2300004C12440002004D12450001004F1246B0
:102D3300000200501247000800AC11480001005285
:102D4300124B0001005312040001005E12A10001A6
:102D5300006112370001006012880001005F123C1D
:102D6300000100AA113D0001004B1249000200546A
:102D73001267000100B6114D00020056124E000109
:102D83000058124F00020059123E000100AB11041B
:102D93000406006710000000000000000136360141
:102DA30001000102010001030100010401060605FF
:102DB300020000070100340801000F090401010D9E
:102DC3000100FF0E08000017020000190100FF1A9E
:102DD3000100011B0100FE1C0100081D0200001F71
:102DE30001000120010001210200002301000F2442
:102DF3000200002601000127010008280200FF2A23
:102E03000100072B0102402C0100002D0100012EBF
:102E13000100012F0100FF30010B1C310800003AB3
:102E23000100083B01000F3C0100013D0100FF3E92
:102E330004000042040000460400004A0400004E5F
:102E430004000052040000560400005A0400005E0F
:102E530020FFFF36000100060000000F0000000005
:102E630000000000000000000003FFFF0000040357
:102E7300FFFF0000FFFF0FF4010005C4040320005F
:102E83000100000B000000000000000003010F0020
:102E9300000000000000000000000000000000002F
:102EA300000000000000000000000000000000001F
:102EB300000000000000000000000000000000000F
:102EC30000000000000000000000000000000000FF
:102ED3000001037103010301030103010301032241
:102EE30003020301031003000300030003000300B4
:102EF300030003000342030003240306030003004B
:102F030003040312032503230325032303040304F8
:102F1300030003000300034403000300032303002F
:102F23000365032100350381030003050300030048
:102F330003000300032503230301017101010101C0
:102F43000111010101310101010101800110016140
:102F5300013B00140063017301720162014301002C
:102F630001130106013D01350004011201000100B6
:102F7300010001000104010401330133013C014458
:102F830001320136000001000165010001350081B5
:102F93000100010501820183010001030271023076
:102FA3000160021102700201020202020280021099
:102FB3000261023A00410063027302720262024339
:102FC300020002130238000002000204021202008F
:102FD3000200020002000204020402370037003C30
:102FE30002440200023900000200026502000235B9
:102FF30002810200020502820283020002030471BD
:1030030004020460041104700402040204010402B3
:10301300041004610400041404630473047204625E
:10302300044304000413040604000400040404120B
:1030330004000400040004000451046400000400BC
:1030430004000444040004000400040004650400B4
:1030530004350481046400050400048304000403AC
:103063000071003001600011007000310220035034
:1030730004800010006100000014006300730072FC
:10308300006200430000001300060000000000047B
:1030930000120000000000000000000400040037DC
:1030A3000037003C024400000000000000000065FF
:1030B30000000035008100000005000000830000CF
:1030C3000000001523130085220100152302003799
:1030D3002203003D22040043220500492206005535
:1030E300221100792214007F22150067221F006D30
:1030F30022FFFF000001590F06890F08830F0B956C
:103103000F10CF0E025F0F05770F07650F0C410FEE
:103113000D4D0F64130DFF000007ECFDFDFDECDC0E
:10312300DCCCBCACAC9C9C8C7C7C6C6C5C5C5C4CEC
:103133004C3C3C2C2C1C1C03EAF5E5D5D5C5B5A5A8
:1031430095958585757565655555454535352525AC
:1031530015150500160F00000B150B020002220FB8
:103163003300000E5A6967426565416C6C69616E94
:103173006365303901030507090B0D0F00020406CF
:10318300080A0C0D303017181921301B1D1F300091
:10319300034A49434E181A25050200011916181649
:1031A30016182303000C0E020B040B0A0708000F6A
:1031B30000393D3F373C3C362C442D30301618192E
:1031C30020231A1C1E30020402010101010902E836
:1031D30003000000BE040A0E00000000003C007F54
:1031E30000E8033C000A0303081000030005FF1E68
:1031F3001E0C05280901040409101504000C080815
:10320300C082C0831216019003107451F0A3742678
:10321300F0900312744BF0A37426F09003147445DA
:10322300F0A37426F0900316743FF0A37426F00203
:103233004BB274F712039BE9FE900302E4F0EE90A5
:103243000301F09012501244561250837CAC7D114E
:103253007A057B03122033901252E090030DF09015
:10326300030E7497F0A3741102558574F412039B33
:103273008A088B09EB54807003023341900301E009
:10328300F9121E2F8A0A8B0BAE0AAF0BEE4F700397
:10329300023338125C5EE0F912504A900320125850
:1032A30085A3A3A3A3A3A3A3A3E0640270378A8285
:1032B3008B8312506580078C828D831251D0EC4D25
:1032C30060208C828D83E06A7003A3E06B70E88CCE
:1032D300828D83A3A3E06970DE901258126912F005
:1032E300804C1226158E828F83E064017034EE24A5
:1032F3001812339F1208DF1253E11206C4EE241290
:1033030012339F1208DF1262D61208DB124B6D12C2
:1033130006C8EE24171262E21215B9740A1208B82D
:10332300800CE064027007EEFAEFFB12255BEEFA05
:10333300EFFB121E1DAA08E5096480FB805BEAA26D
:10334300E050149003181255956006126BF712267D
:1033530086E508640180395402600C9011C1740140
:10336300F0EA6402FA8032EA5408602912261B8BC1
:103373000BEA450B7016900322E4F0A3F0A3F0A32D
:10338300F07A08FB900301E0F9121F9DE508640839
:10339300FAAB0980047A007B00023DBB1261CAF5D7
:1033A3000A780A2274F412039BEA4B9003186026EE
:1033B300ECF0A3EDF08A088B09E4F50AF50B780825
:1033C3001208D37A017B00900301E0F9121F917474
:1033D300041208B8800FE4F0A3F07A01FB90030114
:1033E300E0F9121F9D023DBB74F412039B8A088B04
:1033F300098A828B83126A981261A538F583E024C7
:1034030009FA7B00121E178A0A8B0BAE0AAF0BEE6A
:103413004F70030234B18E828F837402F0A3E412DF
:1034230054FAA3A3A3A3E8F0A3E9125087A3A3A389
:10343300A3A3A3A3F0E5082403F8E435091245B2D6
:103443001261A53AF58312587EF0EE2409FAE43F9F
:10345300FB8E828F83A3A3124AC4F5838882E0A2E2
:10346300E58E828F83A3A3A3A3A3500474018001D9
:10347300E4F0E5082403F888828983125065EA1290
:1034830068F83BF5831234B41208D7EA1261A53BFE
:10349300124B768E828F83125063121DED740312CA
:1034A30008B8EEFAEFFB900301E0F9121E23023D88
:1034B300BBE0F508A3E0F509750A0078082274F269
:1034C30012039B8A088B09ECFAEDFB740E120B7A3C
:1034D300E0FC1216318A0C8B0DAE0CAF0DEE4F6073
:1034E30031AC08AD0912161FE96027AC08AD09EE2F
:1034F300FAEFFB121625E970158E828F8312351AA7
:10350300EEFAEFFB121619AA08AB09121649790055
:10351300800279B4800EA3A3A3E0F508A3E0F50924
:10352300221208B87F060205F974EF12039B74F7A1
:103533001209678A0A8B0BECFEEDFF750DB3750C50
:1035430000751000800205109031F9E493F8E5103E
:10355300C398400302363B851008AA087B00121665
:10356300918A088B09EA450960DC8A828B83A3A3CD
:10357300A3A3A3E0250CF50CF50EC3E50A950EE510
:103583000B940050C17C157D007900EEFAEFFB121D
:103593001DF9850882850983A3A3A3A3A3E0F8E506
:1035A3000AC3950C2825E0F8E433F9E50828F582E9
:1035B300E50939F58312507112104FEAFCEBFDEE69
:1035C300FAEFFB122033850882850983A3E06401A7
:1035D300700A1253E1740112542C803DAC18AD19DA
:1035E300850882850983125063121679E960307465
:1035F30008120B7AE0C0E01253E1D0E0F074081235
:103603000B7AE06403700CAC18AD1912586C1220DD
:1036130033800C8518828519831253F112508385E8
:1036230008828509831245A0A3A3125434C0E01273
:103633005EA5D0E0F0750D00A90D74091208B87FDE
:10364300090205F974F712039BE9FE8A828B83A3AF
:10365300A3A3A3A3A3E0540860338A828B83A3A309
:10366300A3A3A3A3E0540260218A828B83A3A3A311
:10367300A3A3A3A3A3A3E06406600F74E96E600A87
:1036830074CD6E600574F06E7003122633025252CD
:1036930074E812039B74F81209677406120B7A120A
:1036A3006AD2ECFEEDFF89177515001238DA12168F
:1036B3003D8A0A8B0BEA450B700302388CEE24100B
:1036C300125A4AA90A120DDF8A128B13EA451370A4
:1036D3000302388CEE2403F50CE43FF50DEE2406CB
:1036E300F508E43FF5097C008508821261FE121695
:1036F300438A108B11850C82850D831238CF1245B6
:1037030082851282851383A3A3A3A312453812389B
:10371300CFA3A3A3A3125C88851282851383A3A3DB
:10372300A3A3A3A3126C521254201208D71261A4AC
:103733003F124B76851282851383A312505D121DAF
:10374300ED74031208B87514007423120B7AE0F5B4
:10375300167424120B7A780C120B2202381185107E
:103763008285118312506312167F8508828509832F
:10377300A3EAF0A3EB1238EBA3A3125131123B7B64
:10378300A2E6500F850882850983A3A3A3A3A3E020
:10379300D2E1F0E51570668508828509831264A37A
:1037A300900376E0687003A3E06970518508828511
:1037B3000983A3A3A3125A4F75100078101208DFD0
:1037C300780C1208D3E516F51078101208DF74266A
:1037D300120B7A1206C89003831206C8790074107C
:1037E300120B7A12506912251F740A1208B8850841
:1037F30082850983A3A3A3A3A3E04405F074012551
:1038030014FC1238DA1216438A108B110514E510D2
:1038130045116050851408C3E508950AE4950B50DB
:1038230043E51475F006A4F8A9F0E51228F8E513AA
:1038330039F9E8240CF508E439F509850882F5839C
:10384300E4127440E0640160030237617515018579
:10385300088285098374011238EB125EF7E8F0A33E
:10386300E9023778AA12AB13120DE578121208DBBE
:10387300AD167424120B7AE0FCA917EEFAEFFB12D3
:10388300263974021208B8803E8E828F83A3A3A3C5
:10389300E0C0E07403120B7AD0E0F0EE2412126160
:1038A300C3C0E07404120B7AD0E0F0E50A450B7054
:1038B300097405120B7A74B980077405120B7A74B4
:1038C30010124B8C1225257408023EEAE085128201
:1038D300851383A3A3A3228E828F8312620C8E820D
:1038E3008F83A3A3A3E0F922127444A32274E812E2
:1038F300039B74F2120967E9851882851983F08A9C
:103903000A8B0B8C168D177426120B7A1242EEAAB1
:103913000CFB120DD3E9F514AA0CAB0D120DD9E96A
:10392300F515E5147003023B63751300800F8E8257
:103933008F83A3A3A3A3A3E0D2E3F00513E50C12A3
:10394300503E350DF583E0F8E513C3984003023B81
:103953005AE5147003023B5AE51375F006A4F8A95F
:10396300F0E50C28F8E50D39F9E8240CFEE439FFFD
:103973008E828F83A3A3A3A3A3E0A2E040BD750E11
:10398300008E828F83E07043125064120CAD8A085C
:103993008B09A808A909E849603188828983A3A310
:1039A300A3A3E06401600D88828983A3A3A3A3E09A
:1039B300640370178E828F83A3A3A3A3A3E0D2E72C
:1039C300F0750E01E515700302393E750F00750899
:1039D30008750900E5176003750F207C087D0079E1
:1039E300007401120929121DF98E828F83E0603C55
:1039F3009003C6E064017018E50FD2E3F50F750973
:103A03001012649F7401120B7A124AAD74FF803A4C
:103A1300430F0C75080C8E828F83A3123B711250D7
:103A23007F7401120B7A74FFF0A3801E85188285C0
:103A33001983E06009E50FD2E6F50F75080A1264F1
:103A43009F7401120B7AE8F0A3E9F07403120B7A66
:103A5300E50F125F2AC0E07405120B7AD0E0F07410
:103A630006120B7A7401F0120929122555740D12EE
:103A73000B7AE06003023B357409120B7A12457D21
:103A83008E828F83A3A3A3A3F07409120B7A123B34
:103A9300841242E4E516123B7B60119003C6E0C03A
:103AA300E07409120B7A1242FAD0E0F0850C828599
:103AB3000D83A3A3A3E0C0E07409120B7A12622E54
:103AC300D0E01251F8C0E07409120B7A124304D00B
:103AD300E0F07409120B7A123B71126AB0125F3371
:103AE300125065126A91EAF0A3EB125F19C0E0125B
:103AF3006A89D0E0F07409120B7A123CB3123B6866
:103B03001247D13B125F0612619D123EFE751200F1
:103B130078101208D7124B71EA1250373BF5831213
:103B23005065121DED74031208B8740112092912AD
:103B3300254F8E828F83A3A3A3A3A3E0D2E0F074C7
:103B43000D120B7AE06003023931E50EA2E0500258
:103B53001515151402393E7900AA0CAB0D12262D4A
:103B6300740E023EEAA3A3A3A31264A8EA2212647A
:103B7300A8850A82850B8322123B7F2212663DE0D1
:103B8300221247F01253DB39F583E508F0A3E50968
:103B9300F02274F012039B74E9120967EAFEEBFF4B
:103BA30089088E828F83A3A3A3A3A3A3A3A3E0F96E
:103BB300120DFD8A0C8B0DEA450D7003023CAEE538
:103BC3000870157C048E828F83A3A3A3A3A3A3A34E
:103BD300A3E0F9120E03804F7C088E828F83A3A388
:103BE300A3A3A3A3A3A3E0F9120E038A0A8B0BEAF0
:103BF300450B6033E508F50978091208DF850C8267
:103C0300850D83A3A3A3A3A3A3A3E0FD8A828B8330
:103C1300A3A3A3E0FC8A828B83A3123CB3E0F91233
:103C230015B374011208B8124B67125593607C8860
:103C33008289831250617406120B7A123CBD1250B2
:103C4300657408120B7A123CBDA3A3E0C0E07410A4
:103C5300120B7AD0E0F0850C82850D83A312505DA0
:103C6300740E120B7A126AD27411120B7AE4123B9D
:103C73007BFAA3E0CA241FF582E43AF5831245BD1B
:103C8300E0C413135403FC70027C0488828983E02C
:103C9300F9780C1208DB742059FD744059F9740249
:103CA30012092912263974021208B8741702455FE3
:103CB300126212850A82850B8322EAF0A3EB124972
:103CC30075A3A32274F712039B74FA120967E9FE22
:103CD3007F018F087D0080047508000D12451FE0E9
:103CE300F8EDC3985027ED75F006A4F8A9F0EA287B
:103CF300F8EB39F9E8125F2439F583E0A2E050D8F4
:103D0300540C60D4E0A2E250D27F0080CE8A828B32
:103D130083A3A3A3A3A3A3E0703EE508A2E0400509
:103D230074016E70338A828B83A3A3A3A3A3A374AA
:103D330001126956E0C0E07403120B7AD0E01269F5
:103D43004EE0C0E07404120B7AD0E0F07405120B5D
:103D53007AEF124B8C122525740602524FC082C093
:103D630083790112262D024BB274F412039BEA4BA2
:103D7300602D9003C2E0640270259011C1E4F08AC3
:103D8300088B09F50AF50B78081208D37A027B0031
:103D9300900301E0F9121F9174041208B880129085
:103DA30011C17401F07A027B00900301E0F9121F44
:103DB3009D800574021208B87F040205F974E812A5
:103DC300039B74FC1209677402120B7AE4F0A3F0EC
:103DD300900320125B55851882851983E4F0A3F0C4
:103DE300751401900370E0A2E35003023E77121FA3
:103DF300AF8A088B098C0A8D0B8A0C8B0D8C0E8D68
:103E03000F900322780C120939123EF27810790CC4
:103E1300120AD450077A017B00023EE8850C148510
:103E23000D15850E16850F177814791012032CA81B
:103E330014A915901258E0C398E4995003E0F514BF
:103E4300123EF2780C791012032CE4F512F5137874
:103E53000879101209D09003227808120B138014EA
:103E63001264A4900320125083EEFAEFFB121ED1CA
:103E7300AE08AF09EE4F60658E828F83A3A3A3E0E4
:103E8300F8E514C3985029EE2403F582E43FF58343
:103E9300A814E0C398F060217402120B7A12662909
:103EA3001258A0EEF0A3EF124DA3FEA3E0FF80C4CF
:103EB3008E828F83A3A3A3E4F08E828F83A3123514
:103EC300198518828519831255958E828F83A3A332
:103ED300A3A3608C124B541245C6A38089740212AB
:103EE3000B7A12506574041208B87F100205F9901A
:103EF3001256123EFEE4F512F51322E0F510A3E08C
:103F0300F5112274F212039B8A0A8B0BE9FE7A00E5
:103F13007B0090032012351C900320125595601EE0
:103F23000A850882850983A3A3A3A3125595600E6E
:103F33000AEA70010B88088909E8450970E39012C1
:103F4300591264A4C3EA98EB994003023FF17A063D
:103F53007B00121ECB8A0C8B0DA80CA90DE84970AF
:103F630003023FF188828983E50AF0A3E50BF0EEB3
:103F730088828983A3A3F090125812481CA3A3122A
:103F83004970E4F0A3F0900320125589600B850873
:103F93008285098312507F801F90032012508390E3
:103FA3000370E0A2E34011121FAFEAF8EBF9ECFA59
:103FB300EDFB900322120B4B900370E0A2E3502E13
:103FC3007A087B00900301E0F9121FA3EA4B4C4DE2
:103FD300701C90125612724878081208D37A087B24
:103FE30000900301E0F9121F9774041208B8023518
:103FF3002774F212039B74F3120967EAFEEBFF8E38
:10400300828F83A3A3A3A3A3A3A3A3A3A3E0F50ADC
:104013009011C1E0700579BA0242D875080175099B
:1040230000750C00750D007C087D007900AA18ABA3
:1040330019121DF97405120B7A74011243105404FA
:1040430060127402120B7AE0D2E612431054087025
:1040530003750803E05410600674404508F508E052
:10406300540860227402120B7AE044C012431054C5
:1040730020600A7403120B7AE0D2E0800874031202
:104083000B7AE0D2E1F08E828F83A3A3A3A3A3A331
:10409300A3A3E07016121055851882851983126A3E
:1040A300D27402120B7AE0D2E2802C640F70107487
:1040B30002120B7A12431874044508F508807B8EAC
:1040C300828F83A3A3A3A3A3A3A3A3E064028E82EB
:1040D3008F837006124A9FF08060A3A3A3A3A3A3B8
:1040E300A3A3E06403700DAC18AD19EEFAEFFB1255
:1040F30025DF80468E828F83A3A3A3A3A3A3A3A3B9
:10410300E0640170359003C6E060107402120B7A0C
:10411300124318750910750AFF80187402120B7A7E
:10412300E0440C1258A074FDF0A374FFF07404452E
:1041330008F5088E828F831242EEEE24151261C3B6
:10414300A2E0503F7402120B7AE0540C701B8E8273
:104153008F831250651223E7E9700579BB0242D8B9
:104163007402120B7AE0D2E5F0EE24151261C3A2B9
:10417300E050107402120B7AE0540C64047004E0F3
:10418300D2E5F0EE24111261C3C0E07404120B7A7D
:10419300D0E0124B8C122555740C120B7AE060039D
:1041A3000242D17408120B7A123B84EE2418126176
:1041B300C3C0E01242E4D0E0125F0EE0C0E0740836
:1041C300120B7A126A9B1261BA38F583D0E0124A55
:1041D300A7640170119003C6E0C0E07408120B7A63
:1041E3001242FAD0E0F07408120B7A12588F241797
:1041F300FAE43FFB8A828B83E0FCE8241CF582E42B
:1042030039F583ECF0A3E41255A5E0C0E0E82422DD
:10421300F582E439F583D0E0F07408120B7A124387
:1042230004E50AF07408120B7A1247EC1247D139ED
:10423300F583E50CF0A3E50D126252FCA3E0FD1239
:104243006ABBECF0A3ED12454B1251D41242DD3997
:104253001264B1C0E0E8242FF582E439F583D0E09D
:10426300F0EE241B1261C3C0E07408120B7A126AC9
:10427300A4D0E0F0EE241A1261C3C0E07408120B5C
:104283007A126A9B125A4038F583D0E0126AD81228
:1042930034B51208D71253C71251D4740B120B7AC8
:1042A300124A87121DED74031208B8EE2415126129
:1042B300C354406012900330125595600AAA18AB9C
:1042C30019126BF7122686AA18AB1912254F740C14
:1042D300120B7AE0F9740D023524E82428F582E400
:1042E30022E82412F582E439F583221242F222E015
:1042F300F50CA3E0F50D22126A9F125E8F38F58349
:1043030022126A9F2423F582E438F58322F0EE24F7
:10431300151261CA22E0D2E312663D124322221231
:104323004B5CE8F0A3E9F02274F712039B7E638AE7
:10433300828B83E0600C7905120C05E9F87456C38F
:1043430098FE90036EE0600CF9120C05E9F8EEC3D9
:104353009824F2FEEEF902525274F612039B74FE95
:10436300120967851882851983126AD2E9FEECFA6D
:10437300EDFB9005391255956035A818A9198808E1
:10438300890978081208DB7D01740E120B7AE0FCB0
:10439300EEF9900539124C1B12268674021208B8E6
:1043A3008B09EA450960047900800679B2800279B5
:1043B300B602458A74F712039BE9FE900310125567
:1043C30095601F7409120B7AE0F50878081208DF6C
:1043D300EEF9900310124C1B12268674011208B8D2
:1043E300800279B602525274F712039B8908ECFEDD
:1043F300EDFF79B5E508245F600C14603114601299
:1044030024F86041804A900303125EEBE8F0A3E9CD
:10441300801990053B125589603690053B124C1B61
:104423001226868E828F83EAF0A3EBF0802090031E
:10443300121263EC601AEEFCEFFD900312124C1B98
:10444300122686800B90030E1250691220337900D6
:104453000252521264A89003032274F512039BEADA
:10446300FEEBFF8C088D09750A0112104FEAFCEB75
:10447300FDEEFAEFFB12202DE96401700B90037639
:104483001245D2125083800EAC08AD09EEFAEFFB51
:10449300120C53E9F50AA90A026D1374F612039B71
:1044A300EAFEEBFF7A0C7B00121ECBEA4B606AEE4E
:1044B30024201261C38A828B83F0EE2421124527C4
:1044C300F0EE2422124527A3F0EE2423124527A35E
:1044D300A3125A5512453012507FEE1242DE3FF5B9
:1044E30083124530A3A3A3A3A3A3E8F0A3E9125A1D
:1044F300648A828B83A3A3A3A3A3A3A3A3F0EE2421
:104503002F1261C3C0E012451FD0E0125201F8A37D
:10451300E0F98A828B8312507A02458FEA12504265
:104523003BF583221261CA8A828B83A3221264A879
:104533008A828B8322124325EE12455622F582E4AA
:104543003FF583E4F0A3F022F0EE1253D422EE12EF
:104553004556222412F582E43FF583221208B87FE0
:10456300080205F912456F8882F58322F8E43FF9C2
:104573008808890922124A7FA3221245E0E0221209
:104583004B7DF8A3E0F92274021208B87F020205FA
:10459300F9C082C0831245FAE4F0024BB212508E86
:1045A30022F583E02AFAA3E03B227901020885F988
:1045B30088828983E0FAA3E0CA22E0FAA3E0F583C4
:1045C3008A8222E0FAA3E0F5838A82A3A3A32212BC
:1045D30045D6221264AC85088285098322124ACF0C
:1045E300C8240EF582E438F58322C082C0831245C5
:1045F300FA7401F0024BB2EA1268F23BF58322022D
:1046030045ADC082C08390032674CDF0A37425F01A
:1046130090032874C1F0A37425F090032A7497F0D3
:10462300A37425F090032C74C7F0A37425F0024BF8
:10463300B274F412039BEAFEEBFF12468AF50812EA
:1046430010558A0A8B0BA80AA90B8E828F831245F9
:10465300BDE0687003A3E069602AE508A2E5502481
:104663008E828F83A3E0FB900326124C1B122686B7
:104673008E828F83126A9B240A12558F700612460C
:104683008AC2E5F0023DBB8E828F83124578A3E098
:104693002274F412039BEA2408FCE43BFD8C828D14
:1046A300831247EC124D61E0FE74035EF50912506C
:1046B3003D3912588D88828983F0A3A882A983E5A6
:1046C30009600974026509600302475F740C5EF5B3
:1046D3000860177408650860117404650870137422
:1046E3000265097005EEA2E4402A1247F52423125D
:1046F3004822740C650870161247DE2424124807FA
:10470300FCA3E0CC1247D13CF583A31248287402E2
:1047130065097005EEA2E440431247DE24261248E1
:1047230007FFA3E0CF125A46A31248281247E224F8
:10473300281248371242DE3CF583A3124828E508C5
:10474300601274086508600C740C650860067404D4
:10475300650870081247F524221248221247F51201
:1047630047C57005EEA2E1500C1247F5125A403CC2
:104773001247D7800E9003021247D9900302E00438
:10478300124AD4A3A882A983EEA2E750321247DECD
:1047930024211248371247C560251247F5243012E9
:1047A3004822EEA2E150188A828B83A3A3A3A3A37A
:1047B300A3A3A31245B72431F582E43A1247D702E3
:1047C3003DBB2421F582E43CF583E05403222424F9
:1047D300F582E422F58312481CF022EA2408FC8CBB
:1047E300828D83E0FFA3E0CF221247F0221264AC54
:1047F300E8228A828B83A3A3A3A3A3A3A3A3E0FC9E
:10480300A3E0CC22F582E43FF58312481CF0A3A871
:1048130082A9838C828D83E022E08882898322F5BA
:1048230082E43CF58312482C22E088828983F0A33A
:1048330008A98322F582E43FF58312482C8C828DEC
:1048430083E0FCA3E0CC22C082C0838A828B8312E4
:10485300468EF8740358F98A828B83A3A37401F0FC
:10486300E960057402697061740C58FC6014740883
:104873006C600F74046C70137402697005E8A2E431
:10488300401D8A828B83A3A37402F0740C6C700A9C
:104893008A828B83A3A3E02402F07402697005E883
:1048A300A2E440258A828B83A3A3E02404F0EC6076
:1048B3000F74086C600A740C6C600574046C7009E6
:1048C3008A828B83A3A3E004F0E8A2E750318A82B3
:1048D3008B83A3A3E0041264B7F9A3E0F583898271
:1048E300A3A3A3E0540360178A828B83A3A3E004EA
:1048F300F0E8A2E150098A828B83A3A3E004F08A43
:10490300828B83A3A3E004F0024BB2C082C0838AEC
:10491300828B83A3A3A3A3A3A3A3A3A3A3125595AA
:10492300600C8A828B83A3A312505D121ED1024BAB
:10493300B274F712039BEAFEEBFF8E828F8312534E
:10494300E9A3A3A3A3A3A3A3A3E4F0124970A3A37E
:10495300A3A3A3A3F0A3F0E81268F239F583E4F06C
:1049630012257FEEFAEFFB12258B025252A3124956
:104973007522124AD4A3A3A3A32274F112039B7436
:10498300F3120967EAFEEBFF740C120B7A7401F061
:104993001225858E828F83A3A3A3A3A3A3A3A3A37B
:1049A300A31255956006124C141226861261C0603C
:1049B30003024A457C087D007900AA18AB19121D31
:1049C300F97402120B7A7401124A74124A9F124A42
:1049D300A7F8A3E0C81268DC38F583E02409C0E037
:1049E3007404120B7AD0E0F07405120B7A124B8A1E
:1049F300122555740C120B7AE070477408120B7A67
:104A030012513C740E124A741251D2850882898362
:104A1300A3AA82AB8312203312505912451F12628C
:104A23003E1208D71268D6124B76E5082409FAE439
:104A33003509FB121DED74031208B8AA18AB19123D
:104A4300254F8E828F83A3A3A3A3A3A3A3A312554E
:104A5300956006125059121ED1EEFAEFFB1225791A
:104A6300740C120B7AE0C0E01254BBD0E0F0025495
:104A73004A12559F124A7B22124A7F22124ACFF5CD
:104A830083888222124A8E12621222124A922212C0
:104A93004ACFC8242BF582E438F58322124B58E819
:104AA300F0A3E922125A71A3E0221243258E828FCA
:104AB30083A3A3A322EE2402F8E43FF98882898327
:104AC30022EAF0A3EB124AD4124ACF22E0F8A3E081
:104AD30022F08882898322C082C08374F912096715
:104AE300124B4A125083EA2402F8E43BF988828984
:104AF30083E02401124B437402120B7A124AC4F965
:104B030088828983A3A3A3A3A3A3A3A3A3E0FC886D
:104B1300828983A3A3A3A3A3A3A3A3A3A3E0FBECDF
:104B2300FA7404120B7A124D90124D70C0E07406A1
:104B3300120B7AD0E0124B8C1225197407024BAF7B
:104B4300FAA3E03400FB228A828B83A3A3A3A3A34B
:104B5300A3124B5822124B5C22124ACFF9851882BA
:104B630085198322EE1268DC3F221253F822126960
:104B73000A350BF583E0FC7D0022124B8122F08580
:104B83000882850983E0227401F0AA18AB19221266
:104B93004BA822C082C083124C1F7003122567806A
:104BA3000E8A828B83A3A3124A7FE0221208B8D015
:104BB30083D082020885C082C08390125BE0702597
:104BC3009011B6E0701F8A828B83A3A3A3A3A3E0F3
:104BD3007013124C1F60388A828B83A3A3126BF667
:104BE300E06407602A8A828B83A3A3A3A3A3A3A35E
:104BF300A3E070128A828B83124C2560097A347B7E
:104C0300011221B9800990032E124C1B12268680B3
:104C13009EEEFAEFFB900328124A7B22124BA46408
:104C23000622124BA864052274F612039B74FA122F
:104C33000967EAFEEBFF7403120B7A125E957403A5
:104C43001209291225731261C06003024D5685189B
:104C5300828519837432F07405120B7A126C45C085
:104C6300E07401120B7AD0E0124D97C0E074021287
:104C73000B7AD0E0124D9DF8A3E0F9E849601BE8F8
:104C8300125EC539F583E0FAE8124D5B39F583E02E
:104C93002AF87401120B7AE028F0AA18AB19120D46
:104CA300258A088B09A808A909E8497003024D4B16
:104CB3008E828F8312506588828983A3A3124D90BD
:104CC300125EDB391251FDC0E0E8124D61D0E012F3
:104CD30051F8C0E0E82421F582E439F583D0E012ED
:104CE3004DA3C0E0E8242AF582E439F583D0E0F04F
:104CF3007405120B7AE0FCE8124D702C124B43E85A
:104D030012503739F583124D90242DF582E439F58D
:104D130083EC124D9DFAA3E0FBEA4B6019E8242BC8
:104D2300FAE439FB8E828F83A3A31247F9124D5BFA
:104D33003CF583124D788E828F83A3A3A3A3A3A3F1
:104D4300A3A3E8F0A3E9800AEEFAEFFB1225791298
:104D53004D6AF0740602458C2416F582E422242061
:104D6300F582E439F583221254BF741022125042A3
:104D730039F583E022E0FC8A828B83E02CFCA3E0FC
:104D83003400FD8A828B83ECF0A3EDF022EAF0A3DA
:104D9300EBF0E822124DA8A3E0221255A9A3E022CA
:104DA300124DA8E022124DAC22124DB022F08E8299
:104DB3008F83A3A3A3A32274F612039BEAFEEBFF44
:104DC3001261C070421225858E828F83A3A3A3A391
:104DD300A3A3A3A3A3A31255956006124C141226F2
:104DE300861261C0700B125059120D1F124E14809F
:104DF30015EE2408124567125065121ED1850882EC
:104E0300850983E4F0A3F0EEFAEFFB12257902455E
:104E13008F1254BFE92274F612039BEAFEEBFF8C58
:104E2300088D091223E7E9700479018011AC08ADFC
:104E330009EEFAEFFB90032C124C1B122686024557
:104E43008F74F112039B74F31209678A088B097438
:104E53000C120B7A1251ED121DF985088285098314
:104E6300A3A3E064046003024F117404120B7A7469
:104E730022F0740C120B7AE0600302502D85088235
:104E8300850983124B541250837402120B7A7401F6
:104E9300125413C0E07405120B7AD0E0125444F894
:104EA300A3E0F97406120B7A1254DCA3A3A3A3A301
:104EB300A3A3E0640170097402120B7AE0D2E5F057
:104EC300AA18AB19122555740C120B7AE060030271
:104ED300502D7408120B7A126A9B12503738F583DF
:104EE300125B558E828F8374051250871254F2E839
:104EF30049606E85088285098312623A1208D77C5D
:104F030010125048121DED74031208B8805F850813
:104F130082850983A3A3E06401600D850882850966
:104F230083A3A3E06406700A7404120B7A74230249
:104F33004E74850882850983A3A3E06402600D850E
:104F43000882850983A3A3E06403700A7404120B27
:104F53007A741B024E74740C120B7A74B3F0025001
:104F63002D7C107D00790012504A121DF9EE241297
:104F7300FE50010F850882850983A3A3E0640160C5
:104F83000D850882850983A3A3E06406700D850857
:104F930082850983A3A3A3E0126C3A85088285095D
:104FA30083A3A3A3A3A3A3125069120C41EE240865
:104FB300FE50010F850882850983A3A3E064046082
:104FC3001A850882850983A3A3E06401600D85081F
:104FD30082850983A3A3E06406700FEEFCEFFD7ADC
:104FE300007B0079AB1225E5801185088285098352
:104FF300A3A3A3A3A3A3A3125052F08508828509F8
:10500300831250651210DFE960087408120B7A12DC
:105013005C80E50812503E3509125593AA18AB1966
:10502300600512256D800312254F740C120B7AE074
:10503300F902544A242BF582E422E8125042222436
:105043000BF582E4227D00EE2402FAE43FFB22A367
:10505300E08E828F83228E828F83A3A3A3A3A3A335
:10506300A3A3126212221251D8EEFAEFFB22A3A3DA
:10507300A3A3A3A3125EEFA3A3A3A3A3A3A3A3A387
:105083001243252212543012508E22E08E828F83D7
:10509300A32274F612039B74F3120967EAFEEBFF73
:1050A3007C087D007900AA18AB19121DF91251C3AF
:1050B300120B7A740CF07405120B7A7401125A6C89
:1050C30060097402120B7A742180077402120B7A3E
:1050D3007401124B8C122555740C120B7AE070423A
:1050E3007408120B7A12513C7406124DA31251B577
:1050F300122033124AB8125131A3A3A3A3A3A312BC
:10510300540E850882850983A3A3A3A3A3A3A3A302
:10511300A312559AE0C0E0125ECBD0E0124B8C1282
:10512300254F740C120B7AE0F9740D02458CE0855F
:105133000882850983A3A3A3221251E6880889095B
:105143008882F5832274F712039B74F3120967EACA
:10515300FEEBFF7C087D007900AA18AB19121DF93C
:105163001251C3120B7A7409F07405120B7A74018D
:10517300124DA3640170097402120B7A7421800723
:105183007402120B7A7401124B8C122555740C1293
:105193000B7AE0701A7408120B7A1251DE7407123C
:1051A30052011251B5122033AA18AB1912254F021E
:1051B3005246FCA3E0FD88828983A3AA82AB8322A3
:1051C3008E828F83124B58124325740422A3A3A308
:1051D300A31251D822E0FCA3E0FD221251E68882FB
:1051E300898322124A921264AC22E4F07C08FDF90E
:1051F300AA18AB1922126636E022F5837401126AEB
:10520300C9A3E022C082C08312259190032E74614A
:10521300F0A37425F0024BB274F712039BE9FE125C
:1052230068D6125593601A88828983A3E054037069
:1052330010EEFB12503D39F58312527EE0F9121540
:10524300AD800C740C120B7AE0F9740D1208B87F60
:10525300010205F9C082C083EAF8EBF988828983E9
:10526300A3A3A3A3A3E0FB88828983A3A3A3A3127D
:10527300527EA3E0F91215AD024BB2E0FA8882899F
:1052830083A3A32274F012039B8A088B098C0A8DD3
:105293000B890FEA125EB7E02430FA7B00121E1767
:1052A3008A0C8B0DAE0CAF0DEE4F70030253C48E00
:1052B300828F83740112639E1208D77C177D00EEE0
:1052C3002419FAE43FFB121DED74031208B8850A92
:1052D3000C850B0D780C1208D77C09125048121D4F
:1052E300ED74031208B87410120B7A1253F11250B2
:1052F300837412120B7A1253E9E0C0E01253CFD039
:10530300E0125EFCC0E01253C7D0E012540EC0E0BE
:10531300125B40D0E0F07414120B7AE0C0E0124547
:1053230051D0E0F0EE24271245407415120B7A1287
:105333000B571253E1120B4B125EBDE50F125413C0
:10534300F8A3E0F9124B67F5831250837419120B1B
:105353007AE0C0E0125EE1D0E0126C5AE0602FEE1A
:1053630024271258742430125400240E126C36125F
:1053730074321208D7E5081261A53509124B768AF3
:10538300828B83125065121DED74031208B8EE244C
:105393001A1261C35403601D90031E125595600CCD
:1053A300EEFAEFFB126BF71226868015EEFAEFFB8F
:1053B300121E1D800CEEFAEFFB900301E0F9121EA2
:1053C30023024562EE125F243FF58322EE1253D48B
:1053D300221253DB3FF58322240FF582E422EE12DF
:1053E30061BA3FF583221264A888828983221264FA
:1053F300A81253F822EE1250423FF58322F8E43FFD
:10540300F98A828B83124325E50822126975E0220B
:10541300125430A3A3A3A3A3A3A3A3E022F50CA335
:10542300E0F50D750E00780C22125430221254E868
:1054330022A3A3A3A3A312543D221254E8A3A3E0DF
:1054430022F0125ECFE022740D1208B87F07020526
:10545300F974F112039B8A088B097A0F7B00121EE1
:10546300178A0A8B0BAE0AAF0BEE4F60498E828F01
:105473008374051254FAE8F0A3E91254F21254BBF0
:105483001254DC12623E1208D77C087D00EE24041D
:10549300FAE43FFB121DED74031208B885088285F8
:1054A3000983A3A3A3A3A3A3E0C0E01254C9D0E03C
:1054B3001254D1121E2380941254BF22EE240CF5F1
:1054C30082E43FF58322EE1268FC3FF58322F0EE7F
:1054D300FAEFFB9010A7E0F9221254E022E8F0A3C0
:1054E300E91254E822F0850882850983A3A32212D6
:1054F300543DF8A3E0F9221254FE22124B81F8A383
:10550300E0F98E828F83A3A322C082C083E9901126
:10551300C2F090031A7469F0A37426F090031C740C
:10552300D9F0A37425F090031E74AFF0A37425F093
:10553300024BB274F712039BEAFEEBFF8908EE4FAE
:10554300700312172190033212559570089003329D
:1055530080221264A488828983A3A3A3A3A3A3A301
:10556300A3A312558988828983A3A3A3A3A3A3A377
:10557300A3A370DEEEF0A3EF1255A5E4F012559A43
:10558300E508F0025252126212EA4B22F582E43825
:10559300F5831247F04922A312559F22124DACA363
:1055A300A3221255A922125A75A3A32274F7120338
:1055B3009B900332800D8E828F83A3A3A3A3A3A307
:1055C300A3A3A3125B55EE4F60348E828F83A3A3F4
:1055D300A3A3A3A3A3E06970DD8E828F83A3A3A3F8
:1055E300A3E06A7003A3E06B70CC8E828F83A3A3C6
:1055F300A3A3A3A3E06C70BEEEFAEFFB80047A00D2
:105603007B0002525274F712039B900332125B55D4
:10561300900332123B6C687002EB69701EE0C82481
:1056230009F582E438F5831264A49003321250839F
:10563300900332125B558024125B48EE4F601D8E3F
:10564300828F83A3A3A3A3A3123B68687002EB69B1
:1056530070E68A828B83A3A3A3125071121ED1EE2C
:10566300FAEFFB02525274F012039B74FA120967A9
:105673008A088B098A828B83A3A3A3A3A3A3A3A3CF
:10568300E060336401602F8A828B831250651210AD
:10569300DFE97022850882850983A3A3A3A3A3A3BB
:1056A300A3A3E0640370147404120931AA08AB09BC
:1056B3001225DFE97016790202585D850882850993
:1056C300831264A47404120B7A125083E508241124
:1056D300126C2D2432124B43121ECB8A0A8B0BAE53
:1056E3000AAF0BEE4F700302585B7C327D007900EA
:1056F300121DF97402120929850882850983A3A35F
:10570300A3A3A3A3A3A3A3E0F91215FB7402120B93
:105713007AE0C0E0125A2FD0E0F0EE242CF50AE430
:105723003FF50B7403120B7AE0850A82850B83F035
:105733007901EEFAEFFB12250D85080C85090D752D
:105743000E00780C1208D77C1C7D0012586C121DB9
:10575300ED74031208B8EE24301258742432125434
:10576300002411F8E43509F9E8FCE9FD8C828D8306
:1057730012588F125A39125408125C58127432128A
:1057830008D78C828D83125885125065121DED74D3
:10579300031208B87404120B7A125EEB12507F9056
:1057A300030212587EA3A3A3F0900302E004F012B5
:1057B3001FAF126ACEEE242A1261D2750D00850A3C
:1057C30082850B83E0780C120A1E8A828B83E50C98
:1057D300F0125862E50C1258A0E4F0E50824151203
:1057E3006C2DA2E074015007120B7A74018004122D
:1057F3000B7AE4F0EE242712456FAA18AB191215A1
:10580300E3E924FE850882850983F0EE242EF8E47B
:105813003FF9E8FCE9FD125894120253E88E828F97
:1058230083A3A3A3A3A3A3A3A3F012589412025385
:105833008B09EA4509600F8E828F83A3A3A3A3A3D9
:10584300A3A3A3E004F0EE24201261C34408126270
:1058530047121E59790080027910740602455FEEE3
:105863002429F582E43FF58322EE240BFAE43FFB7F
:1058730022F8E43FF9E8FAE9FBEE2212508EA3A3E3
:10588300A3221251D88A828B8322F5831264A8EE55
:10589300228C828D831245D6E0FA7B0022F0851894
:1058A300828519832274F412039BEAFEEBFF121F15
:1058B300AF126ACE90124CE0F8EE242B1261C3C3F0
:1058C300984003025A131261DE7012EE242B126108
:1058D300C304125A64C0E0125862D0E0F0EE2428E8
:1058E3001261C3FC7900800109EE242C1261C3F814
:1058F300E9C3985026750801750900E97808120A6A
:105903001E1261DE550860E0E92CFC75080175097B
:1059130000E97808120A1EE04508F0EE2427125A1F
:105923004AEE125A39EC8A088AF0A4F8ABF0E42B59
:10593300F9E098F8A3E099F9C3E89508E99400EE33
:10594300403524271261C3F81261DE6030125A2FEA
:10595300125A4FA3E4F0EC7050EE24201261C344BA
:1059630020124AA7C0E0EE125A46D0E0F0EE2430EF
:10597300125A4AA3E0805812586374FFF0900366EA
:10598300E0FA90124FE0F508EA8508F0A4ABF07551
:10599300F064A4FAADF075F064EBA42DFB8E828F56
:1059A30083A3A3EAF0A3EB80ACEE24201261C354DB
:1059B300DF125A55ECF08C08EE24271261C38508D8
:1059C300F0A4FAABF0EE2430F582E43F1245A4FBD9
:1059D300125A25EAF0A3EB125A6CC0E0EE2425F527
:1059E30082E43FF583D0E0F0EE241CF582E43FF53A
:1059F30083E8125C88900334125595600BECF9121E
:105A03006BF7122686E9701712586C122603800F63
:105A13007BE9125C711215ADEEFAEFFB121841022D
:105A23003DBBEE241EF582E43FF58322EE242DF5E3
:105A330082E43FF58322125A403FF58322242EF558
:105A430082E422125A5B221261CAFA2212508EA3F6
:105A5300F022F0EE125A5B222426F582E43FF5830E
:105A630022F0EE242A1261CA22125A71E022125A3B
:105A73007522124DB0A3A3A32274F412039B9003C7
:105A830032125B55121FAF8A0A8B0B78FF79FF80A6
:105A930020E0C39AFCA3E09BFDC3EC98ED99500E64
:105AA3008E828F83A3A3E0C39AF8A3E09BF9125BD2
:105AB30048EE4F605C8E828F83125065E50AC39A6D
:105AC300FAE50B9BFB8E828F831251D2C3EA9CEBC8
:105AD3009D8E828F83A3A340B8A3A3A3A3E06402F4
:105AE300701AEE240B1261E16009125B40125065DB
:105AF300121E1DEEFAEFFB1218418007EEFAEFFBC0
:105B03001226097A017B009011C2E0F9121E598016
:105B13002974FF68700374FF69601F88088909E4AA
:105B2300F50AF50B78081208D37A017B009011C2AD
