:020000040000FA
:06000000020AF80201E80B
:03002B0002077B4E
:030033000205DCE7
:030043000207A011
:030053000201297E
:03006B000205B5D6
:1000830002017701FF01010503010F10FEFF10308C
:1000930000000000822E00000000FF000000FF00AF
:1000A300018813000061815A0020FD000200003F17
:1000B3001B000000000000471C00000000000000BF
:1000C300000000000000000000000000000000002D
:1000D300000000000000000000010000000000001C
:1000E3000006FFFF01010100A910000000E803FF63
:1000F300FF2611E80364006400B801020200000057
:10010300040502070101051E02051E020A0A010574
:10011300B80B02803E0102FEFFE8030A0500015509
:1001230005010A1401E0C0E074F2120409A2AFE46D
:1001330033FED2AF85A708AFA1EF55085410600670
:100143001218B775A1EFEF5508540860081218BDCF
:1001530075A1F78013EFA2E092F0E508A2E082F028
:10016300500612197775A1FEEEF8EEA2E092AF7F6A
:1001730001020468C0E074F2120409A2AFE433FF81
:10018300D2AF9061A4E0FE759B00E5915E540860D8
:10019300087591F71219118026E5915E54106008D5
:1001A3007591EF1219178017E591A2E092F0EEA274
:1001B300E082F0500A9061A4E0C2E0F0121A679066
:1001C30061A3E0FEE5E95E5404600E121A3D75E991
:1001D300FB906193E0A2E640F2EFF8EFA2E092AF6A
:1001E3007F01020468C0E074F2120409A2AFE43391
:1001F300FED2AF9061A5E0FFE5BF5F5404600675D2
:10020300BFFB121A7FEEF8EEA2E092AF7F01020469
:1002130068C3E498F8E499F91202558026C3E49A76
:10022300FAE49BFBE920E7E9120255E498F8E49924
:10023300F922C3E498F8E499F9120255E498F8E432
:1002430099F9C3E49AFAE49BFB22EB20E7CFE92078
:10025300E7E0B90010BB0008E88AF084F8AAF022AE
:10026300E4FBC8FA22EB70227B10C833C8C933C938
:10027300335007C39AC3DBF280069A50012ADBEAA4
:10028300C833F4C8C933F4C9FA2275F008E4C83393
:10029300C8C933C933C99AC99B5004C92AC93BD5B4
:1002A300F0ECFBC833F4C8E4C9FA22080808EAC032
:1002B300E0EBC0E086F0E7A4FA180986F0E7A42A89
:1002C300FA180986F0E7A42AFA180986F0E7A42A9F
:1002D300FA1986F0E7A4FBE5F02AFA190886F0E795
:1002E300A42BFBE5F03AFA190886F0E7A42BFBE50B
:1002F300F03AFA18180986F0E7A4C5F02BFBE43AA4
:10030300FA1908E7C5F0C6A426F6E5F03BFBE43A84
:10031300FA1886F0E7A4F6E5F00826F6E43B08F6BB
:10032300E43A08F6D0E0FBD0E0FA22E4CFC0E0E400
:10033300CEC0E0E4CDC0E0E4CCC0E075F020E6261A
:10034300F608E633F608E633F608E633F618181827
:10035300EC33FCED33FDEE33FEEF33FFC3EC9709D3
:10036300ED9709EE9709EF97191919400FFFEC97CD
:10037300FC09ED97FD09EE97FE191906D5F0BFECC0
:10038300F709EDF709EEF709EFF7191919D0E0FCB2
:10039300D0E0FDD0E0FED0E0FF222518C582C0E00A
:1003A300E51934FFC583C0E0E518C3958224F8102E
:1003B300AF0885831985821880088583198582187B
:1003C300D2AFCEF0A3E520F0A37808E608F0A3DED1
:1003D300FAEFF0A3E58124FAF8E608F0A3E608F0C3
:1003E300A3E608F0A30808E608F0A3E608F0A315BF
:1003F300811581D0E0FED0E0F8158115811581E8E3
:10040300C0E0EEC0E022C0D02518C582C0E0E519E7
:1004130034FFC583C0E0E518C3958224F310AF0809
:100423008583198582188008858319858218D2AF40
:10043300C8F0A3E9F0A3EAF0A3EBF0A37908E70976
:10044300F0A3D8FAECF0A3EDF0A3EEF0A3EFF0A342
:10045300D0E0F0A3D0E0F0A3D0E0F0A3E520F0A338
:10046300E5F0F0A322851983851882E0C0E0A3E0BC
:10047300F9A3E0FAA3E0FBA37808E0F608A3DFFA08
:10048300E0FCA3E0FDA3E0FEA3E0FFA3E0C0E0A344
:10049300E0C0E0A3E0F5D0A3E0F520A3E0A3F5F0EE
:1004A30010AF088583198582188008858319858292
:1004B30018D2AFD082D083D0E0F8D0E032120B73E1
:1004C300B900030204FFE490030178AF790F8002BF
:1004D300F0A3D8FCD9FA7AAF7B1190008678A4797F
:1004E300018015E493A3AD82AE838A828B83F0A34C
:1004F300AA82AB838D828E83D8E9D9E77582B175E1
:10050300838C7406120883758231758326740012F6
:100513000883E4730C75F0108E1A8F1B85821F8578
:10052300831E851882851983E0CEA3E0CF851F82C1
:10053300851E83EBC9EAC8EDCBECCAC3E833C8E92F
:1005430033C9EA33CAEB33CBC3EA9EF51DEB9FF500
:100553001CB35004AB1CAA1DEC33CCED33CDD5F04A
:10056300DAAE1AAF1B22D083D082ECC0E0EDC0E03C
:10057300E493A3FCE493A3FDED4C600D120689EC18
:1005830024FFFCED34FFFD80EFE493A3FCE493A38D
:10059300FDED4C600D120726EC24FFFCED34FFFD4E
:1005A30080EFD0E0FDD0E0FCE493A3C0E0E493C08F
:1005B300E022C0E074F2120409E589A2E54006E5F1
:1005C30089A2E450031217559005BBE02401F0758E
:1005D3008900C2C57F01020468C0E074F2120409F5
:1005E300E58BA2E050031217559005BCE02401F0FF
:1005F300758B00C2E87F0102046885198385188220
:10060300E0A3FEE0A3F5207808E0A3F608DFFAE014
:10061300A3FFE0A3C0E0E0A3C0E0E0A3C0E0E0A349
:10062300C0E0E0A3C0E010AF08858218858319807D
:1006330008858218858319D2AFD083D082020889B6
:10064300D083D082E9C0E0E493A3C386F0C5F095DC
:10065300F0F908E493A386F0C5F095F0700BE493EA
:10066300A3C3994005E9048002A3E475F002A4251D
:1006730082F582E5F03583F583D0E0F9E493A3C0F6
:10068300E0E493C0E022C0E0C3E4939608740193CE
:100693009618400FE4936670080874019366187007
:1006A300007019A3A3C3E49396087401939618A347
:1006B300A3400DD0E0D0E0D0E00205A5A3A3A3A3FF
:1006C300A3A3D0E0227404800474028000CCC0E0B1
:1006D300EDC0E0E518C39CCCAD1950011D10AF0669
:1006E3008C188D1980068C188D19D2AF1207E7D09C
:1006F300E0FDD0E0FC2274028000CCC0E0EDC0E05D
:10070300E518C39CCCAD1950011D10AF068C188D94
:100713001980068C188D19D2AF1207C5D0E0FDD011
:10072300E0FC22C0E0C0F088F0E49366700808742F
:10073300019366187000A8F0A3A3700BD0F0D0E06B
:10074300D0E0D0E00205A5A3A3D0F0D0E022D0836F
:10075300D082CCC0E0E493A360061208081470FAB8
:10076300E493A360061209551470FAD0E0FCE493F5
:10077300A3C0E0E493C0E022C0E0C0D0E8C0E0E959
:10078300C0E0A2AFE433F8D2AFC2C7E8F9E8A2E011
:1007930092AFD0E0F9D0E0F8D0D0D0E032C0E0742E
:1007A300F2120409A2AFE433FED2AFC2C0E5D1A274
:1007B300E45003121809EEF8EEA2E092AF7F0102B3
:1007C3000468CAC0E0E493A3C582CCC582C583CDC7
:1007D300C583F0A3C582CCC582C583CDC583DAE5C5
:1007E300D0E0CA22CAC0E0E0A3C582CCC582C583DB
:1007F300CDC583F0A3C582CCC582C583CDC583DABD
:10080300E6D0E0CA22C0E0E493A3D39C5010E49363
:10081300A3C39C400AD0E0D0E0D0E002076EA3A3BC
:10082300A3D0E022C008C3E096F50808A3E09642EF
:100833000808A3E096420808A3E09645087001D390
:10084300D008227009080808226016181818C6C3B1
:1008530033C608C633C608C633C608C633C6D5E092
:10086300EA22C5822518C582C583351910AF07F55D
:10087300198582188007F519858218D2AFC583229E
:10088300C09FF59FE473D09F22D083D082C09FE4A2
:1008930093C0E0740193C0E0740293F59F2225187E
:1008A300F58210AF08F518400C15198008F51840AB
:1008B300021519D2AF8519832200C0D0251810AFB5
:1008C30008F518500C05198008F51850020519D2BF
:1008D300AFD0D0227404800A7403800674028002AD
:1008E3007401C0E0F4041208A1D0E0120B3522BB5E
:1008F3000102E722C082C08389828A83BB0003E0AE
:100903008002E493D083D082226016080808C6C30D
:1009130013C618C613C618C613C618C613C6D5E021
:10092300EA222518F8E43519F9222518FAE43519CD
:10093300FB222518FCE43519FD22C3E0C696F60810
:10094300A3E0C696F608A3E0C696F608A3E0C6960B
:10095300F622C0E0E493A36C7009D0E0D0E0D0E0CD
:1009630002076EA3A3D0E022251810AF08F51840A4
:100973000C15198008F51840021519D2AF22E0664C
:10098300701008A3E066700A08A3E066700408A369
:10099300E06622E76670100809E766700A0809E74F
:1009A3006670040809E76622C3E09608A3E0960888
:1009B300A3E09608A3E096A2D265D03322C3E096C3
:1009C300F008A3E096F008A3E096F008A3E096F001
:1009D30022C3E697F60809E697F60809E697F608AC
:1009E30009E697F622C3E493960874019396087474
:1009F300029396087403939622E627F60809E637CE
:100A0300F60809E637F60809E637F622E026F6087F
:100A1300A3E036F608A3E036F608A3E036F6227024
:100A23000422600D18C6C333C608C633C6D5E0F426
:100A33001822E046F008A3E046F008A3E046F008D9
:100A4300A3E046F022E657F60809E657F60809E65A
:100A530057F60809E657F622E056F608A3E056F6DD
:100A630008A3E056F608A3E056F622E056F008A3E2
:100A7300E056F008A3E056F008A3E056F022E02683
:100A8300F008A3E036F008A3E036F008A3E036F060
:100A930022E647F60809E647F60809E647F6080995
:100AA300E647F622E4C396F608E496F608E496F6DB
:100AB30008E496F622600D08C6A2E713C618C6130B
:100AC300C6D5E0F322C6F4C608C6F4C608C6F4C603
:100AD30008C6F4C622C3E7960809E7960809E7960D
:100AE3000809E79622C3E09608A3E09608A3E096D8
:100AF30008A3E0962275D00075813F75180175191A
:100B030003000204C0600C08C6C313C618C613C68C
:100B1300D5E0F422E6F008A3E6F008A3E6F008A384
:100B2300E6F022E0F608A3E0F608A3E0F608A3E067
:100B3300F622CAC0E0E6F0A308DAFAD0E0FA22C54A
:100B4300822518C582C5833519C58322E8F0A3E938
:100B5300F0A3EAF0A3EBF022E0F8A3E0F9A3E0FAB4
:100B6300A3E0FB22E0FAA3E0FBA3E0FCA3E0FD2269
:100B7300E5C754F84401F5C77901222518F582E445
:100B83003519F58322C2AF75D69F020000221208E1
:100B93008C9CAD0212088C4FB00212088C62B30217
:100BA30012088C71B30212088CFDB30212088CB3C5
:100BB300B40212088CFAB40212088C43B50212086C
:100BC3008CC6B50212088CE2B50212088CE3B60299
:100BD30012088C74B90212088CCDBA0212088C6008
:100BE300BB0212088CEABB0212088C50BC0212082A
:100BF3008C8FBC0212088C05BD0212088C5ABE02EF
:100C030012088CFDBE0212088C15BF0212088CB8A4
:100C1300BF0212088C42C20212088CE3C3021208FC
:100C23008C01C40212088CB1310012088C0B320003
:100C330012088C75320012088CFE320012088CBA2E
:100C4300330012088C49340012088C6234001208F5
:100C53008C87340012088CC5340012088C143500BC
:100C630012088C3D350012088C8C350012088C3824
:100C7300360012088C00370012088C653700120802
:100C83008C32380012088C78380012088C943800A3
:100C930012088CC6380012088C6E3A0012088C4574
:100CA3003B0012088C713B0012088CA53B00120814
:100CB3008CC63B0012088CD53B0012088CE03B002D
:100CC30012088C943C0012088C073D0012088C79A2
:100CD3003D0012088C813D0012088CA43E001208CE
:100CE3008CD73E0012088C993F0012088C484000B4
:100CF30012088C90400012088CF2400012088C03FA
:100D0300410012088C7B410012088C034200120838
:100D13008C67420012088C4C430012088C7D430000
:100D230012088C90430012088C03440012088C4B69
:100D3300440012088C58440012088C6144001208C5
:100D43008C61460012088CAB470012088CBB47002D
:100D530012088CCA480012088C43490012088C857B
:100D6300490012088CC1490012088C954B001208E7
:100D73008CFA4D0012088C0E4E0012088C184E008F
:100D830012088C224E0012088C2C4E0012088C453F
:100D93004E0012088C4F4E0012088C594E00120858
:100DA3008C634E0012088C8B4E0012088C964E00FA
:100DB30012088CE04E0012088CEB4E0012088C0FC8
:100DC3004F0012088C334F0012088C944F00120806
:100DD3008CDF4F0012088CFB4F0012088C6550000B
:100DE30012088CB1500012088CF9500012088C7450
:100DF300510012088C0E520012088CD253001208B4
:100E03008C40540012088C72550012088C985500BF
:100E130012088C08570012088CBC5A0012088CBCAC
:100E23005C0012088C945E0012088C2D5F0012087F
:100E33008C3F610012088C01620012088C4D620025
:100E430012088CB3620012088CC5620012088C155C
:100E5300650012088C42660012088C946600120822
:100E63008C39670012088CF4680012088C256A001C
:100E730012088C436A0012088C986A0012088C9638
:100E83006B0012088CBE6B0012088C216C001208D8
:100E93008C226D0012088C956D0012088CC36E00B5
:100EA30012088C2E6F0012088C1E700012088C849E
:100EB300720012088CB2720012088CAD7300120813
:100EC3008C4B750012088C9B750012088C537600AE
:100ED30012088C08770012088C6C770012088C2596
:100EE300780012088CC5780012088C297900120842
:100EF3008C73790012088CB0790012088C187B006F
:100F030012088CF9820112088C31830112088C0AB1
:100F1300860112088C50860112088C6D8701120815
:100F23008CD2870112088C23890112088C148C013E
:100F330012088C338D0112088C08980112088CA7B3
:100F4300980112088C9A9B0112088C9A9C01120832
:100F53008C109D0112088C4D9E0112088CB6A001C5
:100F630012088CC4A20112088C51A30112088C250B
:100F7300A40112088CB1A40112088CBBA4011208AD
:100F83008CE4A40112088C91A50112088C7CA601A3
:100F930012088C54A70112088CB8A70112088CE11F
:100FA300A70112088C0EA80112088C5FAA0112086F
:100FB3008C3AAB0112088C7EAB0112088CEFAB01AB
:100FC30012088CA8AC0112088CDAAC0112088C212F
:100FD300AD0112088C54AD0112088CB9AD01120891
:100FE3008C08AE0112088C0DAE0112088C61AE01A3
:100FF30012088CABAE0112088CA7AF0112088C0C3F
:10100300B00112088C73B00112088C98B301120856
:101013008C6CB40112088CD6B50112088CB0B801DF
:1010230012088C58B90112088C7FBB0112088C245A
:10103300BC0112088C62BC0112088C3BBE01120871
:101043008C4EBE0112088C57BE0112088C60BE0183
:1010530012088C75BE0112088C94BE0112088C73A1
:10106300C00112088CC6C00112088CD0C00112083E
:101073008CF1C00112088C40C20112088C89C20194
:1010830012088C69C30112088C94C40112088C4A9B
:10109300C50112088C4CC60112088C4EC7011208F8
:1010A3008C34C80112088C4BC80112088C88C80103
:1010B30012088C92C80112088C9DC80112088CBBBF
:1010C300C80112088CFDC80112088C5BC901120803
:1010D3008C80C90112088C9AC90112088C27CA0195
:1010E30012088C60CA0112088CAECB0112088C0066
:1010F300CC0112088C1ACD0112088C41CD011208C3
:101103008CDDCD0112088C59CE0112088CA5CF01BC
:1011130012088CC0D00112088C86D10112088C30C1
:10112300D20112088CB5D20112088C1DD30112080A
:101133008CD2D30112088C24D40112088C8AD401D6
:1011430012088C53D50112088C76D50112088C2E07
:10115300D60112088C52D60112088C74D6011208DB
:101163008CD5D60112088C20D90112088CFBD90129
:1011730012088CA5DA0112088CE6DC0112088C3403
:10118300DD0112088C77DD0112088CCFDD01120816
:101193008C2DDE0112088C57DE0112088C7BDE01D8
:1011A30012088CACDE0112088CD6DE0112088C1DED
:1011B300DF0112088C71DF0112088CCDDF011208E8
:1011C3008CCEE00112088C38E20112088C76E20121
:1011D30012088C9FE20112088C30E30112088C7A0A
:1011E300E30112088C9EE30112088CF1E30112085B
:1011F3008C0CE40112088CC7E40112088CF1E401A1
:1012030012088C34E50112088C8AE50112088C96C9
:10121300E80112088CC9E80112088C86E90112085A
:101223008C61EA0112088CF1EA0112088C32EB019D
:1012330012088CC5B30512088CFDB30512088C1E69
:10124300B40512088C60B40512088CC4B4051208E6
:101253008CCEB40512088CDEB40512088C15B505C6
:1012630012088CBEB80512088C86BA0512088C7A4F
:10127300BC0512088C18BD0512088C9FBD05120809
:101283008C87C40212088C30C50212088C0FC60268
:1012930012088C2AC70212088C4AC70212088C6CE7
:1012A300C80212088C09CA0212088C76CA021208F4
:1012B3008C4CCB0212088C52CC0212088CB7CC0295
:1012C30012088CF3CC0212088C4CCD0212088C85C8
:1012D300CD0212088CCECD0212088C60CE02120809
:1012E3008CFDCE0212088CD2CF0212088C9FD00242
:1012F30012088C2CD10212088C52D10212088C7F56
:10130300D10212088CB0D10212088C85D2021208C5
:101313008C95D20212088CE8D20212088CF5D20204
:1013230012088C02D30212088C0BD30212088C6FA2
:10133300D30212088CCDD30212088C18D4021208DF
:101343008C33D40212088C5AD40212088C77D4023C
:1013530012088C83D40212088C27D60212088C4000
:10136300D60212088CBCD60212088CCFD602120801
:101373008CDFD60212088C85D70212088CF5D802AE
:1013830012088C08DA0212088CA8DA0212088CB24E
:10139300DA0212088C20DB0212088C31DB021208FD
:1013A3008C70DB0212088C9EDB0212088C6BDC0251
:1013B30012088CC2DC0212088C07DD0212088C5D55
:1013C300DD0212088C7BDD0212088CC9DD021208D3
:1013D3008C97DE0212088CE5DE0212088C27DF02EE
:1013E30012088CAADF0212088CD4DF0212088C0ABE
:1013F300E00212088C19E00212088C77E00212084E
:101403008CEFE00212088C30E10212088C7FE102BB
:1014130012088CAAE10212088CC4E10212088CDEC5
:10142300E10212088CB3E20212088CBDE202120838
:101433008CF8E20212088C08E30212088C59E302CA
:1014430012088C6DE30212088C8BE40212088CA044
:10145300E40212088C3AE50212088CB9E50212087C
:101463008C5CE60212088C67E60212088CB4E70271
:1014730012088CD0E70212088C28E80212088C9616
:10148300E80212088CE2E80212088CFCE802120857
:101493008C5CE90212088CFAE90212088C45EA0214
:1014A30012088CA8EC0212088C40ED0212088CB7CB
:1014B300ED0212088CFDEF0212088C15F0021208DF
:1014C3008C18F00212088C24F00212088C38F002F7
:1014D30012088C40F00212088C77F00212088C6B11
:1014E300F10212088CF5F10212088C77F20212084D
:1014F3008CECF20212088CC4F30212088CE6F3029D
:1015030012088C7DF40212088C89F40212088CE60E
:10151300F40212088CE9F40212088C58F50212083E
:101523008CA4F60212088CB7F70212088C42F80258
:1015330012088C55F90212088C1FFA0212088C50FB
:10154300FA0212088C76FA0212088C7FFA02120849
:101553008CAEFA0212088C5EFB0212088C0EFC029F
:1015630012088C81FC0212088C33FD0212088CA62F
:10157300FD0212088CE5FD0212088C2EFE021208F1
:101583008C00800512088CA4800512088CF380055A
:1015930012088C72810512088C1C820512088C3487
:1015A300850512088CED870512088C178C05120827
:1015B3008C4F8C0512088C7D8C0512088C0F8D05C1
:1015C30012088C638D0512088C968D0512088CBF4A
:1015D3008D0512088C0D8E0512088C928E0512084B
:1015E3008CF3EB0112088C7BEC0112088CE5EC0107
:1015F30012088C59ED0112088C2BF00112088C4E45
:10160300F00112088CA7F00112088C99F10112085D
:101613008C03F20112088CBAF30112088C15F50140
:1016230012088C87F50112088C00F60112088CD77A
:10163300F60112088C31F70112088C7BF7011208AE
:101643008C7FF90112088CA9FA0112088CD2FB01D4
:1016530012088CE1FC0112088C52FD0112088CB2B5
:10166300FD0112088CEFFD0112088C8DFE0112089A
:101673008C5CFF0112088C08B40412088CD7B404E4
:1016830012088C2CB80412088CD7B90412088C15D4
:10169300BB0412088C97BC0412088C15BD041208F5
:1016A3008CF5BD0412088CADBE0412088CE9BE048F
:1016B30012088C31BF0412088C54BF0412088CDF4B
:1016C300BF0412088C92C00412088CA3C20412082F
:1016D3008C24C30412088C96C40412088CF5C50428
:1016E30012088C2BC70412088CFBFE0312088C0C07
:1016F300FF0312088CE0FF0312088C2198061208DE
:101703008C2F980612088CFDA40612088CFAA006EA
:1017130012088C0AA10612088C2AA10612088CCA88
:10172300A10612088CD1FC0512088C79FD0512085C
:101733008CBBFF0512088C45960612088C72960620
:1017430012088CF1960612088C06970612088C6A0A
:10175300970612088CD9970612088C4DCF051208EC
:101763008C5ACF0512088CA5CF0512088CCACF0559
:1017730012088CFACF0512088C30D00512088C5948
:10178300D00512088C87D00512088C8ED10512085B
:101793008C24D30512088C5FD40512088C91D405D0
:1017A30012088C37D50512088C89D50512088CAD23
:1017B300D50512088C5DD60512088C8B7B001208A8
:1017C3008CA47B0012088C3A7C0012088C387D00B4
:1017D30012088C987F0012088CE3A30612088C125F
:1017E300A90512088C6AA90512088C70AC051208A9
:1017F3008C45AD0512088C4EAE0512088CDCAF0586
:1018030012088C34B20512088CD2B20512088C224D
:10181300B30512088C30B30512088CE3A202120838
:101823008C76B30512088C9FB30512088CADB305F3
:1018330012088C50C70512088C8AC70512088C1D24
:10184300C90512088C88C90512088CB4C905120889
:101853008CCDC90512088CEBC90512088CE2CA05A8
:1018630012088C42CC0512088C22CD0512088C6319
:10187300CE0512088CA1CE0512088CCCCE05120819
:101883008CF7CE0512088C63AC0212088CA99B0658
:1018930012088CD29B0612088CE69B0612088C3029
:1018A3009C0612088C7B9C0612088CC69C061208A8
:1018B3008C299D0612088C2C9D0612088C3A9D06D5
:1018C30012088C4B9D0612088C73830612088CAD8C
:1018D300830612088C15840612088C4384061208AA
:1018E3008C90840612088CCE840612088C09850617
:1018F30012088C33850612088C59850612088CBC95
:10190300850612088CEA850612088C808606120862
:101913008C98860612088CAD860612088C2BA406BA
:1019230012088C48A40612088C6CA40612088C9D1D
:10193300DC0512088C31DE0512088C3FDE05120827
:101943008C5FDE0512088C88DE0512088CE5DE0547
:1019530012088C41DF0512088CD6DF0512088C5B58
:10196300E00512088CECE00512088CDEE105120894
:101973008CF2E10512088C05E20512088C27E205BA
:1019830012088CD8A10612088C09A20612088C3AF8
:10199300A20612088C67A20612088C31F9051208F8
:1019A3008CA0F90512088CCBF90512088C6EFA0588
:1019B30012088C70F50512088C93F50512088CA596
:1019C300F50512088CB3F50512088CDCF505120831
:1019D3008CF8F50512088C14F60512088C2FF60501
:1019E30012088CF6F60512088C73F70512088CAAF8
:1019F300F70512088CFFF70512088C54F805120836
:101A03008C82F80512088C90F80512088CAAF80548
:101A130012088C1EF90512088C29A30612088CCD16
:101A23009C0512088C169D0512088C429D05120810
:101A33008C5B9D0512088C7B9D0512088CE59D052A
:101A430012088C1F9E0512088C7EA30512088C4D6C
:101A5300A50512088C93A50512088C00A60512088B
:101A63008CAEA70512088CDEA70512088CF8A70513
:101A730012088C0CA80512088C60A80512088CC3E8
:101A8300A80512088CD8A80512088C63FE02120858
:101A93008C7AFE0212088CA3FE0212088CC9FE0285
:101AA30012088CF6FE0212088C26FF0212088C47DD
:101AB300FF0212088C7EFF0212088CA6FF02120896
:101AC3008C98A30612088CF4EC0512088C0BED0518
:101AD30012088C7DEE0512088CB2EE0512088CDA22
:101AE300EE0512088C07EF0512088C20EF0512088B
:101AF3008C61EF0512088CDFEF0512088C2BF005C3
:101B030012088C7FF00512088CB6F00512088CE8D9
:101B1300F00512088C41940612088C64940612088E
:101B23008CE8940612088C28960612088CD39E061D
:101B330012088CE2910612088CF2930612088CC3E9
:101B43009B0412088C0D9E0412088C419E041208FB
:101B53008C849E0412088C9C9E0412088C169F048D
:101B630012088C429F0412088C61A10412088CE2B3
:101B7300A20412088CF4A30412088C82A404120891
:101B83008C00A50412088CC6A50412088C5FA60459
:101B930012088CA9A60412088C77A70412088C7B60
:101BA300A80412088C1CA90412088C38AB04120870
:101BB3008C7DAC0412088CD8AC0412088CDBAC040A
:101BC30012088C0AAD0412088C0DAD0412088CDCCB
:101BD300AD0412088CABAE0412088C7AAF04120861
:101BE3008C4EB00412088C22B10412088CF6B10496
:101BF30012088C21B20412088C4CB20412088C1FF8
:101C0300B30412088CF3B30412088C728F06120803
:101C13008C958F0612088C91900612088C3D9106C4
:101C230012088C78910612088C00800612088C7EAC
:101C3300800612088C8E800612088CB88006120863
:101C43008C77E50312088C7AE50312088CFFE60310
:101C530012088C6FE70312088CF9E70312088CADA6
:101C6300E80312088C61E90312088C25EA031208C1
:101C73008CD9EA0312088CE6EC0312088C9AED0364
:101C830012088C4EEE0312088CDDEE0312088CDC76
:101C9300EF0312088C4BF00312088CE3F0031208D5
:101CA3008C10F30312088C66F40312088CBCF50342
:101CB30012088C16F70312088C3EF80312088C9650
:101CC300F80312088C29F90312088C04FA0312088A
:101CD3008C36FA0312088C64FD0312088C05FE038C
:101CE30012088C80FE0312088CF7E80412088CA1FA
:101CF300E90412088CC8E90412088C87EB04120863
:101D03008CA5EC0412088C79ED0412088C13EF04F3
:101D130012088C6AEF0412088C7EEF0412088CFA06
:101D2300EF0412088C31F20412088C72F2041208C8
:101D33008C48F30412088CF4F30412088C95F40411
:101D430012088CADF40412088CECF40412088C5CB9
:101D5300F50412088C97F50412088CA1F6041208F6
:101D63008CEEF60412088C55F80412088CE58606EE
:101D730012088C08870612088C2B880612088C5BC5
:101D8300890612088CEB990612088C149A0612081D
:101D93008C339A0612088C539A0612088CB19A0651
:101DA30012088CD79A0612088C989B0612088CA6E8
:101DB3009B0612088CF58E0512088C0A8F051208F3
:101DC3008C668F0512088C0E900512088C379005CF
:101DD30012088C5C900512088C80910512088C8E79
:101DE300940512088C9C940512088CFE9405120825
:101DF3008C3C950512088C57950512088CF29505B5
:101E030012088C9B960512088CEE960512088C71AD
:101E1300970512088CE1970512088C1A9805120889
:101E23008CA5980512088C37990512088C8E990594
:101E330012088CEC990512088CFE990512088C1077
:101E43009A0512088C369A0512088C3F9A051208D7
:101E53008C909B0512088C289C0512088C999C0574
:101E630012088C72F80412088CEAF90412088C9593
:101E7300FA0412088CBDFA0412088CCEFA04120874
:101E83008CD1FD0412088CF1FD0412088C98A20673
:101E930012088CD7890612088C1C8A0612088C69D2
:101EA3008A0612088C328C0612088C0080041208F1
:101EB3008CC0810412088C0F820412088C8684045F
:101EC30012088CEB840412088CEC870412088C52E1
:101ED300880412088C868A0412088C708B041208FA
:101EE3008CD38B0412088C638C0412088C098D0428
:101EF30012088C628D0412088CC18D0412088C2088
:101F03008E0412088CEC8F0412088CA99104120819
:101F13008C7F940412088CC1940412088C239504BA
:101F230012088C35950412088CAA950412088C5C4F
:101F3300960412088C859A0412088C4A9B04120892
:101F43008CD2A40612088CEDA40612088C60E2055C
:101F530012088C80E20512088C86E30512088CD2E5
:101F6300E30512088CF2E30512088C45E405120818
:101F73008CB2E40512088CF8E40512088C5CE505C4
:101F830012088C08E80512088C21D90412088C2E3B
:101F9300DA0412088CFEDA0412088C44DD041208F9
:101FA3008CDADD0412088C29DE0412088C59DE0455
:101FB30012088C9DDE0412088C7DDF0412088C6BE2
:101FC300E00412088C80E00412088C10E10412086B
:101FD3008CCFE20412088C03E50412088C6AE60431
:101FE30012088CD1E70412088C45E80412088C53BC
:101FF300E80412088C87E80412088C5C9D0612081A
:102003008CFC9D0612088C609E0612088CA39E060B
:1020130012088C00800312088C6D800312088C2236
:10202300810312088C82820312088CC38303120873
:102033008C8D840312088CF3840312088C7085033F
:1020430012088CDE850312088CE1850312088C5D6F
:10205300860312088C7E860312088CE48903120817
:102063008C9A8A0312088CD98A0312088C3F8B033B
:1020730012088CB68D0312088C118E0312088CF291
:102083008E0312088C328F0312088C578F031208A9
:102093008CAE8F0312088CF38F0312088C2A9003E3
:1020A30012088C72900312088C8A900312088C68B1
:1020B300910312088C89910312088CE99103120889
:1020C3008C4D920312088CA9920312088CF8930387
:1020D30012088C3E970312088C85970312088CD53F
:1020E300980312088C14990312088CB199031208EF
:1020F3008CBD9A0312088C1C9B0312088C9F9B03B4
:1021030012088CA99C0312088CDA9C0312088CE831
:102113009C0312088C079D0312088C0A9D03120866
:102123008C999D0312088CDA9D0312088CFA9D0387
:1021330012088C319E0312088C799E0312088C7C42
:102143009E0312088CDB9E0312088C1B9F0312084C
:102153008C5C9F0312088C9F9F0312088CC69F03FD
:1021630012088C28A00312088CA2A00312088CE08A
:10217300A20312088C07A00612088C18A0061208E6
:102183008C9BA00612088CF87F0012088C4BBE05AE
:1021930012088CA4BE0512088CDABF0512088C1B2A
:1021A300C00512088C4EC20512088C97C20512088E
:1021B3008CEDC20512088C6AC30512088CBDC405D8
:1021C30012088C03C60512088C28C60512088C8DCC
:1021D300C60512088C15C70512088C1DC703120803
:1021E3008C40C70312088C51C70312088C47C803DD
:1021F30012088C43CA0312088CC6CA0312088C4FF8
:10220300CB0312088CE1CB0312088C95CC03120884
:102213008C49CD0312088C38CE0312088CFFCE03F1
:1022230012088C64CF0312088C2AD60312088C067A
:10223300D90312088C4FD90312088CDAD903120878
:102243008C4FDB0312088C52DB0312088C48DC032F
:1022530012088CC5DD0312088C0CE00312088C20D5
:10226300E10312088CBFE20312088C90E303120807
:102273008CF5E30312088C78E40312088C18A50389
:1022830012088CF3A50312088C9BA60312088CF783
:10229300A60312088CB8A70312088C6AA8031208B5
:1022A3008CEDAA0312088C5DAB0312088C4DAC03B2
:1022B30012088CE4AC0312088C8FAD0312088C3B1C
:1022C300AE0312088C64B20312088CB5B40312086F
:1022D3008CBBB50312088C56B90312088C6CBA0375
:1022E30012088C59BB0312088C09BC0312088CB169
:1022F300BC0312088C42BF0312088CE4C00312080B
:102303008C8AC20312088C51C30312088CFEC303C8
:1023130012088C62C50312088C62C70412088CEF82
:10232300C70412088C64C80412088CBDC8041208C0
:102333008C61C90412088CB0C90412088C3ACA040F
:1023430012088C8ACB0412088CC4CB0412088CFCB0
:10235300CC0412088C11CD0412088C38CD04120859
:102363008C54CE0412088C81CE0412088C84CF04C2
:1023730012088CB0CF0412088CCCCF0412088CEC5A
:10238300CF0412088C0DD00412088C1ED00412083E
:102393008C2AD10412088C8BD10412088C89D204A4
:1023A30012088CE8D20412088C06D30412088C0B92
:1023B300D30412088C57D30412088CF1D4041208E6
:1023C3008C05D60412088CE4D60412088C6BD7044F
:1023D30012088C84D70412088CDDD80412088C42AE
:1023E300F10512088CC0F10512088CFFF1051208E3
:1023F3008CD3F20512088C41F30512088CDAF3052D
:1024030012088CDDF40512088C19E80512088C3BC0
:10241300E80512088C98E80512088CC6E80512082E
:102423008CFBE80512088C21E90512088C45E905A7
:1024330012088C6BE90512088C7EEA0512088CCA17
:10244300EA0512088CE1EA0512088C09EC0512086A
:102453008C19EC0512088C36EC0512088C53EC052C
:1024630012088C66EC0512088C60D60512088C09DC
:10247300DC0512088C17DC0512088C1CDC0512081D
:102483008C378D0612088C4F8D0612088C978E069A
:1024930012088C5E8F0612088C9EFF0412088CA60D
:1024A300A40612088C6FA40612088CD6FF05120826
:1024B3008C1CA50612088CB3A20212088C77A20208
:1024C30012088C63A20212088C4FA20212088C8C91
:1024D300A10212088CD9A00212088C889E0212084D
:1024E3008C5D9E0212088CFE9D0212088C6F9C026A
:1024F30012088CFD9B0212088CC09B0212088C559B
:102503009B0212088C1A9B0212088CB099021208C3
:102513008C36990212088C73980212088C69970200
:1025230012088C20970212088CFA960212088C3635
:10253300960212088C80940212088C2094021208CE
:102543008CF1930212088CEE930212088C84AB0276
:1025530012088CB0A90212088C71A70212088C1001
:10256300A70212088CB7A60212088C3EA602120814
:102573008CD9930212088C96930212088C7D9302D5
:1025830012088C85920212088C14A60212088C443D
:10259300920212088C11920212088CA59102120861
:1025A3008C72910212088C17910212088CD6A50224
:1025B30012088CE6900212088C81A50212088C2264
:1025C300CF0512088CAF8D0212088CC18C02120841
:1025D3008C7B8B0212088C278B0212088C1B8B02BC
:1025E30012088C828A0212088C50890212088CAB62
:1025F300860212088C4E840212088C02840212088E
:102603008CE7820212088C7C820212088CA481025D
:1026130012088C6B800212088C7CA40212088C3284
:10262300800212088C00800212088C4DB305000052
:102633000080FB000000000000000000000000001C
:10264300000000000000F80000000000000033302C
:1026530000000000100C06100C0600000000000033
:1026630000000040C07840C0784000043F04043FAD
:10267300040400007088FC08300000001820FF21CB
:102683001E0000F008F000E018000000211C031EEB
:10269300211E0000F00888700000001E2123241969
:1026A30027211010160E000000000000000000009B
:1026B300000000000000E0180402000000000718FA
:1026C30020400000020418E000000000402018072A
:1026D300000000404080F0804040000202010F01F2
:1026E300020200000000F0000000000101011F01D0
:1026F300010100000000000000000080B070000035
:1027030000000000000000000000000001010101C2
:102713000101010000000000000000003030000053
:10272300000000000000008060180400601806012B
:1027330000000000E010080810E000000F10202047
:10274300100F00001010F8000000000020203F20B0
:102753002000000070080808887000003028242238
:1027630021300000300888884830000018202020DD
:10277300110E000000C02010F800000007042424FC
:102783003F240000F8088888080800001921202049
:10279300110E0000E0108888180000000F1120209F
:1027A300110E0000380808C83808000000003F0078
:1027B3000000000070880808887000001C22212196
:1027C300221C0000E010080810E000000031222263
:1027D300110F00000000C0C00000000000003030F6
:1027E3000000000000008000000000000080600086
:1027F30000000000008040201008000001020408CF
:1028030010200040404040404040000404040404C1
:102813000404000008102040800000002010080479
:10282300020100007048080808F00000000030367C
:10283300010000C030C828E810E00007182724234F
:10284300140B000000C038E0000000203C2302020B
:1028530027382008F8888888700000203F2020202F
:10286300110E00C03008080808380007182020207F
:1028730010080008F808080810E000203F20202076
:10288300100F0008F88888E8081000203F20202354
:1028930020180008F88888E8081000203F2000036B
:1028A300000000C030080808380000071820202264
:1028B3001E020008F808000008F808203F21010163
:1028C300213F20000808F8080800000020203F20CE
:1028D30020000000000808F8080800C08080807FFE
:1028E30000000008F888C028180800203F200126AF
:1028F30038200008F8080000000000203F202020B6
:1029030020300008F8F800F8F80800203F003F00E6
:102913003F200008F830C00008F808203F200007D7
:10292300183F00E01008080810E0000F10202020D6
:10293300100F0008F808080808F000203F210101E3
:10294300010000E01008080810E0000F18242438E4
:10295300504F0008F8888888887000203F200003C3
:102963000C30200070880808083800003820212126
:10297300221C00180808F8080818000000203F204F
:1029830000000008F808000008F808001F202020B5
:10299300201F000878880000C83808000007380E98
:1029A300010000F80800F80008F800033C070007DE
:1029B3003C0300081868808068180820302C030343
:1029C3002C30200838C800C83808000000203F20F9
:1029D30000000010080808C8380800203826212005
:1029E300201800000000FE020202000000007F40E9
:1029F300404000000C30C000000000000000010651
:102A030038C00000020202FE000000004040407F88
:102A130000000000000402020204000000000000A5
:102A23000000000000000000000000808080808023
:102A3300808080000202040000000000000000000B
:102A43000000000000808080800000001924222202
:102A5300223F2008F8008080000000003F11202062
:102A6300110E000000008080800000000E11202065
:102A7300201100000000808088F800000E11202043
:102A8300103F200000808080800000001F2222224F
:102A9300221300008080F0888888180020203F20BF
:102AA3002000000000808080808000006B9494945C
:102AB30093600008F8008080800000203F21000020
:102AC300203F2000809898000000000020203F2035
:102AD300200000000000809898000000C0808080E3
:102AE3007F000008F8000080808000203F24022D32
:102AF300302000000808F8000000000020203F20DC
:102B03002000008080808080808000203F20003F64
:102B130020003F8080008080800000203F21000053
:102B2300203F200000808080800000001F202020A4
:102B3300201F00808000808000000080FFA12020F3
:102B4300110E000000008080808000000E11202004
:102B5300A0FF80808080008080800020203F212093
:102B63000001000000808080808000003324242442
:102B7300241900008080E0808000000000001F20F6
:102B83002000008080000000808000001F202020A3
:102B9300103F20808080000080808000010E30087C
:102BA30006010080800080008080800F300C030CC1
:102BB300300F0000808000808080000020312E0EC6
:102BC300312000808080000080808080818E70189A
:102BD30006010000808080808080000021302C224C
:102BE30021300000000000807C0202000000000091
:102BF3003F404000000000FF00000000000000FF15
:102C03000000000002027C800000000040403F0002
:102C1300000000000601010202040400000000009D
:102C2300000000870001004D12240002001F12253E
:102C330000020021122600020023122700020025B1
:102C43001228000100271229000100281286000122
:102C5300002D122A0001002E122B0001002F122C2E
:102C630000010033122D0008008D112E00010034E5
:102C7300122F00010035123000010036123100011D
:102C83000037123200010095113300010096113410
:102C93000001003812360001009711380001003995
:102CA3001239000100321263000100A21164000115
:102CB3000030126500010031126D000100A3117193
:102CC3000008008511660001004A12430001003B21
:102CD30012440002003C12450001003E124600026D
:102CE300003F12470008009A114800010041124BAF
:102CF3000001004212040001004E12A10001005124
:102D030012370001005012880001004F123C0001ED
:102D13000098113D0001003A124900020043126776
:102D2300000100A4114D00020045124E00010047AE
:102D3300124F00020048123E0001009911040406DC
:102D43000069100000000000000001363601010098
:102D5300010201000103010001040106060502004E
:102D630000070100340801000F090401010D0100EF
:102D7300FF0E08000017020000190100FF1A0100EE
:102D8300011B0100FE1C0100081D0200001F0100C1
:102D93000120010001210200002301000F24020091
:102DA300002601000127010008280200FF2A010074
:102DB300072B0102402C0100002D0100012E010010
:102DC300012F0100FF30010B1C310800003A010004
:102DD300083B01000F3C0100013D0100FF3E0400E0
:102DE3000042040000460400004A0400004E0400B0
:102DF3000052040000560400005A0400005E20FF45
:102E0300FF36000100060000000F00000000000074
:102E13000000000000000003FFFF00000403FFFFA9
:102E23000000FFFF0FF4010005C4040320000100AC
:102E3300000B000000000000000003010F00000071
:102E4300000000000000000000000000000000007F
:102E5300000000000000000000000000000000006F
:102E6300000000000000000000000000000000005F
:102E7300000000000000000000000000000000014E
:102E8300037103010301030103010301032203028D
:102E93000301031003000300030003000300030006
:102EA3000300034203000324030603000300030497
:102EB300031203250323032503230304030403004D
:102EC300030003000344030003000323030003651B
:102ED30003210035038103000305030003000300FE
:102EE3000300032503230301017101010101011102
:102EF3000101013101010101018001100161013B67
:102F030000140063017301720162014301000113A4
:102F13000106013D01350004011201000100010019
:102F230001000104010401330133013C0144013276
:102F33000136000001000165010001350081010037
:102F43000105018201830100010302710230016066
:102F530002110270020102020202028002100261E7
:102F6300023A0041006302730272026202430200EA
:102F730002130238000002000204021202000200DF
:102F8300020002000204020402370037003C02443C
:102F930002000239000002000265020002350281CC
:102FA300020002050282028302000203047104028A
:102FB30004600411047004020402040104020410F6
:102FC300046104000414046304730472046204437C
:102FD300040004130406040004000404041204009F
:102FE300040004000400045104640000040004000D
:102FF30004440400040004000400046504000435D0
:1030030004810464000504000483040004030071C4
:103013000030016000110070003102200350048071
:10302300001000610000001400630073007200626E
:10303300004300000013000600000000000400121B
:103043000000000000000000000400040037003707
:10305300003C024400000000000000000065000086
:10306300003500810000000500000083000000001F
:1030730000BF22130053220100BF220200052203D6
:10308300000B22040011220500172206002322113F
:1030930000472214004D22150035221F003B22FF5A
:1030A300FF0000013F0F06690F08630F0B810F102C
:1030B300B50E02450F05570F074B0F0C270F0D33A6
:1030C3000F64F30CFF000007ECFDFDFDECDCDCCC32
:1030D300BCACAC9C9C8C7C7C6C6C5C5C5C4C4C3C5D
:1030E3003C2C2C1C1C03EAF5E5D5D5C5B5A5959557
:1030F30085857575656555554545353525251515FD
:103103000500160F00000B150B020002220F3300FF
:10311300000E5A6967426565416C6C69616E63654F
:10312300303901030507090B0D0F00020406080AD5
:103133000C0D303017181921301B1D1F3000034AA6
:1031430049434E181A2505020001191618161618B8
:103153002303000C0E020B040B0A0708000F0039AF
:103163003D3F373C3C362C442D3030161819202374
:103173001A1C1E30020402010101010902E80300C6
:103183000000BE040A0E00000000003C007F00E8BF
:10319300033C000A0303081000030005FF1E1E0C76
:1031A30005280901040409101504000C0808C0824D
:1031B300C0837900EA1233B63BF583C082C08390A3
:1031C30003421278BBD083D082C3E09CA3E09D501E
:1031D3000CEA240B1232031231E360010902497E27
:1031E300EA75F00BA4FAA8F075F00BEBA428FB909A
:1031F3000344E02AF8A3E03B8882F583E0540F22DE
:10320300F582E43B125AB42274F712039D89081223
:10321300514DA3E0F9E875F00BA4F8ACF075F00B91
:10322300E9A42C123431E8FEE9FF74016508600655
:103233007402650870228A828B8312375D7402657B
:10324300087021EA2403FA50010B120C4BE97014A5
:103253008E828F83E4F0800CEA2403FCE43B123774
:1032630054120C458E828F83E0D2E7F012211502AF
:103273004E0974F412039D12381779008E828F83DE
:10328300E06075890A890B8064E50A75F00BA4FA7E
:10329300A8F075F00BE50B1231EF7049E50A75F0F4
:1032A3000BA4F8AAF075F00BE50B1234128E828F83
:1032B30083E08508828509831249321236D4EE24CD
:1032C30003FCE43F1233A9120C45124F881264E544
:1032D3001241FAD2E7F01221157901900342E0F589
:1032E3000AA3E0F50B050AE50A7002050B12363056
:1032F300E50A9AE50B9B409102543B74F512039D3A
:10330300EAFEEBFF750A01740B120B7E123E01EC11
:103313004D6015EC1233B63D1238257901120C2D90
:10332300E508450960758023E508450960441233C3
:10333300B435091238251233AA120C4BE964017013
:103343001BEEFAEFFB120C33E9F50A8508828509B7
:10335300831236CC7902AA08AB09801112375512B1
:103363000C4BE9640170347903EEFAEFFB120C2D78
:1033730080298E828F83A3E064FE7003A3E0F47040
:103383000B123755120C4BE96401700CEEFAEFFB8C
:10339300120C33E9F50A8003750A00023C8DE50A35
:1033A3002403FCE4350BFDE5082403FAE43509FBAB
:1033B30022E5081268EA2274F712039D9003421271
:1033C30050A5EA4B602FEA75F00BA4FAA8F075F04C
:1033D3000BEBA428FBEAFEEBFF121E9F90034412A3
:1033E30050A5900344125A9F6012EEFCEFFD790042
:1033F300121DC78007900344E4F0A3F0024E09F9BD
:10340300023BA0E875F00BA4F8AAF075F00BE9A451
:103413002AF9900344E028F508A3E039F50922F9D5
:10342300E875F00BA4F8AAF075F00BE9A42AF9905B
:103433000344E028F8A3E039F922900342124DF047
:10344300C3EE98EF9922C082C083EC4D6005122031
:103453000D80097C087D007900121DC702497E7426
:10346300F612039D7900EA4B60177800EA28F5828B
:10347300E41261FC60047901780808E8C394084009
:10348300EB023BA074F712039D74F312096BECFE7D
:10349300EDFF851882851983E4F004120B7EEAF0B0
:1034A300A3EB124DE2120C697403120B7EAC82ADD6
:1034B30083EEFAEFFB120C45EEFAEFFB120C4B0214
:1034C3004E0474F712039D74F312096BECFEEDFFC7
:1034D300851882851983E4F0EAFCEBFD7403120B73
:1034E3007EAA82AB83120C45AA18AB19120C6F7417
:1034F30001120B7E12493F8E828F83124DD374FECD
:1035030068700374FF696004790180027900024ED8
:103513000474F712039DEAFEEBFF120C27E9F5088A
:1035230074016508701112357DF4FA88828983E08D
:103533005A4480F012211502416F74F712039DEA79
:10354300FEEBFF7508008E828F83E0602A120C2742
:10355300E9F50874016508701E12357DFA888289C1
:1035630083E05A70128E828F83E04480FA888289C6
:1035730083E04AF012211502416F124F8C12434728
:103583001234228E828F83E02274F412039D8A0800
:103593008B097C007D00EA1233AC120C45E508125E
:1035A30036EE7900850882850983A3E064FE700303
:1035B300A3E0F460757E007F008066EEFAEFFB12F5
:1035C30031E36058EEFAEFFBEA75F00BA4FAA8F0CA
:1035D30075F00BEBA428FB900344E02AF50AA3E063
:1035E3003BF50B850882850983A31261D7850A827F
:1035F300850B83A3E06A7003A3E06B701FE50A24C5
:1036030003FAE4350BFB120C4BE964017006123329
:10361300A1120C451236E379011276EF0EEE70011A
:103623000F123630EE9AEF9B409102543B900342C7
:10363300125AB6C32274F312039D8A088B098A8235
:103643008B831236CCEA1236EE750C00EA1233ACD9
:10365300120C4BE96401706A7E007F00805FEEF814
:10366300EFF9E875F00BA4F8AAF075F00BE9A42ABA
:10367300F9900344127761E0540F603CEEF8EFF9E0
:10368300E875F00BA4F8AAF075F00BE9A42AF990F9
:103693000344E028F50AA3E039F50B1233A1122005
:1036A30007E964017012850A82850B831236D412EE
:1036B30036E3750C011276EF0EEE70010F12343DF6
:1036C300409CA90C7F050205FDA374FEF0A304F042
:1036D30022A3124DF0850882850983A312465B223B
:1036E300E5081236F8EEF0A3EFF0221236F874FE76
:1036F300F0A304F0221268EE3509F5832274F51263
:10370300039DEAFEEBFF8E828F831236CC7C007D15
:1037130000123755120C45EEFAEFFB120C27E9F5B0
:103723000A7401650A7027124DE91234068508826E
:10373300F58312375D1233AA120C4BE96401700E44
:10374300E5082403FCE43509123754120C45023C06
:103753008DFDEE2403FAE43FFB22A31261E112463E
:103763005B2274F212039D74E612096B123817750B
:103773000C01750800750900750A00750B008518A2
:1037830082851983E4F0EE2403FCE43FFD74031205
:103793000B7EAA82AB83120C45AA18AB19120C6FCD
:1037A300E96401701F740B120B7E12382774011227
:1037B3000B7E1261DB7003A3E069604AA818A919A4
:1037C30088088909740D120B7E124931A312493FEF
:1037D300740E120B7E124DD3740D12092D120C6947
:1037E300E964017009740D120925880A890B780AA6
:1037F3001208DFAC08AD09EEFAEFFB120C397402C4
:103803001208BCE9F50CEEFAEFFB120C63A90C7479
:103813001A026137EAFEEBFF124F8C74FEF0A30429
:10382300F022F583124347F9124F8C12465B22C0F4
:1038330082C08378007900800508E8700109123698
:1038430030E89AE99B5029E8FAE9FBEA75F00BA402
:10385300FAACF075F00BEBA42CFB900344E02AFCCC
:10386300A3E03B8C82F583E0540F70CD7900800296
:10387300790102497EC082C0839031ABE49375F035
:1038830016A4FCADF079FF7A677B0A121DC70249C3
:103893007E74F612039DEAF87508007D008012ED30
:1038A3001261EEC3994009E0FAE8C39A40020508A1
:1038B3000D9031ABE493FAEDC39A40E3AA087B0081
:1038C300023BA074F012039D74F312096B8A0C8BF4
:1038D3000D8C088D09890AEC45096016AA08AB0905
:1038E300120CB78A0E8B0FAE0EAF0FEE4F600302B2
:1038F30039B97B0080010B1264DB500F123A6170FF
:10390300F5746728FE740A39FF80047E007F00EE99
:103913004F7003023A0D90318C123A3460217403D4
:10392300650A60067404650A70157A047903120C3B
:103933008D9031ABE493FC90318C123A3A5029903C
:10394300318A123A3460287401650A60067402658C
:103953000A701C7A027901120C8D9031ABE493FC4E
:1039630090318A123A3A40077A007B00023A318555
:1039730018828519837401F0120B7EE50CF0A3E520
:103983000DF0AC08AD097403120B7EAA82AB83124F
:103993000C45AA18AB19120C7B740B120B7E124642
:1039A300548E828F83A3A3A3A3A3A3E41278B7AAFD
:1039B3000CAB0D1211977800E50A6007C39405500C
:1039C3000278048E828F83E50CF0A3E50D126E9BC3
:1039D300E50AF0E88E828F83A3A3A3A3A31264EC6A
:1039E3005001097A027B0012024D123E47A3126175
:1039F30017A3123E8BE50A600DC394035008123ED1
:103A030016123A528003123E2DF07A047900120CFA
:103A13008D8A089031ABE493FAC3E5089AEB9400DE
:103A230040059011B2E4F0121071EEFAEFFB023D83
:103A3300EB123A4AE84922123A4AECC398F8E4995D
:103A4300F9C3EA98EB9922E493F8740193F922F904
:103A5300EE2414F582E43FF583E8F0A3E922EB7545
:103A6300F016A4F8A9F0123E80F42274F212039D1A
:103A730074F312096B8A088B09ECFEEDFF750A00DB
:103A8300EEFAEFFB120CB78A0C8B0DA80CA90DE80C
:103A9300497003023B3288828983E065087004A37E
:103AA300E065097003023B3288828983A3A3A3A341
:103AB300E0C39405507988828983126D1B125209E1
:103AC300E0603488828983A3A3A3A3E0C394035053
:103AD30026903194E493FA740193FB124081903160
:103AE3008EE493FA740193FBE82414F582E439F528
:103AF30083EAF0A3EB800DE82412123B39F0E824AB
:103B030014123B39F08518828519837401F0120B66
:103B13007E126D1BF0EEFCEFFD7403120B7EAA8286
:103B2300AB83120C45AA18AB19120C7B750A01A9B9
:103B33000A740D026137F582E439F58374FEF0A34C
:103B4300042274F612039D120CB18A088B09A8088B
:103B5300A909E849601488828983A3A3A3A3E06029
:103B630009C394055004790180027900802F74F60B
:103B730012039D120CB18A088B09A808A909E84908
:103B8300601488828983A3A3A3A3E06009C3940379
:103B9300500479018002790080031208BC7F02027D
:103BA30005FD74F612039D120CB18A828B83E582A4
:103BB3004583600BA3A3A3A3E0700479018002797A
:103BC3000080DAC082C083EAFCEBFD7A007B00024E
:103BD300497BC082C0837C007D0002497B74F5125F
:103BE300039D74F312096BEAFEEBFF8C088D09C386
:103BF300EC94F8ED94FF4004EE4F606A750A008080
:103C03001974FF6508700474FF6509600B1270185E
:103C13007004A3E06509603B050A9031ABE493F8B7
:103C2300E50AC3985040E50A123A6260EBEE4F6032
:103C3300D0123C74120B7E124DDE120C75E960D863
:103C43007403120B7EAC82AD83EEFAEFFB122007F6
:103C5300E960C5E50A75F016A4F8A9F0746728FAB7
:103C6300740A39FB80047A007B00740D1208BC804F
:103C73001B8518828519837401F0746928F5827491
:103C83000A39F583124DF0740B22A90A7F0302054A
:103C9300FD74F412039D74F312096B750800120C82
:103CA300B78A0A8B0BAE0AAF0BEE4F601F123CF7BD
:103CB300123C87120B7E124DDE120C5D7C167D00CA
:103CC30079FFEEFAEFFB121DC77508017A0479003C
:103CD300120C8D8A0A9031ABE493FAC3E50A9AEB8E
:103CE300940050099011B27401F0121071A9087474
:103CF3000D0254388518828519837401F08E828FE2
:103D030083A3A32274F712039DE9FC74FE6A700374
:103D130074FF6B7D007003802C0D123D695026EDFE
:103D2300123A6260F4127AFC6A7003A3E06B70E9E2
:103D33008012ED75F016A4F8A9F0127AEF6018E07E
:103D4300640360130D123D695015EC60E5123E7477
:103D530060F2C3940550ED12725C1261D480047A50
:103D6300FE7BFF024E099031ABE493F8EDC398223A
:103D7300120CC902497EC082C083790180F274F0BB
:103D830012039D8A0A8B0B7A047901120C8D8A0C1B
:103D93008B0DEA450D6040EA2AFAEB33FB121E9FB6
:103DA3008A088B09AE08AF09EE4F60267AFE7BFFC7
:103DB300120CCF74FE6A700374FF6B601E85088259
:103DC3008509831250A5E5082402F50850E2050988
:103DD30080DE750C0080047E007F00850A82850BDF
:103DE30083E50C124FD98005740D1208BC7F0802BD
:103DF30005FDE493F8ECC398221278BFEC22E0F5BA
:103E030008A3E0F509221208BC7F0C0205FD7F0719
:103E13000205FD903194123A4AEE12725312465B38
:103E230090318EE493F874019322EE2412123E3BF8
:103E3300F0EE2414123E3B22F582E43FF58374FE38
:103E4300F0A30422E88E828F83A3A3A3A3A3A3A337
:103E5300A3123E6C7401123E6CA374AAF0EE2410FC
:103E6300F582E43FF583E4F022126EBEA3A3A3A37D
:103E730022ED75F016A4F8A9F0123E8022746B2887
:103E8300F582740A1279AB22A3F0124F8CE4F0EEA0
:103E9300240CF582E43FF583E4F0A3F0A3F0A3F050
:103EA30022C082C0837D008009EA24FF1AEB34FF1D
:103EB300FB0D123D695016123E74C3940550F2EA8D
:103EC3004B70E6746728FA740A39FB80047A007B26
:103ED3000002497E74F712039D74F312096B7E008E
:103EE300023F6FEF75F017A4F8A9F0127AD21262AD
:103EF300BD75F016A4FAABF074672AF582740A1242
:103F0300650F7003A3E0696040EF75F017A4F8AA8A
:103F1300F0EAF9127AD239F58312493F7401120B90
:103F23007EE0687003A3E069601FEF75F017A4F8E3
:103F3300EAF9743728FC740C39FD7403120B7EAA5A
:103F430082AB83122007E96013EF75F017A4F8A979
:103F5300F0743528FA740C39FB1211A30F90319ABF
:103F6300E493F8EFC3985003023EE60E9031AB1290
:103F73007641501FEE127AF5F47003A3E0F460EB80
:103F8300123C74120B7E124DDE120C75E960DC7F5D
:103F93000080CA024E0474F712039D74F312096B76
:103FA300900415125A9F7003024045750800802B38
:103FB300E50875F016A4F8EAF9747B28F582740A0B
:103FC3001279A764FE7003A3E0F4600D747928F5F9
:103FD30082740A39F58312612D05089031AB1260A2
:103FE300F6505FE50875F016A4F8AAF0EAF9123E58
:103FF3007C60E6C3940350E1747928F582740A1255
:104003005A9C70ACE50875F016A4F8EAF9746728B1
:10401300F8740A39F9E8FEE9FF1240E31240D912B5
:104023000515123CF7123C87120B7E124DDE120C63
:1040330075E960A57403120B7EAA82AB83120CC3CD
:104043008097024E0474F612039D120CB18A088BFA
:1040530009A808A909E849602088828983A3A3A342
:10406300A3E06011C39403500CE82414F582E41216
:1040730061D4124081790180027900023BA0E824D7
:1040830012F582E439F583EAF0A3EBF02274F71218
:10409300039DEAFEEBFF90040F125A9F60309004D9
:1040A30015125A9F6028900419125A9F60201273A8
:1040B3009D120515E970171240D4120515E9640124
:1040C300700C8E828F83A3A312738A120515024E7E
:1040D300091240E3A3A3125AB69004151273942253
:1040E30090318EE493FC740193FD8E828F8322C002
:1040F30082C08390034F7451F0A3740FF002497E82
:1041030074F712039DEAFEEBFF900385E0640860F9
:104113001CE0640460178E828F83E0540364017093
:1041230041125E8FF8124174E0640670358E828FFF
:1041330083A3A3E064FE7003A3E0F460258E828F63
:1041430083A3A31268D07003A3E0697008EE24155B
:104153001268C56005121005800312100BE9F508FB
:1041630080037508C2EEFAEFFB121EA5A908024EE2
:1041730009A3E0F58388822274F412039D8A088BD5
:1041830009124343FAE82AFAE43400FB121E9F8A19
:104193000A8B0BAE0AAF0BEE4F605585088285097B
:1041A30083E0FC7D007900121DC78E828F83A312EA
:1041B30036CC1210418E828F83A3A3A3A3EAF0A36C
:1041C300EB1241FAF8EE28F8E43F12382A85088208
:1041D300850983A3E0C0E01264D1D0E0F01210534C
:1041E3001264C7E9124637E0C0E012462DD0E0F072
:1041F300EEFAEFFB02543BF0850882850983E02247
:1042030074F412039D74E812096B8A088B098C0AF3
:104213008D0BE9FE900385E064046005E06408709B
:104223000479C2803CA37808120B17EE90038C121A
:104233004371121DC78518828519837808120B17DD
:104243007405120B7EEEF07404120B7E7401F0748D
:1042530007120B7EE4F09003857402124DE21224E0
:104263003302543674F412039D74E812096BEAFEA8
:10427300EBFF900346125A9F600302433E7A077B8B
:1042830000121E9F9003461250A5900346125A9F98
:10429300700302433A8E828F83120B5B900346E0D6
:1042A300FCA3E0F5838C82120B4FEE2404F50AE4A1
:1042B3003FF50B850A82F583E0C0E0900346125A6E
:1042C30073A3A3A3D0E0F0EE2405F508E43FF509BA
:1042D300850882F583E0C0E0900346125A81D0E05E
:1042E300124DD8C0E0900346124347C82406F58216
:1042F300E438F583D0E0124371121DC78E828F8399
:10430300120B5B851882851983120B4F850A8285F0
:104313000B83E0C0E07405120B7ED0E01241FAC0BB
:10432300E07404120B7ED0E0F07407120B7EE412EB
:104333004DE212243380067910800279010254364B
:104343008A828B83E0F8A3E022C082C08390034675
:10435300125A9F60109003461261D7121EA5900354
:1043630046E4F0A3F0120F7B12114302497EF07C66
:10437300187D007900AA18AB1922C082C08390036C
:104383004AE07003122241120D2302497E74F01297
:10439300039D90034AE09011B1700FE0600579002E
:1043A3001220DF9011B1E4F0804AE06401600890CC
:1043B300034AE0F91220DF9011B17401F090034A2F
:1043C300E0F46030E0F50CE4F50DF50EF50FF09038
:1043D30082557808120B26780C79081202AE780CF5
:1043E3001208D77A807B009003D0E0F9121F65741E
:1043F300041208BC7AB17B11794112241B023DF0EF
:1044030074F412039D74E812096B8A088B098C0AF1
:104413008D0BE9FE9003857401124371121DC7854C
:1044230018828519837808120B177405120B7EEE18
:10443300F07404120B7E7403F07407120B7EE41203
:104443004DE212243302543674F712039D7C011299
:104453000D3B024E0974F712039D7C0080F174F04A
:1044630012039D74FC12096BE9851882851983F088
:10447300EAFEEBFF8C0A1278B8120F6F8A088B09D9
:10448300EA4509700579CA0246288A828B83A3A369
:10449300A3A3A3A3A3E064FE7003A3E0F4700579D0
:1044A300C30246281210418A0C8B0DA80CA90D8556
:1044B3000882850983A3A3A3A3A3A3A3E06870032E
:1044C300A3E069700579C202462890038312493F2D
:1044D300850882850983E0687003A3E0696012851B
:1044E30008828509831247A4AA08AB0979501224CC
:1044F3001B9003831261D71211A985088285098352
:10450300A3A3A3A3A3A3A3A3A3A3E004900396122B
:10451300479012200D7402120B7E7402F0141209DC
:104523002D1210A78A0C8B0DAE0CAF0DEE4F70033E
:1045330002461E1253BF7406F0A3A882A9839003F8
:10454300701265FD125E6C12103B12509CEE241328
:10455300125E6F1264BD7440F0A3E4124637A3A346
:10456300A3A3A312465412462DE50A124FD9120CE7
:10457300FFE9F50B60030246219003857409F0E51A
:10458300082407FEE43509FFEEFAEFFB794B12240A
:104593001B8E828F8312479A900378E0F8851882E6
:1045A300851983E068600CE0900378124DE279E1AD
:1045B30012241B90122312493F901225E0687003C6
:1045C300A3E0696028900348124DD390122512612D
:1045D300D712106B124641780C1208D77A017B0070
:1045E3009003D0E0F9121F6574041208BC7A007BB3
:1045F300049003D0E0F9121F711246417402780C43
:10460300120846780C1208D77A007B049003D0E096
:10461300F9121F6574041208BC8003750B10901007
:104623008CE4F0A90B7404023DEDEE2411F582E451
:104633003FF58322F0850882850983A3A322901284
:1046430025E0F508A3E085080CF50DE4F50EF50F5C
:104653002212650712465B22E8F0A3E9F02274F602
:1046630012039D74E212096B851882851983ECF09D
:10467300A3EDF0EAFEEBFF8908900385E064046094
:1046830005E06408700579C202478B7429120B7E1A
:10469300E064FE7003A3E0F4700579C302478B7CEA
:1046A300197D007900740512092D121DC790038529
:1046B3007403124DE2795012241B742912092D79C7
:1046C3004B12241B8518828519831247A4E5089091
:1046D3000378F07429120B7E12479A7428120B7E0A
:1046E300E0F50990037012479012200D74CE55091E
:1046F3004480C0E0741D120B7ED0E0F0742B120BCB
:104703007EE004900396F0741A120B7E7402F07428
:1047130029120B7E12493F7412120B7EE8F0A3E9B3
:10472300124938741B120B7E124DD37410120B7E78
:10473300E508F0740D120B7EE4F090038B740FF018
:104743007A8B7B03795412241B90038A740FF07ABB
:104753008A7B03794712241B90038AE0C3940F508A
:104763001F7410120B7EE0C0E07402120B7ED0E0C7
:10477300F07404120B7E7401F00412092D12243F0D
:10478300740512092D122421741E023B9DF0EEFCC8
:10479300EFFD7A977B0322124DF090037912465B6B
:1047A3002212727D12465B2274F712039DEB900373
:1047B3008DF0120F5D024E0974F712039D74E91216
:1047C300096BEAFEEBFF7508008E828F83A3A3A318
:1047D300E0C0E07406120B7ED0E0123CFFE0C0E0C4
:1047E3007408120B7ED0E0F07409120B7E74011270
:1047F3004932125A9F600D8E828F831261D7120C39
:104803004BE970357407120B7EE4F012103B74040D
:10481300120B7E1250A5900385E06404700E1210F3
:10482300477402120B7EEAF0A3EB80487402120B6A
:104833007E74FDF0A374FF803BAC18AD198E828F9C
:10484300831261D7120C578E828F83A3A3A3A3E095
:1048530070307407120B7E74011249387402120B04
:104863007E124DD38E828F8312493F7404120B7EC6
:10487300E8F0A3E9F0740212092D12108FE9F5088C
:10488300803E124939740A120B7E124DD3741412EE
:104893000B7E123CFDA3E0C0E07415120B7ED0E04A
:1048A300F07416120B7E1249311278BB740C120B82
:1048B3007EAA82AB8312200D740A12092D1220F7EF
:1048C300A9087417024E0674F712039D74F81209AF
:1048D3006BEAFEEBFF7900900385E064086005E076
:1048E3006404704585188285198374FDF0A374FFF1
:1048F300F012103B7402120B7E1250A57405120BBA
:104903007E124931A3E0C0E07404120B7ED0E012A2
:104913004932E0C0E07406120B7ED0E0F074071257
:104923000B7EE4124DE212108F7408024E06E4F07F
:104933008E828F8322F0851882851983124DF0228F
:10494300C082C0839003577407F0A3740EF09003E2
:10495300FD74E9F0A37410F090035B743DF0A3744D
:104963000EF090035D7407F0A3740EF090035F7470
:1049730043F0A3740EF08003120CBDD083D08202E7
:10498300088974F412039D74F912096B8A088B0960
:104993008C0A8D0B8518828519837808120B17747E
:1049A30004120B7EE9F07405120B7EE4F074061218
:1049B3000B7EE4124DE2120D11740702543874F5A4
:1049C30012039D8A088B098A828B831276F2EE4F3B
:1049D3007003024B79900314125A9F60158A828BDD
:1049E30083A3A3E0F9EEFAEFFB90031512417512CE
:1049F30005158E828F83A3A3A3A3A3A3A3A3A3E0DD
:104A030064026003024AE28E828F83A3A3A3A3A35B
:104A1300A3E054027003024B06850882850983A331
:104A2300A3E064E97003024B06850882850983A32A
:104A3300A3E064CD7003024B06850882850983A336
:104A4300A3E064F07003024B068E828F83A3A3A3BB
:104A5300A3A3A3A3A3A3A3E0701690123BE0048E29
:104A6300828F83A3A3A3A3A3A3A3A3A3A3F08010D1
:104A7300124B8A1210BFE970077A307B011221872B
:104A8300850882850983A3A3E0701F750A00800946
:104A93007A367B01122187050A850882850983A35B
:104AA300A3A3E0F8E50AC39840E68E828F83A3A30D
:104AB300A3A3A3A3A3A3126EB2A3A3A3A37404F0FB
:104AC30090123C126501E8124B7C121F77EA4B4CA3
:104AD3004D700C7A207B009003D0E0F9121E278ED4
:104AE300828F83A3A3A3A3A3A3A3A3A3E0640260CE
:104AF300128E828F83A3A3A3A3A3A3A3A3A3E06480
:104B03000670738E828F83A3A3A3A3A3A3E0A2E063
:104B13005064850882850983A3A3E0F9EEFAEFFBCD
:104B23001224BD8E828F83A3A3A3A3A3A3E054FE69
:104B3300F0124B8A1210BFE9850882850983A3A36B
:104B4300702AE070237A2F7B011221877E0085086B
:104B530082850983A3A3A3E0F8EEC39850187A369D
:104B63007B011221870E80E67A318005E070077A97
:104B73002D7B01122187023C8FF0A3E9F07A207B81
:104B8300009003D0E0F9228E828F83127394125A1D
:104B9300B62274EC12039D74DB12096BEAFEEBFF81
:104BA3008C108D11750E007405120935120BCD741E
:104BB30012120B7EE070087415120B7EE0602074F5
:104BC30005120B7EE0A2E6501B8E828F83A3A3A364
:104BD300A3A3A3A3A3A31261D71210BFE960057A0D
:104BE30035024CDE7405120B7EE0540C6404700530
:104BF300750D018003750D00E0A2E55030750E01BF
:104C0300E50DA2E040271210418A088B09A808A9E4
:104C130009125E8F687003A3E069601174051209BD
:104C2300351268DF1224E1E96003024CDC740512DB
:104C33000B7EE0A2E650227406120B7EE054037052
:104C4300187405120B7EE0540C640C600CE0540CD9
:104C530064086005750C018003750C007405120B64
:104C63007EE05403F8740268700E7405120935125D
:104C730068DF120BDF024DC87401687041E50CA2B6
:104C8300E0500B74051209351268DF120BD374055B
:104C93001209257403120B7EE8F0A3E9124DE8858F
:104CA3001882851983E8F0A3E9124DD8C0E0740295
:104CB300120B7ED0E0124DE212260D024DC8E860C1
:104CC30003024DC890036DE0640170178E828F83D9
:104CD300A3A3A3A3A3A3E0700A7A347B01122187C1
:104CE300024DC87424120B7E7402124DE8741C1218
:104CF3000B7E124DD3E50CA2E0500B74051209355F
:104D03001268DF120BD37439120B7E7808120B264C
:104D1300E50DA2E0EE5072240F1268C5C0E07417CF
:104D2300120B7ED0E0F0900316125A9F7003024DCF
:104D3300C81210418A128B13A812A913741C120BE8
:104D43007EE0687003A3E069707B78081208D7E5FA
:104D53000EF50878081208E38E828F83A3A3A3A31A
:104D6300E0F50878081208E378101208DFA90C743C
:104D73000D120935742412092D900316126249127B
:104D8300051574081208BC803C1268C3F50C780C36
:104D93001208E378081208D7E50EF5087808120818
:104DA300E378101208DF9003831206CCEE2412126C
:104DB30068C5F97426120935740F12092D12181BD0
:104DC300740A1208BC7425023E09A3A3A3A3A3A3D8
:104DD300E812465C22126EBAA3E022E8F0A3E9F0DF
:104DE300AA18AB1922F0124F8C124DF022124DF477
:104DF30022E0F8A3E0F92274F712039D1220C18088
:104E030005740D1208BC7F010205FD74F712039DA2
:104E13001220D380F1C082C0831220CD02497E7458
:104E2300F712039D1220D980DD74F712039D7409D4
:104E3300120B7EE0F50878081208E31220EB7401E8
:104E430080C1C082C0831220F702497EC082C08322
:104E53001220FD02497E74F712039D12210380A6DE
:104E630074F712039DEAFEEBFF890874016508706D
:104E7300147900120E7F9031A0E493FC7900EEFACE
:104E8300EFFB120DF5024E0974F712039D1220F188
:104E9300024E0974F412039D74F912096BE9FE8A38
:104EA300088B098C0A8D0B9010E1125A9F602BEE30
:104EB300851882851983F07401120B7E7808120B12
:104EC300177413120B7E12493F7405120B7E124D99
:104ED300DE9010E11262491205150249BC74F71203
:104EE300039D12210F024E0974F712039D9011B412
:104EF300E0F97E00800B12515B540D6401700119BF
:104F03000E1250F25003E970ED024E0974F71203CA
:104F13009D9011B5E0F97E00800B12515B548D64B6
:104F2300817001190E1250F25003E970ED024E091F
:104F330074F212039D890BE975F006A4A9F0240C01
:104F4300F508E439F509E5082AFAE43509FB121EE8
:104F53009F8A0C8B0DAE0CAF0DEE4F6021AC08ADEC
:104F6300097900121DC7124F88E50BF0EE2508F8EA
:104F7300EF3509F98E828F83A3A3A3124DCDEEFAE9
:104F8300EFFB02613A124F8C22EE1268EE3FF5837B
:104F93002274F612039DEAFEEBFF120DD19011B3BA
:104FA300E0F8E9C39840099003531261D7120DD773
:104FB300EE2402F8E43FF988088909900355126545
:104FC300FD900355E004124FD9120DDD850882854B
:104FD3000983E0023402F0EEFAEFFB22C082C083C1
:104FE30079009003538001091261D78A828B83E58C
:104FF30082458370F202497E74F712039DEAFEEB49
:10500300FFEE4F605A900353125A9F605288828971
:10501300837A007B00EE65827003EF65836013AAD9
:1050230082AB8312493F88828983E5824583602F5F
:1050330080E39003531262C0687002EF698E828F1F
:1050430083700812493F9003538003127382124DF9
:10505300D3EEFAEFFB1225DDEEFAEFFB121EA502EB
:105063004E09C082C08390035380048882898312CF
:105073005A9F600A88828983123DFC4D70ED8A82B3
:105083008B83E4F0A3F0E849600688828983800378
:105093009003531250A502497EEE241AF582E43F91
:1050A300F583EAF0A3EBF022125AB6EA4B2274F727
:1050B30012039D90035380048A828B831250AB604A
:1050C300277E0080010E1250F250EDEE75F006A41B
:1050D300FCADF0EA2CFCEB3DFDEC2410F582E43D45
:1050E300F583E06970DF80047A007B00024E0912C9
:1050F3005151EEC3982274F712039D7D0080010D78
:1051030012514DEDC398503BED75F006A4FEA8F087
:10511300E8FFEA2EFEEB3FFFEE24101268C569702C
:10512300DEED75F006A4FEE8FFEA2EFAEB3FFBEA9C
:105133002411F582E41261FC4CF0EA240CFA5007C6
:105143000B80047A007B00024E0912515122EA12AD
:1051530068EE3BF583E0F822EE75F006A4FCADF0B3
:10516300EA2CFCEB3DFDEC2411F582E43DF583E0F4
:105173002274F612039D120EEB7B008016EB75F082
:1051830006A4F8A9F012662BE4125209F0A31265E3
:10519300F3F00B9031A21264DE40E27A0080168AAB
:1051A3000875090074037808120A221260FE12645B
:1051B300FCA3E4F00A9031B0E493F8EAC39840DF2B
:1051C3007900801A890875090074037808120A2285
:1051D300745D1276FA740F1275331236CD0990315D
:1051E300A5126D0140DE9031A6E493900361F09027
:1051F30082551206C87A107B009003D0E0F9121F83
:105203006B7404023B9D126D0FA32274F012039D75
:1052130074F512096B8A088B09890A8C0BE9A2E0E1
:1052230050147508FC7509FFA2E15005D2E402523F
:10523300D7D2E30252D7120ED38A0C8B0DA80CA936
:105243000D900376E0687003A3E069600EAC0A7901
:1052530002AA08AB09120ECDE9700579000253A822
:10526300E50AF50C780C1208E379027CFE7DFFAAAF
:1052730008AB09120E4974011208BCE9600302531A
:10528300A6E50AC2E5F50A9003C3E07049E50AA260
:10529300E640437403120935AA08AB09120C51E91D
:1052A300702E125A7A1211858A0C8B0DAE0CAF0D2B
:1052B300EE4F6022EE2402FAE43FFB120C4BE9604E
:1052C30015EE2402FCE43FFD740312092D12200D98
:1052D300E50AD2E5F50A900356E0F50C9003761241
:1052E300556A780E1208DF7D017C00900356E0F9C1
:1052F300AA0EAB0F120E8B74021208BCE9F89003CE
:1053030056E004F0E860030253A6E50AA2E5500460
:10531300740E80027406C0E07401120B7ED0E0129A
:105323004DE21210A78A0E8B0FAE0EAF0FEE4F6039
:105333006E125E6C12103B12509C1253BF7401F03C
:105343007478550AA3127924E50C127924A3E5088D
:10535300F0E5091253ADE4F0E50AA2E5500F74033A
:10536300120935E82406FAE439FB12200D8E828FE8
:1053730083A3A374FDF0A374FFF0E50B60189031D1
:10538300A1E493F8E50BC398500CEE2413F582E4E3
:105393003FF583E50BF0EEFAEFFB120CFF80067985
:1053A30010800279C7740B023DED88828983A3A321
:1053B300A3A31253B922126D13A3A322EE1268EA18
:1053C3003F1253C822F583124DF4888289832274D5
:1053D300F412039D7A007B109003D0E0F9121F773B
:1053E300EA4B4C4D60089003E27401F08043901146
:1053F30097E064019012387006E0FC79018004E0C4
:10540300FC79037A007B00120DF5903192E493F559
:1054130008740193F509E4F50AF50B78081208D727
:105423007A007B109003D0E0F9121F657404120810
:10543300BC800574181208BC7F040205FD74F012C9
:10544300039D8A088B098C0A8D0B890C1210BFE906
:1054530060057AFF02552E901237E0640260030262
:10546300555A903198E493F9AA08AB09120EFDE955
:1054730060030255547900AA08AB09120ED3A90C94
:10548300120EC78A0E8B0FAE0EAF0FEE4F700302D4
:1054930055408E828F83A3A3A3A3A3126C177073AB
:1054A3001261D78E828F83A3A3A3A3A3A3E054186F
:1054B300604D90319FE4938E828F83A3A3A3A3F0C7
:1054C3007410120B7E1278BB7412120B7E12556A83
:1054D300EA650A7003EB650B6012EA6C7002EB6D10
:1054E300600AEA650E7003EB650F701B780E1208F5
:1054F300DFAA0AAB0B1211C174021208BC80089018
:105503000375126EA9A3F074FE6A700374FF6B60D7
:105513001E8051A3A3A3E06403602A8E828F83A31A
:10552300A3A3A3A3E0640470067AFE7BFF80358EF9
:10553300828F83A3A3A3A3A3E0640270089003C292
:10554300E0640270127907AA08AB09120EFDE96044
:1055530006AA08AB09800DAA08AB0990035712628B
:1055630049120515023DF0E0F50EA3E0F50F227494
:10557300F712039DEAFEEBFF120C9FE9700AEEFAA5
:10558300EFFB120CABE96006EEFAEFFB80047AFE48
:105593007BFF024E0974EE12039D8A0A8B0B8C0C5F
:1055A3008D0D890E7508001210BFE97900600302A2
:1055B30056FEAA0AAB0B120ED3A90E120EC78A10FF
:1055C3008B11AE10AF11EE4F60198E828F83A3A3A0
:1055D300A3A3A3E0640270529003C2E064027003C9
:1055E3000256FCAA0AAB0B126246120515120CB145
:1055F3008A108B11A810A911E84970030256FC8880
:10560300828983A3A3A3A3A3E0A2E040030256FCE1
:10561300750901A2E1504B7901AC0AAD0BAA0CABA1
:105623000D120E25E970470256FC8E828F83A3A3C9
:10563300A3A3A3E0640360258E828F83A3A3A3A304
:10564300A3E0640160030256FC79078E828F83A373
:10565300A31261D7120EFDE960030256FC7509021D
:10566300801088828983A3A3A3A3A3D2E1F0EE4F82
:10567300603A8E828F83A3A3A3A3A3A3E0541860ED
:105683002B7508018E828F83A3A31206CC7510FE9F
:105693007511FF78101208DF7900AC0AAD0BAA0C64
:1056A300AB0D120EDF74041208BC804D7900AA0CF6
:1056B300AB0D120ED38A108B11A810A9119003768B
:1056C300E0687003A3E06970149031A0E493FCA92F
:1056D3000EAA0AAB0B120DF5750801801CA909ACC3
:1056E3000AAD0BAA0CAB0D120E25E9700C7508015F
:1056F300A90EAA0AAB0B120E7FA90880031208BCDD
:105703007F0A0205FD74EB12039D74F012096B8A84
:105713000C8B0D8C088D09751206900403125A9F89
:105723006017125A7A1211AF8A108B11EA45116071
:10573300088A828B83A3E06068E50C241DF50EE4E0
:10574300350DF50F850E82125C96F51488828983D8
:10575300A3A3A3E0FA88828983A3A3A3A3E0F8E425
:10576300C8F9EA28FEE439FFAA08AB09120E8585B9
:105773000E82850F83125A81E029F50BE50AA2E513
:10578300500375120E7487550A700F7418550A6406
:10579300186007125A646512600C7AD37B001221D9
:1057A300877900025A4E530A78C3EE94F8EF94FFB8
:1057B30050247900EEFAEFFB120EC78A0E8B0FA866
:1057C3000EA90FE849600F88828983A3A3A3A3A32B
:1057D300A3E0541870CB78081208DF7D00AC0BA946
:1057E30014125AAB120E8B74021208BCE9F874033C
:1057F3006860AE7425120B7E1276FF60030258C5F3
:105803007418550A7003025980E50AD2E0F50AA21A
:10581300E45004D2E1F50AA90A125AAB120EC78A60
:10582300128B13A812A913E849605C88828983A3A9
:10583300A3A3A3A3A3E05418604D88828983A3A3E1
:10584300A3A3A3E06401703FE5104511603912780A
:10585300B888828983A3A31261D71211AF8A128BEE
:1058630013A812A913E849601E88828983A3E06004
:1058730016851082851183A3E0FA88828983A3E0C9
:10588300C39A50030257A4E50AF51078101208E3EF
:10589300125AA5120E4974011208BCE970247C0047
:1058A3007D00850E82850F8374FFF0125E87A3A3AC
:1058B300A3E06006125A581278BBA90B125AAB1216
:1058C3000DA7850E82850F83E0F47003A3E0F460D7
:1058D3003C9003C2E0640270030257A4125AAB90D7
:1058E3000359126249120515EA65087003EB65094D
:1058F30060030257A4EEFAEFFB90035912624912B8
:105903000515850E82850F83EAF0A3EBF078081264
:1059130008DF7D01AC0BA914125AAB120E8B740273
:105923001208BCA90AEEFAEFFB120ED38A088B0900
:10593300A808A909900376E0687003A3E0696003EF
:10594300025A40EEFAEFFB120CB18A088B09A80841
:10595300A909E849606F88828983A3A3A3A3E064AC
:1059630001600D88828983A3A3A3A3E06402705519
:10597300AC18AD19EEFAEFFB120C51805690036F81
:10598300E06014E50AF51078101208E3125AA51224
:105993000E4974011208BCE50AF51078101208E3E9
:1059A30079027CFE7DFFEEFAEFFB120E49740112C1
:1059B30008BCE960030258C5850E82850F8374FF16
:1059C300F0A302590F12103BEAFCEBFDAA18AB1926
:1059D30012200D850C82850D83A3A3A3A3A3A3A3E8
:1059E300A3E06401700E125A581278BB74081209AE
:1059F3002D12200D125C7E125A71E04430F50878A6
:105A0300081208E374011209258808890978081225
:105A130008DF740B1209258808890978081208DF42
:105A2300E514F50878081208E37900EEFCEFFD129F
:105A33005AAB120E1F74061208BC0257A4125C7EE6
:105A4300F583125A81E50BF012105374101208BC3F
:105A53007F0D0205FDE50C2415F582E4350DF58374
:105A630022E50C2417F582E4350DF583E022F58356
:105A7300E0F8124174A322900383125CB2221273E2
:105A830094A3A3A3A3A322E50D75F006A4F8AAF09B
:105A9300EAF974C128F582740E39F583124DF0E8E2
:105AA30049227901AC08AD091268E8350D125AB4E0
:105AB30022F583E0FAA3E0FB2274EE12039D74F057
:105AC30012096B8A0C8B0DECFAEDFB750F08900431
:105AD30003125A9F60311278B81211AF8A088B09EA
:105AE300AC08AD09EC4D601F8C828D83A3E0701769
:105AF3001264F15001097A027B0012024DE88C8294
:105B03008D83F0A37407F0125C7E125C96F50E8809
:105B1300828983125C88E0FAE4CAFBEC2AFEE43B48
:105B2300FF88828983A3A3125C88A3A3E0FBECF51F
