:020000040000FA
:06000000020AF80201E80B
:03002B0002077B4E
:030033000205DCE7
:030043000207A011
:030053000201297E
:03006B000205B5D6
:1000830002017701FF01010503010F10FEFFF22FAB
:1000930000000000642E00000000FF000000FF00CD
:1000A300018813000030815A0020FD00020000394E
:1000B3001B000000000000411C00000000000000C5
:1000C300000000000000000000000000000000002D
:1000D300000000000000000000010000000000001C
:1000E3000006FFFF01010100A910000000E803FF63
:1000F300FF2111E80364006400B80102020020003C
:10010300000502070101051E02051E020A0A01027B
:10011300B80B02803E0102FEFFE8030A050001124C
:1001230006010A1401E0C0E074F2120409A2AFE46C
:1001330033FED2AF85A708AFA1EF55085410600670
:100143001218B175A1EFEF5508540860081218B7DB
:1001530075A1F78013EFA2E092F0E508A2E082F028
:10016300500612197175A1FEEEF8EEA2E092AF7F70
:1001730001020468C0E074F2120409A2AFE433FF81
:10018300D2AF9061A4E0FE759B00E5915E540860D8
:10019300087591F712190B8026E5915E54106008DB
:1001A3007591EF1219118017E591A2E092F0EEA27A
:1001B300E082F0500A9061A4E0C2E0F0121A61906C
:1001C30061A3E0FEE5E95E5404600E121A3775E997
:1001D300FB906193E0A2E640F2EFF8EFA2E092AF6A
:1001E3007F01020468C0E074F2120409A2AFE43391
:1001F300FED2AF9061A5E0FFE5BF5F5404600675D2
:10020300BFFB121A79EEF8EEA2E092AF7F0102046F
:1002130068C3E498F8E499F91202558026C3E49A76
:10022300FAE49BFBE920E7E9120255E498F8E49924
:10023300F922C3E498F8E499F9120255E498F8E432
:1002430099F9C3E49AFAE49BFB22EB20E7CFE92078
:10025300E7E0B90010BB0008E88AF084F8AAF022AE
:10026300E4FBC8FA22EB70227B10C833C8C933C938
:10027300335007C39AC3DBF280069A50012ADBEAA4
:10028300C833F4C8C933F4C9FA2275F008E4C83393
:10029300C8C933C933C99AC99B5004C92AC93BD5B4
:1002A300F0ECFBC833F4C8E4C9FA22080808EAC032
:1002B300E0EBC0E086F0E7A4FA180986F0E7A42A89
:1002C300FA180986F0E7A42AFA180986F0E7A42A9F
:1002D300FA1986F0E7A4FBE5F02AFA190886F0E795
:1002E300A42BFBE5F03AFA190886F0E7A42BFBE50B
:1002F300F03AFA18180986F0E7A4C5F02BFBE43AA4
:10030300FA1908E7C5F0C6A426F6E5F03BFBE43A84
:10031300FA1886F0E7A4F6E5F00826F6E43B08F6BB
:10032300E43A08F6D0E0FBD0E0FA22E4CFC0E0E400
:10033300CEC0E0E4CDC0E0E4CCC0E075F020E6261A
:10034300F608E633F608E633F608E633F618181827
:10035300EC33FCED33FDEE33FEEF33FFC3EC9709D3
:10036300ED9709EE9709EF97191919400FFFEC97CD
:10037300FC09ED97FD09EE97FE191906D5F0BFECC0
:10038300F709EDF709EEF709EFF7191919D0E0FCB2
:10039300D0E0FDD0E0FED0E0FF222518C582C0E00A
:1003A300E51934FFC583C0E0E518C3958224F8102E
:1003B300AF0885831985821880088583198582187B
:1003C300D2AFCEF0A3E520F0A37808E608F0A3DED1
:1003D300FAEFF0A3E58124FAF8E608F0A3E608F0C3
:1003E300A3E608F0A30808E608F0A3E608F0A315BF
:1003F300811581D0E0FED0E0F8158115811581E8E3
:10040300C0E0EEC0E022C0D02518C582C0E0E519E7
:1004130034FFC583C0E0E518C3958224F310AF0809
:100423008583198582188008858319858218D2AF40
:10043300C8F0A3E9F0A3EAF0A3EBF0A37908E70976
:10044300F0A3D8FAECF0A3EDF0A3EEF0A3EFF0A342
:10045300D0E0F0A3D0E0F0A3D0E0F0A3E520F0A338
:10046300E5F0F0A322851983851882E0C0E0A3E0BC
:10047300F9A3E0FAA3E0FBA37808E0F608A3DFFA08
:10048300E0FCA3E0FDA3E0FEA3E0FFA3E0C0E0A344
:10049300E0C0E0A3E0F5D0A3E0F520A3E0A3F5F0EE
:1004A30010AF088583198582188008858319858292
:1004B30018D2AFD082D083D0E0F8D0E032120B73E1
:1004C300B900030204FFE490030178AA790F8002C4
:1004D300F0A3D8FCD9FA7AAA7B1190008678A47984
:1004E300018015E493A3AD82AE838A828B83F0A34C
:1004F300AA82AB838D828E83D8E9D9E77582D175C1
:100503008388740612088375821375832674001218
:100513000883E4730C75F0108E1A8F1B85821F8578
:10052300831E851882851983E0CEA3E0CF851F82C1
:10053300851E83EBC9EAC8EDCBECCAC3E833C8E92F
:1005430033C9EA33CAEB33CBC3EA9EF51DEB9FF500
:100553001CB35004AB1CAA1DEC33CCED33CDD5F04A
:10056300DAAE1AAF1B22D083D082ECC0E0EDC0E03C
:10057300E493A3FCE493A3FDED4C600D120689EC18
:1005830024FFFCED34FFFD80EFE493A3FCE493A38D
:10059300FDED4C600D120726EC24FFFCED34FFFD4E
:1005A30080EFD0E0FDD0E0FCE493A3C0E0E493C08F
:1005B300E022C0E074F2120409E589A2E54006E5F1
:1005C30089A2E4500312174F9005BBE02401F07594
:1005D3008900C2C57F01020468C0E074F2120409F5
:1005E300E58BA2E0500312174F9005BCE02401F005
:1005F300758B00C2E87F0102046885198385188220
:10060300E0A3FEE0A3F5207808E0A3F608DFFAE014
:10061300A3FFE0A3C0E0E0A3C0E0E0A3C0E0E0A349
:10062300C0E0E0A3C0E010AF08858218858319807D
:1006330008858218858319D2AFD083D082020889B6
:10064300D083D082E9C0E0E493A3C386F0C5F095DC
:10065300F0F908E493A386F0C5F095F0700BE493EA
:10066300A3C3994005E9048002A3E475F002A4251D
:1006730082F582E5F03583F583D0E0F9E493A3C0F6
:10068300E0E493C0E022C0E0C3E4939608740193CE
:100693009618400FE4936670080874019366187007
:1006A300007019A3A3C3E49396087401939618A347
:1006B300A3400DD0E0D0E0D0E00205A5A3A3A3A3FF
:1006C300A3A3D0E0227404800474028000CCC0E0B1
:1006D300EDC0E0E518C39CCCAD1950011D10AF0669
:1006E3008C188D1980068C188D19D2AF1207E7D09C
:1006F300E0FDD0E0FC2274028000CCC0E0EDC0E05D
:10070300E518C39CCCAD1950011D10AF068C188D94
:100713001980068C188D19D2AF1207C5D0E0FDD011
:10072300E0FC22C0E0C0F088F0E49366700808742F
:10073300019366187000A8F0A3A3700BD0F0D0E06B
:10074300D0E0D0E00205A5A3A3D0F0D0E022D0836F
:10075300D082CCC0E0E493A360061208081470FAB8
:10076300E493A360061209551470FAD0E0FCE493F5
:10077300A3C0E0E493C0E022C0E0C0D0E8C0E0E959
:10078300C0E0A2AFE433F8D2AFC2C7E8F9E8A2E011
:1007930092AFD0E0F9D0E0F8D0D0D0E032C0E0742E
:1007A300F2120409A2AFE433FED2AFC2C0E5D1A274
:1007B300E45003121803EEF8EEA2E092AF7F0102B9
:1007C3000468CAC0E0E493A3C582CCC582C583CDC7
:1007D300C583F0A3C582CCC582C583CDC583DAE5C5
:1007E300D0E0CA22CAC0E0E0A3C582CCC582C583DB
:1007F300CDC583F0A3C582CCC582C583CDC583DABD
:10080300E6D0E0CA22C0E0E493A3D39C5010E49363
:10081300A3C39C400AD0E0D0E0D0E002076EA3A3BC
:10082300A3D0E022C008C3E096F50808A3E09642EF
:100833000808A3E096420808A3E09645087001D390
:10084300D008227009080808226016181818C6C3B1
:1008530033C608C633C608C633C608C633C6D5E092
:10086300EA22C5822518C582C583351910AF07F55D
:10087300198582188007F519858218D2AFC583229E
:10088300C09FF59FE473D09F22D083D082C09FE4A2
:1008930093C0E0740193C0E0740293F59F2225187E
:1008A300F58210AF08F518400C15198008F51840AB
:1008B300021519D2AF8519832200C0D0251810AFB5
:1008C30008F518500C05198008F51850020519D2BF
:1008D300AFD0D0227404800A7403800674028002AD
:1008E3007401C0E0F4041208A1D0E0120B3522BB5E
:1008F3000102E722C082C08389828A83BB0003E0AE
:100903008002E493D083D082226016080808C6C30D
:1009130013C618C613C618C613C618C613C6D5E021
:10092300EA222518F8E43519F9222518FAE43519CD
:10093300FB222518FCE43519FD22C3E0C696F60810
:10094300A3E0C696F608A3E0C696F608A3E0C6960B
:10095300F622C0E0E493A36C7009D0E0D0E0D0E0CD
:1009630002076EA3A3D0E022251810AF08F51840A4
:100973000C15198008F51840021519D2AF22E0664C
:10098300701008A3E066700A08A3E066700408A369
:10099300E06622E76670100809E766700A0809E74F
:1009A3006670040809E76622C3E09608A3E0960888
:1009B300A3E09608A3E096A2D265D03322C3E096C3
:1009C300F008A3E096F008A3E096F008A3E096F001
:1009D30022C3E697F60809E697F60809E697F608AC
:1009E30009E697F622C3E493960874019396087474
:1009F300029396087403939622E627F60809E637CE
:100A0300F60809E637F60809E637F622E026F6087F
:100A1300A3E036F608A3E036F608A3E036F6227024
:100A23000422600D18C6C333C608C633C6D5E0F426
:100A33001822E046F008A3E046F008A3E046F008D9
:100A4300A3E046F022E657F60809E657F60809E65A
:100A530057F60809E657F622E056F608A3E056F6DD
:100A630008A3E056F608A3E056F622E056F008A3E2
:100A7300E056F008A3E056F008A3E056F022E02683
:100A8300F008A3E036F008A3E036F008A3E036F060
:100A930022E647F60809E647F60809E647F6080995
:100AA300E647F622E4C396F608E496F608E496F6DB
:100AB30008E496F622600D08C6A2E713C618C6130B
:100AC300C6D5E0F322C6F4C608C6F4C608C6F4C603
:100AD30008C6F4C622C3E7960809E7960809E7960D
:100AE3000809E79622C3E09608A3E09608A3E096D8
:100AF30008A3E0962275D00075813F75180175191A
:100B030003000204C0600C08C6C313C618C613C68C
:100B1300D5E0F422E6F008A3E6F008A3E6F008A384
:100B2300E6F022E0F608A3E0F608A3E0F608A3E067
:100B3300F622CAC0E0E6F0A308DAFAD0E0FA22C54A
:100B4300822518C582C5833519C58322E8F0A3E938
:100B5300F0A3EAF0A3EBF022E0F8A3E0F9A3E0FAB4
:100B6300A3E0FB22E0FAA3E0FBA3E0FCA3E0FD2269
:100B7300E5C754F84401F5C77901222518F582E445
:100B83003519F58322C2AF75D69F020000221208E1
:100B93008C9CAD0212088C4FB00212088C62B30217
:100BA30012088C71B30212088CFDB30212088CB3C5
:100BB300B40212088CFAB40212088C43B50212086C
:100BC3008CC6B50212088CE2B50212088CE3B60299
:100BD30012088C74B90212088CCDBA0212088C6008
:100BE300BB0212088CEABB0212088C50BC0212082A
:100BF3008C8FBC0212088C05BD0212088C5ABE02EF
:100C030012088CFDBE0212088C15BF0212088CB8A4
:100C1300BF0212088C42C20212088CE3C3021208FC
:100C23008C01C40212088C93310012088CED310040
:100C330012088C57320012088CE0320012088C9C88
:100C4300330012088C2B340012088C443400120831
:100C53008C69340012088CA7340012088CF6340017
:100C630012088C1F350012088C6E350012088C1A7E
:100C7300360012088CE2360012088C47370012083F
:100C83008C14380012088C5A380012088C763800FD
:100C930012088CA8380012088C503A0012088C27CE
:100CA3003B0012088C533B0012088C873B00120850
:100CB3008CA83B0012088CB73B0012088CC23B0087
:100CC30012088C763C0012088CE93C0012088C5BFD
:100CD3003D0012088C633D0012088C863E0012080A
:100CE3008CB93E0012088C7B3F0012088C2A40000E
:100CF30012088C72400012088CD4400012088CE554
:100D0300400012088C5D410012088CE54100120876
:100D13008C49420012088C2E430012088C5F43005A
:100D230012088C72430012088CE5430012088C2DC4
:100D3300440012088C3A440012088C434400120801
:100D43008C43460012088C8D470012088C9D470087
:100D530012088CAC480012088C25490012088C67D5
:100D6300490012088CA3490012088C774B00120823
:100D73008CDC4D0012088CF04D0012088CFA4D00EB
:100D830012088C044E0012088C0E4E0012088C2799
:100D93004E0012088C314E0012088C3B4E00120894
:100DA3008C454E0012088C6D4E0012088C784E0054
:100DB30012088CC24E0012088CCD4E0012088CF122
:100DC3004E0012088C154F0012088C764F00120843
:100DD3008CC14F0012088CDD4F0012088C47500065
:100DE30012088C93500012088CDB500012088C56AA
:100DF300510012088CF0510012088CB453001208F1
:100E03008C22540012088C54550012088C7A550019
:100E130012088CEA560012088C9E5A0012088C9E07
:100E23005C0012088C765E0012088C0F5F001208BB
:100E33008C21610012088CE3610012088C2F620080
:100E430012088C95620012088CA7620012088CF7B6
:100E5300640012088C24660012088C76660012085F
:100E63008C1B670012088CD6680012088C076A0076
:100E730012088C256A0012088C7A6A0012088C7892
:100E83006B0012088CA06B0012088C036C00120814
:100E93008C046D0012088C776D0012088CA56E000F
:100EA30012088C106F0012088C00700012088C66F8
:100EB300720012088C94720012088C8F730012084F
:100EC3008C2D750012088C7D750012088C35760008
:100ED30012088CEA760012088C4E770012088C07F1
:100EE300780012088CA7780012088C0B790012087E
:100EF3008C55790012088C92790012088CFA7A00CA
:100F030012088CE6820112088C1E830112088CF7EA
:100F1300850112088C3D860112088C5A870112083C
:100F23008CBF870112088C10890112088C018C0177
:100F330012088C208D0112088CF5970112088C94ED
:100F4300980112088C879B0112088C879C01120858
:100F53008CFD9C0112088C3A9E0112088CA3A001FF
:100F630012088CB1A20112088C3EA30112088C1244
:100F7300A40112088C9EA40112088CA8A4011208D3
:100F83008CD1A40112088C7EA50112088C69A601DC
:100F930012088C41A70112088CA5A70112088CCE58
:100FA300A70112088CFBA70112088C4CAA01120896
:100FB3008C27AB0112088C6BAB0112088CDCAB01E4
:100FC30012088C95AC0112088CC7AC0112088C0E68
:100FD300AD0112088C41AD0112088CA6AD011208B7
:100FE3008CF5AD0112088CFAAD0112088C4EAE01DE
:100FF30012088C98AE0112088C94AF0112088CF978
:10100300AF0112088C60B00112088C85B30112087D
:101013008C59B40112088CC3B50112088C9DB80118
:1010230012088C45B90112088C6CBB0112088C1193
:10103300BC0112088C4FBC0112088C28BE01120897
:101043008C3BBE0112088C44BE0112088C4DBE01BC
:1010530012088C62BE0112088C81BE0112088C60DA
:10106300C00112088CB3C00112088CBDC001120864
:101073008CDEC00112088C2DC20112088C76C201CD
:1010830012088C56C30112088C81C40112088C37D4
:10109300C50112088C39C60112088C3BC70112081E
:1010A3008C21C80112088C38C80112088C75C8013C
:1010B30012088C7FC80112088C8AC80112088CA8F8
:1010C300C80112088CEAC80112088C48C901120829
:1010D3008C6DC90112088C87C90112088C14CA01CE
:1010E30012088C4DCA0112088C9BCB0112088CED9F
:1010F300CB0112088C07CD0112088C2ECD011208EA
:101103008CCACD0112088C46CE0112088C92CF01F5
:1011130012088CADD00112088C73D10112088C1DFA
:10112300D20112088CA2D20112088C0AD301120830
:101133008CBFD30112088C11D40112088C77D4010F
:1011430012088C40D50112088C63D50112088C1B40
:10115300D60112088C3FD60112088C61D601120801
:101163008CC2D60112088C0DD90112088CE8D90162
:1011730012088C92DA0112088CD3DC0112088C213C
:10118300DD0112088C64DD0112088CBCDD0112083C
:101193008C1ADE0112088C44DE0112088C68DE0111
:1011A30012088C99DE0112088CC3DE0112088C0A26
:1011B300DF0112088C5EDF0112088CBADF0112080E
:1011C3008CBBE00112088C25E20112088C63E2015A
:1011D30012088C8CE20112088C1DE30112088C6743
:1011E300E30112088C8BE30112088CDEE301120881
:1011F3008CF9E30112088CB4E40112088CDEE401DB
:1012030012088C21E50112088C77E50112088C8302
:10121300E80112088CB6E80112088C73E901120880
:101223008C4EEA0112088CDEEA0112088C1FEB01D6
:1012330012088CCAB10512088C02B20512088C235D
:10124300B20512088C65B20512088CC9B2051208E2
:101253008CD3B20512088CE3B20512088C1AB305BD
:1012630012088CC3B60512088C8BB80512088C7F44
:10127300BA0512088C1DBB0512088CA4BB05120805
:101283008C87C40212088C30C50212088C0FC60268
:1012930012088C2AC70212088C4AC70212088C6CE7
:1012A300C80212088C09CA0212088C76CA021208F4
:1012B3008C4CCB0212088C52CC0212088CB7CC0295
:1012C30012088CF3CC0212088C4CCD0212088C85C8
:1012D300CD0212088CCECD0212088C60CE02120809
:1012E3008CFDCE0212088CD2CF0212088C9FD00242
:1012F30012088C2CD10212088C52D10212088C7F56
:10130300D10212088CB0D10212088C85D2021208C5
:101313008C95D20212088CE8D20212088CF5D20204
:1013230012088C02D30212088C0BD30212088C6FA2
:10133300D30212088CCDD30212088C18D4021208DF
:101343008C33D40212088C5AD40212088C77D4023C
:1013530012088C83D40212088C27D60212088C4000
:10136300D60212088CBCD60212088CCFD602120801
:101373008CDFD60212088C85D70212088CF5D802AE
:1013830012088C08DA0212088CA8DA0212088CB24E
:10139300DA0212088C20DB0212088C31DB021208FD
:1013A3008C70DB0212088C9EDB0212088C6BDC0251
:1013B30012088CC2DC0212088C07DD0212088C5D55
:1013C300DD0212088C7BDD0212088CC9DD021208D3
:1013D3008C97DE0212088CE5DE0212088C27DF02EE
:1013E30012088CAADF0212088CD4DF0212088C0ABE
:1013F300E00212088C19E00212088C77E00212084E
:101403008CEFE00212088C30E10212088C7FE102BB
:1014130012088CAAE10212088CC4E10212088CDEC5
:10142300E10212088CB3E20212088CBDE202120838
:101433008CF8E20212088C08E30212088C59E302CA
:1014430012088C6DE30212088C8BE40212088CA044
:10145300E40212088C3AE50212088CB9E50212087C
:101463008C5CE60212088C67E60212088CB4E70271
:1014730012088CD0E70212088C28E80212088C9616
:10148300E80212088CE2E80212088CFCE802120857
:101493008C5CE90212088CFAE90212088C45EA0214
:1014A30012088CA8EC0212088C40ED0212088CB7CB
:1014B300ED0212088CFDEF0212088C15F0021208DF
:1014C3008C18F00212088C24F00212088C38F002F7
:1014D30012088C40F00212088C77F00212088C6B11
:1014E300F10212088CF5F10212088C77F20212084D
:1014F3008CECF20212088CC4F30212088CE6F3029D
:1015030012088C7DF40212088C89F40212088CE60E
:10151300F40212088CE9F40212088C58F50212083E
:101523008CA4F60212088CB7F70212088C42F80258
:1015330012088C55F90212088C1FFA0212088C50FB
:10154300FA0212088C76FA0212088C7FFA02120849
:101553008CAEFA0212088C5EFB0212088C0EFC029F
:1015630012088C81FC0212088C33FD0212088CA62F
:10157300FD0212088CE5FD0212088C2EFE021208F1
:101583008CDEE70412088C82E80412088CD1E8048C
:1015930012088C50E90412088CFAE90412088C1220
:1015A300ED0412088CCBEF0412088CF5F304120837
:1015B3008C2DF40412088C5BF40412088CEDF404F3
:1015C30012088C41F50412088C74F50412088C9DE2
:1015D300F50412088CEBF50412088C70F60412085B
:1015E3008CE0EB0112088C68EC0112088CD2EC0140
:1015F30012088C46ED0112088C18F00112088C3B7E
:10160300F00112088C94F00112088C86F101120883
:101613008CF0F10112088CA7F30112088C02F5017A
:1016230012088C74F50112088CEDF50112088CC4B4
:10163300F60112088C1EF70112088C68F7011208D4
:101643008C6CF90112088C96FA0112088CBFFB010D
:1016530012088CCEFC0112088C3FFD0112088C9FEE
:10166300FD0112088CDCFD0112088C7AFE011208C0
:101673008C49FF0112088C08B40412088CD7B404F7
:1016830012088C15B80412088CC0B90412088CFE19
:10169300BA0412088C64BC0412088CE2BC0412085D
:1016A3008CC7BD0412088C7FBE0412088CBBBE0419
:1016B30012088CDEBE0412088C69BF0412088C1C4D
:1016C300C00412088C2DC20412088CAEC204120886
:1016D3008C20C40412088C65C50412088C6CC604E3
:1016E30012088C239A0612088C349A0612088C0866
:1016F3009B0612088C3D920612088C4B9206120828
:101703008CDA7F0012088C159C0612088C259C0627
:1017130012088C459C0612088CE59C0612088C0066
:10172300800612088CA8800612088CEA820612082A
:101733008C61900612088C8E900612088C0D91060F
:1017430012088C22910612088C86910612088CF5D9
:10175300910612088C79CB0512088C86CB051208EA
:101763008CD1CB0512088CF6CB0512088C26CC0540
:1017730012088C5CCC0512088C85CC0512088CB33E
:10178300CC0512088CBACD0512088C50CF0512086F
:101793008C8BD00512088CBDD00512088C63D10543
:1017A30012088CB5D10512088CD9D10512088C8981
:1017B300D20512088C6D7B0012088C867B00120800
:1017C3008C1C7C0012088C1A7D0012088C7A7F0016
:1017D30012088C4A9F0612088C17A70512088C6FF3
:1017E300A70512088C75AA0512088C4AAB051208C6
:1017F3008C53AC0512088CE1AD0512088C39B00589
:1018030012088CD7B00512088C27B10512088CE397
:10181300A20212088C52B10512088C7BB105120882
:101823008CA4B10512088CB2B10512088C50BC050A
:1018330012088C8ABC0512088C1DBE0512088C8800
:10184300BE0512088CB4BE0512088CCDBE05120865
:101853008CEBBE0512088CE2BF0512088C42C10551
:1018630012088C22C20512088C63C30512088CA1CE
:10187300C30512088CCCC30512088C63AC02120892
:101883008C22C40512088CC5950612088CEE9506A9
:1018930012088C02960612088C4C960612088C9736
:1018A300960612088CE2960612088C4597061208D3
:1018B3008C48970612088C56970612088C67970671
:1018C30012088C6AFC0512088CA4FC0512088C0C07
:1018D300FD0512088C3AFD0512088C87FD051208D8
:1018E3008CC5FD0512088C00FE0512088C2AFE0526
:1018F30012088C50FE0512088CB3FE0512088CE109
:10190300FE0512088C77FF0512088C8FFF0512085D
:101913008CA4FF0512088C929F0612088CAF9F06B9
:1019230012088CD39F0612088CC9D80512088C5D47
:10193300DA0512088C6BDA0512088C8BDA051208AB
:101943008CB4DA0512088C11DB0512088C6DDB05EB
:1019530012088C02DC0512088C87DC0512088C182F
:10196300DD0512088C0ADE0512088C1EDE0512083E
:101973008C31DE0512088C53DE0512088CF39C06AD
:1019830012088C249D0612088C559D0612088C8221
:101993009D0612088C57F50512088CC6F50512082A
:1019A3008CF1F50512088C94F60512088C9CF10550
:1019B30012088CBFF10512088CD1F10512088CDFD7
:1019C300F10512088C08F20512088C24F20512089E
:1019D3008C40F20512088C5BF20512088C1CF3058F
:1019E30012088C99F30512088CD0F30512088C2584
:1019F300F40512088C7AF40512088CA8F405120871
:101A03008CB6F40512088CD0F40512088C44F50545
:101A130012088C449E0612088CD29A0512088C1B5D
:101A23009B0512088C479B0512088C609B051208C6
:101A33008C809B0512088CEA9B0512088C249C055C
:101A430012088C83A10512088C52A30512088C98E6
:101A5300A30512088C05A40512088CB3A50512086A
:101A63008CE3A50512088CFDA50512088C11A605AB
:101A730012088C65A60512088CC8A60512088CDD11
:101A8300A60512088C63FE0212088C7AFE02120865
:101A93008CA3FE0212088CC9FE0212088CF6FE0209
:101AA30012088C26FF0212088C47FF0212088C7E54
:101AB300FF0212088CA6FF0212088CFF9E06120872
:101AC3008C20E90512088C37E90512088CA9EA0570
:101AD30012088CDEEA0512088C06EB0512088C331B
:101AE300EB0512088C4CEB0512088C8DEB051208E4
:101AF3008C0BEC0512088C57EC0512088CABEC052B
:101B030012088CE2EC0512088C14ED0512088CCB3C
:101B1300FD0312088CEEFD0312088C72FE031208FB
:101B23008CB2FF0312088CEF980612088C028E0603
:101B330012088C12900612088CC39B0412088C0D99
:101B43009E0412088C419E0412088C849E04120881
:101B53008C9C9E0412088C169F0412088C429F04CE
:101B630012088C61A10412088CE2A20412088CF4FE
:101B7300A30412088C82A40412088C00A504120882
:101B83008CC6A50412088C5FA60412088CA9A604AF
:101B930012088C77A70412088C7BA80412088C1CEB
:101BA300A90412088C38AB0412088C7DAC0412080B
:101BB3008CD8AC0412088CDBAC0412088C0AAD047C
:101BC30012088C0DAD0412088CDCAD0412088CAB2A
:101BD300AE0412088C7AAF0412088C4EB0041208BB
:101BE3008C22B10412088CF6B10412088C21B204C1
:101BF30012088C4CB20412088C1FB30412088CF325
:101C0300B30412088C928B0612088CB58B0612084B
:101C13008CB18C0612088C5D8D0612088C988D068B
:101C230012088CF7F80512088C75F90512088C85D3
:101C3300F90512088CAFF90512088C47E403120862
:101C43008C4AE40312088CCFE50312088C3FE603A9
:101C530012088CC9E60312088C7DE70312088C3145
:101C6300E80312088CF5E80312088CA9E9031208AB
:101C73008CB6EB0312088C6AEC0312088C1EED037E
:101C830012088CADED0312088CACEE0312088C1B0A
:101C9300EF0312088CB3EF0312088CE0F103120870
:101CA3008C36F30312088C8CF40312088CE6F503CC
:101CB30012088C0EF70312088C66F70312088CF9CE
:101CC300F70312088CD4F80312088C06F9031208E0
:101CD3008C34FC0312088CD5FC0312088C50FD03D2
:101CE30012088C62D80412088C0CD90412088C33A5
:101CF300D90412088CF2DA0412088C10DC041208DE
:101D03008CE4DC0412088C7EDE0412088CD5DE041D
:101D130012088CE9DE0412088C65DF0412088C9C1F
:101D2300E10412088CDDE10412088CB4E204120809
:101D33008C60E30412088C01E40412088C19E40497
:101D430012088C58E40412088CC8E40412088C03AB
:101D5300E50412088C0DE60412088C5AE6041208F6
:101D63008CC1E70412088C05830612088C288306AD
:101D730012088C4B840612088C7B850612088C078C
:101D8300940612088C30940612088C4F940612089D
:101D93008C6F940612088CCD940612088CF394066B
:101DA30012088CB4950612088CC2950612088C0092
:101DB300800512088C15800512088C7180051208A5
:101DC3008C19810512088C42810512088C678105E4
:101DD30012088C8B820512088C99850512088CA732
:101DE300850512088C09860512088C47860512089A
:101DF3008C62860512088CFD860512088CA6870561
:101E030012088CF9870512088C7C880512088CEC63
:101E1300880512088C25890512088CB089051208DB
:101E23008C428A0512088C998A0512088CF78A0558
:101E330012088C098B0512088C1B8B0512088C4128
:101E43008B0512088C4A8B0512088C9B8C05120893
:101E53008C338D0512088CA48D0512088C4DC40596
:101E630012088CC5C50512088C70C60512088C981B
:101E7300C60512088CA9C60512088CACC905120840
:101E83008CCCC90512088CB39D0612088CF7850605
:101E930012088C3C860612088C89860612088C521E
:101EA300880612088C00800412088CC08104120872
:101EB3008C0F820412088C86840412088CEB840431
:101EC30012088CEC870412088C52880412088C8642
:101ED3008A0412088C708B0412088CD38B041208AA
:101EE3008C638C0412088C098D0412088C628D0497
:101EF30012088CC18D0412088C208E0412088CECFD
:101F03008F0412088CA9910412088C7F9404120880
:101F13008CC1940412088C23950412088C35950403
:101F230012088CAA950412088C5C960412088C85FE
:101F33009A0412088C4A9B0412088C0DA0061208FE
:101F43008C28A00612088C8CDE0512088CACDE05EA
:101F530012088CB2DF0512088CFEDF0512088C1EF6
:101F6300E00512088C71E00512088CDEE00512080A
:101F73008C24E10512088C88E10512088C34E405F1
:101F830012088CD88D0512088CE58E0512088CB5C5
:101F93008F0512088CFB910512088C91920512088B
:101FA3008CE0920512088C10930512088C5493054B
:101FB30012088C34940512088C22950512088C376C
:101FC300950512088CC7950512088C86970512088B
:101FD3008CBA990512088C2E9A0512088C629A0500
:101FE30012088C78970612088C18980612088C7CB5
:101FF300980612088CBF980612088C0080031208FA
:102003008C6D800312088C22810312088C82820358
:1020130012088CC3830312088C8D840312088CF37B
:10202300840312088C70850312088CDE8503120862
:102033008CE1850312088C5D860312088C7E86036F
:1020430012088CE4890312088C9A8A0312088CD92B
:102053008A0312088C3F8B0312088CB68D03120877
:102063008C118E0312088CF28E0312088C328F03AC
:1020730012088C578F0312088CAE8F0312088CF34F
:102083008F0312088C2A900312088C729003120893
:102093008C8A900312088C68910312088C8991032F
:1020A30012088CE9910312088C4D920312088CA933
:1020B300920312088CF8930312088C3E97031208BC
:1020C3008C85970312088CD5980312088C149903F6
:1020D30012088CB1990312088CBD9A0312088C1C48
:1020E3009B0312088C9F9B0312088CA99C03120864
:1020F3008CDA9C0312088CE89C0312088C079D035E
:1021030012088C0A9D0312088C999D0312088CDA1D
:102113009D0312088CFA9D0312088C319E0312084A
:102123008C799E0312088C7C9E0312088CDB9E0321
:1021330012088C1B9F0312088C5C9F0312088C9F50
:102143009F0312088CC69F0312088C28A003120851
:102153008CA2A00312088CE0A20312088C229B0617
:1021630012088C339B0612088CB69B0612088CF956
:102173007F0012088CD3F60412088C2CF704120883
:102183008C62F80412088CA3F80412088CD6FA04A3
:1021930012088C1FFB0412088C75FB0412088CF2C6
:1021A300FB0412088C45FD0412088C8BFE041208F4
:1021B3008CB0FE0412088C15FF0412088C9DFF04DA
:1021C30012088C1DC70312088C40C70312088C51D8
:1021D300C70312088C13C90312088C96C90312088B
:1021E3008C1FCA0312088CB1CA0312088C65CB0377
:1021F30012088C19CC0312088C08CD0312088CCF5B
:10220300CD0312088C34CE0312088CFAD4031208BF
:102213008CD6D70312088C1FD80312088CAAD803B4
:1022230012088C1FDA0312088C22DA0312088C18A6
:10223300DB0312088C95DC0312088CDCDE03120826
:102243008CF0DF0312088C8FE10312088C60E20329
:1022530012088CC5E20312088C48E30312088C1899
:10226300A50312088CF3A50312088C9BA60312087E
:102273008CF7A60312088CB8A70312088C6AA8036C
:1022830012088CEDAA0312088C5DAB0312088C4D67
:10229300AC0312088CE4AC0312088C8FAD03120854
:1022A3008C3BAE0312088C64B20312088CB5B403E2
:1022B30012088CBBB50312088C56B90312088C6C38
:1022C300BA0312088C59BB0312088C09BC03120809
:1022D3008CB1BC0312088C42BF0312088CE4C00308
:1022E30012088C8AC20312088C51C30312088CFE95
:1022F300C30312088C62C50312088CA3C604120818
:102303008C30C70412088CA5C70412088CFEC704BE
:1023130012088CA2C80412088CF1C80412088C7B22
:10232300C90412088CCBCA0412088C05CB0412080A
:102333008C3DCC0412088C52CC0412088C79CC044A
:1023430012088C95CD0412088CC2CD0412088CC5DA
:10235300CE0412088CF1CE0412088C0DCF0412089F
:102363008C2DCF0412088C4ECF0412088C5FCF043F
:1023730012088C6BD00412088CCCD00412088CCABF
:10238300D10412088C29D20412088C47D2041208F3
:102393008C4CD20412088C98D20412088C32D404C8
:1023A30012088C46D50412088C25D60412088CAC6E
:1023B300D60412088CC5D60412088C1ED804120841
:1023C3008C6EED0512088CECED0512088C2BEE05D6
:1023D30012088CFFEE0512088C6DEF0512088C06AF
:1023E300F00512088C09F10512088C45E405120862
:1023F3008C67E40512088CC4E40512088CF2E4052A
:1024030012088C27E50512088C4DE50512088C711E
:10241300E50512088C97E50512088CAAE605120853
:102423008CF6E60512088C0DE70512088C35E805D5
:1024330012088C45E80512088C62E80512088C7FA7
:10244300E80512088C92E80512088C8CD205120854
:102453008C35D80512088C43D80512088C48D8054A
:1024630012088C57890612088C6F890612088CB7DC
:102473008A0612088C7E8B0612088CB39E061208FD
:102483008CCFFF0312088CD69F0612088CD7FF014E
:1024930012088CD8FF0412088CB3A20212088C779E
:1024A300A20212088C63A20212088C4FA202120825
:1024B3008C8CA10212088CD9A00212088C889E026F
:1024C30012088C5D9E0212088CFE9D0212088C6F0E
:1024D3009C0212088CFD9B0212088CC09B021208FE
:1024E3008C559B0212088C1A9B0212088CB099021D
:1024F30012088C36990212088C73980212088C69A0
:10250300970212088C20970212088CFA960212087E
:102513008C36960212088C80940212088C20940246
:1025230012088CF1930212088CEE930212088C8429
:10253300AB0212088CB0A90212088C71A702120810
:102543008C10A70212088CB7A60212088C3EA602B2
:1025530012088CD9930212088C96930212088C7D70
:10256300930212088C85920212088C14A602120898
:102573008C44920212088C11920212088CA59102CB
:1025830012088C72910212088C17910212088CD6D1
:10259300A50212088CE6900212088C81A50212088B
:1025A3008CF7C30512088CAF8D0212088CC18C0204
:1025B30012088C7B8B0212088C278B0212088C1B4F
:1025C3008B0212088C828A0212088C50890212082C
:1025D3008CAB860212088C4E840212088C02840291
:1025E30012088CE7820212088C7C820212088CA4E7
:1025F300810212088C6B800212088C7CA4021208E0
:102603008C32800212088C00800212088C35B105CE
:1026130000000080FB00000000000000000000003C
:102623000000000000000000F800000000000000AF
:10263300333000000000100C06100C0600000000F0
:10264300000000000040C07840C0784000043F0410
:10265300043F040400007088FC08300000001820C8
:10266300FF211E0000F008F000E018000000211C0C
:10267300031E211E0000F00888700000001E2123A5
:10268300241927211010160E00000000000000007E
:102693000000000000000000E01804020000000039
:1026A300071820400000020418E00000000040204A
:1026B3001807000000404080F08040400002020103
:1026C3000F01020200000000F00000000001010100
:1026D3001F01010100000000000000000080B07035
:1026E30000000000000000000000000000000101E5
:1026F3000101010101000000000000000000303072
:102703000000000000000000008060180400601852
:10271300060100000000E010080810E000000F10A0
:102723002020100F00001010F800000000002020EF
:102733003F2020000000700808088870000030283F
:1027430024222130000030088888483000001820F7
:102753002020110E000000C02010F8000000070424
:1027630024243F240000F808888808080000192161
:102773002020110E0000E0108888180000000F11BF
:102783002020110E0000380808C838080000000097
:102793003F000000000070880808887000001C22B9
:1027A3002121221C0000E010080810E00000003185
:1027B3002222110F00000000C0C000000000000032
:1027C30030300000000000008000000000000080A6
:1027D300600000000000008040201008000001029B
:1027E30004081020004040404040404000040404DE
:1027F300040404040000081020408000000020109E
:102803000804020100007048080808F000000000F6
:102813003036010000C030C828E810E00007182750
:102823002423140B000000C038E0000000203C23E8
:10283300020227382008F8888888700000203F208B
:102843002020110E00C0300808080838000718209F
:10285300202010080008F808080810E000203F2096
:102863002020100F0008F88888E8081000203F2077
:10287300202320180008F88888E8081000203F204B
:102883000003000000C030080808380000071820C3
:1028930020221E020008F808000008F808203F2143
:1028A3000101213F20000808F8080800000020204B
:1028B3003F2020000000000808F8080800C08080BE
:1028C300807F00000008F888C028180800203F20F7
:1028D300012638200008F8080000000000203F20EF
:1028E300202020300008F8F800F8F80800203F0006
:1028F3003F003F200008F830C00008F808203F20C0
:102903000007183F00E01008080810E0000F10202F
:102913002020100F0008F808080808F000203F21C5
:102923000101010000E01008080810E0000F18245E
:102933002438504F0008F8888888887000203F208A
:1029430000030C3020007088080808380000382085
:102953002121221C00180808F8080818000000208C
:102963003F2000000008F808000008F808001F20B6
:102973002020201F000878880000C83808000007BE
:10298300380E010000F80800F80008F800033C07BF
:1029930000073C0300081868808068180820302C62
:1029A30003032C30200838C800C838080000002072
:1029B3003F2000000010080808C838080020382607
:1029C3002120201800000000FE0202020000000087
:1029D3007F40404000000C30C000000000000000B9
:1029E300010638C00000020202FE00000000404061
:1029F300407F000000000004020202040000000007
:102A03000000000000000000000000000080808043
:102A1300808080808000020204000000000000002B
:102A23000000000000000080808080000000192466
:102A33002222223F2008F8008080000000003F117E
:102A43002020110E000000008080800000000E1185
:102A53002020201100000000808088F800000E1163
:102A63002020103F200000808080800000001F2273
:102A73002222221300008080F088888818002020FA
:102A83003F202000000000808080808000006B9445
:102A9300949493600008F8008080800000203F2118
:102AA3000000203F200080989800000000002020B4
:102AB3003F20200000000000809898000000C080A4
:102AC30080807F000008F8000080808000203F2481
:102AD300022D302000000808F8000000000020202C
:102AE3003F202000008080808080808000203F2065
:102AF300003F20003F8080008080800000203F2135
:102B03000000203F200000808080800000001F2004
:102B13002020201F00808000808000000080FFA113
:102B23002020110E000000008080808000000E1124
:102B33002020A0FF80808080008080800020203FB4
:102B43002120000100000080808080800000332469
:102B53002424241900008080E0808000000000000D
:102B63001F202000008080000000808000001F20C4
:102B73002020103F20808080000080808000010E94
:102B8300300806010080800080008080800F300CB8
:102B9300030C300F00008080008080800000203113
:102BA3002E0E312000808080000080808080818E06
:102BB3007018060100008080808080800000213032
:102BC3002C2221300000000000807C020200000063
:102BD30000003F404000000000FF00000000000034
:102BE30000FF0000000002027C8000000000404063
:102BF3003F0000000000060101020204040000007F
:102C03000000000000870001004812240002001A9F
:102C130012250002001C12260002001E12270002C9
:102C2300002012280001002212290001002312862D
:102C330000010028122A00010029122B0001002A9A
:102C4300122C0001002E122D00080088112E000105
:102C5300002F122F00010030123000010031123119
:102C63000001003212320001009011330001009183
:102C730011340001003312360001009211380001B3
:102C8300003412390001002D12630001009D11640C
:102C93000001002B12650001002C126D0001009E43
:102CA3001171000800801166000100451243000104
:102CB3000036124400020037124500010039124663
:102CC3000002003A12470008009511480001003C39
:102CD300124B0001003D12040001004912A1000142
:102CE300004C12370001004B12880001004A123CCD
:102CF30000010093113D0001003512490002003E1E
:102D030012670001009F114D00020040124E0001A6
:102D13000042124F00020043123E000100941104CE
:102D230004060069100000000000000001363601AF
:102D3300010001020100010301000104010606056F
:102D4300020000070100340801000F090401010D0E
:102D53000100FF0E08000017020000190100FF1A0E
:102D63000100011B0100FE1C0100081D0200001FE1
:102D730001000120010001210200002301000F24B2
:102D83000200002601000127010008280200FF2A93
:102D93000100072B0102402C0100002D0100012E30
:102DA3000100012F0100FF30010B1C310800003A24
:102DB3000100083B01000F3C0100013D0100FF3E03
:102DC30004000042040000460400004A0400004ED0
:102DD30004000052040000560400005A0400005E80
:102DE30020FFFF36000100060000000F0000000076
:102DF30000000000000000000003FFFF00000403C8
:102E0300FFFF0000FFFF0FF4010005C404032000CF
:102E13000100000B000000000000000003010F0090
:102E2300000000000000000000000000000000009F
:102E3300000000000000000000000000000000008F
:102E4300000000000000000000000000000000007F
:102E5300000000000000000000000000000000006F
:102E630000010371030103010301030103010322B1
:102E73000302030103100300030003000300030024
:102E830003000300034203000324030603000300BB
:102E93000304031203250323032503230304030469
:102EA30003000300030003440300030003230300A0
:102EB30003650321003503810300030503000300B9
:102EC3000300030003250323030101710101010131
:102ED30001110101013101010101018001100161B1
:102EE300013B00140063017301720162014301009D
:102EF30001130106013D0135000401120100010027
:102F0300010001000104010401330133013C0144C8
:102F13000132013600000100016501000135008125
:102F230001000105018201830100010302710230E6
:102F33000160021102700201020202020280021009
:102F43000261023A004100630273027202620243A9
:102F530002000213023800000200020402120200FF
:102F63000200020002000204020402370037003CA0
:102F73000244020002390000020002650200023529
:102F8300028102000205028202830200020304712D
:102F93000402046004110470040204020401040224
:102FA30004100461040004140463047304720462CF
:102FB300044304000413040604000400040404127C
:102FC300040004000400040004510464000004002D
:102FD3000400044404000400040004000465040025
:102FE300043504810464000504000483040004031D
:102FF30000710030016000110070003102200350A5
:10300300048000100061000000140063007300726C
:1030130000620043000000130006000000000004EB
:10302300001200000000000000000004000400374C
:103033000037003C0244000000000000000000656F
:10304300000000350081000000050000008300003F
:10305300000000A122130035220100A1220200E793
:10306300210300ED210400F3210500F921060005E9
:10307300221100292214002F22150017221F001DE0
:1030830022FFFF0000013F0F06690F08630F0B814A
:103093000F10B50E02450F05570F074B0F0C270FE7
:1030A3000D330F64F30CFF000007ECFDFDFDECDCBA
:1030B300DCCCBCACAC9C9C8C7C7C6C6C5C5C5C4C5D
:1030C3004C3C3C2C2C1C1C03EAF5E5D5D5C5B5A519
:1030D300959585857575656555554545353525251D
:1030E30015150500160F00000B150B020002220F29
:1030F3003300000E5A6967426565416C6C69616E05
:103103006365303901030507090B0D0F000204063F
:10311300080A0C0D303017181921301B1D1F300001
:10312300034A49434E181A250502000119161816B9
:1031330016182303000C0E020B040B0A0708000FDA
:1031430000393D3F373C3C362C442D30301618199E
:1031530020231A1C1E30020402010101010902E8A6
:1031630003000000BE040A0E00000000003C007FC4
:1031730000E8033C000A0303081000030005FF1ED8
:103183001E0C05280901040409101504000C080885
:10319300C082C0837900EA1233983BF583C082C0B2
:1031A3008390034212789DD083D082C3E09CA3E036
:1031B3009D500CEA240B1231E51231C5600109025E
:1031C3004960EA75F00BA4FAA8F075F00BEBA4289C
:1031D300FB900344E02AF8A3E03B8882F583E054A4
:1031E3000F22F582E43B125A962274F712039D894B
:1031F3000812512FA3E0F9E875F00BA4F8ACF075B1
:10320300F00BE9A42C123413E8FEE9FF74016508FE
:1032130060067402650870228A828B8312373F74BA
:103223000265087021EA2403FA50010B120C4BE9E2
:1032330070148E828F83E4F0800CEA2403FCE43B59
:10324300123736120C458E828F83E0D2E7F01220BC
:10325300FD024DEB74F412039D1237F979008E824F
:103263008F83E06075890A890B8064E50A75F00B2A
:10327300A4FAA8F075F00BE50B1231D17049E50AF9
:1032830075F00BA4F8AAF075F00BE50B1233F48E6E
:10329300828F83E08508828509831249141236B62A
:1032A300EE2403FCE43F12338B120C45124F6A12D7
:1032B30064C71241DCD2E7F01220FD79019003428A
:1032C300E0F50AA3E0F50B050AE50A7002050B1207
:1032D3003612E50A9AE50B9B409102541D74F512D0
:1032E300039DEAFEEBFF750A01740B120B7E123D80
:1032F300E3EC4D6015EC1233983D12380779011257
:103303000C2DE508450960758023E50845096044EF
:10331300123396350912380712338C120C4BE964B9
:1033230001701BEEFAEFFB120C33E9F50A850882F4
:103333008509831236AE7902AA08AB0980111237C8
:1033430037120C4BE9640170347903EEFAEFFB1288
:103353000C2D80298E828F83A3E064FE7003A3E08B
:10336300F4700B123737120C4BE96401700CEEFA50
:10337300EFFB120C33E9F50A8003750A00023C6F78
:10338300E50A2403FCE4350BFDE5082403FAE435E0
:1033930009FB22E5081268CC2274F712039D9003FF
:1033A30042125087EA4B602FEA75F00BA4FAA8F09B
:1033B30075F00BEBA428FBEAFEEBFF121E999003BA
:1033C30044125087900344125A816012EEFCEFFDC1
:1033D3007900121DC18007900344E4F0A3F0024D6D
:1033E300EBF9023B82E875F00BA4F8AAF075F00B39
:1033F300E9A42AF9900344E028F508A3E039F50984
:1034030022F9E875F00BA4F8AAF075F00BE9A42AE9
:10341300F9900344E028F8A3E039F922900342121B
:103423004DD2C3EE98EF9922C082C083EC4D600564
:10343300121FF580097C087D007900121DC1024925
:103443006074F612039D7900EA4B60177800EA284E
:10345300F582E41261DE60047901780808E8C39418
:103463000840EB023B8274F712039D74F312096B5D
:10347300ECFEEDFF851882851983E4F004120B7EC0
:10348300EAF0A3EB124DC4120C697403120B7EAC69
:1034930082AD83EEFAEFFB120C45EEFAEFFB120C52
:1034A3004B024DE674F712039D74F312096BECFEA5
:1034B300EDFF851882851983E4F0EAFCEBFD7403C4
:1034C300120B7EAA82AB83120C45AA18AB19120CFD
:1034D3006F7401120B7E1249218E828F83124DB5B8
:1034E30074FE68700374FF696004790180027900D7
:1034F300024DE674F712039DEAFEEBFF120C27E977
:10350300F50874016508701112355FF4FA88828931
:1035130083E05A4480F01220FD02415174F71203F4
:103523009DEAFEEBFF7508008E828F83E0602A120E
:103533000C27E9F50874016508701E12355FFA88D7
:10354300828983E05A70128E828F83E04480FA88E6
:10355300828983E04AF01220FD024151124F6E121C
:1035630043291234048E828F83E02274F412039D64
:103573008A088B097C007D00EA12338E120C45E524
:10358300081236D07900850882850983A3E064FE9A
:103593007003A3E0F460757E007F008066EEFAEFAF
:1035A300FB1231C56058EEFAEFFBEA75F00BA4FA93
:1035B300A8F075F00BEBA428FB900344E02AF50A6E
:1035C300A3E03BF50B850882850983A31261B985C6
:1035D3000A82850B83A3E06A7003A3E06B701FE587
:1035E3000A2403FAE4350BFB120C4BE96401700661
:1035F300123383120C451236C579011276D10EEEC1
:1036030070010F123612EE9AEF9B409102541D90F7
:103613000342125A98C32274F312039D8A088B093A
:103623008A828B831236AEEA1236D0750C00EA1208
:10363300338E120C4BE96401706A7E007F00805F59
:10364300EEF8EFF9E875F00BA4F8AAF075F00BE9C2
:10365300A42AF9900344127743E0540F603CEEF838
:10366300EFF9E875F00BA4F8AAF075F00BE9A42ABA
:10367300F9900344E028F50AA3E039F50B123383EC
:10368300121FEFE964017012850A82850B831236DB
:10369300B61236C5750C011276D10EEE70010F12FB
:1036A300341F409CA90C7F050205FDA374FEF0A303
:1036B30004F022A3124DD2850882850983A3124602
:1036C3003D22E5081236DAEEF0A3EFF0221236DAE5
:1036D30074FEF0A304F0221268D03509F583227436
:1036E300F512039DEAFEEBFF8E828F831236AE7CCA
:1036F300007D00123737120C45EEFAEFFB120C2750
:10370300E9F50A7401650A7027124DCB1233E88577
:103713000882F58312373F12338C120C4BE9640194
:10372300700EE5082403FCE43509123736120C4504
:10373300023C6FFDEE2403FAE43FFB22A31261C3B4
:1037430012463D2274F212039D74E612096B12377E
:10375300F9750C01750800750900750A00750B00F1
:10376300851882851983E4F0EE2403FCE43FFD749D
:1037730003120B7EAA82AB83120C45AA18AB191253
:103783000C6FE96401701F740B120B7E12380974FD
:1037930001120B7E1261BD7003A3E069604AA81891
:1037A300A91988088909740D120B7E124913A312F3
:1037B3004921740E120B7E124DB5740D12092D1290
:1037C3000C69E964017009740D120925880A890BD3
:1037D300780A1208DFAC08AD09EEFAEFFB120C39D8
:1037E30074021208BCE9F50CEEFAEFFB120C63A9A4
:1037F3000C741A026119EAFEEBFF124F6E74FEF0AD
:10380300A304F022F583124329F9124F6E12463DA9
:1038130022C082C08378007900800508E87001091E
:10382300123612E89AE99B5029E8FAE9FBEA75F0A7
:103833000BA4FAACF075F00BEBA42CFB900344E063
:103843002AFCA3E03B8C82F583E0540F70CD790012
:1038530080027901024960C082C08390318DE49374
:1038630075F016A4FCADF079FF7A677B0A121DC1CF
:1038730002496074F612039DEAF87508007D008022
:1038830012ED1261D0C3994009E0FAE8C39A4002ED
:1038930005080D90318DE493FAEDC39A40E3AA082D
:1038A3007B00023B8274F012039D74F312096B8A4E
:1038B3000C8B0D8C088D09890AEC45096016AA0842
:1038C300AB09120CB78A0E8B0FAE0EAF0FEE4F6023
:1038D3000302399B7B0080010B1264BD500F123A27
:1038E3004370F5746728FE740A39FF80047E007FF5
:1038F30000EE4F70030239EF90316E123A166021D9
:103903007403650A60067404650A70157A04790302
:10391300120C8D90318DE493FC90316E123A1C5051
:103923002990316C123A1660287401650A60067496
:1039330002650A701C7A027901120C8D90318DE4B4
:1039430093FC90316C123A1C40077A007B00023AD8
:10395300138518828519837401F0120B7EE50CF030
:10396300A3E50DF0AC08AD097403120B7EAA82AB7C
:1039730083120C45AA18AB19120C7B740B120B7E25
:103983001246368E828F83A3A3A3A3A3A3E4127844
:1039930099AA0CAB0D1211977800E50A6007C3943E
:1039A30005500278048E828F83E50CF0A3E50D1297
:1039B3006E7DE50AF0E88E828F83A3A3A3A3A312EF
:1039C30064CE5001097A027B0012024D123E29A3F4
:1039D3001260F9A3123E6DE50A600DC3940350080B
:1039E300123DF8123A348003123E0FF07A04790044
:1039F300120C8D8A0890318DE493FAC3E5089AEB93
:103A0300940040059011ADE4F0121071EEFAEFFB53
:103A1300023DCD123A2CE84922123A2CECC398F815
:103A2300E499F9C3EA98EB9922E493F8740193F9C2
:103A330022F9EE2414F582E43FF583E8F0A3E922AA
:103A4300EB75F016A4F8A9F0123E62F42274F21298
:103A5300039D74F312096B8A088B09ECFEEDFF7565
:103A63000A00EEFAEFFB120CB78A0C8B0DA80CA917
:103A73000DE8497003023B1488828983E06508706E
:103A830004A3E065097003023B1488828983A3A31E
:103A9300A3A3E0C39405507988828983126CFD1235
:103AA30051EBE0603488828983A3A3A3A3E0C3948A
:103AB300035026903176E493FA740193FB1240632A
:103AC300903170E493FA740193FBE82414F582E4D3
:103AD30039F583EAF0A3EB800DE82412123B1BF0C7
:103AE300E82414123B1BF08518828519837401F0B6
:103AF300120B7E126CFDF0EEFCEFFD7403120B7ED5
:103B0300AA82AB83120C45AA18AB19120C7B750A57
:103B130001A90A740D026119F582E439F58374FE73
:103B2300F0A3042274F612039D120CB18A088B09C8
:103B3300A808A909E849601488828983A3A3A3A3D9
:103B4300E06009C394055004790180027900802F55
:103B530074F612039D120CB18A088B09A808A909EF
:103B6300E849601488828983A3A3A3A3E06009C3FF
:103B73009403500479018002790080031208BC7F0A
:103B8300020205FD74F612039D120CB18A828B8327
:103B9300E5824583600BA3A3A3A3E07004790180AE
:103BA30002790080DAC082C083EAFCEBFD7A007BF5
:103BB3000002495DC082C0837C007D0002495D74C0
:103BC300F512039D74F312096BEAFEEBFF8C088D6B
:103BD30009C3EC94F8ED94FF4004EE4F606A750A54
:103BE30000801974FF6508700474FF6509600B1287
:103BF3006FFA7004A3E06509603B050A90318DE418
:103C030093F8E50AC3985040E50A123A4460EBEE94
:103C13004F60D0123C56120B7E124DC0120C75E948
:103C230060D87403120B7EAC82AD83EEFAEFFB1205
:103C33001FEFE960C5E50A75F016A4F8A9F07467EB
:103C430028FA740A39FB80047A007B00740D120889
:103C5300BC801B8518828519837401F0746928F56B
:103C630082740A39F583124DD2740B22A90A7F0399
:103C73000205FD74F412039D74F312096B750800B9
:103C8300120CB78A0A8B0BAE0AAF0BEE4F601F12F2
:103C93003CD9123C69120B7E124DC0120C5D7C168E
:103CA3007D0079FFEEFAEFFB121DC17508017A045E
:103CB3007900120C8D8A0A90318DE493FAC3E50AD8
:103CC3009AEB940050099011AD7401F0121071A990
:103CD30008740D02541A8518828519837401F08EB5
:103CE300828F83A3A32274F712039DE9FC74FE6AF7
:103CF300700374FF6B7D007003802C0D123D4B50DD
:103D030026ED123A4460F4127ADE6A7003A3E06B84
:103D130070E98012ED75F016A4F8A9F0127AD1605B
:103D230018E0640360130D123D4B5015EC60E5126F
:103D33003E5660F2C3940550ED12723E1261B68096
:103D4300047AFE7BFF024DEB90318DE493F8EDC3D3
:103D53009822120CC9024960C082C083790180F2A3
:103D630074F012039D8A0A8B0B7A047901120C8D6D
:103D73008A0C8B0DEA450D6040EA2AFAEB33FB12FD
:103D83001E998A088B09AE08AF09EE4F60267AFEAA
:103D93007BFF120CCF74FE6A700374FF6B601E8589
:103DA3000882850983125087E5082402F50850E24A
:103DB300050980DE750C0080047E007F00850A8281
:103DC300850B83E50C124FBB8005740D1208BC7F75
:103DD300080205FDE493F8ECC398221278A1EC22C3
:103DE300E0F508A3E0F509221208BC7F0C0205FDEB
:103DF3007F070205FD903176123A2CEE12723512CE
:103E0300463D903170E493F874019322EE2412122C
:103E13003E1DF0EE2414123E1D22F582E43FF5838D
:103E230074FEF0A30422E88E828F83A3A3A3A3A32B
:103E3300A3A3A3123E4E7401123E4EA374AAF0EE46
:103E43002410F582E43FF583E4F022126EA0A3A3CD
:103E5300A3A322ED75F016A4F8A9F0123E62227412
:103E63006B28F582740A12798D22A3F0124F6EE447
:103E7300F0EE240CF582E43FF583E4F0A3F0A3F025
:103E8300A3F022C082C0837D008009EA24FF1AEBDD
:103E930034FFFB0D123D4B5016123E56C394055092
:103EA300F2EA4B70E6746728FA740A39FB80047AE5
:103EB300007B0002496074F712039D74F312096BCF
:103EC3007E00023F51EF75F017A4F8A9F0127AB4FF
:103ED30012629F75F016A4FAABF074672AF5827428
:103EE3000A1264F17003A3E0696040EF75F017A450
:103EF300F8AAF0EAF9127AB439F583124921740168
:103F0300120B7EE0687003A3E069601FEF75F01782
:103F1300A4F8EAF9743728FC740C39FD7403120B06
:103F23007EAA82AB83121FEFE96013EF75F017A42B
:103F3300F8A9F0743528FA740C39FB1211A30F9009
:103F4300317CE493F8EFC3985003023EC80E9031DE
:103F53008D127623501FEE127AD7F47003A3E0F488
:103F630060EB123C56120B7E124DC0120C75E960C9
:103F7300DC7F0080CA024DE674F712039D74F312CE
:103F8300096B900415125A817003024027750800CB
:103F9300802BE50875F016A4F8EAF9747B28F582FE
:103FA300740A12798964FE7003A3E0F4600D7479D6
:103FB30028F582740A39F58312610F050890318D53
:103FC3001260D8505FE50875F016A4F8AAF0EAF974
:103FD300123E5E60E6C3940350E1747928F582745F
:103FE3000A125A7E70ACE50875F016A4F8EAF97463
:103FF3006728F8740A39F9E8FEE9FF1240C5124050
:10400300BB120515123CD9123C69120B7E124DC02E
:10401300120C75E960A57403120B7EAA82AB83129E
:104023000CC38097024DE674F612039D120CB18AFD
:10403300088B09A808A909E849602088828983A315
:10404300A3A3A3E06011C39403500CE82414F582E6
:10405300E41261B6124063790180027900023B8267
:10406300E82412F582E439F583EAF0A3EBF0227435
:10407300F712039DEAFEEBFF90040F125A816030A2
:10408300900415125A816028900419125A816020F5
:1040930012737F120515E970171240B6120515E960
:1040A3006401700C8E828F83A3A312736C120515A7
:1040B300024DEB1240C5A3A3125A98900415127334
:1040C3007622903170E493FC740193FD8E828F838A
:1040D30022C082C08390034F7451F0A3740FF00287
:1040E300496074F712039DEAFEEBFF900385E064D9
:1040F30008601CE0640460178E828F83E0540364BD
:10410300017041125E71F8124156E0640670358EFB
:10411300828F83A3A3E064FE7003A3E0F460258E83
:10412300828F83A3A31268B27003A3E0697008EEC1
:1041330024151268A76005121005800312100BE9FD
:10414300F50880037508C2EEFAEFFB121E9FA9085B
:10415300024DEBA3E0F58388822274F412039D8A57
:10416300088B09124325FAE82AFAE43400FB121EED
:10417300998A0A8B0BAE0AAF0BEE4F605585088206
:10418300850983E0FC7D007900121DC18E828F8337
:10419300A31236AE1210418E828F83A3A3A3A3EA88
:1041A300F0A3EB1241DCF8EE28F8E43F12380C855B
:1041B3000882850983A3E0C0E01264B3D0E0F01263
:1041C30010531264A9E9124619E0C0E012460FD059
:1041D300E0F0EEFAEFFB02541DF0850882850983B7
:1041E300E02274F412039D74E812096B8A088B09A8
:1041F3008C0A8D0BE9FE900385E064046005E0649E
:1042030008700479C2803CA37808120B17EE900360
:104213008C124353121DC1851882851983780812A5
:104223000B177405120B7EEEF07404120B7E7401EF
:10423300F07407120B7EE4F09003857402124DC4F0
:1042430012241502541874F412039D74E812096BB6
:10425300EAFEEBFF900346125A8160030243207A81
:10426300077B00121E999003461250879003461253
:104273005A81700302431C8E828F83120B5B90035F
:1042830046E0FCA3E0F5838C82120B4FEE2404F589
:104293000AE43FF50B850A82F583E0C0E09003460C
:1042A300125A55A3A3A3D0E0F0EE2405F508E43F8A
:1042B300F509850882F583E0C0E0900346125A634E
:1042C300D0E0124DBAC0E0900346124329C8240639
:1042D300F582E438F583D0E0124353121DC18E8278
:1042E3008F83120B5B851882851983120B4F850A06
:1042F30082850B83E0C0E07405120B7ED0E012418F
:10430300DCC0E07404120B7ED0E0F07407120B7E65
:10431300E4124DC41224158006791080027901023B
:1043230054188A828B83E0F8A3E022C082C0839072
:104333000346125A8160109003461261B9121E9F00
:10434300900346E4F0A3F0120F7B1211430249607D
:10435300F07C187D007900AA18AB1922C082C083B3
:1043630090034AE07003122223120D230249607462
:10437300F012039D90034AE09011AC700FE06005CA
:1043830079001220C79011ACE4F0804AE064016028
:104393000890034AE0F91220C79011AC7401F09021
:1043A300034AE0F46030E0F50CE4F50DF50EF50F8B
:1043B300F09082467808120B26780C79081202AE28
:1043C300780C1208D77A807B009003D0E0F9121F93
:1043D3005F74041208BC7AAC7B1179411223FD028D
:1043E3003DD274F412039D74E812096B8A088B0999
:1043F3008C0A8D0BE9FE9003857401124353121D41
:10440300C18518828519837808120B177405120B5E
:104413007EEEF07404120B7E7403F07407120B7EAD
:10442300E4124DC412241502541874F712039D7C30
:1044330001120D3B024DEB74F712039D7C0080F1DA
:1044430074F012039D74FC12096BE98518828519B7
:1044530083F0EAFEEBFF8C0A12789A120F6F8A0838
:104463008B09EA4509700579CA02460A8A828B8359
:10447300A3A3A3A3A3A3A3E064FE7003A3E0F47028
:104483000579C302460A1210418A0C8B0DA80CA9A8
:104493000D850882850983A3A3A3A3A3A3A3E0682F
:1044A3007003A3E069700579C202460A9003831280
:1044B3004921850882850983E0687003A3E0696068
:1044C30012850882850983124786AA08AB097950A9
:1044D3001223FD9003831261B91211A98508828505
:1044E3000983A3A3A3A3A3A3A3A3A3A3E004900368
:1044F30096124772121FF57402120B7E7402F014A7
:1045030012092D1210A78A0C8B0DAE0CAF0DEE4FB6
:1045130070030246001253A17406F0A3A882A98374
:104523009003701265DF125E4E12103B12507EEE46
:104533002413125E5112649F7440F0A3E4124619CF
:10454300A3A3A3A3A312463612460FE50A124FBB39
:10455300120CFFE9F50B600302460390038574090F
:10456300F0E5082407FEE43509FFEEFAEFFB794B8B
:104573001223FD8E828F8312477C900378E0F885A7
:104583001882851983E068600CE0900378124DC4AB
:1045930079E11223FD90121E124921901220E06846
:1045A3007003A3E0696028900348124DB590122070
:1045B3001261B912106B124623780C1208D77A01D4
:1045C3007B009003D0E0F9121F5F74041208BC7AD9
:1045D300007B049003D0E0F9121F6B124623740290
:1045E300780C120846780C1208D77A007B049003E3
:1045F300D0E0F9121F5F74041208BC8003750B101E
:1046030090108CE4F0A90B7404023DCFEE2411F555
:1046130082E43FF58322F0850882850983A3A322E0
:10462300901220E0F508A3E085080CF50DE4F50EE3
:10463300F50F221264E912463D22E8F0A3E9F022C5
:1046430074F612039D74E212096B8518828519832F
:10465300ECF0A3EDF0EAFEEBFF8908900385E0643C
:10466300046005E06408700579C202476D7429127D
:104673000B7EE064FE7003A3E0F4700579C3024788
:104683006D7C197D007900740512092D121DC190EE
:1046930003857403124DC479501223FD7429120942
:1046A3002D794B1223FD851882851983124786E5E0
:1046B30008900378F07429120B7E12477C74281239
:1046C3000B7EE0F509900370124772121FF574CE4A
:1046D30055094480C0E0741D120B7ED0E0F0742BAA
:1046E300120B7EE004900396F0741A120B7E740290
:1046F300F07429120B7E1249217412120B7EE8F01A
:10470300A3E912491A741B120B7E124DB5741012D1
:104713000B7EE508F0740D120B7EE4F090038B74AE
:104723000FF07A8B7B0379541223FD90038A740F65
:10473300F07A8A7B0379471223FD90038AE0C394BE
:104743000F501F7410120B7EE0C0E07402120B7E38
:10475300D0E0F07404120B7E7401F00412092D12E0
:104763002421740512092D122403741E023B7FF0C9
:10477300EEFCEFFD7A977B0322124DD29003791260
:10478300463D2212725F12463D2274F712039DEBDF
:1047930090038DF0120F5D024DEB74F712039D74BD
:1047A300E912096BEAFEEBFF7508008E828F83A383
:1047B300A3A3E0C0E07406120B7ED0E0123CE1E05C
:1047C300C0E07408120B7ED0E0F07409120B7E7403
:1047D30001124914125A81600D8E828F831261B9BE
:1047E300120C4BE970357407120B7EE4F012103B88
:1047F3007404120B7E125087900385E06404700EDC
:104803001210477402120B7EEAF0A3EB8048740285
:10481300120B7E74FDF0A374FF803BAC18AD198EB0
:10482300828F831261B9120C578E828F83A3A3A345
:10483300A3E070307407120B7E740112491A7402DC
:10484300120B7E124DB58E828F831249217404128E
:104853000B7EE8F0A3E9F0740212092D12108FE920
:10486300F508803E12491B740A120B7E124DB57473
:1048730014120B7E123CDFA3E0C0E07415120B7E12
:10488300D0E0F07416120B7E12491312789D740C4B
:10489300120B7EAA82AB83121FF5740A12092D1222
:1048A30020DFA9087417024DE874F712039D74F80A
:1048B30012096BEAFEEBFF7900900385E064086060
:1048C30005E06404704585188285198374FDF0A39F
:1048D30074FFF012103B7402120B7E1250877405A2
:1048E300120B7E124913A3E0C0E07404120B7ED0B6
:1048F300E0124914E0C0E07406120B7ED0E0F074BD
:1049030007120B7EE4124DC412108F7408024DE897
:10491300E4F08E828F8322F0851882851983124DED
:10492300D222C082C0839003577407F0A3740EF0A1
:104933009003FD74E9F0A37410F090035B743DF0F1
:10494300A3740EF090035D7407F0A3740EF090034C
:104953005F7443F0A3740EF08003120CBDD083D0B8
:104963008202088974F412039D74F912096B8A0890
:104973008B098C0A8D0B8518828519837808120B95
:10498300177404120B7EE9F07405120B7EE4F074C5
:1049930006120B7EE4124DC4120D11740702541A51
:1049A30074F512039D8A088B098A828B831276D44D
:1049B300EE4F7003024B5B900314125A8160158A09
:1049C300828B83A3A3E0F9EEFAEFFB900315124168
:1049D300571205158E828F83A3A3A3A3A3A3A3A317
:1049E300A3E064026003024AC48E828F83A3A3A35D
:1049F300A3A3A3E054027003024AE8850882850951
:104A030083A3A3E064E97003024AE8850882850969
:104A130083A3A3E064CD7003024AE8850882850975
:104A230083A3A3E064F07003024AE88E828F83A31A
:104A3300A3A3A3A3A3A3A3A3A3E07016901236E09A
:104A4300048E828F83A3A3A3A3A3A3A3A3A3A3F0EF
:104A53008010124B6C1210BFE970077A307B011281
:104A6300216F850882850983A3A3E0701F750A005F
:104A730080097A367B0112216F050A850882850930
:104A830083A3A3A3E0F8E50AC39840E68E828F834D
:104A9300A3A3A3A3A3A3A3A3126E94A3A3A3A374E7
:104AA30004F09012371264E3E8124B5E121F71EAAE
:104AB3004B4C4D700C7A207B009003D0E0F9121E12
:104AC300218E828F83A3A3A3A3A3A3A3A3A3E064A1
:104AD3000260128E828F83A3A3A3A3A3A3A3A3A382
:104AE300E0640670738E828F83A3A3A3A3A3A3E0C2
:104AF300A2E05064850882850983A3A3E0F9EEFA56
:104B0300EFFB12249F8E828F83A3A3A3A3A3A3E00F
:104B130054FEF0124B6C1210BFE98508828509839D
:104B2300A3A3702AE070237A2F7B0112216F7E00EA
:104B3300850882850983A3A3A3E0F8EEC3985018E0
:104B43007A367B0112216F0E80E67A318005E070A0
:104B5300077A2D7B0112216F023C71F0A3E9F07AF1
:104B6300207B009003D0E0F9228E828F831273762C
:104B7300125A982274EC12039D74DB12096BEAFE3D
:104B8300EBFF8C108D11750E007405120935120B95
:104B9300CD7412120B7EE070087415120B7EE06068
:104BA300207405120B7EE0A2E6501B8E828F83A336
:104BB300A3A3A3A3A3A3A3A31261B91210BFE96084
:104BC300057A35024CC07405120B7EE0540C640464
:104BD3007005750D018003750D00E0A2E550307579
:104BE3000E01E50DA2E040271210418A088B09A8A7
:104BF30008A909125E71687003A3E0696011740566
:104C03001209351268C11224C3E96003024CBE7451
:104C130005120B7EE0A2E650227406120B7EE054CE
:104C23000370187405120B7EE0540C640C600CE0E6
:104C3300540C64086005750C018003750C00740541
:104C4300120B7EE05403F8740268700E74051209A7
:104C5300351268C1120BDF024DAA7401687041E579
:104C63000CA2E0500B74051209351268C1120BD364
:104C730074051209257403120B7EE8F0A3E9124DA3
:104C8300CA851882851983E8F0A3E9124DBAC0E0FA
:104C93007402120B7ED0E0124DC41225EF024DAA0E
:104CA300E86003024DAA90036DE0640170178E82E1
:104CB3008F83A3A3A3A3A3A3E0700A7A347B011277
:104CC300216F024DAA7424120B7E7402124DCA7412
:104CD3001C120B7E124DB5E50CA2E0500B740512AD
:104CE30009351268C1120BD37439120B7E7808127E
:104CF3000B26E50DA2E0EE5072240F1268A7C0E068
:104D03007417120B7ED0E0F0900316125A817003D1
:104D1300024DAA1210418A128B13A812A913741CF4
:104D2300120B7EE0687003A3E069707B78081208B9
:104D3300D7E50EF50878081208E38E828F83A3A3C4
:104D4300A3A3E0F50878081208E378101208DFA996
:104D53000C740D120935742412092D900316126276
:104D63002B12051574081208BC803C1268A5F50CBB
:104D7300780C1208E378081208D7E50EF5087808CE
:104D83001208E378101208DF9003831206CCEE2496
:104D9300121268A7F97426120935740F12092D121D
:104DA300180F740A1208BC7425023DEBA3A3A3A336
:104DB300A3A3E812463E22126E9CA3E022E8F0A3CE
:104DC300E9F0AA18AB1922F0124F6E124DD222123B
:104DD3004DD622E0F8A3E0F92274F712039D1220C6
:104DE300A98005740D1208BC7F010205FD74F7123A
:104DF300039D1220BB80F1C082C0831220B50249FB
:104E03006074F712039D1220C180DD74F712039DB5
:104E13007409120B7EE0F50878081208E31220D318
:104E2300740180C1C082C0831220DF024960C08246
:104E3300C0831220E502496074F712039D1220EB30
:104E430080A674F712039DEAFEEBFF8908740165DF
:104E53000870147900120E7F903182E493FC79007C
:104E6300EEFAEFFB120DF5024DEB74F712039D12F0
:104E730020D9024DEB74F412039D74F912096BE906
:104E8300FE8A088B098C0A8D0B9010E1125A8160FF
:104E93002BEE851882851983F07401120B7E780836
:104EA300120B177413120B7E1249217405120B7E19
:104EB300124DC09010E112622B12051502499E7427
:104EC300F712039D1220F7024DEB74F712039D9026
:104ED30011AFE0F97E00800B12513D540D64017057
:104EE30001190E1250D45003E970ED024DEB74F723
:104EF30012039D9011B0E0F97E00800B12513D54D6
:104F03008D64817001190E1250D45003E970ED02C3
:104F13004DEB74F212039D890BE975F006A4A9F019
:104F2300240CF508E439F509E5082AFAE43509FB08
:104F3300121E998A0C8B0DAE0CAF0DEE4F6021AC97
:104F430008AD097900121DC1124F6AE50BF0EE2579
:104F530008F8EF3509F98E828F83A3A3A3124DAF0F
:104F6300EEFAEFFB02611C124F6E22EE1268D03F85
:104F7300F5832274F612039DEAFEEBFF120DD19026
:104F830011AEE0F8E9C39840099003531261B912D6
:104F93000DD7EE2402F8E43FF988088909900355F8
:104FA3001265DF900355E004124FBB120DDD850837
:104FB30082850983E00233E4F0EEFAEFFB22C0823C
:104FC300C08379009003538001091261B98A828BEF
:104FD30083E582458370F202496074F712039DEA08
:104FE300FEEBFFEE4F605A900353125A81605288D2
:104FF3008289837A007B00EE65827003EF658360AC
:1050030013AA82AB8312492188828983E58245836F
:10501300602F80E39003531262A2687002EF698EDF
:10502300828F8370081249219003538003127364A3
:10503300124DB5EEFAEFFB1225BFEEFAEFFB121E8F
:105043009F024DEBC082C083900353800488828902
:1050530083125A81600A88828983123DDE4D70ED86
:105063008A828B83E4F0A3F0E8496006888289830F
:105073008003900353125087024960EE241AF5828D
:10508300E43FF583EAF0A3EBF022125A98EA4B22AD
:1050930074F712039D90035380048A828B8312500A
:1050A3008D60277E0080010E1250D450EDEE75F016
:1050B30006A4FCADF0EA2CFCEB3DFDEC2410F582DC
:1050C300E43DF583E06970DF80047A007B00024DE4
:1050D300EB125133EEC3982274F712039D7D0080C7
:1050E300010D12512FEDC398503BED75F006A4FE50
:1050F300A8F0E8FFEA2EFEEB3FFFEE24101268A7AC
:105103006970DEED75F006A4FEE8FFEA2EFAEB3FC8
:10511300FBEA2411F582E41261DE4CF0EA240CFA76
:1051230050070B80047A007B00024DEB12513322AF
:10513300EA1268D03BF583E0F822EE75F006A4FC92
:10514300ADF0EA2CFCEB3DFDEC2411F582E43DF5DA
:1051530083E02274F612039D120EEB7B008016EBA4
:1051630075F006A4F8A9F012660DE41251EBF0A352
:105173001265D5F00B9031841264C040E27A00804E
:10518300168A0875090074037808120A221260E06F
:105193001264DEA3E4F00A903192E493F8EAC39830
:1051A30040DF7900801A89087509007403780812B2
:1051B3000A22745D1276DC740F1275151236AF096C
:1051C300903187126CE340DE903188E49390036161
:1051D300F09082461206C87A107B009003D0E0F963
:1051E300121F657404023B7F126CF1A32274F01248
:1051F300039D74F512096B8A088B09890A8C0BE9E4
:10520300A2E050147508FC7509FFA2E15005D2E431
:105213000252B9D2E30252B9120ED38A0C8B0DA8F3
:105223000CA90D900376E0687003A3E069600EACEF
:105233000A7902AA08AB09120ECDE97005790002BA
:10524300538AE50AF50C780C1208E379027CFE7D9B
:10525300FFAA08AB09120E4974011208BCE96003E6
:10526300025388E50AC2E5F50A9003C3E07049E5F5
:105273000AA2E640437403120935AA08AB09120CCB
:1052830051E9702E125A5C1211858A0C8B0DAE0CEB
:10529300AF0DEE4F6022EE2402FAE43FFB120C4BFB
:1052A300E96015EE2402FCE43FFD740312092D129C
:1052B3001FF5E50AD2E5F50A900356E0F50C9003D5
:1052C3007612554C780E1208DF7D017C0090035650
:1052D300E0F9AA0EAB0F120E8B74021208BCE9F8A8
:1052E300900356E004F0E86003025388E50AA2E560
:1052F3005004740E80027406C0E07401120B7ED059
:10530300E0124DC41210A78A0E8B0FAE0EAF0FEE34
:105313004F606E125E4E12103B12507E1253A174F8
:1053230001F07478550AA3127906E50C127906A3E5
:10533300E508F0E50912538FE4F0E50AA2E5500F02
:105343007403120935E82406FAE439FB121FF58EBB
:10535300828F83A3A374FDF0A374FFF0E50B6018A1
:10536300903183E493F8E50BC398500CEE2413F5C6
:1053730082E43FF583E50BF0EEFAEFFB120CFF80BE
:10538300067910800279C7740B023DCF8882898326
:10539300A3A3A3A312539B22126CF5A3A322EE1281
:1053A30068CC3F1253AA22F583124DD68882898393
:1053B3002274F412039D7A007B109003D0E0F9125B
:1053C3001F71EA4B4C4D60089003E27401F0804377
:1053D300901192E064019012337006E0FC79018031
:1053E30004E0FC79037A007B00120DF5903174E43C
:1053F30093F508740193F509E4F50AF50B7808129F
:1054030008D77A007B109003D0E0F9121F5F740471
:105413001208BC800574181208BC7F040205FD74D1
:10542300F012039D8A088B098C0A8D0B890C1210CC
:10543300BFE960057AFF025510901232E064026002
:105443000302553C90317AE493F9AA08AB09120E92
:10545300FDE960030255367900AA08AB09120ED3A1
:10546300A90C120EC78A0E8B0FAE0EAF0FEE4F7044
:10547300030255228E828F83A3A3A3A3A3126BF9E6
:1054830070731261B98E828F83A3A3A3A3A3A3E036
:105493005418604D903181E4938E828F83A3A3A32C
:1054A300A3F07410120B7E12789D7412120B7E12ED
:1054B300554CEA650A7003EB650B6012EA6C7002E7
:1054C300EB6D600AEA650E7003EB650F701B780ED7
:1054D3001208DFAA0AAB0B1211C174021208BC80B6
:1054E30008900375126E8BA3F074FE6A700374FF49
:1054F3006B601E8051A3A3A3E06403602A8E828F96
:1055030083A3A3A3A3A3E0640470067AFE7BFF80B6
:10551300358E828F83A3A3A3A3A3E06402700890B4
:1055230003C2E0640270127907AA08AB09120EFDE8
:10553300E96006AA08AB09800DAA08AB09900357D6
:1055430012622B120515023DD2E0F50EA3E0F50F12
:105553002274F712039DEAFEEBFF120C9FE9700A17
:10556300EEFAEFFB120CABE96006EEFAEFFB8004F8
:105573007AFE7BFF024DEB74EE12039D8A0A8B0BBE
:105583008C0C8D0D890E7508001210BFE97900602F
:10559300030256E0AA0AAB0B120ED3A90E120EC7D2
:1055A3008A108B11AE10AF11EE4F60198E828F836C
:1055B300A3A3A3A3A3E0640270529003C2E0640216
:1055C30070030256DEAA0AAB0B12622812051512EB
:1055D3000CB18A108B11A810A911E8497003025667
:1055E300DE88828983A3A3A3A3A3E0A2E0400302EE
:1055F30056DE750901A2E1504B7901AC0AAD0BAA45
:105603000CAB0D120E25E970470256DE8E828F8396
:10561300A3A3A3A3A3E0640360258E828F83A3A324
:10562300A3A3A3E0640160030256DE79078E828F91
:1056330083A3A31261B9120EFDE960030256DE755E
:105643000902801088828983A3A3A3A3A3D2E1F0D4
:10565300EE4F603A8E828F83A3A3A3A3A3A3E05448
:1056630018602B7508018E828F83A3A31206CC7555
:1056730010FE7511FF78101208DF7900AC0AAD0B2C
:10568300AA0CAB0D120EDF74041208BC804D790016
:10569300AA0CAB0D120ED38A108B11A810A911906E
:1056A3000376E0687003A3E0697014903182E49399
:1056B300FCA90EAA0AAB0B120DF5750801801CA9F3
:1056C30009AC0AAD0BAA0CAB0D120E25E9700C75D3
:1056D3000801A90EAA0AAB0B120E7FA908800312B8
:1056E30008BC7F0A0205FD74EB12039D74F01209D6
:1056F3006B8A0C8B0D8C088D0975120690040312AE
:105703005A816017125A5C1211AF8A108B11EA4545
:105713001160088A828B83A3E06068E50C241DF581
:105723000EE4350DF50F850E82125C78F514888230
:105733008983A3A3A3E0FA88828983A3A3A3A3E015
:10574300F8E4C8F9EA28FEE439FFAA08AB09120E07
:1057530085850E82850F83125A63E029F50BE50ACE
:10576300A2E5500375120E7487550A700F7418550D
:105773000A64186007125A466512600C7AD37B00DC
:1057830012216F7900025A30530A78C3EE94F8EF6E
:1057930094FF50247900EEFAEFFB120EC78A0E8BAA
:1057A3000FA80EA90FE849600F88828983A3A3A3DA
:1057B300A3A3A3E0541870CB78081208DF7D00ACD4
:1057C3000BA914125A8D120E8B74021208BCE9F83D
:1057D30074036860AE7425120B7E1276E1600302D7
:1057E30058A77418550A7003025962E50AD2E0F506
:1057F3000AA2E45004D2E1F50AA90A125A8D120E44
:10580300C78A128B13A812A913E849605C8882899E
:1058130083A3A3A3A3A3A3E05418604D8882898321
:10582300A3A3A3A3A3E06401703FE510451160396E
:1058330012789A88828983A3A31261B91211AF8A5D
:10584300128B13A812A913E849601E88828983A3C7
:10585300E06016851082851183A3E0FA888289832C
:10586300A3E0C39A5003025786E50AF51078101295
:1058730008E3125A87120E4974011208BCE9702416
:105883007C007D00850E82850F8374FFF0125E69B4
:10589300A3A3A3E06006125A3A12789DA90B125AE9
:1058A3008D120DA7850E82850F83E0F47003A3E0AC
:1058B300F4603C9003C2E064027003025786125AFC
:1058C3008D90035912622B120515EA65087003EBDC
:1058D30065096003025786EEFAEFFB9003591262E3
:1058E3002B120515850E82850F83EAF0A3EBF07862
:1058F300081208DF7D01AC0BA914125A8D120E8B0E
:1059030074021208BCA90AEEFAEFFB120ED38A083E
:105913008B09A808A909900376E0687003A3E069DE
:105923006003025A22EEFAEFFB120CB18A088B09CC
:10593300A808A909E849606F88828983A3A3A3A360
:10594300E06401600D88828983A3A3A3A3E06402BA
:105953007055AC18AD19EEFAEFFB120C518056904E
:10596300036FE06014E50AF51078101208E3125A89
:1059730087120E4974011208BCE50AF5107810125B
:1059830008E379027CFE7DFFEEFAEFFB120E497409
:10599300011208BCE960030258A7850E82850F83B4
:1059A30074FFF0A30258F112103BEAFCEBFDAA18B6
:1059B300AB19121FF5850C82850D83A3A3A3A3A3A3
:1059C300A3A3A3E06401700E125A3A12789D7408DF
:1059D30012092D121FF5125C60125A53E04430F580
:1059E3000878081208E374011209258808890978E0
:1059F300081208DF740B1209258808890978081230
:105A030008DFE514F50878081208E37900EEFCEFE7
:105A1300FD125A8D120E1F74061208BC025786120D
:105A23005C60F583125A63E50BF012105374101285
:105A330008BC7F0D0205FDE50C2415F582E4350D48
:105A4300F58322E50C2417F582E4350DF583E02276
:105A5300F583E0F8124156A322900383125C94224B
:105A6300127376A3A3A3A3A322E50D75F006A4F8EE
:105A7300AAF0EAF974C128F582740E39F583124D40
:105A8300D2E849227901AC08AD091268CA350D1272
:105A93005A9622F583E0FAA3E0FB2274EE12039DEB
:105AA30074F012096B8A0C8B0DECFAEDFB750F0881
:105AB300900403125A81603112789A1211AF8A0846
:105AC3008B09AC08AD09EC4D601F8C828D83A3E07C
:105AD30070171264D35001097A027B0012024DE859
:105AE3008C828D83F0A37407F0125C60125C78F5EE
:105AF3000E88828983125C6AE0FAE4CAFBEC2AFE10
:105B0300E43BFF88828983A3A3125C6AA3A3E0FB1F
:105B1300ECF508E43BF50988828983A3A3A3A3A337
:105B2300A3A3E0F50BE50AA2E45003750F10A2E569
