:020000040000FA
:06000000020AF80201E80B
:03002B0002077B4E
:030033000205DCE7
:030043000207A011
:030053000201297E
:03006B000205B5D6
:1000830002017701FF01010503010F10FEFFFE2F9F
:1000930000000000702E00000000FF000000FF00C1
:1000A300018813000030815A0020FD00020000394E
:1000B3001B000000000000411C00000000000000C5
:1000C300000000000000000000000000000000002D
:1000D300000000000000000000010000000000001C
:1000E3000006FFFF01010100A910000000E803FF63
:1000F300FF2111E80364006400B80102020020003C
:10010300000502070101051E02051E020A0A01027B
:10011300B80B02803E0102FEFFE8030A0500015509
:1001230005010A1401E0C0E074F2120409A2AFE46D
:1001330033FED2AF85A708AFA1EF55085410600670
:100143001218B175A1EFEF5508540860081218B7DB
:1001530075A1F78013EFA2E092F0E508A2E082F028
:10016300500612197175A1FEEEF8EEA2E092AF7F70
:1001730001020468C0E074F2120409A2AFE433FF81
:10018300D2AF9061A4E0FE759B00E5915E540860D8
:10019300087591F712190B8026E5915E54106008DB
:1001A3007591EF1219118017E591A2E092F0EEA27A
:1001B300E082F0500A9061A4E0C2E0F0121A61906C
:1001C30061A3E0FEE5E95E5404600E121A3775E997
:1001D300FB906193E0A2E640F2EFF8EFA2E092AF6A
:1001E3007F01020468C0E074F2120409A2AFE43391
:1001F300FED2AF9061A5E0FFE5BF5F5404600675D2
:10020300BFFB121A79EEF8EEA2E092AF7F0102046F
:1002130068C3E498F8E499F91202558026C3E49A76
:10022300FAE49BFBE920E7E9120255E498F8E49924
:10023300F922C3E498F8E499F9120255E498F8E432
:1002430099F9C3E49AFAE49BFB22EB20E7CFE92078
:10025300E7E0B90010BB0008E88AF084F8AAF022AE
:10026300E4FBC8FA22EB70227B10C833C8C933C938
:10027300335007C39AC3DBF280069A50012ADBEAA4
:10028300C833F4C8C933F4C9FA2275F008E4C83393
:10029300C8C933C933C99AC99B5004C92AC93BD5B4
:1002A300F0ECFBC833F4C8E4C9FA22080808EAC032
:1002B300E0EBC0E086F0E7A4FA180986F0E7A42A89
:1002C300FA180986F0E7A42AFA180986F0E7A42A9F
:1002D300FA1986F0E7A4FBE5F02AFA190886F0E795
:1002E300A42BFBE5F03AFA190886F0E7A42BFBE50B
:1002F300F03AFA18180986F0E7A4C5F02BFBE43AA4
:10030300FA1908E7C5F0C6A426F6E5F03BFBE43A84
:10031300FA1886F0E7A4F6E5F00826F6E43B08F6BB
:10032300E43A08F6D0E0FBD0E0FA22E4CFC0E0E400
:10033300CEC0E0E4CDC0E0E4CCC0E075F020E6261A
:10034300F608E633F608E633F608E633F618181827
:10035300EC33FCED33FDEE33FEEF33FFC3EC9709D3
:10036300ED9709EE9709EF97191919400FFFEC97CD
:10037300FC09ED97FD09EE97FE191906D5F0BFECC0
:10038300F709EDF709EEF709EFF7191919D0E0FCB2
:10039300D0E0FDD0E0FED0E0FF222518C582C0E00A
:1003A300E51934FFC583C0E0E518C3958224F8102E
:1003B300AF0885831985821880088583198582187B
:1003C300D2AFCEF0A3E520F0A37808E608F0A3DED1
:1003D300FAEFF0A3E58124FAF8E608F0A3E608F0C3
:1003E300A3E608F0A30808E608F0A3E608F0A315BF
:1003F300811581D0E0FED0E0F8158115811581E8E3
:10040300C0E0EEC0E022C0D02518C582C0E0E519E7
:1004130034FFC583C0E0E518C3958224F310AF0809
:100423008583198582188008858319858218D2AF40
:10043300C8F0A3E9F0A3EAF0A3EBF0A37908E70976
:10044300F0A3D8FAECF0A3EDF0A3EEF0A3EFF0A342
:10045300D0E0F0A3D0E0F0A3D0E0F0A3E520F0A338
:10046300E5F0F0A322851983851882E0C0E0A3E0BC
:10047300F9A3E0FAA3E0FBA37808E0F608A3DFFA08
:10048300E0FCA3E0FDA3E0FEA3E0FFA3E0C0E0A344
:10049300E0C0E0A3E0F5D0A3E0F520A3E0A3F5F0EE
:1004A30010AF088583198582188008858319858292
:1004B30018D2AFD082D083D0E0F8D0E032120B73E1
:1004C300B900030204FFE490030178A9790F8002C5
:1004D300F0A3D8FCD9FA7AA97B1190008678A47985
:1004E300018015E493A3AD82AE838A828B83F0A34C
:1004F300AA82AB838D828E83D8E9D9E77582D175C1
:100503008388740612088375821375832674001218
:100513000883E4730C75F0108E1A8F1B85821F8578
:10052300831E851882851983E0CEA3E0CF851F82C1
:10053300851E83EBC9EAC8EDCBECCAC3E833C8E92F
:1005430033C9EA33CAEB33CBC3EA9EF51DEB9FF500
:100553001CB35004AB1CAA1DEC33CCED33CDD5F04A
:10056300DAAE1AAF1B22D083D082ECC0E0EDC0E03C
:10057300E493A3FCE493A3FDED4C600D120689EC18
:1005830024FFFCED34FFFD80EFE493A3FCE493A38D
:10059300FDED4C600D120726EC24FFFCED34FFFD4E
:1005A30080EFD0E0FDD0E0FCE493A3C0E0E493C08F
:1005B300E022C0E074F2120409E589A2E54006E5F1
:1005C30089A2E4500312174F9005BBE02401F07594
:1005D3008900C2C57F01020468C0E074F2120409F5
:1005E300E58BA2E0500312174F9005BCE02401F005
:1005F300758B00C2E87F0102046885198385188220
:10060300E0A3FEE0A3F5207808E0A3F608DFFAE014
:10061300A3FFE0A3C0E0E0A3C0E0E0A3C0E0E0A349
:10062300C0E0E0A3C0E010AF08858218858319807D
:1006330008858218858319D2AFD083D082020889B6
:10064300D083D082E9C0E0E493A3C386F0C5F095DC
:10065300F0F908E493A386F0C5F095F0700BE493EA
:10066300A3C3994005E9048002A3E475F002A4251D
:1006730082F582E5F03583F583D0E0F9E493A3C0F6
:10068300E0E493C0E022C0E0C3E4939608740193CE
:100693009618400FE4936670080874019366187007
:1006A300007019A3A3C3E49396087401939618A347
:1006B300A3400DD0E0D0E0D0E00205A5A3A3A3A3FF
:1006C300A3A3D0E0227404800474028000CCC0E0B1
:1006D300EDC0E0E518C39CCCAD1950011D10AF0669
:1006E3008C188D1980068C188D19D2AF1207E7D09C
:1006F300E0FDD0E0FC2274028000CCC0E0EDC0E05D
:10070300E518C39CCCAD1950011D10AF068C188D94
:100713001980068C188D19D2AF1207C5D0E0FDD011
:10072300E0FC22C0E0C0F088F0E49366700808742F
:10073300019366187000A8F0A3A3700BD0F0D0E06B
:10074300D0E0D0E00205A5A3A3D0F0D0E022D0836F
:10075300D082CCC0E0E493A360061208081470FAB8
:10076300E493A360061209551470FAD0E0FCE493F5
:10077300A3C0E0E493C0E022C0E0C0D0E8C0E0E959
:10078300C0E0A2AFE433F8D2AFC2C7E8F9E8A2E011
:1007930092AFD0E0F9D0E0F8D0D0D0E032C0E0742E
:1007A300F2120409A2AFE433FED2AFC2C0E5D1A274
:1007B300E45003121803EEF8EEA2E092AF7F0102B9
:1007C3000468CAC0E0E493A3C582CCC582C583CDC7
:1007D300C583F0A3C582CCC582C583CDC583DAE5C5
:1007E300D0E0CA22CAC0E0E0A3C582CCC582C583DB
:1007F300CDC583F0A3C582CCC582C583CDC583DABD
:10080300E6D0E0CA22C0E0E493A3D39C5010E49363
:10081300A3C39C400AD0E0D0E0D0E002076EA3A3BC
:10082300A3D0E022C008C3E096F50808A3E09642EF
:100833000808A3E096420808A3E09645087001D390
:10084300D008227009080808226016181818C6C3B1
:1008530033C608C633C608C633C608C633C6D5E092
:10086300EA22C5822518C582C583351910AF07F55D
:10087300198582188007F519858218D2AFC583229E
:10088300C09FF59FE473D09F22D083D082C09FE4A2
:1008930093C0E0740193C0E0740293F59F2225187E
:1008A300F58210AF08F518400C15198008F51840AB
:1008B300021519D2AF8519832200C0D0251810AFB5
:1008C30008F518500C05198008F51850020519D2BF
:1008D300AFD0D0227404800A7403800674028002AD
:1008E3007401C0E0F4041208A1D0E0120B3522BB5E
:1008F3000102E722C082C08389828A83BB0003E0AE
:100903008002E493D083D082226016080808C6C30D
:1009130013C618C613C618C613C618C613C6D5E021
:10092300EA222518F8E43519F9222518FAE43519CD
:10093300FB222518FCE43519FD22C3E0C696F60810
:10094300A3E0C696F608A3E0C696F608A3E0C6960B
:10095300F622C0E0E493A36C7009D0E0D0E0D0E0CD
:1009630002076EA3A3D0E022251810AF08F51840A4
:100973000C15198008F51840021519D2AF22E0664C
:10098300701008A3E066700A08A3E066700408A369
:10099300E06622E76670100809E766700A0809E74F
:1009A3006670040809E76622C3E09608A3E0960888
:1009B300A3E09608A3E096A2D265D03322C3E096C3
:1009C300F008A3E096F008A3E096F008A3E096F001
:1009D30022C3E697F60809E697F60809E697F608AC
:1009E30009E697F622C3E493960874019396087474
:1009F300029396087403939622E627F60809E637CE
:100A0300F60809E637F60809E637F622E026F6087F
:100A1300A3E036F608A3E036F608A3E036F6227024
:100A23000422600D18C6C333C608C633C6D5E0F426
:100A33001822E046F008A3E046F008A3E046F008D9
:100A4300A3E046F022E657F60809E657F60809E65A
:100A530057F60809E657F622E056F608A3E056F6DD
:100A630008A3E056F608A3E056F622E056F008A3E2
:100A7300E056F008A3E056F008A3E056F022E02683
:100A8300F008A3E036F008A3E036F008A3E036F060
:100A930022E647F60809E647F60809E647F6080995
:100AA300E647F622E4C396F608E496F608E496F6DB
:100AB30008E496F622600D08C6A2E713C618C6130B
:100AC300C6D5E0F322C6F4C608C6F4C608C6F4C603
:100AD30008C6F4C622C3E7960809E7960809E7960D
:100AE3000809E79622C3E09608A3E09608A3E096D8
:100AF30008A3E0962275D00075813F75180175191A
:100B030003000204C0600C08C6C313C618C613C68C
:100B1300D5E0F422E6F008A3E6F008A3E6F008A384
:100B2300E6F022E0F608A3E0F608A3E0F608A3E067
:100B3300F622CAC0E0E6F0A308DAFAD0E0FA22C54A
:100B4300822518C582C5833519C58322E8F0A3E938
:100B5300F0A3EAF0A3EBF022E0F8A3E0F9A3E0FAB4
:100B6300A3E0FB22E0FAA3E0FBA3E0FCA3E0FD2269
:100B7300E5C754F84401F5C77901222518F582E445
:100B83003519F58322C2AF75D69F020000221208E1
:100B93008C9CAD0212088C4FB00212088C62B30217
:100BA30012088C71B30212088CFDB30212088CB3C5
:100BB300B40212088CFAB40212088C43B50212086C
:100BC3008CC6B50212088CE2B50212088CE3B60299
:100BD30012088C74B90212088CCDBA0212088C6008
:100BE300BB0212088CEABB0212088C50BC0212082A
:100BF3008C8FBC0212088C05BD0212088C5ABE02EF
:100C030012088CFDBE0212088C15BF0212088CB8A4
:100C1300BF0212088C42C20212088CE3C3021208FC
:100C23008C01C40212088C9F310012088CF9310028
:100C330012088C63320012088CEC320012088CA864
:100C4300330012088C37340012088C503400120819
:100C53008C75340012088CB3340012088C023500F2
:100C630012088C2B350012088C7A350012088C265A
:100C7300360012088CEE360012088C533700120827
:100C83008C20380012088C66380012088C823800D9
:100C930012088CB4380012088C5C3A0012088C33AA
:100CA3003B0012088C5F3B0012088C933B00120838
:100CB3008CB43B0012088CC33B0012088CCE3B0063
:100CC30012088C823C0012088CF53C0012088C67D9
:100CD3003D0012088C6F3D0012088C923E001208F2
:100CE3008CC53E0012088C873F0012088C364000EA
:100CF30012088C7E400012088CE0400012088CF130
:100D0300400012088C69410012088CF1410012085E
:100D13008C55420012088C3A430012088C6B430036
:100D230012088C7E430012088CF1430012088C39A0
:100D3300440012088C46440012088C4F44001208E9
:100D43008C4F460012088C99470012088CA9470063
:100D530012088CB8480012088C31490012088C73B1
:100D6300490012088CAF490012088C834B0012080B
:100D73008CE84D0012088CFC4D0012088C064E00C6
:100D830012088C104E0012088C1A4E0012088C3375
:100D93004E0012088C3D4E0012088C474E0012087C
:100DA3008C514E0012088C794E0012088C844E0030
:100DB30012088CCE4E0012088CD94E0012088CFDFE
:100DC3004E0012088C214F0012088C824F0012082B
:100DD3008CCD4F0012088CE94F0012088C53500041
:100DE30012088C9F500012088CE7500012088C6286
:100DF300510012088CFC510012088CC053001208D9
:100E03008C2E540012088C60550012088C865500F5
:100E130012088CF6560012088CAA5A0012088CAAE3
:100E23005C0012088C825E0012088C1B5F001208A3
:100E33008C2D610012088CEF610012088C3B62005C
:100E430012088CA1620012088CB3620012088C0392
:100E5300650012088C30660012088C826600120846
:100E63008C27670012088CE2680012088C136A0052
:100E730012088C316A0012088C866A0012088C846E
:100E83006B0012088CAC6B0012088C0F6C001208FC
:100E93008C106D0012088C836D0012088CB16E00EB
:100EA30012088C1C6F0012088C0C700012088C72D4
:100EB300720012088CA0720012088C9B7300120837
:100EC3008C39750012088C89750012088C417600E4
:100ED30012088CF6760012088C5A770012088C13CD
:100EE300780012088CB3780012088C177900120866
:100EF3008C61790012088C9E790012088C067B00A5
:100F030012088CDC820112088C14830112088CED08
:100F1300850112088C33860112088C508701120850
:100F23008CB5870112088C06890112088CF78B0196
:100F330012088C168D0112088CEB970112088C8A0B
:100F4300980112088C7D9B0112088C7D9C0112086C
:100F53008CF39C0112088C309E0112088C99A0011D
:100F630012088CA7A20112088C34A30112088C0862
:100F7300A40112088C94A40112088C9EA4011208E7
:100F83008CC7A40112088C74A50112088C5FA601FA
:100F930012088C37A70112088C9BA70112088CC476
:100FA300A70112088CF1A70112088C42AA011208AA
:100FB3008C1DAB0112088C61AB0112088CD2AB0102
:100FC30012088C8BAC0112088CBDAC0112088C0486
:100FD300AD0112088C37AD0112088C9CAD011208CB
:100FE3008CEBAD0112088CF0AD0112088C44AE01FC
:100FF30012088C8EAE0112088C8AAF0112088CEF96
:10100300AF0112088C56B00112088C7BB301120891
:101013008C4FB40112088CB9B50112088C93B80136
:1010230012088C3BB90112088C62BB0112088C07B1
:10103300BC0112088C45BC0112088C1EBE011208AB
:101043008C31BE0112088C3ABE0112088C43BE01DA
:1010530012088C58BE0112088C77BE0112088C56F8
:10106300C00112088CA9C00112088CB3C001120878
:101073008CD4C00112088C23C20112088C6CC201EB
:1010830012088C4CC30112088C77C40112088C2DF2
:10109300C50112088C2FC60112088C31C701120832
:1010A3008C17C80112088C2EC80112088C6BC8015A
:1010B30012088C75C80112088C80C80112088C9E16
:1010C300C80112088CE0C80112088C3EC90112083D
:1010D3008C63C90112088C7DC90112088C0ACA01EC
:1010E30012088C43CA0112088C91CB0112088CE3BD
:1010F300CB0112088CFDCC0112088C24CD011208FF
:101103008CC0CD0112088C3CCE0112088C88CF0113
:1011130012088CA3D00112088C69D10112088C1318
:10112300D20112088C98D20112088C00D301120844
:101133008CB5D30112088C07D40112088C6DD4012D
:1011430012088C36D50112088C59D50112088C115E
:10115300D60112088C35D60112088C57D601120815
:101163008CB8D60112088C03D90112088CDED90180
:1011730012088C88DA0112088CC9DC0112088C175A
:10118300DD0112088C5ADD0112088CB2DD01120850
:101193008C10DE0112088C3ADE0112088C5EDE012F
:1011A30012088C8FDE0112088CB9DE0112088C0044
:1011B300DF0112088C54DF0112088CB0DF01120822
:1011C3008CB1E00112088C1BE20112088C59E20178
:1011D30012088C82E20112088C13E30112088C5D61
:1011E300E30112088C81E30112088CD4E301120895
:1011F3008CEFE30112088CAAE40112088CD4E401F9
:1012030012088C17E50112088C6DE50112088C7920
:10121300E80112088CACE80112088C69E901120894
:101223008C44EA0112088CD4EA0112088C15EB01F4
:1012330012088C17A70512088C4FA70512088C708B
:10124300A70512088CB2A70512088C16A805120868
:101253008C20A80512088C30A80512088C67A805F5
:1012630012088C10AC0512088CD8AD0512088CCC72
:10127300AF0512088C6AB00512088CF1B00512088C
:101283008C87C40212088C30C50212088C0FC60268
:1012930012088C2AC70212088C4AC70212088C6CE7
:1012A300C80212088C09CA0212088C76CA021208F4
:1012B3008C4CCB0212088C52CC0212088CB7CC0295
:1012C30012088CF3CC0212088C4CCD0212088C85C8
:1012D300CD0212088CCECD0212088C60CE02120809
:1012E3008CFDCE0212088CD2CF0212088C9FD00242
:1012F30012088C2CD10212088C52D10212088C7F56
:10130300D10212088CB0D10212088C85D2021208C5
:101313008C95D20212088CE8D20212088CF5D20204
:1013230012088C02D30212088C0BD30212088C6FA2
:10133300D30212088CCDD30212088C18D4021208DF
:101343008C33D40212088C5AD40212088C77D4023C
:1013530012088C83D40212088C27D60212088C4000
:10136300D60212088CBCD60212088CCFD602120801
:101373008CDFD60212088C85D70212088CF5D802AE
:1013830012088C08DA0212088CA8DA0212088CB24E
:10139300DA0212088C20DB0212088C31DB021208FD
:1013A3008C70DB0212088C9EDB0212088C6BDC0251
:1013B30012088CC2DC0212088C07DD0212088C5D55
:1013C300DD0212088C7BDD0212088CC9DD021208D3
:1013D3008C97DE0212088CE5DE0212088C27DF02EE
:1013E30012088CAADF0212088CD4DF0212088C0ABE
:1013F300E00212088C19E00212088C77E00212084E
:101403008CEFE00212088C30E10212088C7FE102BB
:1014130012088CAAE10212088CC4E10212088CDEC5
:10142300E10212088CB3E20212088CBDE202120838
:101433008CF8E20212088C08E30212088C59E302CA
:1014430012088C6DE30212088C8BE40212088CA044
:10145300E40212088C3AE50212088CB9E50212087C
:101463008C5CE60212088C67E60212088CB4E70271
:1014730012088CD0E70212088C28E80212088C9616
:10148300E80212088CE2E80212088CFCE802120857
:101493008C5CE90212088CFAE90212088C45EA0214
:1014A30012088CA8EC0212088C40ED0212088CB7CB
:1014B300ED0212088CFDEF0212088C15F0021208DF
:1014C3008C18F00212088C24F00212088C38F002F7
:1014D30012088C40F00212088C77F00212088C6B11
:1014E300F10212088CF5F10212088C77F20212084D
:1014F3008CECF20212088CC4F30212088CE6F3029D
:1015030012088C7DF40212088C89F40212088CE60E
:10151300F40212088CE9F40212088C58F50212083E
:101523008CA4F60212088CB7F70212088C42F80258
:1015330012088C55F90212088C1FFA0212088C50FB
:10154300FA0212088C76FA0212088C7FFA02120849
:101553008CAEFA0212088C5EFB0212088C0EFC029F
:1015630012088C81FC0212088C33FD0212088CA62F
:10157300FD0212088CE5FD0212088C2EFE021208F1
:101583008C9FE50412088C43E60412088C92E6044F
:1015930012088C11E70412088CBBE70412088CD3E1
:1015A300EA0412088C8CED0412088CB6F1041208BC
:1015B3008CEEF10412088C1CF20412088CAEF204B7
:1015C30012088C02F30412088C35F30412088C5EA3
:1015D300F30412088CACF30412088C31F4041208DF
:1015E3008CD6EB0112088C5EEC0112088CC8EC015E
:1015F30012088C3CED0112088C0EF00112088C319C
:10160300F00112088C8AF00112088C7CF101120897
:101613008CE6F10112088C9DF30112088CF8F40199
:1016230012088C6AF50112088CE3F50112088CBAD2
:10163300F60112088C14F70112088C5EF7011208E8
:101643008C62F90112088C8CFA0112088CB5FB012B
:1016530012088CC4FC0112088C35FD0112088C950C
:10166300FD0112088CD2FD0112088C70FE011208D4
:101673008C3FFF0112088CC9B10412088C98B20484
:1016830012088CD6B50412088C81B70412088CBFDB
:10169300B80412088C25BA0412088CA3BA041208E1
:1016A3008C88BB0412088C40BC0412088C7CBC04DC
:1016B30012088C9FBC0412088C2ABD0412088CDD0E
:1016C300BD0412088CEEBF0412088C6FC00412080C
:1016D3008CE1C10412088C26C30412088C2DC404A7
:1016E30012088C5D9A0612088C6E9A0612088C42B8
:1016F3009B0612088C2EFE0512088C3CFE05120870
:101703008CD8FF0412088C4F9C0612088C5F9C0631
:1017130012088C7F9C0612088C1F9D0612088C00F1
:10172300800612088CA8800612088CEA820612082A
:101733008C65920612088C92920612088C119306FD
:1017430012088C26930612088C8A930612088CF9C9
:10175300930612088CCBC90512088CD8C905120848
:101763008C23CA0512088C48CA0512088C78CA054E
:1017730012088CAECA0512088CD7CA0512088C054C
:10178300CB0512088C0CCC0512088CA2CD051208CF
:101793008CDDCE0512088C0FCF0512088CB5CF0552
:1017A30012088C07D00512088C2BD00512088CDB8D
:1017B300D00512088C797B0012088C927B001208EA
:1017C3008C287C0012088C267D0012088C867F00F2
:1017D30012088C849E0612088C94F40412088CEC74
:1017E300F40412088CF2F70412088CC7F8041208E8
:1017F3008CD0F90412088C5EFB0412088CB6FD042D
:1018030012088C54FE0412088CA4FE0412088CE304
:10181300A20212088CCFFE0412088CF8FE041208F0
:101823008C21FF0412088C2FFF0412088CA2BA0526
:1018330012088CDCBA0512088C6FBC0512088CDA0E
:10184300BC0512088C06BD0512088C1FBD051208C5
:101853008C3DBD0512088C34BE0512088C94BF055F
:1018630012088C74C00512088CB5C10512088CF3DC
:10187300C10512088C1EC20512088C63AC02120843
:101883008C74C20512088CFF950612088C289606E4
:1018930012088C3C960612088C86960612088CD188
:1018A300960612088C1C970612088C7F970612085E
:1018B3008C82970612088C90970612088CA19706C3
:1018C30012088CBCFA0512088CF6FA0512088C5E15
:1018D300FB0512088C8CFB0512088CD9FB0512083A
:1018E3008C17FC0512088C52FC0512088C7CFC0535
:1018F30012088CA2FC0512088C05FD0512088C3316
:10190300FD0512088CC9FD0512088CE1FD051208BE
:101913008CF6FD0512088CCC9E0612088CE99E06F7
:1019230012088C0D9F0612088C1BD70512088CAF6A
:10193300D80512088CBDD80512088CDDD80512080D
:101943008C06D90512088C63D90512088CBFD905FA
:1019530012088C54DA0512088CD9DA0512088C6A3D
:10196300DB0512088C5CDC0512088C70DC051208A0
:101973008C83DC0512088CA5DC0512088C2D9D06D2
:1019830012088C5E9D0612088C8F9D0612088CBC73
:101993009D0612088CA9F30512088C18F405120889
:1019A3008C43F40512088CE6F40512088CEEEF055F
:1019B30012088C11F00512088C23F00512088C31E3
:1019C300F00512088C5AF00512088C76F0051208FF
:1019D3008C92F00512088CADF00512088C6EF1059F
:1019E30012088CEBF10512088C22F20512088C7791
:1019F300F20512088CCCF20512088CFAF2051208D3
:101A03008C08F30512088C22F30512088C96F30553
:101A130012088C8CFF0312088CD29A0512088C1BB7
:101A23009B0512088C479B0512088C609B051208C6
:101A33008C809B0512088CEA9B0512088C249C055C
:101A430012088C83A10512088C52A30512088C98E6
:101A5300A30512088C05A40512088CB3A50512086A
:101A63008CE3A50512088CFDA50512088C11A605AB
:101A730012088C65A60512088CC8A60512088CDD11
:101A8300A60512088C63FE0212088C7AFE02120865
:101A93008CA3FE0212088CC9FE0212088CF6FE0209
:101AA30012088C26FF0212088C47FF0212088C7E54
:101AB300FF0212088CA6FF0212088C399E06120838
:101AC3008C72E70512088C89E70512088CFBE80580
:101AD30012088C30E90512088C58E90512088C8528
:101AE300E90512088C9EE90512088CDFE905120846
:101AF3008C5DEA0512088CA9EA0512088CFDEA053B
:101B030012088C34EB0512088C66EB0512088C6105
:101B1300900612088C84900612088C08910612080D
:101B23008C48920612088C29990612088C028E069C
:101B330012088C12900612088C84990412088CCE19
:101B43009B0412088C029C0412088C459C04120806
:101B53008C5D9C0412088CD79C0412088C039D0492
:101B630012088C229F0412088CA3A00412088CB5BF
:101B7300A10412088C43A20412088CC1A204120807
:101B83008C87A30412088C20A40412088C6AA40472
:101B930012088C38A50412088C3CA60412088CDDAC
:101BA300A60412088CF9A80412088C3EAA04120891
:101BB3008C99AA0412088C9CAA0412088CCBAA0440
:101BC30012088CCEAA0412088C9DAB0412088C6CEC
:101BD300AC0412088C3BAD0412088C0FAE0412083F
:101BE3008CE3AE0412088CB7AF0412088CE2AF0486
:101BF30012088C0DB00412088CE0B00412088CB4E7
:101C0300B10412088C928B0612088CB58B0612084D
:101C13008CB18C0612088C5D8D0612088C988D068B
:101C230012088C49F70512088CC7F70512088CD7E0
:101C3300F70512088C01F80512088C0080041208BD
:101C43008C03800412088C88810412088CF88104A8
:101C530012088C82820412088C36830412088CEAE0
:101C6300830412088CAE840412088C628504120863
:101C73008C6F870412088C23880412088CD788047D
:101C830012088C66890412088C658A0412088CD4A5
:101C93008A0412088C6C8B0412088C998D04120828
:101CA3008CEF8E0412088C45900412088C9F9104CB
:101CB30012088CC7920412088C1F930412088CB26A
:101CC300930412088C8D940412088CBF9404120898
:101CD3008CED970412088C8E980412088C099904D1
:101CE30012088C23D60412088CCDD60412088CF467
:101CF300D60412088CB3D80412088CD1D904120864
:101D03008CA5DA0412088C3FDC0412088C96DC04E0
:101D130012088CAADC0412088C26DD0412088C5DE0
:101D2300DF0412088C9EDF0412088C75E00412088D
:101D33008C21E10412088CC2E10412088CDAE1045C
:101D430012088C19E20412088C89E20412088CC46C
:101D5300E20412088CCEE30412088C1BE40412087C
:101D63008C82E50412088C05830612088C288306EE
:101D730012088C4B840612088C7B850612088C4152
:101D8300940612088C6A940612088C899406120829
:101D93008CA9940612088C07950612088C2D9506BB
:101DA30012088CEE950612088CFC950612088C001E
:101DB300800512088C15800512088C7180051208A5
:101DC3008C19810512088C42810512088C678105E4
:101DD30012088C8B820512088C99850512088CA732
:101DE300850512088C09860512088C47860512089A
:101DF3008C62860512088CFD860512088CA6870561
:101E030012088CF9870512088C7C880512088CEC63
:101E1300880512088C25890512088CB089051208DB
:101E23008C428A0512088C998A0512088CF78A0558
:101E330012088C098B0512088C1B8B0512088C4128
:101E43008B0512088C4A8B0512088C9B8C05120893
:101E53008C338D0512088CA48D0512088C9FC20546
:101E630012088C17C40512088CC2C40512088CEA28
:101E7300C40512088CFBC40512088CFEC7051208A2
:101E83008C1EC80512088C47FF0412088CF78506C0
:101E930012088C3C860612088C89860612088C521E
:101EA300880612088CC9E30312088C89E50312081B
:101EB3008CD8E50312088C4FE80312088CB4E803AE
:101EC30012088CB5EB0312088C1BEC0312088C4F21
:101ED300EE0312088C39EF0312088C9CEF031208EF
:101EE3008C2CF00312088CD2F00312088C2BF10314
:101EF30012088C8AF10312088CE9F10312088CB5DD
:101F0300F30312088C72F50312088C48F8031208C5
:101F13008C8AF80312088CECF80312088CFEF80381
:101F230012088C73F90312088C25FA0312088C4EDD
:101F3300FE0312088C13FF0312088C479F06120836
:101F43008C629F0612088CDEDC0512088CFEDC0511
:101F530012088C04DE0512088C50DE0512088C7002
:101F6300DE0512088CC3DE0512088C30DF0512086B
:101F73008C76DF0512088CDADF0512088C86E20501
:101F830012088CD88D0512088CE58E0512088CB5C5
:101F93008F0512088CFB910512088C91920512088B
:101FA3008CE0920512088C10930512088C5493054B
:101FB30012088C34940512088C22950512088C376C
:101FC300950512088CC7950512088C86970512088B
:101FD3008CBA990512088C2E9A0512088C629A0500
:101FE30012088CB2970612088C52980612088CB607
:101FF300980612088CF9980612088C0080031208C0
:102003008C6D800312088C22810312088C82820358
:1020130012088CC3830312088C8D840312088CF37B
:10202300840312088C70850312088CDE8503120862
:102033008CE1850312088C5D860312088C7E86036F
:1020430012088CE4890312088C9A8A0312088CD92B
:102053008A0312088C3F8B0312088CB68D03120877
:102063008C118E0312088CF28E0312088C328F03AC
:1020730012088C578F0312088CAE8F0312088CF34F
:102083008F0312088C2A900312088C729003120893
:102093008C8A900312088C68910312088C8991032F
:1020A30012088CE9910312088C4D920312088CA933
:1020B300920312088CF8930312088C3E97031208BC
:1020C3008C85970312088CD5980312088C149903F6
:1020D30012088CB1990312088CBD9A0312088C1C48
:1020E3009B0312088C9F9B0312088CA99C03120864
:1020F3008CDA9C0312088CE89C0312088C079D035E
:1021030012088C0A9D0312088C999D0312088CDA1D
:102113009D0312088CFA9D0312088C319E0312084A
:102123008C799E0312088C7C9E0312088CDB9E0321
:1021330012088C1B9F0312088C5C9F0312088C9F50
:102143009F0312088CC69F0312088C28A003120851
:102153008CA2A00312088CE0A20312088C5C9B06DD
:1021630012088C6D9B0612088CF09B0612088CE6F5
:102173007F0012088C9DB10512088CF6B105120878
:102183008C2CB30512088C6DB30512088CA0B50511
:1021930012088CE9B50512088C3FB60512088CBCF1
:1021A300B60512088C0FB80512088C55B90512082C
:1021B3008C7AB90512088CDFB90512088C67BA0549
:1021C30012088C1DC70312088C40C70312088C51D8
:1021D300C70312088C95C80312088C18C903120888
:1021E3008CA1C90312088C33CA0312088CE7CA03F3
:1021F30012088C9BCB0312088C8ACC0312088C51D7
:10220300CD0312088CB6CD0312088C7CD4031208BC
:102213008C58D70312088CA1D70312088C2CD8032F
:1022230012088CA1D90312088CA4D90312088C9A22
:10223300DA0312088C17DC0312088C5EDE03120823
:102243008C72DF0312088C11E10312088CE2E103A4
:1022530012088C47E20312088CCAE20312088C1896
:10226300A50312088CF3A50312088C9BA60312087E
:102273008CF7A60312088CB8A70312088C6AA8036C
:1022830012088CEDAA0312088C5DAB0312088C4D67
:10229300AC0312088CE4AC0312088C8FAD03120854
:1022A3008C3BAE0312088C64B20312088CB5B403E2
:1022B30012088CBBB50312088C56B90312088C6C38
:1022C300BA0312088C59BB0312088C09BC03120809
:1022D3008CB1BC0312088C42BF0312088CE4C00308
:1022E30012088C8AC20312088C51C30312088CFE95
:1022F300C30312088C62C50312088C64C404120859
:102303008CF1C40412088C66C50412088CBFC50482
:1023130012088C63C60412088CB2C60412088C3CE3
:10232300C70412088C8CC80412088CC6C80412088F
:102333008CFEC90412088C13CA0412088C3ACA040E
:1023430012088C56CB0412088C83CB0412088C869B
:10235300CC0412088CB2CC0412088CCECC04120824
:102363008CEECC0412088C0FCD0412088C20CD0403
:1023730012088C2CCE0412088C8DCE0412088C8B80
:10238300CF0412088CEACF0412088C08D004120878
:102393008C0DD00412088C59D00412088CF3D1048C
:1023A30012088C07D30412088CE6D30412088C6D30
:1023B300D40412088C86D40412088CDFD5041208C6
:1023C3008CC0EB0512088C3EEC0512088C7DEC05E5
:1023D30012088C51ED0512088CBFED0512088C58BC
:1023E300EE0512088C5BEF0512088C97E2051208C4
:1023F3008CB9E20512088C16E30512088C44E30538
:1024030012088C79E30512088C9FE30512088CC32C
:10241300E30512088CE9E30512088CFCE4051208B5
:102423008C48E50512088C5FE50512088C87E605E4
:1024330012088C97E60512088CB4E60512088CD1B5
:10244300E60512088CE4E60512088CDED0051208B6
:102453008C87D60512088C95D60512088C9AD6055A
:1024630012088C57890612088C6F890612088CB7DC
:102473008A0612088C7E8B0612088CED9D061208C4
:102483008CCDFF0112088C109F0612088C729F06D8
:1024930012088C9B9F0612088CB3A20212088C7739
:1024A300A20212088C63A20212088C4FA202120825
:1024B3008C8CA10212088CD9A00212088C889E026F
:1024C30012088C5D9E0212088CFE9D0212088C6F0E
:1024D3009C0212088CFD9B0212088CC09B021208FE
:1024E3008C559B0212088C1A9B0212088CB099021D
:1024F30012088C36990212088C73980212088C69A0
:10250300970212088C20970212088CFA960212087E
:102513008C36960212088C80940212088C20940246
:1025230012088CF1930212088CEE930212088C8429
:10253300AB0212088CB0A90212088C71A702120810
:102543008C10A70212088CB7A60212088C3EA602B2
:1025530012088CD9930212088C96930212088C7D70
:10256300930212088C85920212088C14A602120898
:102573008C44920212088C11920212088CA59102CB
:1025830012088C72910212088C17910212088CD6D1
:10259300A50212088CE6900212088C81A50212088B
:1025A3008C49C20512088CAF8D0212088CC18C02B3
:1025B30012088C7B8B0212088C278B0212088C1B4F
:1025C3008B0212088C828A0212088C50890212082C
:1025D3008CAB860212088C4E840212088C02840291
:1025E30012088CE7820212088C7C820212088CA4E7
:1025F300810212088C6B800212088C7CA4021208E0
:102603008C32800212088C00800212088CB2FE0405
:1026130000000080FB00000000000000000000003C
:102623000000000000000000F800000000000000AF
:10263300333000000000100C06100C0600000000F0
:10264300000000000040C07840C0784000043F0410
:10265300043F040400007088FC08300000001820C8
:10266300FF211E0000F008F000E018000000211C0C
:10267300031E211E0000F00888700000001E2123A5
:10268300241927211010160E00000000000000007E
:102693000000000000000000E01804020000000039
:1026A300071820400000020418E00000000040204A
:1026B3001807000000404080F08040400002020103
:1026C3000F01020200000000F00000000001010100
:1026D3001F01010100000000000000000080B07035
:1026E30000000000000000000000000000000101E5
:1026F3000101010101000000000000000000303072
:102703000000000000000000008060180400601852
:10271300060100000000E010080810E000000F10A0
:102723002020100F00001010F800000000002020EF
:102733003F2020000000700808088870000030283F
:1027430024222130000030088888483000001820F7
:102753002020110E000000C02010F8000000070424
:1027630024243F240000F808888808080000192161
:102773002020110E0000E0108888180000000F11BF
:102783002020110E0000380808C838080000000097
:102793003F000000000070880808887000001C22B9
:1027A3002121221C0000E010080810E00000003185
:1027B3002222110F00000000C0C000000000000032
:1027C30030300000000000008000000000000080A6
:1027D300600000000000008040201008000001029B
:1027E30004081020004040404040404000040404DE
:1027F300040404040000081020408000000020109E
:102803000804020100007048080808F000000000F6
:102813003036010000C030C828E810E00007182750
:102823002423140B000000C038E0000000203C23E8
:10283300020227382008F8888888700000203F208B
:102843002020110E00C0300808080838000718209F
:10285300202010080008F808080810E000203F2096
:102863002020100F0008F88888E8081000203F2077
:10287300202320180008F88888E8081000203F204B
:102883000003000000C030080808380000071820C3
:1028930020221E020008F808000008F808203F2143
:1028A3000101213F20000808F8080800000020204B
:1028B3003F2020000000000808F8080800C08080BE
:1028C300807F00000008F888C028180800203F20F7
:1028D300012638200008F8080000000000203F20EF
:1028E300202020300008F8F800F8F80800203F0006
:1028F3003F003F200008F830C00008F808203F20C0
:102903000007183F00E01008080810E0000F10202F
:102913002020100F0008F808080808F000203F21C5
:102923000101010000E01008080810E0000F18245E
:102933002438504F0008F8888888887000203F208A
:1029430000030C3020007088080808380000382085
:102953002121221C00180808F8080818000000208C
:102963003F2000000008F808000008F808001F20B6
:102973002020201F000878880000C83808000007BE
:10298300380E010000F80800F80008F800033C07BF
:1029930000073C0300081868808068180820302C62
:1029A30003032C30200838C800C838080000002072
:1029B3003F2000000010080808C838080020382607
:1029C3002120201800000000FE0202020000000087
:1029D3007F40404000000C30C000000000000000B9
:1029E300010638C00000020202FE00000000404061
:1029F300407F000000000004020202040000000007
:102A03000000000000000000000000000080808043
:102A1300808080808000020204000000000000002B
:102A23000000000000000080808080000000192466
:102A33002222223F2008F8008080000000003F117E
:102A43002020110E000000008080800000000E1185
:102A53002020201100000000808088F800000E1163
:102A63002020103F200000808080800000001F2273
:102A73002222221300008080F088888818002020FA
:102A83003F202000000000808080808000006B9445
:102A9300949493600008F8008080800000203F2118
:102AA3000000203F200080989800000000002020B4
:102AB3003F20200000000000809898000000C080A4
:102AC30080807F000008F8000080808000203F2481
:102AD300022D302000000808F8000000000020202C
:102AE3003F202000008080808080808000203F2065
:102AF300003F20003F8080008080800000203F2135
:102B03000000203F200000808080800000001F2004
:102B13002020201F00808000808000000080FFA113
:102B23002020110E000000008080808000000E1124
:102B33002020A0FF80808080008080800020203FB4
:102B43002120000100000080808080800000332469
:102B53002424241900008080E0808000000000000D
:102B63001F202000008080000000808000001F20C4
:102B73002020103F20808080000080808000010E94
:102B8300300806010080800080008080800F300CB8
:102B9300030C300F00008080008080800000203113
:102BA3002E0E312000808080000080808080818E06
:102BB3007018060100008080808080800000213032
:102BC3002C2221300000000000807C020200000063
:102BD30000003F404000000000FF00000000000034
:102BE30000FF0000000002027C8000000000404063
:102BF3003F0000000000060101020204040000007F
:102C030000000000008700010047122400020019A1
:102C130012250002001B12260002001D12270002CB
:102C2300001F122800010021122900010022128432
:102C330000040023128600010027122A0001002845
:102C4300122B00010029122C0001002D122D000867
:102C53000088112E0001002E122F0001002F1230C8
:102C630000010030123100010031123200010090E6
:102C730011330001009111340001003212360001BA
:102C8300009211380001003312390001002C128325
:102C93000002004512630001009D11640001002A37
:102CA30012650001002B126D0001009E11710008D6
:102CB30000801166000100441243000100351244F4
:102CC30000020036124500010038124600020039A6
:102CD30012470008009511480001003B124B000108
:102CE300003C12040001004812A10001004B1237FE
:102CF3000001004A128800010049123C00010093C0
:102D0300113D0001003412490002003D1267000129
:102D1300009F114D0002003F124E00010041124F6F
:102D230000020042123E00010094110404060069EF
:102D3300100000000000000001363601010001020E
:102D4300010001030100010401060605020000075A
:102D53000100340801000F090401010D0100FF0EF9
:102D630008000017020000190100FF1A0100011BEF
:102D73000100FE1C0100081D0200001F01000120CC
:102D8300010001210200002301000F24020000269C
:102D930001000127010008280200FF2A0100072B78
:102DA3000102402C0100002D0100012E0100012F22
:102DB3000100FF30010B1C310800003A0100083B01
:102DC30001000F3C0100013D0100FF3E04000042F1
:102DD300040000460400004A0400004E04000052B0
:102DE300040000560400005A0400005E20FFFF3672
:102DF300000100060000000F0000000000000000BA
:102E0300000000000003FFFF00000403FFFF0000B9
:102E1300FFFF0FF4010005C4040320000100000BB1
:102E2300000000000000000003010F00000000008C
:102E3300000000000000000000000000000000008F
:102E4300000000000000000000000000000000007F
:102E5300000000000000000000000000000000006F
:102E630000000000000000000000000000010371EA
:102E7300030103010301030103010322030203010D
:102E83000310030003000300030003000300030017
:102E93000342030003240306030003000304031295
:102EA300032503230325032303040304030003006F
:102EB300030003440300030003230300036503210A
:102EC300003503810300030503000300030003002F
:102ED3000325032303010171010101010111010113
:102EE300013101010101018001100161013B001465
:102EF30000630173017201620143010001130106C2
:102F0300013D01350004011201000100010001002F
:102F13000104010401330133013C01440132013650
:102F23000000010001650100013500810100010578
:102F33000182018301000103027102300160021169
:102F43000270020102020202028002100261023ACE
:102F53000041006302730272026202430200021321
:102F63000238000002000204021202000200020002
:102F730002000204020402370037003C024402004C
:102F830002390000020002650200023502810200DC
:102F93000205028202830200020304710402046038
:102FA3000411047004020402040104020410046105
:102FB30004000414046304730472046204430400ED
:102FC30004130406040004000404041204000400AF
:102FD30004000400045104640000040004000444D9
:102FE30004000400040004000465040004350481A3
:102FF300046400050400048304000403007100302A
:1030030001600011007000310220035004800010A1
:10301300006100000014006300730072006200434B
:10302300000000130006000000000004001200006E
:103033000000000000000004000400370037003CDB
:10304300024400000000000000000065000000359D
:10305300008100000005000000830000000000A1C3
:1030630022130035220100A1220200E7210300ED13
:10307300210400F3210500F921060005221100298E
:103083002214002F22150017221F001D22FFFF000C
:1030930000013F0F06690F08630F0B810F10B50E78
:1030A30002450F05570F074B0F0C270F0D330F6406
:1030B300F30CFF000007ECFDFDFDECDCDCCCBCAC4D
:1030C300AC9C9C8C7C7C6C6C5C5C5C4C4C3C3C2C6D
:1030D3002C1C1C03EAF5E5D5D5C5B5A595958585C5
:1030E3007575656555554545353525251515050012
:1030F300160F00000B150B020002220F3300000E07
:103103005A6967426565416C6C69616E6365303904
:1031130001030507090B0D0F00020406080A0C0D35
:10312300303017181921301B1D1F3000034A494343
:103133004E181A250502000119161816161823032E
:10314300000C0E020B040B0A0708000F00393D3F69
:10315300373C3C362C442D303016181920231A1CCA
:103163001E30020402010101010902E8030000000C
:10317300BE040A0E00000000003C007F00E8033C90
:10318300000A0303081000030005FF1E1E0C052898
:103193000901040409101504000C0808C082C08347
:1031A3007900EA1233A43BF583C082C083900342C3
:1031B3001278A9D083D082C3E09CA3E09D500CEA8F
:1031C300240B1231F11231D160010902496CEA7505
:1031D300F00BA4FAA8F075F00BEBA428FB900344C2
:1031E300E02AF8A3E03B8882F583E0540F22F582BE
:1031F300E43B125AA22274F712039D890812513B31
:10320300A3E0F9E875F00BA4F8ACF075F00BE9A4B2
:103213002C12341FE8FEE9FF74016508600674028E
:10322300650870228A828B8312374B74026508709B
:1032330021EA2403FA50010B120C4BE970148E821D
:103243008F83E4F0800CEA2403FCE43B1237421240
:103253000C458E828F83E0D2E7F01220FD024DF7FA
:1032630074F412039D12380579008E828F83E06017
:1032730075890A890B8064E50A75F00BA4FAA8F036
:1032830075F00BE50B1231DD7049E50A75F00BA4FF
:10329300F8AAF075F00BE50B1234008E828F83E0F1
:1032A3008508828509831249201236C2EE2403FC65
:1032B300E43F123397120C45124F761264D3124136
:1032C300E8D2E7F01220FD7901900342E0F50AA36A
:1032D300E0F50B050AE50A7002050B12361EE50A36
:1032E3009AE50B9B409102542974F512039DEAFE63
:1032F300EBFF750A01740B120B7E123DEFEC4D6070
:1033030015EC1233A43D1238137901120C2DE50884
:10331300450960758023E508450960441233A235E9
:1033230009123813123398120C4BE96401701BEE27
:10333300FAEFFB120C33E9F50A850882850983123B
:1033430036BA7902AA08AB098011123743120C4B23
:10335300E9640170347903EEFAEFFB120C2D802936
:103363008E828F83A3E064FE7003A3E0F4700B12DC
:103373003743120C4BE96401700CEEFAEFFB120CAD
:1033830033E9F50A8003750A00023C7BE50A24034E
:10339300FCE4350BFDE5082403FAE43509FB22E5DB
:1033A300081268D82274F712039D900342125093B7
:1033B300EA4B602FEA75F00BA4FAA8F075F00BEB5B
:1033C300A428FBEAFEEBFF121E99900344125093CC
:1033D300900344125A8D6012EEFCEFFD7900121D2A
:1033E300C18007900344E4F0A3F0024DF7F9023BD8
:1033F3008EE875F00BA4F8AAF075F00BE9A42AF98E
:10340300900344E028F508A3E039F50922F9E875AB
:10341300F00BA4F8AAF075F00BE9A42AF990034481
:10342300E028F8A3E039F922900342124DDEC3EEFF
:1034330098EF9922C082C083EC4D6005121FF5807E
:10344300097C087D007900121DC102496C74F612D3
:10345300039D7900EA4B60177800EA28F582E412AD
:1034630061EA60047901780808E8C3940840EB0234
:103473003B8E74F712039D74F312096BECFEEDFFA0
:10348300851882851983E4F004120B7EEAF0A3EB1E
:10349300124DD0120C697403120B7EAC82AD83EE15
:1034A300FAEFFB120C45EEFAEFFB120C4B024DF256
:1034B30074F712039D74F312096BECFEEDFF85188C
:1034C30082851983E4F0EAFCEBFD7403120B7EAAF8
:1034D30082AB83120C45AA18AB19120C6F7401123C
:1034E3000B7E12492D8E828F83124DC174FE68703C
:1034F3000374FF696004790180027900024DF2745C
:10350300F712039DEAFEEBFF120C27E9F50874019D
:103513006508701112356BF4FA88828983E05A4486
:1035230080F01220FD02415D74F712039DEAFEEB69
:10353300FF7508008E828F83E0602A120C27E9F55D
:103543000874016508701E12356BFA88828983E05E
:103553005A70128E828F83E04480FA88828983E0D6
:103563004AF01220FD02415D124F7A1243351234A4
:10357300108E828F83E02274F412039D8A088B09D4
:103583007C007D00EA12339A120C45E5081236DC02
:103593007900850882850983A3E064FE7003A3E0B4
:1035A300F460757E007F008066EEFAEFFB1231D186
:1035B3006058EEFAEFFBEA75F00BA4FAA8F075F089
:1035C3000BEBA428FB900344E02AF50AA3E03BF5A8
:1035D3000B850882850983A31261C5850A82850B41
:1035E30083A3E06A7003A3E06B701FE50A2403FA68
:1035F300E4350BFB120C4BE96401700612338F1296
:103603000C451236D179011276DD0EEE70010F12E0
:10361300361EEE9AEF9B4091025429900342125AB0
:10362300A4C32274F312039D8A088B098A828B83B5
:103633001236BAEA1236DC750C00EA12339A120C0F
:103643004BE96401706A7E007F00805FEEF8EFF95A
:10365300E875F00BA4F8AAF075F00BE9A42AF99029
:10366300034412774FE0540F603CEEF8EFF9E8752E
:10367300F00BA4F8AAF075F00BE9A42AF99003441F
:10368300E028F50AA3E039F50B12338F121FEFE997
:1036930064017012850A82850B831236C21236D1F9
:1036A300750C011276DD0EEE70010F12342B409C67
:1036B300A90C7F050205FDA374FEF0A304F022A369
:1036C300124DDE850882850983A312464922E50847
:1036D3001236E6EEF0A3EFF0221236E674FEF0A304
:1036E30004F0221268DC3509F5832274F512039D78
:1036F300EAFEEBFF8E828F831236BA7C007D0012C6
:103703003743120C45EEFAEFFB120C27E9F50A7466
:1037130001650A7027124DD71233F4850882F583A9
:1037230012374B123398120C4BE96401700EE50803
:103733002403FCE43509123742120C45023C7BFD9D
:10374300EE2403FAE43FFB22A31261CF124649227F
:1037530074F212039D74E612096B123805750C019D
:10376300750800750900750A00750B0085188285B8
:103773001983E4F0EE2403FCE43FFD7403120B7E93
:10378300AA82AB83120C45AA18AB19120C6FE96419
:1037930001701F740B120B7E1238157401120B7E0D
:1037A3001261C97003A3E069604AA818A9198808BF
:1037B3008909740D120B7E12491FA312492D740E31
:1037C300120B7E124DC1740D12092D120C69E9649E
:1037D300017009740D120925880A890B780A1208E9
:1037E300DFAC08AD09EEFAEFFB120C3974021208D4
:1037F300BCE9F50CEEFAEFFB120C63A90C741A0288
:103803006125EAFEEBFF124F7A74FEF0A304F02267
:10381300F583124335F9124F7A12464922C082C00A
:103823008378007900800508E870010912361EE8E4
:103833009AE99B5029E8FAE9FBEA75F00BA4FAAC84
:10384300F075F00BEBA42CFB900344E02AFCA3E0FF
:103853003B8C82F583E0540F70CD790080027901AF
:1038630002496CC082C083903199E49375F016A429
:10387300FCADF079FF7A677B0A121DC102496C74B3
:10388300F612039DEAF87508007D008012ED1261BF
:10389300DCC3994009E0FAE8C39A400205080D9099
:1038A3003199E493FAEDC39A40E3AA087B00023B03
:1038B3008E74F012039D74F312096B8A0C8B0D8CBA
:1038C300088D09890AEC45096016AA08AB09120C90
:1038D300B78A0E8B0FAE0EAF0FEE4F60030239A700
:1038E3007B0080010B1264C9500F123A4F70F574BC
:1038F3006728FE740A39FF80047E007F00EE4F7054
:10390300030239FB90317A123A2260217403650A6B
:1039130060067404650A70157A047903120C8D909D
:103923003199E493FC90317A123A285029903178F6
:10393300123A2260287401650A60067402650A70EF
:103943001C7A027901120C8D903199E493FC903129
:1039530078123A2840077A007B00023A1F851882C2
:103963008519837401F0120B7EE50CF0A3E50DF0CD
:10397300AC08AD097403120B7EAA82AB83120C450B
:10398300AA18AB19120C7B740B120B7E1246428ED3
:10399300828F83A3A3A3A3A3A3E41278A5AA0CAB4A
:1039A3000D1211977800E50A6007C3940550027859
:1039B300048E828F83E50CF0A3E50D126E89E50A70
:1039C300F0E88E828F83A3A3A3A3A31264DA50012A
:1039D300097A027B0012024D123E35A3126105A340
:1039E300123E79E50A600DC394035008123E041297
:1039F3003A408003123E1BF07A047900120C8D8A40
:103A030008903199E493FAC3E5089AEB94004005D2
:103A13009011ACE4F0121071EEFAEFFB023DD912F3
:103A23003A38E84922123A38ECC398F8E499F9C3D2
:103A3300EA98EB9922E493F8740193F922F9EE24BE
:103A430014F582E43FF583E8F0A3E922EB75F01661
:103A5300A4F8A9F0123E6EF42274F212039D74F3DB
:103A630012096B8A088B09ECFEEDFF750A00EEFA6A
:103A7300EFFB120CB78A0C8B0DA80CA90DE849704B
:103A830003023B2088828983E065087004A3E06514
:103A9300097003023B2088828983A3A3A3A3E0C305
:103AA3009405507988828983126D091251F7E06079
:103AB3003488828983A3A3A3A3E0C39403502690ED
:103AC3003182E493FA740193FB12406F90317CE4EA
:103AD30093FA740193FBE82414F582E439F583EA3D
:103AE300F0A3EB800DE82412123B27F0E824141214
:103AF3003B27F08518828519837401F0120B7E121F
:103B03006D09F0EEFCEFFD7403120B7EAA82AB830A
:103B1300120C45AA18AB19120C7B750A01A90A7479
:103B23000D026125F582E439F58374FEF0A30422C6
:103B330074F612039D120CB18A088B09A808A9090F
:103B4300E849601488828983A3A3A3A3E06009C31F
:103B530094055004790180027900802F74F61203D2
:103B63009D120CB18A088B09A808A909E8496014B9
:103B730088828983A3A3A3A3E06009C394035004A9
:103B830079018002790080031208BC7F020205FDDF
:103B930074F612039D120CB18A828B83E5824583EE
:103BA300600BA3A3A3A3E0700479018002790080D2
:103BB300DAC082C083EAFCEBFD7A007B000249692C
:103BC300C082C0837C007D0002496974F512039DA5
:103BD30074F312096BEAFEEBFF8C088D09C3EC94B6
:103BE300F8ED94FF4004EE4F606A750A0080197483
:103BF300FF6508700474FF6509600B12700670049A
:103C0300A3E06509603B050A903199E493F8E50A5E
:103C1300C3985040E50A123A5060EBEE4F60D01261
:103C23003C62120B7E124DCC120C75E960D8740302
:103C3300120B7EAC82AD83EEFAEFFB121FEFE9604D
:103C4300C5E50A75F016A4F8A9F0746728FA740A92
:103C530039FB80047A007B00740D1208BC801B853D
:103C630018828519837401F0746928F582740A39FE
:103C7300F583124DDE740B22A90A7F030205FD743E
:103C8300F412039D74F312096B750800120CB78AC2
:103C93000A8B0BAE0AAF0BEE4F601F123CE5123CD2
:103CA30075120B7E124DCC120C5D7C167D0079FFD4
:103CB300EEFAEFFB121DC17508017A047900120CAC
:103CC3008D8A0A903199E493FAC3E50A9AEB94003A
:103CD30050099011AC7401F0121071A908740D020F
:103CE30054268518828519837401F08E828F83A3ED
:103CF300A32274F712039DE9FC74FE6A700374FF38
:103D03006B7D007003802C0D123D575026ED123A47
:103D13005060F4127AEA6A7003A3E06B70E98012D0
:103D2300ED75F016A4F8A9F0127ADD6018E06403CB
:103D330060130D123D575015EC60E5123E6260F2C0
:103D4300C3940550ED12724A1261C280047AFE7B5D
:103D5300FF024DF7903199E493F8EDC39822120CCA
:103D6300C902496CC082C083790180F274F01203E6
:103D73009D8A0A8B0B7A047901120C8D8A0C8B0DA8
:103D8300EA450D6040EA2AFAEB33FB121E998A08D2
:103D93008B09AE08AF09EE4F60267AFE7BFF120C4B
:103DA300CF74FE6A700374FF6B601E8508828509F9
:103DB30083125093E5082402F50850E2050980DEDA
:103DC300750C0080047E007F00850A82850B83E5E5
:103DD3000C124FC78005740D1208BC7F080205FD45
:103DE300E493F8ECC398221278ADEC22E0F508A333
:103DF300E0F509221208BC7F0C0205FD7F070205CE
:103E0300FD903182123A38EE1272411246499031D6
:103E13007CE493F874019322EE2412123E29F0EE0F
:103E23002414123E2922F582E43FF58374FEF0A3A5
:103E33000422E88E828F83A3A3A3A3A3A3A3A31225
:103E43003E5A7401123E5AA374AAF0EE2410F5826E
:103E5300E43FF583E4F022126EACA3A3A3A322ED07
:103E630075F016A4F8A9F0123E6E22746B28F58241
:103E7300740A12799922A3F0124F7AE4F0EE240C1B
:103E8300F582E43FF583E4F0A3F0A3F0A3F022C0AE
:103E930082C0837D008009EA24FF1AEB34FFFB0D07
:103EA300123D575016123E62C3940550F2EA4B700E
:103EB300E6746728FA740A39FB80047A007B0002EF
:103EC300496C74F712039D74F312096B7E00023F71
:103ED3005DEF75F017A4F8A9F0127AC01262AB7502
:103EE300F016A4FAABF074672AF582740A1264FD23
:103EF3007003A3E0696040EF75F017A4F8AAF0EA35
:103F0300F9127AC039F58312492D7401120B7EE040
:103F1300687003A3E069601FEF75F017A4F8EAF96E
:103F2300743728FC740C39FD7403120B7EAA82AB20
:103F330083121FEFE96013EF75F017A4F8A9F0746B
:103F43003528FA740C39FB1211A30F903188E493CE
:103F5300F8EFC3985003023ED40E90319912762F96
:103F6300501FEE127AE3F47003A3E0F460EB123C0B
:103F730062120B7E124DCC120C75E960DC7F00805F
:103F8300CA024DF274F712039D74F312096B900485
:103F930015125A8D7003024033750800802BE50813
:103FA30075F016A4F8EAF9747B28F582740A12797D
:103FB3009564FE7003A3E0F4600D747928F58274B0
:103FC3000A39F58312611B05089031991260E45098
:103FD3005FE50875F016A4F8AAF0EAF9123E6A60E4
:103FE300E6C3940350E1747928F582740A125A8A5D
:103FF30070ACE50875F016A4F8EAF9746728F8744C
:104003000A39F9E8FEE9FF1240D11240C71205153B
:10401300123CE5123C75120B7E124DCC120C75E965
:1040230060A57403120B7EAA82AB83120CC3809724
:10403300024DF274F612039D120CB18A088B09A883
:1040430008A909E849602088828983A3A3A3A3E080
:104053006011C39403500CE82414F582E41261C286
:1040630012406F790180027900023B8EE82412F539
:1040730082E439F583EAF0A3EBF02274F712039D8F
:10408300EAFEEBFF90040F125A8D60309004151274
:104093005A8D6028900419125A8D602012738B1266
:1040A3000515E970171240C2120515E96401700C79
:1040B3008E828F83A3A3127378120515024DF71214
:1040C30040D1A3A3125AA4900415127382229031F3
:1040D3007CE493FC740193FD8E828F8322C082C0A3
:1040E3008390034F7451F0A3740FF002496C74F77B
:1040F30012039DEAFEEBFF900385E06408601CE079
:10410300640460178E828F83E0540364017041124C
:104113005E7DF8124162E0640670358E828F83A360
:10412300A3E064FE7003A3E0F460258E828F83A373
:10413300A31268BE7003A3E0697008EE2415126829
:10414300B36005121005800312100BE9F508800314
:104153007508C2EEFAEFFB121E9FA908024DF7A3E2
:10416300E0F58388822274F412039D8A088B091276
:104173004331FAE82AFAE43400FB121E998A0A8BC7
:104183000BAE0AAF0BEE4F6055850882850983E0BD
:10419300FC7D007900121DC18E828F83A31236BA73
:1041A3001210418E828F83A3A3A3A3EAF0A3EB1281
:1041B30041E8F8EE28F8E43F1238188508828509AB
:1041C30083A3E0C0E01264BFD0E0F0121053126486
:1041D300B5E9124625E0C0E012461BD0E0F0EEFA46
:1041E300EFFB025429F0850882850983E02274F4E9
:1041F30012039D74E812096B8A088B098C0A8D0BD4
:10420300E9FE900385E064046005E06408700479C6
:10421300C2803CA37808120B17EE90038C12435F05
:10422300121DC18518828519837808120B1774052E
:10423300120B7EEEF07404120B7E7401F0740712FD
:104243000B7EE4F09003857402124DD01224150204
:10425300542474F412039D74E812096BEAFEEBFF15
:10426300900346125A8D600302432C7A077B001297
:104273001E99900346125093900346125A8D700371
:104283000243288E828F83120B5B900346E0FCA3CC
:10429300E0F5838C82120B4FEE2404F50AE43FF51C
:1042A3000B850A82F583E0C0E0900346125A61A3AE
:1042B300A3A3D0E0F0EE2405F508E43FF509850853
:1042C30082F583E0C0E0900346125A6FD0E0124DAE
:1042D300C6C0E0900346124335C82406F582E4388D
:1042E300F583D0E012435F121DC18E828F83120BC0
:1042F3005B851882851983120B4F850A82850B8390
:10430300E0C0E07405120B7ED0E01241E8C0E07417
:1043130004120B7ED0E0F07407120B7EE4124DD032
:1043230012241580067910800279010254248A82AE
:104333008B83E0F8A3E022C082C083900346125A25
:104343008D60109003461261C5121E9F900346E4D0
:10435300F0A3F0120F7B12114302496CF07C187D1D
:10436300007900AA18AB1922C082C08390034AE0E7
:104373007003122223120D2302496C74F012039D61
:1043830090034AE09011AB700FE0600579001220B2
:10439300C79011ABE4F0804AE06401600890034ADF
:1043A300E0F91220C79011AB7401F090034AE0F4D6
:1043B3006030E0F50CE4F50DF50EF50FF09082900A
:1043C3007808120B26780C79081202AE780C1208C2
:1043D300D77A807B009003D0E0F9121F5F74041238
:1043E30008BC7AAB7B1179411223FD023DDE74F4E4
:1043F30012039D74E812096B8A088B098C0A8D0BD2
:10440300E9FE900385740112435F121DC185188272
:104413008519837808120B177405120B7EEEF0745E
:1044230004120B7E7403F07407120B7EE4124DD05A
:1044330012241502542474F712039D7C01120D3BC0
:10444300024DF774F712039D7C0080F174F01203A0
:104453009D74FC12096BE9851882851983F0EAFEC5
:10446300EBFF8C0A1278A6120F6F8A088B09EA45B4
:1044730009700579CA0246168A828B83A3A3A3A374
:10448300A3A3A3E064FE7003A3E0F4700579C30261
:1044930046161210418A0C8B0DA80CA90D850882B3
:1044A300850983A3A3A3A3A3A3A3E0687003A3E045
:1044B30069700579C202461690038312492D850857
:1044C30082850983E0687003A3E06960128508822E
:1044D300850983124792AA08AB0979501223FD90EC
:1044E30003831261C51211A9850882850983A3A3D9
:1044F300A3A3A3A3A3A3A3A3E00490039612477EBD
:10450300121FF57402120B7E7402F01412092D129D
:1045130010A78A0C8B0DAE0CAF0DEE4F7003024645
:104523000C1253AD7406F0A3A882A98390037012F2
:1045330065EB125E5A12103B12508AEE2413125E80
:104543005D1264AB7440F0A3E4124625A3A3A3A3B6
:10455300A312464212461BE50A124FC7120CFFE98B
:10456300F50B600302460F9003857409F0E50824F8
:1045730007FEE43509FFEEFAEFFB794B1223FD8EBC
:10458300828F83124788900378E0F8851882851913
:1045930083E068600CE0900378124DD079E1122338
:1045A300FD90121D12492D90121FE0687003A3E0C5
:1045B300696028900348124DC190121F1261C51201
:1045C300106B12462F780C1208D77A017B009003E8
:1045D300D0E0F9121F5F74041208BC7A007B0490C8
:1045E30003D0E0F9121F6B12462F7402780C1208E5
:1045F30046780C1208D77A007B049003D0E0F912B6
:104603001F5F74041208BC8003750B1090108CE4B8
:10461300F0A90B7404023DDBEE2411F582E43FF5AF
:104623008322F0850882850983A3A32290121FE0C9
:10463300F508A3E085080CF50DE4F50EF50F22123D
:1046430064F512464922E8F0A3E9F02274F6120356
:104653009D74E212096B851882851983ECF0A3ED32
:10466300F0EAFEEBFF8908900385E064046005E04F
:104673006408700579C20247797429120B7EE064DD
:10468300FE7003A3E0F4700579C30247797C197DBA
:10469300007900740512092D121DC190038574035E
:1046A300124DD079501223FD742912092D794B1222
:1046B30023FD851882851983124792E508900378B4
:1046C300F07429120B7E1247887428120B7EE0F5D2
:1046D3000990037012477E121FF574CE550944806A
:1046E300C0E0741D120B7ED0E0F0742B120B7EE041
:1046F30004900396F0741A120B7E7402F07429125C
:104703000B7E12492D7412120B7EE8F0A3E91249B5
:1047130026741B120B7E124DC17410120B7EE5081A
:10472300F0740D120B7EE4F090038B740FF07A8B10
:104733007B0379541223FD90038A740FF07A8A7BEA
:104743000379471223FD90038AE0C3940F501F742B
:1047530010120B7EE0C0E07402120B7ED0E0F07406
:1047630004120B7E7401F00412092D122421740526
:1047730012092D122403741E023B8BF0EEFCEFFD95
:104783007A977B0322124DDE900379124649221257
:10479300726B1246492274F712039DEB90038DF05E
:1047A300120F5D024DF774F712039D74E912096B42
:1047B300EAFEEBFF7508008E828F83A3A3A3E0C0FC
:1047C300E07406120B7ED0E0123CEDE0C0E074080A
:1047D300120B7ED0E0F07409120B7E740112492093
:1047E300125A8D600D8E828F831261C5120C4BE9B4
:1047F30070357407120B7EE4F012103B7404120B35
:104803007E125093900385E06404700E1210477477
:1048130002120B7EEAF0A3EB80487402120B7E7443
:10482300FDF0A374FF803BAC18AD198E828F831209
:1048330061C5120C578E828F83A3A3A3A3E07030AC
:104843007407120B7E74011249267402120B7E1236
:104853004DC18E828F8312492D7404120B7EE8F0B2
:10486300A3E9F0740212092D12108FE9F508803EB6
:10487300124927740A120B7E124DC17414120B7E57
:10488300123CEBA3E0C0E07415120B7ED0E0F07491
:1048930016120B7E12491F1278A9740C120B7EAAF2
:1048A30082AB83121FF5740A12092D1220DFA908A7
:1048B3007417024DF474F712039D74F812096BEA2E
:1048C300FEEBFF7900900385E064086005E0640473
:1048D300704585188285198374FDF0A374FFF01267
:1048E300103B7402120B7E1250937405120B7E124E
:1048F300491FA3E0C0E07404120B7ED0E0124920EC
:10490300E0C0E07406120B7ED0E0F07407120B7E59
:10491300E4124DD012108F7408024DF4E4F08E822D
:104923008F8322F0851882851983124DDE22C0827F
:10493300C0839003577407F0A3740EF09003FD74C3
:10494300E9F0A37410F090035B743DF0A3740EF0D0
:1049530090035D7407F0A3740EF090035F7443F04B
:10496300A3740EF08003120CBDD083D08202088999
:1049730074F412039D74F912096B8A088B098C0A6B
:104983008D0B8518828519837808120B177404120E
:104993000B7EE9F07405120B7EE4F07406120B7EB5
:1049A300E4124DD0120D11740702542674F512034C
:1049B3009D8A088B098A828B831276E0EE4F7003FF
:1049C300024B67900314125A8D60158A828B83A35E
:1049D300A3E0F9EEFAEFFB900315124163120515FC
:1049E3008E828F83A3A3A3A3A3A3A3A3A3E06402A1
:1049F3006003024AD08E828F83A3A3A3A3A3A3E061
:104A030054027003024AF4850882850983A3A3E054
:104A130064E97003024AF4850882850983A3A3E04D
:104A230064CD7003024AF4850882850983A3A3E059
:104A330064F07003024AF48E828F83A3A3A3A3A31B
:104A4300A3A3A3A3A3E07016901235E0048E828F74
:104A530083A3A3A3A3A3A3A3A3A3A3F08010124B95
:104A6300781210BFE970077A307B0112216F850835
:104A730082850983A3A3E0701F750A0080097A3633
:104A83007B0112216F050A850882850983A3A3A3ED
:104A9300E0F8E50AC39840E68E828F83A3A3A3A31D
:104AA300A3A3A3A3126EA0A3A3A3A37404F09012C1
:104AB300361264EFE8124B6A121F71EA4B4C4D70C9
:104AC3000C7A207B009003D0E0F9121E218E828F96
:104AD30083A3A3A3A3A3A3A3A3A3E0640260128E4F
:104AE300828F83A3A3A3A3A3A3A3A3A3E0640670BA
:104AF300738E828F83A3A3A3A3A3A3E0A2E0506436
:104B0300850882850983A3A3E0F9EEFAEFFB12245B
:104B13009F8E828F83A3A3A3A3A3A3E054FEF012CB
:104B23004B781210BFE9850882850983A3A3702AF5
:104B3300E070237A2F7B0112216F7E008508828526
:104B43000983A3A3A3E0F8EEC39850187A367B0138
:104B530012216F0E80E67A318005E070077A2D7B93
:104B63000112216F023C7DF0A3E9F07A207B0090D3
:104B730003D0E0F9228E828F83127382125AA42209
:104B830074EC12039D74DB12096BEAFEEBFF8C10CD
:104B93008D11750E007405120935120BCD741212A6
:104BA3000B7EE070087415120B7EE0602074051212
:104BB3000B7EE0A2E6501B8E828F83A3A3A3A3A345
:104BC300A3A3A3A31261C51210BFE960057A35023E
:104BD3004CCC7405120B7EE0540C64047005750D07
:104BE300018003750D00E0A2E55030750E01E50D5F
:104BF300A2E040271210418A088B09A808A90912CC
:104C03005E7D687003A3E0696011740512093512B3
:104C130068CD1224C3E96003024CCA7405120B7EEB
:104C2300E0A2E650227406120B7EE054037018745F
:104C330005120B7EE0540C640C600CE0540C640809
:104C43006005750C018003750C007405120B7EE082
:104C53005403F8740268700E74051209351268CD96
:104C6300120BDF024DB67401687041E50CA2E050EF
:104C73000B74051209351268CD120BD37405120992
:104C8300257403120B7EE8F0A3E9124DD685188232
:104C9300851983E8F0A3E9124DC6C0E07402120B34
:104CA3007ED0E0124DD01225EF024DB6E86003022C
:104CB3004DB690036DE0640170178E828F83A3A3BA
:104CC300A3A3A3A3E0700A7A347B0112216F024DE0
:104CD300B67424120B7E7402124DD6741C120B7E12
:104CE300124DC1E50CA2E0500B7405120935126890
:104CF300CD120BD37439120B7E7808120B26E50DF7
:104D0300A2E0EE5072240F1268B3C0E07417120BC6
:104D13007ED0E0F0900316125A8D7003024DB61246
:104D230010418A128B13A812A913741C120B7EE074
:104D3300687003A3E069707B78081208D7E50EF565
:104D43000878081208E38E828F83A3A3A3A3E0F558
:104D53000878081208E378101208DFA90C740D1202
:104D63000935742412092D900316126237120515A2
:104D730074081208BC803C1268B1F50C780C120858
:104D8300E378081208D7E50EF50878081208E378E7
:104D9300101208DF9003831206CCEE24121268B3BC
:104DA300F97426120935740F12092D12180F740A9B
:104DB3001208BC7425023DF7A3A3A3A3A3A3E8127F
:104DC300464A22126EA8A3E022E8F0A3E9F0AA184B
:104DD300AB1922F0124F7A124DDE22124DE222E07D
:104DE300F8A3E0F92274F712039D1220A980057439
:104DF3000D1208BC7F010205FD74F712039D1220FA
:104E0300BB80F1C082C0831220B502496C74F712D3
:104E1300039D1220C180DD74F712039D7409120BE8
:104E23007EE0F50878081208E31220D3740180C1EC
:104E3300C082C0831220DF02496CC082C08312206B
:104E4300E502496C74F712039D1220EB80A674F7F8
:104E530012039DEAFEEBFF8908740165087014795B
:104E630000120E7F90318EE493FC7900EEFAEFFB93
:104E7300120DF5024DF774F712039D1220D9024D5E
:104E8300F774F412039D74F912096BE9FE8A088B17
:104E9300098C0A8D0B9010E1125A8D602BEE851848
:104EA30082851983F07401120B7E7808120B177434
:104EB30013120B7E12492D7405120B7E124DCC90EA
:104EC30010E11262371205150249AA74F712039D05
:104ED3001220F7024DF774F712039D9011AEE0F91B
:104EE3007E00800B125149540D64017001190E129A
:104EF30050E05003E970ED024DF774F712039D90F3
:104F030011AFE0F97E00800B125149548D6481701A
:104F130001190E1250E05003E970ED024DF774F2DF
:104F230012039D890BE975F006A4A9F0240CF5087A
:104F3300E439F509E5082AFAE43509FB121E998AD2
:104F43000C8B0DAE0CAF0DEE4F6021AC08AD0979A3
:104F530000121DC1124F76E50BF0EE2508F8EF3570
:104F630009F98E828F83A3A3A3124DBBEEFAEFFB45
:104F7300026128124F7A22EE1268DC3FF583227415
:104F8300F612039DEAFEEBFF120DD19011ADE0F88E
:104F9300E9C39840099003531261C5120DD7EE245B
:104FA30002F8E43FF9880889099003551265EB90EC
:104FB3000355E004124FC7120DDD8508828509836E
:104FC300E00233F0F0EEFAEFFB22C082C0837900F7
:104FD3009003538001091261C58A828B83E5824560
:104FE3008370F202496C74F712039DEAFEEBFFEE45
:104FF3004F605A900353125A8D6052888289837A84
:10500300007B00EE65827003EF65836013AA82ABB9
:105013008312492D88828983E5824583602F80E34B
:105023009003531262AE687002EF698E828F8370B1
:105033000812492D9003538003127370124DC1EE71
:10504300FAEFFB1225BFEEFAEFFB121E9F024DF79C
:10505300C082C083900353800488828983125A8D4F
:10506300600A88828983123DEA4D70ED8A828B83C0
:10507300E4F0A3F0E8496006888289838003900303
:105083005312509302496CEE241AF582E43FF583E0
:10509300EAF0A3EBF022125AA4EA4B2274F71203AC
:1050A3009D90035380048A828B8312509960277EDC
:1050B3000080010E1250E050EDEE75F006A4FCAD39
:1050C300F0EA2CFCEB3DFDEC2410F582E43DF58386
:1050D300E06970DF80047A007B00024DF712513FD4
:1050E300EEC3982274F712039D7D0080010D1251C7
:1050F3003BEDC398503BED75F006A4FEA8F0E8FF26
:10510300EA2EFEEB3FFFEE24101268B36970DEED6A
:1051130075F006A4FEE8FFEA2EFAEB3FFBEA241142
:10512300F582E41261EA4CF0EA240CFA50070B8092
:10513300047A007B00024DF712513F22EA1268DC29
:105143003BF583E0F822EE75F006A4FCADF0EA2C03
:10515300FCEB3DFDEC2411F582E43DF583E0227484
:10516300F612039D120EEB7B008016EB75F006A47E
:10517300F8A9F0126619E41251F7F0A31265E1F0F1
:105183000B9031901264CC40E27A0080168A087545
:10519300090074037808120A221260EC1264EAA36D
:1051A300E4F00A90319EE493F8EAC39840DF790073
:1051B300801A890875090074037808120A22745D3D
:1051C3001276E8740F1275211236BB0990319312CF
:1051D3006CEF40DE903194E493900361F090829001
:1051E3001206C87A107B009003D0E0F9121F657491
:1051F30004023B8B126CFDA32274F012039D74F521
:1052030012096B8A088B09890A8C0BE9A2E05014F6
:105213007508FC7509FFA2E15005D2E40252C5D21C
:10522300E30252C5120ED38A0C8B0DA80CA90D9064
:105233000376E0687003A3E069600EAC0A7902AA02
:1052430008AB09120ECDE970057900025396E50A01
:10525300F50C780C1208E379027CFE7DFFAA08ABFB
:1052630009120E4974011208BCE96003025394E564
:105273000AC2E5F50A9003C3E07049E50AA2E640D5
:10528300437403120935AA08AB09120C51E9702EB5
:10529300125A681211858A0C8B0DAE0CAF0DEE4FAE
:1052A3006022EE2402FAE43FFB120C4BE96015EE98
:1052B3002402FCE43FFD740312092D121FF5E50AD5
:1052C300D2E5F50A900356E0F50C90037612555893
:1052D300780E1208DF7D017C00900356E0F9AA0ED8
:1052E300AB0F120E8B74021208BCE9F8900356E060
:1052F30004F0E86003025394E50AA2E55004740E37
:1053030080027406C0E07401120B7ED0E0124DD00F
:105313001210A78A0E8B0FAE0EAF0FEE4F606E12F8
:105323005E5A12103B12508A1253AD7401F0747816
:10533300550AA3127912E50C127912A3E508F0E5D8
:105343000912539BE4F0E50AA2E5500F7403120916
:1053530035E82406FAE439FB121FF58E828F83A306
:10536300A374FDF0A374FFF0E50B601890318FE494
:1053730093F8E50BC398500CEE2413F582E43FF544
:1053830083E50BF0EEFAEFFB120CFF800679108039
:105393000279C7740B023DDB88828983A3A3A3A38D
:1053A3001253A722126D01A3A322EE1268D83F1253
:1053B30053B622F583124DE2888289832274F41254
:1053C300039D7A007B109003D0E0F9121F71EA4B22
:1053D3004C4D60089003E27401F08043901192E019
:1053E30064019012327006E0FC79018004E0FC79DC
:1053F300037A007B00120DF5903180E493F5087475
:105403000193F509E4F50AF50B78081208D77A0039
:105413007B109003D0E0F9121F5F74041208BC8064
:105423000574181208BC7F040205FD74F012039D75
:105433008A088B098C0A8D0B890C1210BFE9600551
:105443007AFF02551C901231E06402600302554852
:10545300903186E493F9AA08AB09120EFDE96003C3
:105463000255427900AA08AB09120ED3A90C120EF9
:10547300C78A0E8B0FAE0EAF0FEE4F700302552E81
:105483008E828F83A3A3A3A3A3126C0570731261EF
:10549300C58E828F83A3A3A3A3A3A3E05418604D57
:1054A30090318DE4938E828F83A3A3A3A3F0741012
:1054B300120B7E1278A97412120B7E125558EA65EC
:1054C3000A7003EB650B6012EA6C7002EB6D600A05
:1054D300EA650E7003EB650F701B780E1208DFAAE6
:1054E3000AAB0B1211C174021208BC800890037539
:1054F300126E97A3F074FE6A700374FF6B601E80D4
:1055030051A3A3A3E06403602A8E828F83A3A3A382
:10551300A3A3E0640470067AFE7BFF80358E828F3E
:1055230083A3A3A3A3A3E0640270089003C2E0646F
:105533000270127907AA08AB09120EFDE96006AAE8
:1055430008AB09800DAA08AB099003571262371202
:105553000515023DDEE0F50EA3E0F50F2274F71208
:10556300039DEAFEEBFF120C9FE9700AEEFAEFFBD4
:10557300120CABE96006EEFAEFFB80047AFE7BFFC8
:10558300024DF774EE12039D8A0A8B0B8C0C8D0D62
:10559300890E7508001210BFE9790060030256EC0A
:1055A300AA0AAB0B120ED3A90E120EC78A108B11C7
:1055B300AE10AF11EE4F60198E828F83A3A3A3A306
:1055C300A3E0640270529003C2E0640270030256C7
:1055D300EAAA0AAB0B126234120515120CB18A1037
:1055E3008B11A810A911E84970030256EA88828931
:1055F30083A3A3A3A3A3E0A2E040030256EA750991
:1056030001A2E1504B7901AC0AAD0BAA0CAB0D1210
:105613000E25E970470256EA8E828F83A3A3A3A3C4
:10562300A3E0640360258E828F83A3A3A3A3A3E0D7
:10563300640160030256EA79078E828F83A3A31263
:1056430061C5120EFDE960030256EA750902801076
:1056530088828983A3A3A3A3A3D2E1F0EE4F603A88
:105663008E828F83A3A3A3A3A3A3E05418602B75F7
:1056730008018E828F83A3A31206CC7510FE7511C9
:10568300FF78101208DF7900AC0AAD0BAA0CAB0D42
:10569300120EDF74041208BC804D7900AA0CAB0D06
:1056A300120ED38A108B11A810A911900376E0680B
:1056B3007003A3E069701490318EE493FCA90EAAE1
:1056C3000AAB0B120DF5750801801CA909AC0AADD4
:1056D3000BAA0CAB0D120E25E9700C750801A90E6F
:1056E300AA0AAB0B120E7FA90880031208BC7F0A1B
:1056F3000205FD74EB12039D74F012096B8A0C8B87
:105703000D8C088D09751206900403125A8D6017CB
:10571300125A681211AF8A108B11EA451160088A78
:10572300828B83A3E06068E50C241DF50EE4350D40
:10573300F50F850E82125C84F51488828983A3A3F6
:10574300A3E0FA88828983A3A3A3A3E0F8E4C8F9BA
:10575300EA28FEE439FFAA08AB09120E85850E82FA
:10576300850F83125A6FE029F50BE50AA2E5500372
:1057730075120E7487550A700F7418550A641860F1
:1057830007125A526512600C7AD37B0012216F798B
:1057930000025A3C530A78C3EE94F8EF94FF502466
:1057A3007900EEFAEFFB120EC78A0E8B0FA80EA933
:1057B3000FE849600F88828983A3A3A3A3A3A3E06F
:1057C300541870CB78081208DF7D00AC0BA91412B3
:1057D3005A99120E8B74021208BCE9F874036860BC
:1057E300AE7425120B7E1276ED60030258B3741863
:1057F300550A700302596EE50AD2E0F50AA2E45095
:1058030004D2E1F50AA90A125A99120EC78A128B19
:1058130013A812A913E849605C88828983A3A3A310
:10582300A3A3A3E05418604D88828983A3A3A3A3F1
:10583300A3E06401703FE510451160391278A68832
:10584300828983A3A31261C51211AF8A128B13A895
:1058530012A913E849601E88828983A3E060168534
:105863001082851183A3E0FA88828983A3E0C39A17
:105873005003025792E50AF51078101208E3125A02
:1058830093120E4974011208BCE970247C007D0058
:10589300850E82850F8374FFF0125E75A3A3A3E0C8
:1058A3006006125A461278A9A90B125A99120DA72B
:1058B300850E82850F83E0F47003A3E0F4603C90CF
:1058C30003C2E064027003025792125A999003597B
:1058D300126237120515EA65087003EB6509600368
:1058E300025792EEFAEFFB90035912623712051535
:1058F300850E82850F83EAF0A3EBF078081208DFA8
:105903007D01AC0BA914125A99120E8B7402120862
:10591300BCA90AEEFAEFFB120ED38A088B09A8087A
:10592300A909900376E0687003A3E0696003025A53
:105933002EEEFAEFFB120CB18A088B09A808A9090D
:10594300E849606F88828983A3A3A3A3E06401600D
:105953000D88828983A3A3A3A3E064027055AC18C6
:10596300AD19EEFAEFFB120C51805690036FE06015
:1059730014E50AF51078101208E3125A93120E492F
:1059830074011208BCE50AF51078101208E37902D5
:105993007CFE7DFFEEFAEFFB120E4974011208BC88
:1059A300E960030258B3850E82850F8374FFF0A369
:1059B3000258FD12103BEAFCEBFDAA18AB19121FAB
:1059C300F5850C82850D83A3A3A3A3A3A3A3A3E0BF
:1059D3006401700E125A461278A9740812092D1226
:1059E3001FF5125C6C125A5FE04430F50878081218
:1059F30008E374011209258808890978081208DF69
:105A0300740B1209258808890978081208DFE51440
:105A1300F50878081208E37900EEFCEFFD125A99B5
:105A2300120E1F74061208BC025792125C6CF583A7
:105A3300125A6FE50BF012105374101208BC7F0D4D
:105A43000205FDE50C2415F582E4350DF58322E509
:105A53000C2417F582E4350DF583E022F583E0F895
:105A6300124162A322900383125CA022127382A3C9
:105A7300A3A3A3A322E50D75F006A4F8AAF0EAF9FF
:105A830074C128F582740E39F583124DDEE849227C
:105A93007901AC08AD091268D6350D125AA222F568
:105AA30083E0FAA3E0FB2274EE12039D74F0120963
:105AB3006B8A0C8B0DECFAEDFB750F089004031247
:105AC3005A8D60311278A61211AF8A088B09AC087F
:105AD300AD09EC4D601F8C828D83A3E070171264B7
:105AE300DF5001097A027B0012024DE88C828D831C
:105AF300F0A37407F0125C6C125C84F50E88828943
:105B030083125C76E0FAE4CAFBEC2AFEE43BFF88EE
:105B1300828983A3A3125C76A3A3E0FBECF508E4DC
:105B23003BF50988828983A3A3A3A3A3A3A3E0F5D9
