:020000040000FA
:10200000022AF60221F7FFFFFFFFFFFFFFFFFFFF9E
:10201000FFFFFFFFFFFFFFFFFFFFFFFFFFFFFFFFD0
:10202000FFFFFFFFFFFFFFFFFFFFFF02277AFFFF1A
:10203000FFFFFF02266BFFFFFFFFFFFFFFFFFFFF1A
:10204000FFFFFF0227A0FFFFFFFFFFFFFFFFFFFFD4
:10205000FFFFFF022137FFFFFFFFFFFFFFFFFFFF33
:10206000FFFFFFFFFFFFFFFFFFFFFF022645FFFF10
:10207000FFFFFFFFFFFFFFFFFFFFFFFFFFFFFFFF70
:10208000FFFFFF02218BFFFFFFFFFFFFFFFFFFFFAF
:102090009F7D9F7D01FF01010503010F10FEFF667B
:1020A0004F00000000D84D00000000FF000000FFBE
:1020B00000018813000069815A0020FD0002000021
:1020C000373B000000000000093C00000000000059
:1020D0000000000000000000000000000000000000
:1020E00000000000000000000000010000000000EF
:1020F000000006FFFF01010100BB10000000E80323
:10210000FFFF3811E80364006400B8010202000018
:1021100000040502070101051E02051E020A0A014C
:1021200005B80B02803E0102FEFFE8030A0500012C
:102130000001010A1401E0C0E074F212240EA2AF03
:10214000E433F508D2AFAFA7AEA1EE5F541060063E
:102150001238C175A1EFEE5F540860081238C775D8
:10216000A1F78023EEA2E092F0EFA2E082F05017F8
:10217000906198E0F8900905E0C398A2D265D03349
:102180005002E8F075A1FEE5088063C0E074F21229
:10219000240EA2AFE433FED2AF9061A4E0F8759BA9
:1021A00000E59158540860087591F712390F8023A3
:1021B000E59158541060087591EF1239158014E5B7
:1021C00091A2E092F0E8A2E082F05007E0C2E0F0D5
:1021D000123A5F9061A3E0F8E5E9585404600E12EA
:1021E0003A3575E9FB906193E0A2E640F2EEA2E099
:1021F00092AF7F0102246DC0E074F212240EA2AFF0
:10220000E433FED2AF9061A5E0F8E5BF5854046016
:102210000675BFFB123A7780D4C3E498F8E499F9C5
:1022200012225A8026C3E49AFAE49BFBE920E7E9EC
:1022300012225AE498F8E499F922C3E498F8E49950
:10224000F912225AE498F8E499F9C3E49AFAE49B63
:10225000FB22EB20E7CFE920E7E0B90010BB000844
:10226000E88AF084F8AAF022E4FBC8FA22EB702294
:102270007B10C833C8C933C9335007C39AC3DBF2D4
:1022800080069A50012ADBEAC833F4C8C933F4C97E
:10229000FA2275F008E4C833C8C933C933C99AC9EA
:1022A0009B5004C92AC93BD5F0ECFBC833F4C8E401
:1022B000C9FA22080808EAC0E0EBC0E086F0E7A40B
:1022C000FA180986F0E7A42AFA180986F0E7A42A82
:1022D000FA180986F0E7A42AFA1986F0E7A4FBE5C4
:1022E000F02AFA190886F0E7A42BFBE5F03AFA1970
:1022F0000886F0E7A42BFBE5F03AFA18180986F0F7
:10230000E7A4C5F02BFBE43AFA1908E7C5F0C6A428
:1023100026F6E5F03BFBE43AFA1886F0E7A4F6E58A
:10232000F00826F6E43B08F6E43A08F6D0E0FBD0E5
:10233000E0FA22E4CFC0E0E4CEC0E0E4CDC0E0E4C7
:10234000CCC0E075F020E626F608E633F608E63362
:10235000F608E633F6181818EC33FCED33FDEE33CF
:10236000FEEF33FFC3EC9709ED9709EE9709EF975E
:10237000191919400FFFEC97FC09ED97FD09EE972D
:10238000FE191906D5F0BFECF709EDF709EEF709CC
:10239000EFF7191919D0E0FCD0E0FDD0E0FED0E055
:1023A000FF222518C582C0E0E51934FFC583C0E0CF
:1023B000E518C3958224F810AF0885831985821823
:1023C0008008858319858218D2AFCEF0A3E520F06E
:1023D000A37808E608F0A3DEFAEFF0A3E58124FA7B
:1023E000F8E608F0A3E608F0A3E608F0A30808E67C
:1023F00008F0A3E608F0A315811581D0E0FED0E037
:10240000F8158115811581E8C0E0EEC0E022C0D04A
:102410002518C582C0E0E51934FFC583C0E0E51882
:10242000C3958224F310AF0885831985821880082C
:10243000858319858218D2AFC8F0A3E9F0A3EAF02A
:10244000A3EBF0A37908E709F0A3D8FAECF0A3ED29
:10245000F0A3EEF0A3EFF0A3D0E0F0A3D0E0F0A360
:10246000D0E0F0A3E520F0A3E5F0F0A322851983E6
:10247000851882E0C0E0A3E0F9A3E0FAA3E0FBA3A3
:102480007808E0F608A3DFFAE0FCA3E0FDA3E0FE95
:10249000A3E0FFA3E0C0E0A3E0C0E0A3E0F5D0A389
:1024A000E0F520A3E0A3F5F010AF0885831985823D
:1024B000188008858319858218D2AFD082D083D046
:1024C000E0F8D0E032122B7DB90003022504E4903D
:1024D000030178C1790F8002F0A3D8FCD9FA7AC140
:1024E0007B1190209478A479018015E493A3AD82A8
:1024F000AE838A828B83F0A3AA82AB838D828E8384
:10250000D8E9D9E77582937583B974051228817566
:1025100082877583457400122881E47375F0108EEC
:102520001A8F1B85821F85831E851882851983E07B
:10253000CEA3E0CF851F82851E83EBC9EAC8EDCB11
:10254000ECCAC3E833C8E933C9EA33CAEB33CBC3B7
:10255000EA9EF51DEB9FF51CB35004AB1CAA1DECC5
:1025600033CCED33CDD5F0DAAE1AAF1B22D083D009
:1025700082ECC0E0EDC0E0E493A3FCE493A3FDEDA6
:102580004C600D122688EC24FFFCED34FFFD80EF3B
:10259000E493A3FCE493A3FDED4C600D122725EC1E
:1025A00024FFFCED34FFFD80EFD0E0FDD0E0FCE443
:1025B00093A3C0E0E493C0E022D083D082E9C0E0DE
:1025C000E493A3C386F0C5F095F0F908E493A386DD
:1025D000F0C5F095F0700BE493A3C3994005E904AE
:1025E0008002A3E475F002A42582F582E5F035832C
:1025F000F583D0E0F9E493A3C0E0E493C0E0228542
:102600001983851882E0A3FEE0A3F5207808E0A3F3
:10261000F608DFFAE0A3FFE0A3C0E0E0A3C0E0E03B
:10262000A3C0E0E0A3C0E0E0A3C0E010AF08858253
:10263000188583198008858218858319D2AFD083C5
:10264000D082022887C0E074F212240EE589A2E548
:102650004006E589A2E450031237839005C3E004E5
:10266000F0758900C2C57F0102246DC0E074F212CA
:10267000240EE58BA2E050031237839005C4E004DA
:10268000F0758B00C2E880DEC0E0C3E49396087466
:1026900001939618400FE4936670080874019366DE
:1026A0001870007019A3A3C3E4939608740193965D
:1026B00018A3A3400DD0E0D0E0D0E00225A9A3A349
:1026C000A3A3A3A3D0E0227404800474028000CCEE
:1026D000C0E0EDC0E0E518C39CCCAD1950011D1061
:1026E000AF068C188D1980068C188D19D2AF122761
:1026F000E5D0E0FDD0E0FC2274028000CCC0E0ED2B
:10270000C0E0E518C39CCCAD1950011D10AF068C7C
:10271000188D1980068C188D19D2AF1227C3D0E0FE
:10272000FDD0E0FC22C0E0C0F088F0E493667008C1
:102730000874019366187000A8F0A3A3700BD0F082
:10274000D0E0D0E0D0E00225A9A3A3D0F0D0E022D1
:10275000D083D082CCC0E0E493A360061228251475
:1027600070FAE493A360061229531470FAD0E0FCC7
:10277000E493A3C0E0E493C0E022C0E0C0D0E8C08E
:10278000E0E9C0E0A9A8D2AFC2C7E9A2E7E433F804
:10279000E9A2E792AFD0E0F9D0E0F8D0D0D0E032B3
:1027A000C0E074F212240EA2AFE433FED2AFC2C076
:1027B000E5D1A2E45003123831EEA2E092AF7F01DE
:1027C00002246DCAC0E0E493A3C582CCC582C58350
:1027D000CDC583F0A3C582CCC582C583CDC583DAC0
:1027E000E5D0E0CA22CAC0E0E0A3C582CCC582C55C
:1027F00083CDC583F0A3C582CCC582C583CDC583F7
:10280000DAE6D0E0CA22C008C3E096F50808A3E0E3
:1028100096420808A3E096420808A3E0964508708F
:1028200001D3D00822C0E0E493A3D39C5010E493DA
:10283000A3C39C400AD0E0D0E0D0E002276DA3A360
:10284000A3D0E0227009080808226016181818C6DC
:10285000C333C608C633C608C633C608C633C6D592
:10286000E0EA22C5822518C582C583351910AF0755
:10287000F5198582188007F519858218D2AFC583AE
:1028800022C09FF59FE473D09F22D083D082C09F47
:10289000E493C0E0740193C0E0740293F59F222595
:1028A00018F58210AF08F518400C15198008F518B6
:1028B00040021519D2AF8519832200C0D025181007
:1028C000AF08F518500C05198008F51850020519C5
:1028D000D2AFD0D0227404800A74038006740280C0
:1028E000027401C0E0F40412289FD0E0122B3322BE
:1028F000BB0102E722C082C08389828A83BB0003B6
:10290000E08002E493D083D082226016080808C6D3
:10291000C313C618C613C618C613C618C613C6D521
:10292000E0EA222518F8E43519F9222518FAE435E9
:1029300019FB222518FCE43519FD22C3E0C696F6E2
:1029400008A3E0C696F608A3E0C696F608A3E0C67C
:1029500096F622C0E0E493A36C7009D0E0D0E0D0FA
:10296000E002276DA3A3D0E022251810AF08F518C8
:10297000400C15198008F51840021519D2AF22E055
:1029800066701008A3E066700A08A3E06670040889
:10299000A3E06622E76670100809E766700A080976
:1029A000E76670040809E76622C3E09608A3E0968C
:1029B00008A3E09608A3E096A2D265D03322C3E034
:1029C00096F008A3E096F008A3E096F008A3E0963E
:1029D000F022C3E697F60809E697F60809E697F6A7
:1029E0000809E697F622C3E49396087401939608C3
:1029F00074029396087403939622E627F60809E674
:102A000037F60809E637F60809E637F622E026F633
:102A100008A3E036F608A3E036F608A3E036F6226F
:102A2000700422600D18C6C333C608C633C6D5E08D
:102A3000F41822E046F008A3E046F008A3E046F0D0
:102A400008A3E046F022E657F60809E657F608091B
:102A5000E657F60809E657F622E056F608A3E056D0
:102A6000F608A3E056F608A3E056F622E056F00872
:102A7000A3E056F008A3E056F008A3E056F022E0E9
:102A800026F008A3E036F008A3E036F008A3E0360D
:102A9000F022E647F60809E647F60809E647F60891
:102AA00009E647F622E4C396F608E496F608E496AB
:102AB000F608E496F622600D08C6A2E713C618C60B
:102AC00013C6D5E0F322C6F4C608C6F4C608C6F499
:102AD000C608C6F4C622C3E7960809E7960809E7C0
:102AE000960809E79622C3E09608A3E09608A3E0BB
:102AF0009608A3E0962275D00075813F7518017580
:102B00001903000224C5600C08C6C313C618C613F7
:102B1000C6D5E0F422E6F008A3E6F008A3E6F00844
:102B2000A3E6F022E0F608A3E0F608A3E0F608A387
:102B3000E0F622CAC0E0E6F0A308DAFAD0E0FA2212
:102B4000C5822518C582C5833519C58322E8F0A33F
:102B5000E9F0A3EAF0A3EBF022E0F8A3E0F9A3E0A8
:102B6000FAA3E0FB22EAF0A3EBF0A3ECF0A3EDF074
:102B700022E0FAA3E0FBA3E0FCA3E0FD22E5C754BA
:102B8000F84401F5C77901222518F582E43519F5D5
:102B90008322C2AF75D69F0200002212288A4FB04E
:102BA0000312288A62B30312288A71B30312288A97
:102BB000FDB30312288AB3B40312288AFAB40312AD
:102BC000288A43B50312288AC6B50312288AE2B5BB
:102BD0000312288AE3B60312288A74B90312288ADA
:102BE000CDBA0312288A60BB0312288AEABB0312FB
:102BF000288A50BC0312288A8FBC0312288A05BD7C
:102C00000312288A5ABE0312288AFDBE0312288A9C
:102C100015BF0312288AB8BF0312288A42C20312C2
:102C2000288AE3C30312288A01C40312288A008079
:102C30000212288A5A800212288AC4800212288A24
:102C40004D810212288A09820212288A9882021271
:102C5000288AB1820212288AD6820212288A148314
:102C60000212288A63830212288A8C830212288A1D
:102C7000DB830212288A87840212288A4F85021277
:102C8000288AB4850212288A81860212288AC78679
:102C90000212288AE3860212288A15870212288ADD
:102CA000BD880212288A94890212288AC0890212D9
:102CB000288AF4890212288A158A0212288A248A0C
:102CC0000212288A2F8A0212288AE38A0212288A8C
:102CD000568B0212288AC88B0212288AD08B0212C5
:102CE000288AF38C0212288A268D0212288AE88DFF
:102CF0000212288A978E0212288ADF8E0212288AF0
:102D0000418F0212288A528F0212288ACA8F021219
:102D1000288A52900212288AB6900212288A9B9121
:102D20000212288ACC910212288ADF910212288A84
:102D300052920212288A9A920212288AA7920212AA
:102D4000288AB0920212288AB0940212288AFA9530
:102D50000212288A0A960212288A19970212288AD1
:102D600092970212288AD4970212288A1098021287
:102D7000288AE4990212288A499C0212288A5D9CBA
:102D80000212288A679C0212288A719C0212288AE1
:102D90007B9C0212288A949C0212288A9E9C021212
:102DA000288AA89C0212288AB29C0212288ADA9CDD
:102DB0000212288AE59C0212288A2F9D0212288A74
:102DC0003A9D0212288A5E9D0212288A829D021272
:102DD000288AE39D0212288A2E9E0212288A4A9E81
:102DE0000212288AB49E0212288A009F0212288AA0
:102DF000489F0212288AC39F0212288A5DA00212ED
:102E0000288A21A20212288A8FA20212288AC1A32C
:102E10000212288AE7A30212288A57A50212288ADA
:102E20000BA90212288A0BAB0212288AE3AC021209
:102E3000288A7CAD0212288A8EAF0212288A50B0EE
:102E40000212288A9CB00212288A02B10212288A31
:102E500014B10212288A64B30212288A91B40212B1
:102E6000288AE3B40212288A88B50212288A43B756
:102E70000212288A74B80212288A92B80212288A8A
:102E8000E7B80212288AE5B90212288A0DBA02129E
:102E9000288A70BA0212288A71BB0212288AE4BBFF
:102EA0000212288A12BD0212288A7DBD0212288AC7
:102EB0006DBE0212288AD3C00212288A01C10212F2
:102EC000288AFCC10212288A9AC30212288AEAC3FD
:102ED0000212288AA2C40212288A57C50212288A1E
:102EE000BBC50212288A74C60212288A14C70212AD
:102EF000288A78C70212288AC2C70212288AFFC706
:102F00000212288A67C90212288A43830112288A7A
:102F10007B830112288A54860112288A9A8601121C
:102F2000288AB7870112288A1C880112288A6D898D
:102F30000112288A5E8C0112288A7D8D0112288A4E
:102F400052980112288AF1980112288AE49B0112F2
:102F5000288AE49C0112288A5A9D0112288A979E89
:102F60000112288A00A10112288A0EA30112288AC0
:102F70009BA30112288A6FA40112288AFBA40112C4
:102F8000288A05A50112288A2EA50112288ADBA508
:102F90000112288AC6A60112288A9EA70112288A31
:102FA00002A80112288A2BA80112288A58A8011207
:102FB000288AA9AA0112288A84AB0112288AC8ABE0
:102FC0000112288A39AC0112288AF2AC0112288A2F
:102FD00024AD0112288A6BAD0112288A9EAD011220
:102FE000288A03AE0112288A52AE0112288A57AEEF
:102FF0000112288AABAE0112288AF5AE0112288A86
:10300000F1AF0112288A56B00112288ABDB0011210
:10301000288AE2B30112288AB6B40112288A20B69F
:103020000112288AFAB80112288AA2B90112288A44
:10303000C9BB0112288A6EBC0112288AACBC0112DD
:10304000288A85BE0112288A98BE0112288AA1BE4C
:103050000112288AAABE0112288ABFBE0112288A3C
:10306000DEBE0112288ABDC00112288A10C10112D9
:10307000288A1AC10112288A3BC10112288A8AC2F1
:103080000112288AD3C20112288AB3C30112288AE6
:10309000DEC40112288A94C50112288A96C601123C
:1030A000288A98C70112288A7EC80112288A95C8E2
:1030B0000112288AD2C80112288ADCC80112288A83
:1030C000E7C80112288A05C90112288A47C90112D6
:1030D000288AA5C90112288ACAC90112288AE4C906
:1030E0000112288A71CA0112288AAACA0112288AE2
:1030F000F8CB0112288A4ACC0112288A64CD011229
:10310000288A8BCD0112288A27CE0112288AA3CEC5
:103110000112288AEFCF0112288A0AD10112288AC7
:10312000D0D10112288A7AD20112288AFFD2011244
:10313000288A67D30112288A1CD40112288A6ED4E7
:103140000112288AD4D40112288A9DD50112288A16
:10315000C0D50112288A78D60112288A9CD601127D
:10316000288ABED60112288A1FD70112288A6AD956
:103170000112288A45DA0112288AEFDA0112288A18
:1031800030DD0112288A7EDD0112288AC1DD01129C
:10319000288A19DE0112288A77DE0112288AA1DE28
:1031A0000112288AC5DE0112288AF6DE0112288A59
:1031B00020DF0112288A67DF0112288ABBDF011293
:1031C000288A17E00112288A18E10112288A82E26F
:1031D0000112288AC0E20112288AE9E20112288A33
:1031E0007AE30112288AC4E30112288AE8E3011273
:1031F000288A3BE40112288A56E40112288A11E544
:103200000112288A3BE50112288A7EE50112288AEC
:10321000D4E50112288AE0E80112288A13E9011294
:10322000288AD0E90112288AABEA0112288A3BEBEE
:103230000112288A7CEB0112288AFEE60412288AF1
:1032400036E70412288A57E70412288A99E70412FD
:10325000288AFDE70412288A07E80412288A17E85A
:103260000412288A4EE80412288AF7EB0412288AEE
:10327000BFED0412288AB3EF0412288A51F0041219
:10328000288AD8F00412288A87C40312288A30C5F5
:103290000312288A0FC60312288A2AC70312288A13
:1032A0004AC70312288A6CC80312288A09CA031263
:1032B000288A76CA0312288A4CCB0312288A52CC59
:1032C0000312288AB7CC0312288AF3CC0312288A67
:1032D0004CCD0312288A85CD0312288ACECD031245
:1032E000288A60CE0312288AFDCE0312288AD2CF04
:1032F0000312288A9FD00312288A2CD10312288A0D
:1033000052D10312288A7FD10312288AB0D1031226
:10331000288A85D20312288A95D20312288AE8D2F5
:103320000312288AF5D20312288A02D30312288AAC
:103330000BD30312288A6FD30312288ACDD303122A
:10334000288A18D40312288A33D40312288A5AD41C
:103350000312288A77D40312288A83D40312288A76
:1033600027D60312288A40D60312288ABCD6031215
:10337000288ACFD60312288ADFD60312288A85D757
:103380000312288AF5D80312288A08DA0312288A39
:10339000A8DA0312288AB2DA0312288A20DB031281
:1033A000288A31DB0312288A70DB0312288A9EDB0D
:1033B0000312288A6BDC0312288AC2DC0312288AD3
:1033C00007DD0312288A5DDD0312288A7BDD0312E4
:1033D000288AC9DD0312288A97DE0312288AE5DECF
:1033E0000312288A27DF0312288AAADF0312288AF9
:1033F000D4DF0312288A0AE00312288A19E0031294
:10340000288A77E00312288AEFE00312288A30E145
:103410000312288A7FE10312288AAAE10312288A6C
:10342000C4E10312288ADEE10312288AB3E2031200
:10343000288ABDE20312288AF8E20312288A08E3E8
:103440000312288A59E30312288A6DE30312288A9B
:103450008BE40312288AA0E40312288A3AE50312B7
:10346000288AB9E50312288A5CE60312288A67E6EF
:103470000312288AB4E70312288AD0E70312288AA5
:1034800028E80312288A96E80312288AE2E8031241
:10349000288AFCE80312288A5CE90312288AFAE9E0
:1034A0000312288A45EA0312288AA8EC0312288A04
:1034B00040ED0312288AB7ED0312288AFDEF0312AC
:1034C000288A15F00312288A18F00312288A24F09B
:1034D0000312288A38F00312288A40F00312288A3F
:1034E00077F00312288A6BF10312288AF5F1031290
:1034F000288A77F20312288AECF20312288AC4F38E
:103500000312288AE6F30312288A7DF40312288A1C
:1035100089F40312288AE6F40312288AE9F40312D4
:10352000288A58F50312288AA4F60312288AB7F7C6
:103530000312288A42F80312288A55F90312288AAE
:103540001FFA0312288A50FA0312288A76FA031205
:10355000288A7FFA0312288AAEFA0312288A5EFBB1
:103560000312288A0EFC0312288A81FC0312288A7F
:1035700033FD0312288AA6FD0312288AE5FD0312F3
:10358000288A2EFE0312288A9EDB0412288A09DC70
:103590000412288A55DC0412288AA5DC0412288A21
:1035A00029DD0412288A6DDF0412288A8BE10412B7
:1035B000288A0BE50412288A46E50412288A64E565
:1035C0000412288AC4E50412288AECE50412288A29
:1035D0001DE60412288A4AE60412288AB3E6041279
:1035E000288A9BB60412288A17B70412288A43B780
:1035F0000412288A75B70412288AD7B80412288AB8
:10360000F3B80412288A31B90412288ABEB9041208
:10361000288A1ABA0412288AE0BA0412288A9FBBA0
:103620000412288AE4BB0412288A45BC0412288AA2
:10363000BABC0412288AE3BC0412288A24BD0412EE
:10364000288ACBBE0412288AAFBF0412288A66C01B
:103650000412288A53C10412288A8DC10412288AB0
:10366000E5C10412288A07C20412288A9FC20412E4
:10367000288A46C30412288ADAC90212288A84CA10
:103680000212288A9FCE0212288AF4CF0212288AB8
:103690000BD10212288AC7D20212288A64D30212DE
:1036A000288ACCD30212288AF5D30212288A28D479
:1036B0000212288A36D40212288A44D40212288A96
:1036C0006AD40212288AD7D40212288A63D5021239
:1036D000288A16D70212288A96D70212288ADBD89F
:1036E0000212288A6ED90212288AF3D90212288A75
:1036F000E4DA0212288A23DC0212288A53DC02123E
:10370000288A7CDC0212288A55DE0212288AADDF64
:103710000212288A46E10212288A24CA0512288A3F
:1037200035CA0512288AD3CA0512288AD2C20512C0
:10373000288AE0C20512288AE87F0012288A8DCBE9
:103740000512288A9DCB0512288AB8CB0512288A33
:1037500020CC0512288AFDFE0212288A81FF02125F
:10376000288AE7FF0212288A63FE0312288A92FE43
:103770000312288A07FF0312288A0AFF0312288AE5
:1037800061FF0312288AB7FF0312288A7489051281
:10379000288A81890512288ACC890512288AEB8912
:1037A0000512288A198A0512288A3E8A0512288A53
:1037B000708A0512288A928A0512288AD18B0512EE
:1037C000288AC98C0512288AA48D0512288AE3A2AA
:1037D0000312288A748E0512288ABE8E0512288A42
:1037E000D88E0512288A578F0512288AEBA5051254
:1037F000288AF9A50512288A72A60512288A47A7E1
:103800000512288A06A90512288A99CD0512288A48
:10381000BBFA0112288A29FB0112288AE9FB01124E
:10382000288A5DFC0112288A54FD0112288AC7FEED
:103830000112288A2CFF0112288A9CAD0312288AC3
:103840008DFF0112288A9CFF0112288AB2FF011203
:10385000288AC5FF0112288ACEFF0112288A5A8FB2
:103860000512288A868F0512288A2C920512288A2A
:1038700083920512288ABF920512288AD3920512D4
:10388000288AEC920512288ADD930512288AB994B9
:103890000512288ACD940512288A5EC10512288A4D
:1038A00082C10512288A9BC10512288AD9C1051236
:1038B000288A0FC20512288A42C20512288AAEC27F
:1038C0000512288AB1C20512288ABBC20512288AAD
:1038D000C8C20512288AEEB10512288A11B2051253
:1038E000288A5CB20512288A7AB20512288A95B213
:1038F0000512288AFBB20512288A07B30512288A06
:1039000064B30512288A88B30512288A4EB40512BA
:10391000288A5BB40512288A6CB40512288A58CD0F
:103920000512288A70CD0512288A96CD0512288A9C
:10393000ED990512288A839B0512288A919B05120E
:10394000288AA59B0512288AC29B0512288AD79B24
:103950000512288AEA9B0512288A6C9C0512288A7F
:10396000D19C0512288A679D0512288A409E05125F
:10397000288A509E0512288A5F9E0512288AF4CA5A
:103980000512288A18CB0512288A40CB0512288AEE
:1039900068CB0512288A1AAF0512288A86AF05124D
:1039A000288AA5AF0512288A1AB00512288A4BACBE
:1039B0000512288A64AC0512288A7BAC0512288A75
:1039C00084AC0512288AA2AC0512288AACAC051278
:1039D000288AB6AC0512288AC9AC0512288A5CADC3
:1039E0000512288ACBAD0512288AF9AD0512288A5E
:1039F0004AAE0512288A96AE0512288AB1AE051283
:103A0000288ABBAE0512288ACCAE0512288A0FAFD1
:103A10000512288A9D7F0012288A00800512288AB4
:103A20002C800512288A4F800512288A6280051290
:103A3000288A7D800512288ADD800512288A0B815C
:103A40000512288A0F850512288A4C860512288AB5
:103A50007E860512288AE5860512288A6588051261
:103A6000288A8D880512288AA2880512288AB28899
:103A70000512288AF2880512288A34890512288AB4
:103A800044890512288A8EC50512288A9EC505120A
:103A9000288AC2C50512288AEBC50512288A15C6D0
:103AA0000512288A39C60512288A50C60512288AA6
:103AB0007EC60512288AA1C60512288A14CD0512D1
:103AC000288A5DA20512288A6DA20512288A89A378
:103AD0000512288ABBA30512288AE1A30512288AA9
:103AE00009A40512288A1BA40512288A57A40512C6
:103AF000288ABDA40512288AF9A40512288A3EA5A1
:103B00000512288A6BA50512288A97A50512288A0E
:103B100041C40512288A5FC40512288AC1C405124F
:103B2000288A79C50512288A30C90512288ABEBF9D
:103B30000512288A0FC10512288A766C0012288A7D
:103B4000E16F0012288A0A700012288A2A70001277
:103B5000288A3E700012288A9A700012288ABE7045
:103B60000012288A39720012288A61730012288A8A
:103B70003B740012288A98740012288ACE740012AE
:103B8000288A4B750012288AA4750012288AC575E8
:103B90000012288A47760012288A7C760012288A2A
:103BA000DF760012288AA1780012288A6D79001227
:103BB000288AA5790012288AA8790012288ABC7957
:103BC0000012288A107A0012288A9E7A0012288A07
:103BD000FC7A0012288AF3BD0512288A14BE051249
:103BE000288A47BF0512288A71BF0512288A9AB40D
:103BF0000512288A0EB50512288A19B50512288AD9
:103C00003AB50512288A3DEC0112288A40EC0112CF
:103C1000288A12ED0112288A4EED0112288A8EEDB3
:103C20000112288AC0ED0112288AEEED0112288ABD
:103C30002BEE0112288A59EE0112288A57EF011241
:103C4000288A9EEF0112288AE0EF0112288A59F093
:103C50000112288AF6F00112288A19F10112288A25
:103C600083F10112288AF1F20112288AA9F30112C4
:103C7000288A96F40112288A83F50112288A3CF6D4
:103C80000112288A71F60112288ADDF60112288AAB
:103C900078F70112288AA6F70112288A4EF9011234
:103CA000288ACCF90112288A0CFA0112288A9CCFA2
:103CB0000412288A30D00412288A54D00412288A88
:103CC00077D10412288A71D20412288A15D30412DB
:103CD000288A6ED40412288AACD40412288ABDD44F
:103CE0000412288AB8D50412288AC3D70412288A55
:103CF000FCD70412288A9AD80412288AD3D804122E
:103D0000288A19D90412288A79D90412288ABFD995
:103D10000412288AEADA0412288A11DB0412288A9B
:103D2000C4BB0512288AE7BB0512288AD7BC051236
:103D3000288AC3BD0512288AD9C60512288A0FC74A
:103D40000512288A2BC70512288A6DC70512288AF2
:103D50007DC70512288A10C80512288A1AC80512BC
:103D6000288A84F10412288A8EF10412288AD5F157
:103D70000412288A3EF20412288A5FF20412288A6A
:103D800078F20412288A2AF30412288A94F504127D
:103D9000288A9DF50412288AEEF50412288A24F652
:103DA0000412288A3BF60412288AA8F60412288AEC
:103DB00038F70412288A6EF70412288AB7F704121B
:103DC000288A18F80412288A52F80412288ABAF8A5
:103DD0000412288A0DF90412288A50F90412288A3C
:103DE0008DF90412288A9FF90412288AB1F9041265
:103DF000288AD0F90412288AD9F90412288A9EFA4E
:103E00000412288AEAFA0412288A28FB0412288A53
:103E1000E1940512288A27960512288A50960512E1
:103E2000288A61960512288A79980512288A999815
:103E30000512288A2ACC0512288A4FB70512288A2B
:103E400085B70512288AD4B70512288A30B9051219
:103E5000288A7F940412288ABD950412288AF9952D
:103E60000412288AC8970412288AF2970412288A12
:103E7000899A0412288AC99A0412288A5F9C04121B
:103E8000288AF49C0412288A529D0412288AD89DFC
:103E90000412288A109E0412288A529E0412288A2C
:103EA000C39F0412288A47A10412288A70A304120F
:103EB000288A9EA30412288ACAA30412288AD3A39C
:103EC0000412288A29A40412288AB9A40412288A70
:103ED000BCA70412288A3EA80412288A5DCE0512C7
:103EE000288A73CE0512288A927B0012288AAB7B1F
:103EF0000012288A507C0012288A907C0012288A9E
:103F0000A97C0012288ADC7C0012288A297D0012F4
:103F1000288A5D7D0012288A9F7D0012288A887F6A
:103F20000012288A93C30412288A6CC40412288AB7
:103F3000FBC40412288A8CC60412288A07C70412FC
:103F4000288A8EC70412288AD8C70412288A00C873
:103F50000412288A3AC80412288AE7C80412288A58
:103F6000BFC90412288ACDC90412288A1DCA0412A6
:103F7000288A5CCB0412288A58CD0412288A8DCE58
:103F80000412288AE8CE0412288AF2CE0412288A63
:103F900022CF0412288A1DC80512288A8FC805124C
:103FA000288ACDC80512288A0EC90512288A075109
:103FB0000012288A62510012288AEF510012288AC2
:103FC000F7520012288AD1530012288A785400121E
:103FD000288AC4540012288A1D550012288A725556
:103FE0000012288AE1550012288AF9550012288A01
:103FF00092580012288A15590012288A4C5900122A
:10400000288A95590012288A815B0012288AFC5B55
:104010000012288ACF5C0012288A085D0012288AC4
:10402000275D0012288A725D0012288A885D0012BE
:10403000288A955D0012288ACE5D0012288AE05DEC
:104040000012288AAD5E0012288AB85E0012288A03
:10405000085F0012288A5B5F0012288A9A5F0012AC
:10406000288AB8600012288A10630012288A4163E7
:104070000012288A4D640012288A71640012288A6E
:10408000DD640012288A13660012288A5566001221
:10409000288ABF660012288A73670012288A9D67E3
:1040A0000012288AA7670012288AB1670012288A9E
:1040B000B4670012288A2C680012288A65680012EA
:1040C000288A78680012288AA5680012288AE06881
:1040D0000012288AE3680012288A12690012288ACE
:1040E0002C690012288A47690012288A7669001212
:1040F000288A96690012288AD3690012288A0E6AD3
:104100000012288A176B0012288A7ACC0512288A96
:1041100092CC0512288AFB7F0012288A9AF7021295
:10412000288AE9F70212288AA7F90212288A7BFB5B
:104130000212288AB9FB0212288AC4FC0212288AB9
:10414000CEFD0212288AF0FD0212288A4CFE0212CD
:10415000288ACDFE0212288A62E10212288A85E1AD
:104160000212288A73E30212288ABCE30212288A08
:1041700017E40212288A75E40212288AC6E40212A1
:10418000288A2BE50212288AB2E50212288A2AE63A
:104190000212288A6FE60212288ADEEA0212288AB0
:1041A0000EED0212288A47ED0212288A86ED0212CD
:1041B000288AE8EE0212288AEBEE0212288AB2EF71
:1041C0000212288AFDF00212288A03F30212288ABA
:1041D000AFF30212288ABFF40212288A2FF50212C6
:1041E000288A73F60212288AD6F60212288A0080DC
:1041F0000412288A9B800412288A0E810412288ABD
:104200001E810412288AA6810412288A02820412BE
:10421000288A3D830412288A61830412288AD8835D
:104220000412288A29840412288A87840412288A7E
:10423000E2840412288A8F870412288A868804124E
:10424000288AFC880412288AD38A0412288A768B4A
:104250000412288A2F8C0412288A948C0412288A2B
:10426000038D0412288A268E0412288AEC8F0412E9
:10427000288A0C910412288A99910412288A09929A
:104280000412288A1B930412288A9BA80412288AE5
:1042900004A90412288A4CA90412288A9FA904128E
:1042A000288A05AA0412288A67AA0412288ADCAA86
:1042B0000412288A13AC0412288A3BAC0412288A00
:1042C00027AD0412288A38AD0412288A50AD041292
:1042D000288A43AE0412288A72AE0412288A30AFAC
:1042E0000412288A54AF0412288A6BAF0412288A59
:1042F00085AF0412288AA9AF0412288A83B0041259
:10430000288ADDB00412288AC4B10412288A2AB28D
:104310000412288A63B20412288A68B20412288A16
:10432000B3B20412288AB5B30412288AA0B40412C6
:10433000288A42B50412288AAFB50412288AC4B567
:104340000412288A65B60412288A6BA90512288AE5
:104350001EAA0512288ADDAA0512288A45AB051275
:10436000288AB9AB0512288A909E0512288AAE9E2B
:104370000512288AF29E0512288A189F0512288A9B
:104380003A9F0512288A529F0512288A6A9F0512B1
:10439000288A829F0512288A2CA00512288A6EA0DE
:1043A0000512288A78A00512288A8DA10512288A6C
:1043B00096A10512288A9FA10512288AA8A1051294
:1043C000288AB2A10512288A54FB0412288A80FF89
:1043D0000412288A8EFF0412288A93FF0412288A66
:1043E000B8BA0512288A7DCE0512288AC8CC0512D3
:1043F000288A08CE0512288AD1CD0512288A34CE03
:104400000512288AE1FF0112288AB3A20312288A22
:1044100077A20312288A63A20312288A4FA20312EA
:10442000288A8CA10312288AD9A00312288A889E80
:104430000312288A5D9E0312288AFE9D0312288A91
:104440006F9C0312288AFD9B0312288AC09B0312CB
:10445000288A559B0312288A1A9B0312288AB0992E
:104460000312288A36990312288A73980312288A1D
:1044700069970312288A20970312288AFA96031252
:10448000288A36960312288A80940312288A209458
:104490000312288AF1930312288AEE930312288AC2
:1044A00063AC0312288A84AB0312288AB0A90312D2
:1044B000288A71A70312288A10A70312288AB7A690
:1044C0000312288A3EA60312288AD9930312288A47
:1044D00096930312288A7D930312288A85920312E9
:1044E000288A14A60312288A44920312288A119259
:1044F0000312288AA5910312288A72910312288A2E
:1045000017910312288AD6A50312288AE69003126F
:10451000288A81A50312288A84FF0112288AAF8D78
:104520000312288AC18C0312288A7B8B0312288AE3
:10453000278B0312288A1B8B0312288A828A031274
:10454000288A50890312288AAB860312288A4E844F
:104550000312288A02840312288AE7820312288A17
:104560007C820312288AA4810312288A6B8003129A
:10457000288A7CA40312288A32800312288A0080A9
:104580000312288AD68D0500000080FB0000000081
:10459000000000000000000000000000000000F823
:1045A00000000000000000333000000000100C0686
:1045B000100C0600000000000000000040C0784021
:1045C000C0784000043F04043F040400007088FCED
:1045D00008300000001820FF211E0000F008F00045
:1045E000E018000000211C031E211E0000F00888B6
:1045F000700000001E2123241927211010160E0020
:10460000000000000000000000000000000000E0CA
:1046100018040200000000071820400000020418DF
:10462000E00000000040201807000000404080F03B
:10463000804040000202010F01020200000000F071
:10464000000000000101011F010101000000000045
:104650000000000080B070000000000000000000BA
:104660000000000000010101010101010000000043
:1046700000000000003030000000000000000000DA
:1046800080601804006018060100000000E01008B7
:104690000810E000000F102020100F00001010F88C
:1046A000000000000020203F2020000000700808CB
:1046B000088870000030282422213000003008884B
:1046C000884830000018202020110E000000C02073
:1046D00010F8000000070424243F240000F8088894
:1046E000880808000019212020110E0000E0108821
:1046F00088180000000F112020110E000038080853
:10470000C83808000000003F000000000070880862
:1047100008887000001C222121221C0000E01008E3
:104720000810E0000000312222110F00000000C03C
:10473000C0000000000000303000000000000080D9
:1047400000000000000080600000000000008040C9
:1047500020100800000102040810200040404040E2
:104760004040400004040404040404000008102035
:10477000408000000020100804020100007048087A
:104780000808F0000000003036010000C030C828E2
:10479000E810E0000718272423140B000000C0389D
:1047A000E0000000203C23020227382008F8888817
:1047B00088700000203F202020110E00C030080823
:1047C00008083800071820202010080008F80808FA
:1047D0000810E000203F202020100F0008F88888F3
:1047E000E8081000203F20202320180008F88888BF
:1047F000E8081000203F200003000000C030080837
:104800000838000007182020221E020008F80800BF
:104810000008F808203F210101213F20000808F886
:10482000080800000020203F2020000000000808A9
:10483000F8080800C08080807F00000008F888C069
:1048400028180800203F20012638200008F808001A
:1048500000000000203F20202020300008F8F80051
:10486000F8F80800203F003F003F200008F830C063
:104870000008F808203F200007183F00E010080853
:104880000810E0000F10202020100F0008F8080882
:104890000808F000203F210101010000E010080895
:1048A0000810E0000F18242438504F0008F88888BA
:1048B00088887000203F2000030C3020007088089A
:1048C000080838000038202121221C00180808F8A8
:1048D000080818000000203F2000000008F8080029
:1048E0000008F808001F202020201F0008788800FA
:1048F00000C83808000007380E010000F80800F86A
:104900000008F800033C0700073C03000818688013
:104910008068180820302C03032C30200838C80089
:10492000C83808000000203F2000000010080808D8
:10493000C83808002038262120201800000000FE7A
:10494000020202000000007F40404000000C30C026
:1049500000000000000000010638C0000002020252
:10496000FE000000004040407F0000000000040204
:10497000020204000000000000000000000000002F
:10498000000000008080808080808080000202041F
:104990000000000000000000000000000000808017
:1049A000808000000019242222223F2008F8008085
:1049B00080000000003F112020110E000000008048
:1049C00080800000000E11202020110000000080D7
:1049D0008088F800000E112020103F200000808009
:1049E00080800000001F222222221300008080F01D
:1049F000888888180020203F202000000000808048
:104A000080808000006B94949493600008F800808C
:104A100080800000203F210000203F2000809898E7
:104A2000000000000020203F202000000000008047
:104A30009898000000C08080807F000008F8000087
:104A400080808000203F24022D302000000808F8DC
:104A5000000000000020203F202000008080808097
:104A600080808000203F20003F20003F8080008029
:104A700080800000203F210000203F200000808037
:104A800080800000001F202020201F0080800080E8
:104A90008000000080FFA12020110E000000008097
:104AA00080808000000E112020A0FF808080800088
:104AB0008080800020203F212000010000008080B5
:104AC000808080000033242424241900008080E0AA
:104AD000808000000000001F202000008080000077
:104AE00000808000001F202020103F208080800058
:104AF0000080808000010E30080601008080008068
:104B0000008080800F300C030C300F00008080008C
:104B1000808080000020312E0E31200080808000B7
:104B20000080808080818E70180601000080808067
:104B3000808080000021302C222130000000000005
:104B4000807C020200000000003F404000000000A6
:104B5000FF00000000000000FF0000000002027CD7
:104B6000800000000040403F0000000000060101FE
:104B700002020404000000000000000087000100A1
:104B80005F122400020031122500020033122600B9
:104B900002003512270002003712280001003912E6
:104BA000290001003A12860001003F122A0001008C
:104BB00040122B00010041122C00010045122D0073
:104BC00008009F112E00010046122F00010047121D
:104BD000300001004812310001004912320001008A
:104BE000A71133000100A811340001004A12360059
:104BF0000100A911380001004B12390001004412D4
:104C000063000100B411640001004212650001005C
:104C100043126D000100B511710008009711660084
:104C200001005C12430001004D12440002004E12CC
:104C300045000100501246000200511247000800D2
:104C4000AC114800010053124B0001005412040043
:104C500001006012A100010063123700010062121E
:104C60008800010061123C000100AA113D00010012
:104C70004C1249000200551267000100B6114D00A8
:104C8000020057124E00010059124F0002005A1242
:104C90003E000100AB11040406007110000000008A
:104CA000000000013636010100010201000103018C
:104CB0000001040106060502000007010034080196
:104CC000000F090401010D0100FF0E08000017028A
:104CD0000000190100FF1A0100011B0100FE1C0168
:104CE00000081D0200001F01000120010001210237
:104CF00000002301000F240200002601000127010B
:104D00000008280200FF2A0100072B0102402C01A5
:104D100000002D0100012E0100012F0100FF3001D4
:104D20000B1C310800003A0100083B01000F3C0158
:104D300000013D0100FF3E04000042040000460463
:104D400000004A0400004E04000052040000560413
:104D500000005A0400005E20FFFF3600010006003C
:104D600000000F0000000000000000000000000034
:104D700003FFFF00000403FFFF0000FFFF0FF4012B
:104D80000005C4040320000100000B000000000027
:104D900000000003010F0000000000000000000000
:104DA0000000000000000000000000000000000003
:104DB00000000000000000000000000000000000F3
:104DC00000000000000000000000000000000000E3
:104DD0000000000000000000010371030103010353
:104DE0000103010301032203020301031003000373
:104DF0000003000300030003000300034203000359
:104E00002403060300030003040312032503230302
:104E100025032303040304030003000300034403E6
:104E2000000300032303000365032100350381030E
:104E3000000305030003000300030003250323030D
:104E400001017101010101011101010131010101A2
:104E500001018001100161013B0014006301730135
:104E60007201620143010001130106013D01350099
:104E7000040112010001000100010001040104010C
:104E8000330133013C0144013201360000010001CD
:104E900065010001350081010001050182018301E6
:104EA000000103027102300160021102700201026E
:104EB000020202028002100261023A004100630213
:104EC00073027202620243020002130238000002FF
:104ED00000020402120200020002000200020402A8
:104EE0000402370037003C0244020002390000028D
:104EF0000002650200023502810200020502820200
:104F000083020002030471040204600411047004AB
:104F100002040204010402041004610400041404E5
:104F2000630473047204620443040004130406045B
:104F3000000400040404120400040004000400043B
:104F4000510464000004000400044404000400044C
:104F500000040004650400043504810464000504B1
:104F6000000483040004030071003001600011009C
:104F70007000310220035004800010006100000026
:104F8000140063007300720062004300000013000D
:104F900006000000000004001200000000000000F5
:104FA000000004000400370037003C024400000009
:104FB00000000000000065000000350081000000D6
:104FC000050000008300000000002D421300C141D5
:104FD00001002D42020073410300794104007F412A
:104FE00005008541060091411100B5411400BB4107
:104FF0001500A3411F00A941FFFF000001432F0638
:105000006D2F08672F0B852F10B92E02492F055BD6
:105010002F074F2F0C2B2F0D372F64F72CFF00007D
:1050200007ECFDFDFDECDCDCCCBCACAC9C9C8C7CD2
:105030007C6C6C5C5C5C4C4C3C3C2C2C1C1C03EA7B
:10504000F5E5D5D5C5B5A595958585757565655580
:105050005545453535252515150500160F00000B5E
:10506000150B020002220F3300000E5A69674265D9
:1050700065416C6C69616E63653039010305070930
:105080000B0D0F00020406080A0C0D30301718191A
:1050900021301B1D1F3000034A49434E181A2505B5
:1050A0000200011916181616182303000C0E020B25
:1050B000040B0A0708000F00393D3F373C3C362CF3
:1050C000442D303016181920231A1C1E30020402F9
:1050D000010101010902E803000000BE040A0E00FC
:1050E000000000003C007F00E8033C000C0A0303C2
:1050F000081000030008FF1E1E050528090104040E
:10510000091015040C080C74F71223A2E99010BBC7
:10511000F09010937402F090108B74FEF0A304F0E2
:1051200012303F123FE11241557A257B1212358B26
:10513000123FDB901224E060097A007B00123FC32B
:1051400080147AFF7BFF123FC37CF47D017B327AAF
:105150000079081237F51240D7123FF31240EF02E0
:10516000665074F71223A274F0122969890812425A
:10517000EDE5086045900338E4F0A3F0A3F0A3F058
:1051800090039FE07034901242E06401702C901103
:10519000B4E06026AC18AD197A627B00124329791D
:1051A00000AA18AB19122BF57900122BFB7C107D8D
:1051B000007900AA18AB19123D719010C012660B4D
:1051C000601B1251E2FEA3E0FF125889123E49EE25
:1051D000F8EFF99010C0126447E84970E5741002C6
:1051E00066419010C0E0F8A3E0F5838882E0227465
:1051F000F21223A2890AEAFEEBFF54807033EEA27A
:10520000E050479012247401125567123DD17C0F73
:105210007B0F9010BEE0FA9010C3E05407F91241E2
:105220005BEE64010252B1123FE7AA08AB09123DDE
:10523000959010BBE0F9123DA78A088B09EA450951
:1052400070E5EEFAEF64800252E654026008123F05
:10525000CFEE6402805BEE542060279010BCE070BB
:1052600010901224E0640670037407F07900123E77
:10527000DF7A107B009010BBE0F9123DD1EE642084
:10528000802FEE5410602E901224E0F912416790A6
:1052900011A7E0640170179082EB1226C77A007B99
:1052A000089003D0E0F9123EFD74041228BAEE64AF
:1052B00010FAEF8031EE54086006EE6408FA80328E
:1052C000EF54016005EF6401801CEE5404600A7A1B
:1052D0000279FF124359122B92EF5410600B1241C6
:1052E00001EEFAEF6410FB8009EEFAEFFBA90A1257
:1052F0003FBD7F060225FF74F01223A2EAFEEBFFFA
:10530000EE544070030253909010C012660B607B05
:105310001266B9A3A312588C1242F31251E2F50897
:10532000A3E0F509125889123E499010C01264D5C5
:10533000E50845096055850882850983A3A3A3A3D1
:10534000E0F50CA3E0F50D8014850882850983A3A0
:10535000A3A3A3C3E0950CF0A3E0950DF08508820C
:10536000850983E0F508A3E0F509E508450970D94A
:10537000E4F50EF50F780C1228D57A407B009010DA
:10538000BBE0F9123EFD74041228BAEE6440800BB3
:10539000EE5480600A123FD5EE6480FAEF8026EF6B
:1053A0005402600A124005EEFAEF64028017EF54CF
:1053B000086005EF6408800DEF5404600B12433B56
:1053C000EEFAEF6404FB80047A007B007F0802257C
:1053D000FF74F61223A274FE12296912546C901203
:1053E00024E07005790012434D1241079010C5E08A
:1053F000900370F0123FC9123D8985188285198388
:10540000EA547FF8E028F8A3E03400F9E82464FEC9
:10541000E439FF7901123FB1851882851983E0F4E0
:105420007003A3E0F460389012247401F012401D60
:10543000AC18AD197A247B1212402F901224E07020
:10544000177A0279FF1243597A107B009010BBE063
:10545000F9123DD179028011EEFAEFFB1240B390C0
:1054600010C5E0F91230BD7901025F03851882850D
:105470001983EAF0A3EBF022C082C08390125FE0B0
:10548000700E9010BE7402F09010C3E054F880309B
:105490006401700B9010C3E054F8F04401800EE0FA
:1054A0006402700A9010C3E054F8F04402F07A05E8
:1054B0007B031231FBE99010BE7003E48002740399
:1054C000F0025DC7C082C0839010BCE070129012E1
:1054D00024E0640870037409F07900123EDF802E26
:1054E0001230B1E979002410500109C394FFE99406
:1054F00000A2D265D03350101230B1E9F8741029EF
:10550000F91230B77A0180089012247401F07A10F1
:105510007B009010BBE0F9123DD1025DC7C082C094
:1055200083901224E06405703612401712556212FF
:105530003DD1125B7860097B007A007900122D4B17
:105540001240051240C59010C5E0A2E3500890112A
:10555000ABE06401700990122B12588C1230630278
:105560005DC79012247406F07A107B009010BBE0A7
:10557000F92274F61223A274EF1229697C117D00BE
:105580007900AA18AB19123D71A818A919880889C1
:105590000978081228DD7C117D007A817B00123E9B
:1055A000BB74021228BAE9703378081228DD750836
:1055B0001175090078081228DD7C007D007A817B56
:1055C00000123ECD74041228BAE970108518828545
:1055D0001983E060079010C3E0D2E4F07411025B1D
:1055E000F4C082C083123771E99010C2F064017078
:1055F00005901224E4F0025DC774F61223A274FD34
:105600001229698A828B83E014603B14700302586C
:105610003114700302584324E9600B2447600D24C1
:10562000D6600F02587812428102587B123FED0279
:10563000587B9010F112660B700302587B1266B90A
:1056400012251A02587B901224E06402600302586B
:105650007B90125FE064016008E06402600302581E
:105660007B1240598A088B09AE08AF09EE4F7003D0
:10567000025818901222E0C3940350030258189065
:1056800010BEE0705A9012247403126304E0F91201
:1056900040BF8E828F83A3A3A3A3A3A3A3A3A3A38B
:1056A000E0F50878081228E18E828F83A3A3A3A3D4
:1056B000A3A3A31226CB9010C5E0F5087808122802
:1056C000E18E828F83A3A3E0F98E828F83E0FCA317
:1056D000E0125880122D4574041228BA0257AF64A4
:1056E0000360030257C09012247404F0900376E024
:1056F00064FE7003A3E0F470657401122923880826
:10570000890978081228DD750802750900780812E1
:1057100028DD7C007D007A497B00123ECD740412A6
:1057200028BAE970257401122B88E064FE7003A387
:10573000E0F460167401122B881260B290037612A6
:105740006447900370E0C2E7800A123D89900376B7
:10575000EAF0A3EBF07A767B037953124377900358
:1057600083E064FE7003A3E0F470121260AE900355
:10577000831264477A837B037950124377851882BA
:105780008519837401125EA7795212437712400B78
:10579000E964018E828F83A3A3700BE0F97A957B75
:1057A00010122D338009E0F97A957B10122D39E91A
:1057B000600E123D89EA547F2464FA7B001240B3E4
:1057C0009010C5E0A2E3503390125FE060156401D1
:1057D0006011E06402600302587B9011ABE060034B
:1057E00002587B7A007B001230637A007B00123013
:1057F000697A007B0012306F02587B9010BEE07017
:105800007A9012311260B290122B126447901237C4
:1058100012588C1230638063901223E0605D901206
:1058200022E004F0123D89EA2464FAE43400FB80AB
:105830004290125FE064016005E06402703D123F37
:10584000FF803890125FE064016005E06402702B15
:105850009010BFE4F09010BE04F0901094F07C978C
:105860007D037A957B10123FA590123F7402F07A67
:10587000007B001240B38003123FF97403025BF413
:10588000FDEE240BFAE43FFB229010C0E0FAA3E007
:10589000FB2274F41223A274EB122969EAFEEBFFD7
:1058A000126824F509780812256D020021002200F3
:1058B000FE5800800180BC58000010591241CD8A6A
:1058C000088B09EA450960488A828B83E0700FEAF9
:1058D0002403FCE43509FDA312588C12419D126784
:1058E000487004A3E06480700CE5082403FAE435F2
:1058F00009FB1240FBAA08AB09123E498012AC1802
:10590000AD191241C7AC18AD19EEFAEFFB12419771
:105910007415026C1DC082C0837A017B809010BB1D
:10592000E0F912426F7A007B809010BBE0F91242DE
:105930006F7A217B009010BBE0F912426F7A227BD4
:10594000009010BBE0F912426F025DC7C082C083B5
:105950008A828B83E024FC600A24FE601824FE60A7
:1059600021802F90125FE064016005E064027022E4
:105970001242FF801D90125FE06401701512430512
:10598000801090125FE064016005E0640270031211
:10599000430B025DC774F61223A274FE12296990AC
:1059A0001224E064036015E0640A6003025A9690D2
:1059B00010C3E0540764016003025A9E9010BCE0DB
:1059C000704C7A107B009010BBE0F9123DD1124070
:1059D0000BE97003025AB6901224E0640A700D12AB
:1059E0005B7860109003857408F08008E0640370B1
:1059F000031240C59012247406F0125B7870030203
:105A00005B757B007A007900122D4B025B7590105C
:105A1000BEE0640170369010BFE004F0C394034010
:105A20002B900383E0F47003A3E0F4600D900383F4
:105A3000E064FE7003A3E0F470069010BEE4800BF7
:105A40009010BE7403F09010947401F01230458AE7
:105A5000088B0974FE6508700474FF6509700D9069
:105A60000376E064FE7003A3E0F4601B8518828572
:105A7000198374FEF0A304F090037614F0A30412CB
:105A80005EA77953124377123183122D1B90122295
:105A90007401F0025B4EE064046003025B5E9010F0
:105AA000BCE0705E12400BE9701C7A107B00901015
:105AB000BBE0F9123DD19012247405F07A107B27D7
:105AC000124011025B75125562123DD19010C5E073
:105AD000A2E3501B9011ABE070157A007B001230EE
:105AE000637A007B001230697A007B0012306F12FB
:105AF0005B7860097B007A007900122D4B1240C55B
:105B000080739010BEE06401703E9010BFE004F01E
:105B1000C394045026900383E0F47003A3E0F46080
:105B200022900383E064FE7003A3E0F460159010FC
:105B3000BE7403F09010947401800C90030DE06427
:105B40000170059010BEE4F0123183122D1B123D3E
:105B500089EA547F2464FA7B001240B380179003D3
:105B6000C2E06402700F1240C57A107B009010BB37
:105B7000E0F9123DD1025F039010C3E054076402C4
:105B80002274F61223A274EB122969AA18AB191217
:105B90002BEFA818A9198808890978081228DD753B
:105BA000081575090078081228DD7C007D007A82CE
:105BB0007B00123EC774041228BA90033CE4F0A3A1
:105BC000F07C15FDF9AA18AB19123D717415025B32
:105BD000F47508BD75091078081228DD750801757F
:105BE000090078081228DD7C007D007A857B001290
:105BF0003EC774041228BA7F020225FF74F41223F0
:105C0000A274DB1229697E00A818A91988088909DD
:105C100078081228DD7508158E0978081228DD7CB1
:105C2000007D007A827B00123ECD74041228BAE90E
:105C30006003025CC87C107D007900741512292B6A
:105C4000123D717415122923880889098E0A780873
:105C50001228D97C107D007404122B88A982AA8393
:105C60007B00123D6B74031228BAE9705B9082FFCF
:105C70007808122B247411122B887808122A7F744A
:105C800011122B88122B59900338122B4DA818A9EA
:105C9000198808890978081228DD7508158E097891
:105CA000081228DD7C007D007A827B00123EC774DA
:105CB000041228BA90033CE4F0A3F07E017C15FDA9
:105CC000F9AA18AB19123D71EEF97425026C1D7416
:105CD000F41223A28A088B097A047B009010BBE09F
:105CE000F9123F0FEA4B4C4D701BE4F50AF50B78A7
:105CF000081228D57A047B009010BBE0F9123EFD13
:105D000074041228BA026C20C082C0837A047B001B
:105D10009010BBE0F9123F097A047B009010BBE0C1
:105D2000F9123DD7025DC774F61223A29010BDE4AC
:105D3000F07508BD75091078081228DD7C017D001A
:105D40007A857B00123EBB74021228BAE970207873
:105D5000081228DD75080175090078081228DD7C15
:105D6000007D007A857B00123ECD74041228BA02B1
:105D70005BF774F61223A2E9FE9010BD7401F06E79
:105D800070037403F0025BD174F61223A29010BD6D
:105D9000E4F0025BD1C082C0838C828D83E4F0A3E7
:105DA000F09010BDE0A2E05019A2E1500C8C828D61
:105DB000837488F0A3741380058A828B83E4F012C5
:105DC000402980031228BAD083D08202288774F732
:105DD0001223A21240237A887B13124011026650CC
:105DE00074F11223A274EF1229698A088B09ECFE60
:105DF000EDFF890AEEFAEFFB1242B1EEFAEFFB1269
:105E0000429390053D12660B60367410122B887415
:105E100003F08E0C8F0D750E00780C1228D97C08BB
:105E20007D00740B12292B123D6574031228BA747D
:105E30000812292B90053DE0F8A31266B912251A25
:105E4000AA08AB09122CA3E9640170308518828579
:105E50001983E4F0A3F07402122B881264D5740441
:105E6000122B88EEF0A3EFF07406122B887402F068
:105E70007407122B88E4125EA7124425A90AEEFAD1
:105E8000EFFB1230C97900AA08AB09122E839003E8
:105E900083E0FCA3E0FDAA08AB0912319B74111248
:105EA00028BA7F070225FFF0AA18AB192274F41252
:105EB00023A2122D0F026C2074F41223A2890A8AE5
:105EC000088B09ECFEEDFF740F122B88E0F91240ED
:105ED000BF740E122B88E0F50B780B1228E1740DBD
:105EE000122B881226CB9010C5E0F50B780B1228E8
:105EF000E1A90AAC08AD09EEFAEFFB122D457404D6
:105F0000026C1D7402025BF474F01223A2890B8AE6
:105F10000C8B0D8C088D09AA0D7B00123D8F8A0E0B
:105F20008B0FAE0EAF0FEE4F602EE50D601AE50839
:105F300045096014750A0078081228D9AC0D7D0057
:105F4000123D6574031228BA8E828F83E50CF0EE41
:105F5000FAEFFBA90B123D9B0253CCC082C08374A5
:105F6000FD122969E9851882851983F09010A11224
:105F7000660B60081266B512251A80177402122B80
:105F800088E4F0041229337B027A019010BBE0F917
:105F900012404D79007403025DC474F21223A2759D
:105FA0000900122F798A0A8B0BAE0AAF0B80050508
:105FB000091265FFEE4F70F7750800750A00122F81
:105FC000798A0C8B0DAE0CAF0D750B008023E0644D
:105FD0000270128E828F83A3A3A3A3A3A3E0640104
:105FE0007003750801E50A60030260A7050B1265DE
:105FF000FFE50BC39509400302608B7A957B101275
:1060000031FBE964017013EE240BFCE43FFD7A954B
:106010007B10123F9FE9701D80D290125DE0F470FA
:1060200003A3E0F4600F1260AE90125DE0687003AD
:10603000A3E06970B7E5088E828F83A3A3A37005E0
:10604000E0700680A7A3E060A38E828F83A3A3A342
:10605000A3A3E0F8900373E06870918E828F83A30E
:10606000A3A3A3A3A3E0F8901240E0686039E06422
:10607000016003025FCE8E828F83A3A3A3A3A3A399
:10608000E064026003025FE5025FE2E508600C0580
:106090000AE50AC394025003025FBEE509650B706E
:1060A000067A007B008004EEFAEFFB0252F28E8249
:1060B0008F83E0F8A3E0F92274F21223A28A088BFE
:1060C000099010A312660B60091266B912251A0214
:1060D00062CC9003D11266029003D1E0F50AA3E0EE
:1060E000F50B802D1260AE8A828B83A3A3E06870CB
:1060F00003A3E06970148E828F83A3A3E0F88A82E1
:106100008B83A3A3A3A3E068605F8E0A8F0B126545
:10611000FFEE4F70CF7A167B00123E438A0C8B0D38
:10612000AE0CAF0DEE4F70030262CC7C167D007991
:1061300000123D718E828F83A3A3A3A3A3A3A37494
:10614000FEF0A304126304A3A3A3A3F09003D1124F
:10615000660B70059003D1800BE50A2414F582E4E8
:10616000350BF583EEF0A3EFF0850882850983A354
:10617000A3A3A3A3A3A3A3A31262E1A3A3A3F0E5F4
:10618000082408F8E43509F9888289831262E1124B
:1061900062F8A3A3E08E828F831262F8126B0D1255
:1061A0005472E508240CF582E43509F583E0C0E07B
:1061B000EE2413F582E43FF583D0E0F088828983F2
:1061C000E064016010E508240DFCE43509125880F4
:1061D000123FA5800C7C087D0079FF125881123D8A
:1061E00071850882850983A3A3A3A3A3A3A3A3A363
:1061F000A3E0F890121FE0C39840030262CC850828
:1062000082850983A3A3A3A3A3E06401600990107E
:1062100094E070030262CC9003C2E06402702C8EA2
:10622000828F83A3A3A3A3A3A3A3A3A3E0C3985094
:10623000091262CF94144029805E8E828F83A3A3BB
:10624000A3A3A3A3A3A3A3E068704D8E828F83A30F
:10625000A3A3A3A3A3A3A3A3A3E0F81262CF985080
:1062600037850882850983A3A3A3A3A3A3E060289D
:106270008508828509831264361264408508828508
:106280000983A3A3A3A3A3A3A3A3A3A31262EEF0D2
:106290001262D51262EEA3F0850882850983A3A35A
:1062A000A3A3A3A3A3E0600B8E828F83A3A3A3A3C6
:1062B0007401F0850882850983A3A3A3A3A3A3E0A7
:1062C000600A8E828F83A3A3A37401F00252F2129C
:1062D00062D5E0C322E508240BF582E43509F58395
:1062E000221262E522E08E828F83A3A3A322126290
:1062F000E5A3A3A3A3A3A322A3A3F08508828509F2
:1063000083A3A322F08E828F83A3A3A3A3A3A3229C
:1063100074F71223A2E99010BCF070197A01790485
:106320001237EF7A0079081237EF901224E0700CE0
:106330007406F080077A0479041237EF7A20026637
:106340004674F41223A274FB1229698908E990109B
:10635000BCF060030263DD900370E0A2E1406512CF
:10636000318312318F8A0A8B0BAE0AAF0BEE4F606E
:10637000537C177D007900123D71900379126436C9
:106380001264477C7B7D031266AD123FA5900383A8
:10639000126436A3A3A312644012681A74AAF09080
:1063A00050EEE49379002401F85001097A027B0051
:1063B000122252EE240DF582E43FF583E8F01268D4
:1063C000107401F07A0179041237EF7A007908121B
:1063D00037EF901224E0700C7403F080077A047990
:1063E000041237EF9010A512660B60358518828570
:1063F0001983E508F09003761260B27401122B88BD
:106400001264479003791260B27403122B881264ED
:1064100047AA18AB199010A5E0F8A31266B9122587
:106420001A7C007D007B027A029010BBE0F91240DA
:106430004D7405026C1DE0F8A3E0F98E828F832273
:10644000A3A3A3A3A3A3A3E8F0A3E9F022C082C05F
:106450008374FF122969E9851882851983F09010E9
:10646000AB12660B60061266B512251A7401025D46
:10647000C474F41223A28A088B09900536126602AE
:106480007A107B009010BBE0F9123DD1803B8E82E8
:106490008F83A3A31251E560297A047B00123D8FFC
:1064A000EA4B601E8A828B8374D6F01264D38E828C
:1064B0008F83A3A3E0F8A31266B9A31251E5F912E2
:1064C0003D9B1260AEE8FEE9FFEE4F70C11240C581
:1064D000026C20A3A3E508F0A3E509F02274F012F2
:1064E00023A28A088B098C0C8D0D750E00780C1276
:1064F00028D97C087D007AB17B10123D65740312A7
:1065000028BA9010B9800C8E828F83A3A3A3A3A373
:10651000A3A3A3126602EE4F603C7CB17D10EEFA9D
:10652000EFFB123F9FE960DF7410122B88E0F860E8
:106530000D740168600874026860030265FA7A06E7
:106540007B00123E438A0A8B0BAE0AAF0BEE4F70F4
:106550002679100265FC900589E4F09082EB122602
:10656000C77A007B2090054FE0F9123EFD740412BB
:1065700028BA79010265FC9010C012660B9010C019
:106580007006EEF0A3EF801FE0FAA3E08003E8FAC4
:10659000E9FB8A828B8312660B70F3EEF8EFF98ABF
:1065A000828B83E8F0A3E9F07A407B009010BBE097
:1065B000F9123F0F8A0C8B0D8E828F83E4F0A3F0CB
:1065C0008E828F831264D37458C3950CF87402952D
:1065D0000DF98E828F8312644374586870037402BD
:1065E0006970179083031226C77A407B009010BB16
:1065F000E0F9123EFD74041228BA79000253CC125D
:106600006B03E0FEA3E0FF229010AFE0F8A3E0F9F7
:10661000E8492274F71223A274FB12296912546C00
:106620007402122B88ECF0A3EDF07404122B88E9AD
:10663000F090109F12660B60061266B512251A7450
:10664000051228BA800A7B009010BBE0F9123DD1F8
:106650007F010225FF74F61223A2EAFEEBFF12303F
:106660003F8A088B09AC08AD091266AD123F9FE95D
:10667000640170229010A712660B6011EEFAEFFB16
:106680001266B912251A8B09EA4509701D12675165
:10669000F912403580148E828F83A3A3A3A3A3A3F2
:1066A000A3A3A3A312676012403B025BF7EE240290
:1066B000FAE43FFB22AA18AB19E0F5838882227422
:1066C000F61223A274FE122969EAFEEBFF8E828F76
:1066D00083A3A3A3A3A3A3A3A3A3A3E06401701D07
:1066E000126748703C7401122B88E4F012675185E0
:1066F0001882851983125EA7122D57802412304B01
:106700008A088B09A808A9098E828F83E068700324
:10671000A3E069701512675164016005125B78701F
:1067200009126748F91240358009126756126760EE
:1067300012403B9010A912660B600AEEFAEFFB12B2
:1067400066B912251A025F0312674C22126806E02E
:1067500022126756E022EE240BF582E43FF58322F5
:10676000E0F9EE2402FCE43FFD8E828F83E0FAA381
:10677000E0FB2274F71223A2E9FE900370E0A2E18D
:10678000401874016E70131231837C007D007B020F
:106790007A039010BBE0F912404D026650C082C0EF
:1067A00083122DFF025DC7C082C083123045025D97
:1067B000C702288774F61223A2EAFEEBFF126806CE
:1067C000A3E05480703D126751703812674864131B
:1067D0007002A3E0602D1268244480F50978081245
:1067E00028DDE4F508F50978081228DD126810E0C4
:1067F000FD7C841266AD12681AE0F91242577404E7
:106800001228BA025BF7EE240CF582E43FF58322EE
:10681000EE240EF582E43FF58322EE240FF582E4A8
:106820003FF5832212674CF508A3E02274F412238B
:10683000A2EA4B60218A088B09E4F50AF50B780877
:106840001228D57A017B009010BBE0F9123EFD744E
:10685000041228BA800C7A017B009010BBE0F91278
:106860003DD1026C20C082C0837A007B019010BBB6
:10687000E0F9123F0F025DC774F71223A2E9FE9000
:1068800010C5E0A2E1501B901240E06E6014901021
:10689000C3E054F8F04402F09010C5740CF0F91203
:1068A00030BD02665074F61223A27A007B001245B6
:1068B0002D12303F8A088B09AE081230457508004A
:1068C00078081228E19010C5E0F9EEFCAD091242FB
:1068D0002174011228BA7A007B0012452D025BF761
:1068E00002288774F71223A274FB12296912546CD0
:1068F0007402122B88E9F07403122B88ECF0A3EDDC
:10690000F090109D12660B60061266B512251A02F1
:10691000663FC082C0837A00EA25E0126967E4F02E
:10692000A3F00AEAC3940940EF025DC7C082C083A6
:10693000E9FCC39409500BEC12696212547279009D
:1069400080027902025DC7C082C083E9FAC394095C
:10695000500BEA126962E4F0A3F0F98002790202B6
:106960005DC72912696722F8E433F9749D28F5821E
:10697000741039F5832274F71223A2EAFEEBFF7C30
:10698000217D0079FF123D71EE2420F582E43FF570
:1069900083E4F002665074F71223A2126608703086
:1069A0007A637B00123E439010AF12547212660855
:1069B000601E7E00EE75F021A4F8A9F09010AFE003
:1069C00028FAA3E039FB1240E90EEEC3940340E439
:1069D000026650C082C083126608602B7A00EA7596
:1069E000F021A4F8ABF0EB126C5C7014EA75F021A6
:1069F000A4F8EBF99010AFE028FAA3E039FB800B84
:106A00000AEAC3940340D77A007B00025DC774F1A1
:106A10001223A274FF1229698A0A8B0B126608706E
:106A200003026AFE750800850A0C850B0D750E00C1
:106A3000780C1228D97C087D00E50875F021A4F8AF
:106A4000A9F0126C3EF50CE439A90CFA7B00123D5A
:106A50006B74031228BAE964016003026AF28518B4
:106A600082851983748CF0E50875F021A4FEAFF0DF
:106A70009010AFE02EFEA3E03FFF126B03E0F5099C
:106A800078091228E1EE240BFCE43FFD8E828F830F
:106A9000A3A3A3A3A3A3A3A3A3126B0DA3A3A3A325
:106AA000A3A3A3A3E0F91244FD74011228BAE9706C
:106AB00008851882851983E4F0E508126C44F5090D
:106AC00078091228E17401122923880C890D780CA9
:106AD0001228DD750C21750D80780C1228DD126CE2
:106AE0003050010B1241F174051228BA126C2512B4
:106AF00040E90508E508C394035003026A277401BE
:106B0000025E9FEE2414F582E43FF58322E0FAA3AF
:106B1000E0FB8E828F832274F41223A274F2122976
:106B2000697508001266087003026BF6750900E5C6
:106B30000975F021A4F8AAF0126C5BC39402E50970
:106B400075F021400B126C5914F0750801026BE4CA
:106B5000126C5964016003026BE485188285198305
:106B6000748CF07401122B887404F0E50975F0211F
:106B7000A4F8EAF9126C3EFCE439FD7404122B8887
:106B8000AA82AB83122C49740112292B122C73E9AF
:106B9000640170177402122B88E064FE7003A3E096
:106BA000F47008740112292B122C61E509126C444F
:106BB000F50A780A1228E17401122923880A890B40
:106BC000780A1228DD750A21750B80780A1228DDF3
:106BD000126C3050010B1241F174051228BA126C7C
:106BE000251240E90509E509C394035003026B2F00
:106BF000E508A2E0400E7A007B109010BBE0F9128D
:106C00003F0980179082BF1226C77A007B10901030
:106C1000BBE0F9123EFD74041228BA740E1228BAB1
:106C20007F040225FF9010AFE02EFAA3E03FFB2285
:106C30007901EA2415FCE43BFDEA241FFA22126CD8
:106C40006A240B2275F021A4FEAFF0126C25EA2411
:106C50001EF582E43BF583E022A4F8EAF9126C6A9F
:106C60002420F582E439F583E0229010AFE028F883
:106C7000A3E039F9E82274ED1223A2EAFEEBFF75D6
:106C80000A008E828F83A3A3E07003026D761470D6
:106C900003026D7C147003026D82147003026D8810
:106CA000147003026D8E24FD7003026D9A1470033C
:106CB000026DA6147003026DAC147003026DB21461
:106CC0007003026DB8147003026DBE147003026D80
:106CD000C4147003026DCA147003026DD0147003E3
:106CE000026DD6147003026DDC147003026D9414EF
:106CF0007003026DA0147003026DE224F8700302A9
:106D00006DA6147003026DAC24FD7003026DE824BF
:106D1000FE7003026EF7147003026DEE24F370032D
:106D2000026EFC147003026EFC147003026EFC14FD
:106D30007003026EFC147003026DF4147003026E93
:106D40002A147003026E96147003026EA814700366
:106D5000026EFC24F87003026EFC147003026E6075
:106D6000147003026EC2147003026EF724B3700332
:106D7000026F2A026F68123B3D026F6B123B4302A7
:106D80006F6B123B49026F6B123B4F026F6B123BF2
:106D900055026F6B123B6D026F6B123B67026F6B9C
:106DA000123B73026F6B123B5B026F6B123B610213
:106DB0006F6B123B79026F6B123B7F026F6B123B62
:106DC00085026F6B123B8B026F6B123B91026F6BF4
:106DD000123B97026F6B123B9D026F6B123BA3023B
:106DE0006F6B123BA9026F6B123BBB026F6B123BC6
:106DF000C1026F6B126FA9123D8F8A088B09EA4599
:106E0000097003026F6B8A828B8374E6126FC56010
:106E100013126F7A1228D9126FB6123D65740312DD
:106E200028BA8003126F72026F5A126FA9123D8F37
:106E30008A088B09EA45097003026F6B8A828B838B
:106E400074E7126FC56013126F7A1228D9126FB6E9
:106E5000123D6574031228BA8003126F72026F5AD2
:106E6000126FA9123D8F8A088B09EA450970030247
:106E70006F6B8A828B8374ED126FC56013126F7A09
:106E80001228D9126FB6123D6574031228BA800316
:106E9000126F72026F5A75080378081228E17B009E
:106EA000EEFCEFFD7AE8801075080378081228E1FF
:106EB0007B00EEFCEFFD7AE990054FE0F9123BCD47
:106EC0008061126FA9123D8F8A088B09EA4509700B
:106ED00003026F6B8A828B8374EC126FC56013128E
:106EE0006F7A1228D9126FB6123D6574031228BA50
:106EF0008068126F728063123BC7806F8E828F83AF
:106F0000E0F50878081228E1EE2403FCE43FFD8E4A
:106F1000828F83A3A3E0FB8E828F83A3E0FA7900A4
:106F2000123CE174011228BA8041126FA9123D8F00
:106F30008A088B09EA450960328A828B8374EE12D3
:106F40006FC56013126F7A1228D9126FB6123D65A1
:106F500074031228BA8003126F72AA08AB09900555
:106F60004FE0F9123D9B8003750A02A90A7F0B02CC
:106F700025FF126F9EE4F0A3F022EA2427F50CE42B
:106F80003509F50D126F9EE50CF0A3E50D1278831F
:106F9000A982AA8389108A11751200781022EA2426
:106FA00022F582E43509F583228E828F83E024273F
:106FB000FAE43400FB22E508126FD7E0FCA3E0FD01
:106FC000AA0CAB0D22F08E828F83E0F8EA126FD705
:106FD000E8F0A3E4F0E8222420F582E43509F58303
:106FE00022C082C0838A828B83A3A3A3E06009149A
:106FF000601224FE600E800FC2AFC2AF75C9AB75C0
:10700000C95B80FE122B92027675C082C08374FE2B
:107010001229698518828519837411F07401122B65
:1070200088E412762E7A0102766BC082C0837C914E
:107030007D827B057A027961123B1302767574F6C4
:107040001223A274FF1229698B09127532F50850B8
:107050000205090A0A0AAB0979E2124377E97028A6
:1070600078081228DD75080875090078081228DDEF
:107070007C007D007A017B00123EC774041228BA9E
:10708000E9851882851983F0AC18AD197B01EEFAF9
:107090007961123B137401027625C082C08374F8B3
:1070A000122969AA18AB1979E2124371AC18AD190B
:1070B0007B087A047961123B13740802767274ECCF
:1070C0001223A274FE122969EAFEEBFF750A008EF4
:1070D000828F83A3A3E0F50BEE2403FE50010F8EF5
:1070E000828F83127350FB123EC18A0C8B0DAC0C45
:1070F000AD0D746965087002E5096012746B65086E
:107100007002E5096008746A650845097003750A2C
:1071100002743A65087002E509602F743B650870D7
:1071200002E5096025E50824FFF8E50934FEF9C306
:10713000E894FFE99400401219C3E894FFE9940031
:1071400040087462650845097003750A0274086591
:107150000B8E828F83A3A37006E0FE7F00800BE07E
:10716000FA8E828F83A3A312742EC3EE9CEF9D40F0
:1071700006750A0202720CE50A6003027208ECC38B
:107180009EF510ED9FF511C3E51094F8E5119400FC
:1071900040067510F7751100E5102402F50CFA7B16
:1071A00000123E438A0E8B0FEA450F7003027234C1
:1071B000EA2402F512E4350FF513AC10AD11790095
:1071C0000A0AFB123D7178121228DD78101228DDB0
:1071D000EEFCEFFDAA08AB09123ECD74041228BAEA
:1071E000E9701B850E82850F83E4F0A3E510F0ACF7
:1071F0000EAD0FAB0CAA0B7961123B138003750A1D
:107200000AAA0EAB0F123E49E50A601E90833EACFF
:1072100018AD1974021227E5851882851983E50ACD
:1072200012762EAA0B7961123B1374021228BA7FD0
:107230000C0225FF750A1080D374EE1223A274FF8E
:107240001229698B0D851882851983E4127542F520
:107250000AEA2403F50C5002050DF582850D831210
:1072600073507409650A850C82850D83A3A3701879
:10727000E0FE7F00850C82850D83A3A3A3E0F50EBD
:10728000880FE50C24048026127344E0F9EAFEE43A
:1072900039FF850C82850D83A3A3A3A3127344A396
:1072A000A3E0F9EAF50EE439F50FE50C2406F50C38
:1072B0005002050DAA08AB09123EC1EE250EF8EFEB
:1072C000350FF9C3EA98EB99405AEE4F7015780CD8
:1072D0001228DDAC0EAD0FAA08AB0912435F740291
:1072E0001228BA780C1228DD780E1228DDEEFCEF99
:1072F000FDAA08AB09123EC774041228BAE9701A35
:107300007401650845097025AA0CAB0D79E212439A
:1073100077E98518828519838012851882851983FB
:10732000740A80088518828519837402F0AC18AD40
:10733000197B01AA0A7961123B1374011228BA7FE2
:107340000A0225FFE0FA850C82850D83A3A3A32200
:10735000E0FAA3E0F8E4C8F9EA28F508E439F50909
:107360002274F21223A274FF1229698B09EA240302
:10737000F50850020509F582850983E0FA12742E9A
:10738000850882850983A3A3E0FA8508828509839D
:10739000A3A3A3E0F9EAFCE439FD8508828509830B
:1073A000A3A3A3A3E0F50AE5082405F50850020508
:1073B00009C3E50A9CE49D5045E4F50CF50D780CF5
:1073C0001228DDEEFAEFFB123EBB74021228BAE976
:1073D000851882851983F06409703CE50A60387865
:1073E000081228DD750B00780A1228DD7C007D006C
:1073F000EEFAEFFB123EC774041228BA801978081F
:107400001228DDEEFAEFFB123EBB74021228BAE935
:10741000851882851983F0AC18AD197B017A07793C
:1074200061123B1374011228BA7F060225FFA3E004
:10743000F8E4C8F9EA28FEE439FF2274F71223A21F
:1074400074FF122969EA2403FA50010B8A828B83A4
:10745000A3A3E0FC8A828B83A3127477E439FD8AAC
:10746000828B83E0FEA3E0F9EEFAE439FB123ED30F
:107470001278927A128012A3A3E0F8E4C8F9EC28FB
:1074800022AC18AD197B01EEFA7961123B1374013D
:107490001228BA7F010225FF74F61223A274FE128D
:1074A0002969EA2403FA50010B8A828B83E0FC12DB
:1074B0007478FAE439FB123EC1851882851983EA93
:1074C000F07401122B8812762D7A1302761E74F452
:1074D0001223A274FF122969127532FA50010B8A25
:1074E000828B83E0C394045032A3E0FC8A828B83B6
:1074F000127477F508E439F509E4F50AF50B780814
:107500001228D58A828B83127588123EFD7404126C
:1075100028BAE9851882851983800885188285191B
:10752000837402127899EEFA7961123B13740102A6
:107530007A088518828519837401127542FEEA243F
:107540000322F08A828B83A3A3E02274F71223A282
:1075500074FF1229698518828519837401F01276E7
:1075600036C3940450168A828B83A3A3A312758812
:10757000123F09E98518828519838008851882855C
:1075800019837402F0027481E025E0F8E433F974A1
:107590004328F582748239F583E0FAA3E0FB900971
:1075A000BBE0F92274F61223A274FE122969123D7F
:1075B00053851882851983EAF07401122B8812769C
:1075C0002D7A0C805974F61223A274FE12296912C6
:1075D0007636F9122750010007E475020EF0750F98
:1075E000F67507768A828B83A3A3A3A3E0FA800AA9
:1075F0007A04790E80047A04790F12371D8A088B79
:1076000009A808A909800478007900E8851882850E
:107610001983F07401122B88E912762EEEFA796143
:10762000123B1374021228BA7F020225FFEBF0AC62
:1076300018AD197B02228A828B83A3A3E0FE8A8283
:107640008B83A3A3A3E022C082C08374FF122969A5
:107650008A828B83A3A3E0FA851882851983E412BA
:1076600078997961123B13740180077961123B1399
:1076700074021228BAD083D08202288774F71223AA
:10768000A274FF1229698A828B83A3A3E0FEEA24F5
:1076900003F8E43BF988828983A3AA82AB838882BA
:1076A0008983E06005146006802979E080198A8268
:1076B0008B83E06401600EE0600BAA18AB1979526D
:1076C00012437180177952124377E9851882851920
:1076D0008380088518828519837402F0027481748E
:1076E000F01223A274F8122969EAFEEBFF8E828F52
:1076F00083A3A3E0F508EE2403FE50010F7904FAFA
:10770000EFFB123D7D8A0C8B0D8C0E8D0FEA450D23
:10771000450E450F600302783F8E828F83A3A3A39B
:10772000A3E0C0E07403122B88D0E0127879E0C0A7
:10773000E07402122B88D0E0127879A3E0C0E074E4
:1077400001122B88D0E012788CE014C0E07405128E
:107750002B88D0E012788CA3E014C0E07404122BC4
:1077600088D0E0F0EE2409FAE43FFB123D7774067E
:10777000122B88EAF0A3EBF07403122B88E0C39479
:107780001840030278497402122B88E0C3943C40ED
:10779000030278497401122B88E0C3943C40030231
:1077A00078497405122B88E0C3940C400302784991
:1077B0007404122B88E0C3941F40030278497406B6
:1077C000122B88E02430F8A3E034F8F9C3E8948859
:1077D000E9940050747405122B88E06401705074B1
:1077E00006122B88E0F8A3E0F97A907B0112225A66
:1077F0008B0BEA450B60227406122B88E0F8A3E09D
:10780000F97A647B0012225A8B0BEA450B600E74E6
:1078100006122B88E0540370047A1D80027A1C74CF
:1078200004122B88E0C39A95E0C365D033501A74D4
:107830000112292B123E2B8A0C8B0D8C0E8D0FE51D
:107840000C450D450E450F700A8518828519837405
:10785000028012AA0CAB0DAC0EAD0F123E138518B0
:1078600082851983E4127899AA087961123B13740E
:10787000081228BA7F080225FF12787D2212788329
:10788000A3A322F08E828F83A3A3A32212787DA3C9
:10789000A322E9851882851983F0AC18AD197B0104
:1078A0002274F41223A274F91229697A0B7B001254
:1078B0003E438A088B09AE08AF09EE4F7003027988
:1078C0004F123E198A088B098C0A8D0B78081228F2
:1078D000D5740412292B123E1F74041228BA78089A
:1078E0001228D5EEFAEFFB123DFB74041228BA748D
:1078F00002122B88E08A828B83F07401122B88128B
:107900007966F0851882851983127966A3F074046C
:10791000122B88127954F07403122B88127954A315
:10792000F07405122B8812795EF07405122B88A36F
:1079300012795EA3F0EEFCEFFDEEF8EA2407C3989F
:10794000FB7A117961123B13EEFAEFFB123E497498
:1079500007027A08E0048A828B83A3A3A322127908
:1079600066A3A3A3A322E08A828B83A322C082C042
:107970008374FE1229698A828B83A3A3A3E08518EE
:1079800082851983F0F91239D57401122B88E9F038
:10799000AA18AB1979E01239A574011229337B01B9
:1079A0007A1402766B02288774F71223A274FF12EE
:1079B00029691278927A81794102748B74F41223C6
:1079C000A2127A8D123D8F8A0A8B0BAE0AAF0BEE94
:1079D0004F60338E828F8374E1127A5C50010B12F8
:1079E0007A796013127A701228D9127AF3123D65EF
:1079F00074031228BA8003127AEBEEFAEFFB9005BB
:107A00004FE0F9123D9B80031228BA7F040225FF44
:107A100074F41223A2127A8D123D8F8A0A8B0BAE58
:107A20000AAF0BEE4F60338E828F8374EA127A5C5A
:107A300050010B127A796013127A701228D9127AD7
:107A4000F3123D6574031228BA8003127AEBEEFA42
:107A5000EFFB90054FE0F9123D9B80AFF0EE242044
:107A6000F8E43FF9850882850983E07B002403223E
:107A7000127B78750A0078082288828983F0A3EB4C
:107A8000F088828983E0F8A3E0F9E849228A088B2C
:107A9000098A828B83E0242AFAE43400FB2274F4FE
:107AA0001223A2127A8D123D8F8A0A8B0BAE0AAF77
:107AB0000BEE4F60338E828F8374E3127A5C500139
:107AC0000B127A796013127A701228D9127AF31293
:107AD0003D6574031228BA8003127AEBEEFAEFFBCD
