:020000040000FA
:10000000020AA2022003FFFFFFFFFF02200BFFFFF7
:10001000FFFFFF022013FFFFFFFFFF02201BFFFF78
:10002000FFFFFF022023FFFFFFFFFF02202BFFFF48
:10003000FFFFFF022033FFFFFFFFFF02203BFFFF18
:10004000FFFFFF022043FFFFFFFFFF02204BFFFFE8
:10005000FFFFFF022053FFFFFFFFFF02205BFFFFB8
:10006000FFFFFF022063FFFFFFFFFF02206BFFFF88
:10007000FFFFFF022073FFFFFFFFFF02207BFFFF58
:10008000FFFFFF022083FFFFFFFFFF02208B902076
:1000900000000100000000C80300FFFFFFFF000098
:1000A000040074F71208F074FF120A407E008033D7
:1000B000900384E0F8851482851583E068700D90C4
:1000C0000382E0644D7005120335E9FE900385E478
:1000D000F0900387F0851482851583E0F8900384FF
:1000E000E068F07C017D00AA14AB1512050E8B09A7
:1000F000EA450970030201B1851482851583E0C0C9
:10010000E0900387E0FA900385E0F8EA28F8E43409
:1001100000F9740228F582740339F583D0E0F09079
:100120000387E0601414602314604114605114606C
:10013000671470030200B0809C851482851583E0EB
:1001400064FE709190038774018089900384E4F0C9
:10015000851482851583E0900386F0C39480900314
:10016000874004E40200D474020200D4851482851E
:100170001583E0900382F090038774030200D48516
:100180001482851583E0900383F0900386E0601964
:1001900090038774040200D4900385E004F0F89083
:1001A0000386E06860030200D590038774050200AF
:1001B000D4EEF97401120A0C7F0202095674ED1292
:1001C00008F074FB120A40750804750900780812DB
:1001D0000A917402120AD77A907B0079041207EF11
:1001E0007402120A0C851482851583E0F47003A34F
:1001F000E0F4600F851482851583E0F8A3E0F9E848
:100200004970030203297402120ACDE0687003A347
:10021000E069700302030375080075100075112072
:10022000751200751300800A9005957810120A5611
:100230006061750A01750B00780A120A9174061242
:100240000AD785100A85110BAA0AE50B5407FB8A09
:100250000C85110D85120E85130F740B780C120A84
:1002600027A90C1207EF7402120A0C7404120ACDAB
:10027000E0F9AA08AB091204DC8A088B09900599F9
:100280007810120A7E85100C85110D85120E8513CB
:100290000F800C750C94750D20750E00750F008580
:1002A0000C10850D11850E12850F1390059D781089
:1002B0001209D24003020228E4F91204DCE4F91224
:1002C00004DC7402120ACDEAF0A3EBF075080175A4
:1002D00009007808120A917402120AD77A247B085E
:1002E0001208737402120A0C7508047808120A9135
:1002F0007402120AD77A907B0079041207EF740215
:10030000120A0C1204CE120ACDE0687003A3E06951
:100310007017851482851583E0F47003A3E0F46000
:1003200008E84960047901800279007405120A0C1A
:100330007F0C02095674F31208F074FC120A409004
:100340000306E0FAA3E0F8E4C8F9EA28FEE9340875
:10035000FF750A017508007509008E0C8F0D740970
:10036000780C120AB1E50CF9EEF50CEF5401F50D1D
:10037000900383E014600914602C14606902047314
:10038000EA450D70031208D9750C10750D00780C34
:10039000120A917C087D03EEFAEFFB1208737402D7
:1003A000120A0C020473E9C394794006750801022D
:1003B0000473750A40750B00780A120A917C097D56
:1003C000037402780C120A6BAA0CAB0D1207EF74BF
:1003D00002120A0C900307E0A3F0900306E0A3F0DA
:1003E000750A43020473750C04750D00780C120A2B
:1003F000917402120AD77A907B0079041207EF7485
:1004000002120A0C7402120ACDE0F8A3E0F9851476
:1004100082851583E0687003A3E069603F1204CE13
:10042000120ACDE8F0A3E9F0750C01780C120A91DC
:100430007402120AD77A247B081208737402120A13
:100440000C750C04780C120A917402120AD77A9077
:100450007B0079041207EF7402120A0C1204CE1208
:100460000ACDE0687003A3E0697005750901800397
:10047000750807900305E0D2E7F0E508A3F0E50A68
:10048000900303F0744D650AF87404250AFC79039F
:100490008005E0C868F809E9FA3395E0FB74022AA0
:1004A000F58274033BF583E9C39CA2D265D0334047
:1004B000E1E8F074012AFC3395E0FD7A027B031237
:1004C000055AA9097404120A0C7F060209568514FC
:1004D00082851583E0F8A3E0F97402227808EB54D2
:1004E000806004D2F08002C2F0EA25E0FAEB33FB30
:1004F000E9A2E7500474014AFAA2F0500874216A94
:10050000FA74106BFBE9C333F918E870D12274F860
:100510001208F078007900802774902EF582E43478
:1005200003F583E08A828B83F090048EE004120549
:10053000DCC394FE400590048EE4F008E8700109E5
:1005400090048EE0FEA3E06E6007C3E89CE99D4046
:10055000C8E8FAE9FB7F0102095674F71208F09027
:100560000590E0F509A3E0F508F8E509C398F895CA
:10057000E0F9E508C39509E8500B12077670117889
:10058000007900801B24FD500109C39CE99D50EFB8
:100590007A007B008041E004F0D2E908E8700109AC
:1005A000C3E89CE99D502C8A828B83E0C0E09005D3
:1005B00091E0FE74922EF582E43404F583D0E012CB
:1005C00005DC900592E4F0900591E0C394FD40C6EF
:1005D000E480C5E8FAE9FB7F02020956F08A828BC3
:1005E00083A3AA82AB8322C082C0838025E5C1C2D7
:1005F0008BC0E090048FE0F8749028F582E4340317
:10060000F583D0E0F090048FE004F0C394FE400244
:10061000E4F0A28B40D7A2E95028C2E9900590E00F
:10062000F8A3E06860F0749228F582E43404F5835E
:10063000E0F5C1900590E004F0C394FE40D8E4F0EA
:1006400080D4D083D0822274FF120A40794A1207E4
:10065000D953BEFBE59DA2E650FA0078F879010077
:10066000E812077670F975C600E59E70FC43BE047B
:100670009062707408F01207B9C29443FE10438F61
:10068000011207801201BDE9700302070FE59D54B6
:1006900018641070031207C4750C00750D00750EF8
:1006A00008750F008004C291D2901205E77C017D8D
:1006B00000AA14AB1512050E8B09EA4509601C85CA
:1006C0001482851583E064106041E064EF700C755E
:1006D0000C00750D00750E00750F00850C08850D5A
:1006E00009850E0A850F0B9005A1780C120A7EE58C
:1006F000084509450A450B70031207C4850D09E535
:1007000009542070A1C290D291809FC290C2917969
:100710004E1207D9750C00750D00750E00750F008F
:100720008028D290D291750C00750D00750E007561
:100730000F001205E7900599780C120A7E9005A526
:10074000780C1209D250EB1207C41205E71200A26E
:10075000E960061201BDE970C9850D099005997817
:100760000C120A7EE509544060E0A2905004C29049
:1007700080D8D29080D424FF18E934FFF9E84922C8
:10078000C082C0837403F5D575D48853FF3F85FFBD
:10079000FF53F1FE43F30C53F2F375868075C4806A
:1007A000900593E4F0A3F075C2D875C50B75C4022B
:1007B0004386401207B9020642C29043FE01C2912D
:1007C00043FE0222D290D291C290C291022000C276
:1007D000AF75C9AB75C95B80FE781075B60FE5B40F
:1007E000A2E750FAE5BBC39940F118E870ED227416
:1007F000F61208F0890A740F550AF5087509007495
:100800000B7808120A6BEA2400F8EB3480F9E8242C
:1008100000E93509F985C709A2AFE433F508C2AF8D
:10082000E50AC4540FFAE5C754F84AF5C7740A122A
:100830000ACDE0FAA3E0FB801C88828983E08C82E9
:100840008D83F088828983A3A882A9838C828D837B
:10085000A3AC82AD83EAFEEBFFEE24FF1AEF34FF78
:10086000FBEE4F70D48509C7E508A2E092AF7F0385
:1008700002095674F71208F0ED900388F0ECA3F02B
:10088000A37462F0A37473F0A3E0541FF074091210
:100890000ACDE0F508A3E0F509E508333354FC90F0
:1008A000038DF074067808120AB1E50890038CF005
:1008B00090038E7412F0A37442F075D1FE75D601C8
:1008C000EA906271F0EBA3F0906270E0D2E1F0E0A8
:1008D000A2E740FB7F02020956C082C083E9C3330E
:1008E000906272F0906270E0D2E0F0D083D0822209
:1008F0002514C582C0E0E51534FFC583C0E0E514CA
:10090000C3958224F910AF08858315858214800869
:10091000858315858214D2AFCEF0A3E520F0A378AD
:1009200008E608F0A3DEFAEFF0A3E58124FBF8E681
:1009300008F0A3E608F0A30808E608F0A3E608F02C
:10094000A315811581D0E0FED0E0F815811581E86E
:10095000C0E0EEC0E022851583851482E0A3FEE0AE
:10096000A3F5207808E0A3F608DFFAE0A3FFE0A3F0
:10097000C0E0E0A3C0E0E0A3C0E0E0A3C0E010AFAF
:10098000088582148583158008858214858315D295
:10099000AFD083D08222E49003027894790380025E
:1009A000F0A3D8FCD9FA7A957B0590008E7815795A
:1009B000018015E493A3AD82AE838A828B83F0A37A
:1009C000AA82AB838D828E83D8E9D9E712064712BB
:1009D0000ADFC008C3E096F50808A3E096420808BD
:1009E000A3E096420808A3E09645087001D3D0081A
:1009F000222514F58210AF08F514400C1515800857
:100A0000F51440021515D2AF8515832200C0D025FC
:100A10001410AF08F514500C05158008F514500299
:100A20000515D2AFD0D0226016080808C6C313C679
:100A300018C613C618C613C618C613C6D5E0EA22D0
:100A4000251410AF08F514400C15158008F5144056
:100A5000021515D2AF22E066701008A3E066700A96
:100A600008A3E066700408A3E06622700422600D0B
:100A700018C6C333C608C633C6D5E0F41822E0262C
:100A8000F608A3E036F608A3E036F608A3E036F64B
:100A90002274028000C0E0F4041209F1D0E0120ACE
:100AA000C02275D00075813F7514027515030209C7
:100AB00096600C08C6C313C618C613C6D5E0F42248
:100AC000CAC0E0E6F0A308DAFAD0E0FA222514F56D
:100AD00082E43515F583222514FCE43515FD22004A
:100AE000000080FBFFFFFFFFFFFFFFFFFFFFFFFF97
:100AF000FFFFFFFFFFFFFFFFFFFFFFFFFFFFFFFF06
:100B0000FFFFFFFFFFFFFFFFFFFFFFFFFFFFFFFFF5
:100B1000FFFFFFFFFFFFFFFFFFFFFFFFFFFFFFFFE5
:100B2000FFFFFFFFFFFFFFFFFFFFFFFFFFFFFFFFD5
:0400000500000AA24B
:00000001FF
