:020000040000FA
:10000000020AE5022003FFFFFFFFFF02200BFFFFB4
:10001000FFFFFF022013FFFFFFFFFF02201BFFFF78
:10002000FFFFFF022023FFFFFFFFFF02202BFFFF48
:10003000FFFFFF022033FFFFFFFFFF02203BFFFF18
:10004000FFFFFF022043FFFFFFFFFF02204BFFFFE8
:10005000FFFFFF022053FFFFFFFFFF02205BFFFFB8
:10006000FFFFFF022063FFFFFFFFFF02206BFFFF88
:10007000FFFFFF022073FFFFFFFFFF02207BFFFF58
:10008000FFFFFF022083FFFFFFFFFF02208B902076
:1000900000000100000000C80300FFFFFFFF000098
:1000A000040074F712093374FF120A837E00803350
:1000B000900384E0F8851482851583E068700D90C4
:1000C0000382E0644D7005120335E9FE900385E478
:1000D000F0900387F0851482851583E0F8900384FF
:1000E000E068F07C017D00AA14AB151205438B0972
:1000F000EA450970030201B1851482851583E0C0C9
:10010000E0900387E0FA900385E0F8EA28F8E43409
:1001100000F9740228F582740339F583D0E0F09079
:100120000387E0601414602314604114605114606C
:10013000671470030200B0809C851482851583E0EB
:1001400064FE709190038774018089900384E4F0C9
:10015000851482851583E0900386F0C39480900314
:10016000874004E40200D474020200D4851482851E
:100170001583E0900382F090038774030200D48516
:100180001482851583E0900383F0900386E0601964
:1001900090038774040200D4900385E004F0F89083
:1001A0000386E06860030200D590038774050200AF
:1001B000D4EEF97401120A4F7F0202099974ED120C
:1001C000093374FB120A8375080475090078081254
:1001D0000AD47402120B1A7A907B00790412083246
:1001E0007402120A4F851482851583E0F47003A30C
:1001F000E0F4600F851482851583E0F8A3E0F9E848
:100200004970030203297402120B10E0687003A303
:10021000E069700302030375080075100075112072
:10022000751200751300800A9005957810120A99CE
:100230006061750A01750B00780A120AD4740612FF
:100240000B1A85100A85110BAA0AE50B5407FB8AC5
:100250000C85110D85120E85130F740B780C120A84
:100260006AA90C1208327402120A4F7404120B109D
:10027000E0F9AA08AB091205058A088B09900599CF
:100280007810120AC185100C85110D85120E851388
:100290000F800C750C94750D20750E00750F008580
:1002A0000C10850D11850E12850F1390059D781089
:1002B000120A15400302022879001205057900127E
:1002C00005057402120B10EAF0A3EBF07508017536
:1002D00009007808120AD47402120B1A7A247B08D7
:1002E0001208B67402120A4F7508047808120AD46C
:1002F0007402120B1A7A907B00790412083274028D
:10030000120A4F1204F7120B10E0687003A3E069A1
:100310007017851482851583E0F47003A3E0F46000
:1003200008E84960047901800279007405120A4FD7
:100330007F0C02099974EF12093374FC120A83903E
:100340000306E0FAA3E0F8E4C8F9EA28E439FBEA96
:10035000FEEB3408FF750A01750900750800EEF51B
:1003600010EF5401F5118E0E8F0F7409780E120ADA
:10037000F4850E0C900383E014600914603414605B
:1003800076020497C3EB94F85031EA45117005A941
:100390000C12091C750C10750D00780C120AD47C17
:1003A000087D03EEFAEFFB1208B67402120A4F0240
:1003B0000497C3E50C947995E040067509010204A1
:1003C00097750A40750B00780A120AD47C097D03E0
:1003D00074027810120AAEAA10AB11A90C120832DE
:1003E0007402120A4F900307E0A3F0900306E0A303
:1003F000F0750A43020497750C04750D00780C1211
:100400000AD47402120B1A7A907B00790412083213
:100410007402120A4F7402120B10E0F8A3E0F9857F
:100420001482851583E0687003A3E069603F1204BD
:10043000F7120B10E8F0A3E9F0750C01780C120A22
:10044000D47402120B1A7A247B081208B6740212B2
:100450000A4F750C04780C120AD47402120B1A7A23
:10046000907B0079041208327402120A4F1204F7CA
:10047000120B10E0687003A3E06970188514828580
:100480001583E0F47003A3E0F46009E849600575A2
:1004900008018003750907900305E0D2E7F0E5093C
:1004A000A3F0E50A900303F0744D650AFC7404257B
:1004B0000AFE7D038005E0CC6CFC0DEDFA3395E07F
:1004C000FB74022AF58274033BF583EEF8C3EA98C5
:1004D000EB9400A2D265D03340DCECF074012AFC2E
:1004E0003395E0FD7A027B0312058FA9087404128C
:1004F0000A4F7F0A020999851482851583E0F8A3C3
:10050000E0F9740222C008C0097C088A088B0974CB
:100510000F7808120AF4E508F8EA25E0FAEB33FB55
:10052000E9A2E7500474014AFAE8A2E050087421F5
:100530006AFA74106BFBE9C333F91CEC70CDD00977
:10054000D0082274F812093378007900802774905B
:100550002EF582E43403F583E08A828B83F09004E5
:100560008EE004120611C394FE400590048EE4F060
:1005700008E870010990048EE0FEA3E06E6007C3F6
:10058000E89CE99D40C8E8FAE9FB7F0102099974FB
:10059000F7120933900590E0F509A3E0F508F8E5B6
:1005A00009C398F895E0F9E508C39509E8500B12DE
:1005B00007BD701178007900801B24FD500109C32C
:1005C0009CE99D50EF7A007B008041E004F0D2E985
:1005D00008E8700109C3E89CE99D502C8A828B834E
:1005E000E0C0E0900591E0FE74922EF582E43404C0
:1005F000F583D0E0120611900592E4F0900591E0A9
:10060000C394FD40C6E480C5E8FAE9FB7F02020915
:1006100099F08A828B83A3AA82AB8322C082C08393
:100620008025E5C1C28BC0E090048FE0F87490286B
:10063000F582E43403F583D0E0F090048FE004F019
:10064000C394FE4002E4F0A28B40D7A2E95028C236
:10065000E9900590E0F8A3E06860F0749228F582D4
:10066000E43404F583E0F5C1900590E004F0C39410
:10067000FE40D8E4F080D4D083D0822274FF120AE6
:1006800083794A12081C53BEFBE59DA2E650FA008E
:1006900078F8790100E81207BD70F975C600E59E8B
:1006A00070FC43BE049062707408F053F3FE43FD87
:1006B0000153F4FC43FE0143FE0243FD80438F04DB
:1006C0001207C71201BDE97003020756E59D5418D1
:1006D00064107003120807750C00750D50750E023A
:1006E000750F008004D291C29012061C7C017D001F
:1006F000AA14AB151205438B09EA4509601C851441
:1007000082851583E064106049E064EF700C750C1D
:1007100000750D00750E00750F00A2814034A2A077
:10072000401E850C08850D09850E0A850F0B900566
:10073000A1780C120AC1E5084509450A450B70036A
:10074000120807850D09E50954207099D290C291CD
:100750008097D290D291794E12081C750C00750DBD
:1007600000750E00750F008028C290C291750C00B4
:10077000750D00750E00750F0012061C9005997816
:100780000C120AC19005A5780C120A1550EB12083C
:100790000712061C1200A2E960061201BDE970C929
:1007A000850D09900599780C120AC1E5095440603D
:1007B000E0A2905004C29080D8D29080D424FF1838
:1007C000E934FFF9E84922C082C0837403F5D57586
:1007D000D48853FF3F85FFFF53F1FE43F30C53F2E0
:1007E000F375868075C480900593E4F0A3F075C21C
:1007F000D875C50B75C402438640D29043FE01D222
:100800009143FE02020677C290C291D290D2910229
:100810002000C2AF75C9AB75C95B80FE781075B694
:100820000FE5B4A2E750FAE5BBC39940F118E870B0
:10083000ED2274F6120933890A740F550AF508750A
:100840000900740B7808120AAEEA2400F8EB348031
:10085000F9E82400E93509F985C709A2AFE433F5C1
:1008600008C2AFE50AC4540FFAE5C754F84AF5C701
:10087000740A120B10E0FAA3E0FB801C88828983C3
:10088000E08C828D83F088828983A3A882A9838CDF
:10089000828D83A3AC82AD83EAFEEBFFEE24FF1AC8
:1008A000EF34FFFBEE4F70D48509C7E508A2E09254
:1008B000AF7F0302099974F7120933ED900388F0B2
:1008C000ECA3F0A37462F0A37473F0A3E0541FF0E0
:1008D0007409120B10E0F508A3E0F509E5083333BD
:1008E00054FC90038DF074067808120AF4E5089021
:1008F000038CF090038E7412F0A37442F075D1FE55
:1009000075D601EA906271F0EBA3F0906270E0D2CC
:10091000E1F0E0A2E740FB7F02020999C082C083B8
:10092000E9C333906272F0906270E0D2E0F0D0835D
:10093000D082222514C582C0E0E51534FFC583C0EE
:10094000E0E514C3958224F910AF088583158582EC
:10095000148008858315858214D2AFCEF0A3E520DC
:10096000F0A37808E608F0A3DEFAEFF0A3E581240F
:10097000FBF8E608F0A3E608F0A30808E608F0A3F1
:10098000E608F0A315811581D0E0FED0E0F81581CE
:100990001581E8C0E0EEC0E022851583851482E071
:1009A000A3FEE0A3F5207808E0A3F608DFFAE0A3B1
:1009B000FFE0A3C0E0E0A3C0E0E0A3C0E0E0A3C08C
:1009C000E010AF0885821485831580088582148520
:1009D0008315D2AFD083D08222E490030278947939
:1009E000038002F0A3D8FCD9FA7A957B0590008E9B
:1009F000781579018015E493A3AD82AE838A828B4A
:100A000083F0A3AA82AB838D828E83D8E9D9E712C3
:100A1000067C120B22C008C3E096F50808A3E096F6
:100A2000420808A3E096420808A3E0964508700132
:100A3000D3D008222514F58210AF08F514400C1508
:100A4000158008F51440021515D2AF8515832200D4
:100A5000C0D0251410AF08F514500C05158008F50A
:100A60001450020515D2AFD0D0226016080808C66F
:100A7000C313C618C613C618C613C618C613C6D5E0
:100A8000E0EA22251410AF08F514400C1515800873
:100A9000F51440021515D2AF22E066701008A3E0ED
:100AA00066700A08A3E066700408A3E0662270047A
:100AB00022600D18C6C333C608C633C6D5E0F41885
:100AC00022E026F608A3E036F608A3E036F608A3EF
:100AD000E036F62274028000C0E0F404120A34D03A
:100AE000E0120B032275D00075813F751402751555
:100AF000030209D9600C08C6C313C618C613C6D5AD
:100B0000E0F422CAC0E0E6F0A308DAFAD0E0FA2264
:100B10002514F582E43515F583222514FCE43515FA
:100B2000FD2200000080FBFFFFFFFFFFFFFFFFFF34
:100B3000FFFFFFFFFFFFFFFFFFFFFFFFFFFFFFFFC5
:100B4000FFFFFFFFFFFFFFFFFFFFFFFFFFFFFFFFB5
:100B5000FFFFFFFFFFFFFFFFFFFFFFFFFFFFFFFFA5
:100B6000FFFFFFFFFFFFFFFFFFFFFFFFFFFFFFFF95
:0400000500000AE508
:00000001FF
